:020000040800F2
:10000000404000207D0200083D540008B146000831
:100010003954000821140008416500080000000060
:100020000000000000000000000000009D0100082A
:10003000C524000800000000F9010008456100081F
:100040004565000841540008416200084D59000808
:10005000392600089B020008C92400083125000841
:100060006525000899250008CD250008ED21000828
:10007000212200085522000889220008BD2200081C
:10008000F122000825230008F50800088D1F00084C
:10009000F11E0008251F0008591F0008012600084E
:1000A0007562000811630008DD620008A96200089B
:1000B00045630008796300089B020008E9460008D0
:1000C000B5460008514700081D470008E9590008D7
:1000D0001D5A0008A5640008D96400080D650008D1
:1000E000FD2400086D5800089B0200089B020008D0
:1000F0009B0200089B0200089B0200089B0200086C
:100100009B020008B55900089B020008515A0008DC
:10011000716400089B020008AD6300089B020008A0
:10012000592300088D230008C1230008F523000887
:100130002924000885210008B92100089B02000835
:10014000C11F00087D4A00088D4A00089B02000874
:100150005D24000891240008854C000879540008AB
:10016000B947000885470008815900089B0200082C
:100170009B020008E16300089B02000800000000E9
:10018000395800086D260008DFF80CD000F044FB59
:1001900000480047CD790008404000202C4B1968EA
:1001A000086800F05AB880F30988BFF36F8F4FF0EA
:1001B000000080F3118870470000000008480068C4
:1001C000006880F308884FF0000080F3148862B65E
:1001D00061B6BFF34F8FBFF36F8F00DF00BF00BF6B
:1001E00008ED00E0DFF80C00016841F470010160E7
:1001F000704700BF88ED00E0EFF30980BFF36F8F19
:10020000134B1A681EF0100F08BF20ED108A20E96A
:10021000F04F106009B44FF0500080F31188BFF325
:100220004F8FBFF36F8F09F0BFF94FF0000080F3DD
:10023000118809BC1968086800F014B81EF0100F86
:1002400008BF00F014B880F30988BFF36F8F7047C0
:100250001C000020EFF30580704730C8B0E8C04FA5
:10026000FFF7A1BF30C8B0E8C04FFFF7E7BFB0EC61
:10027000088AB0EC08CAFFF7E6BF000007488047CD
:100280000748804707480047FEE7FEE7FEE7FEE72E
:10029000FEE7FEE7FEE7FEE7FEE7FEE7F1610008A6
:1002A000D50800088901000840EA01039B0703D034
:1002B00009E008C9121F08C0042AFAD203E011F8A5
:1002C000013B00F8013B521EF9D27047D2B201E067
:1002D00000F8012B491EFBD270470022F6E710B54B
:1002E00013460A4604461946FFF7F0FF204610BDA4
:1002F0002DE9FE4F81EA030404F0004421F000419F
:1003000000944FF0000B23F0004350EA01045ED04C
:1003100052EA03045BD0C3F30A54C1F30A552C44D8
:10032000A4F2F3340194A0FB0254C1F3130141F48D
:100330008011C3F3130343F4801301FB024400FB59
:10034000034E840A970A44EA815447EA8357A4FB80
:10035000076802958D0A05FB07854FEA932C04FB7D
:100360000C542705029D4FEA065847EA1637B5EBAD
:1003700008056EEB070C870E920E47EA811742EADA
:100380008312A7FB0201B6EB0B0164EB00042B0DFB
:1003900043EA0C335E1844EB1C50DA465146E7FB47
:1003A0000201C5F313044FEA0B3343EA14534FEA37
:1003B0000432019C43EA0603A4F10C040294009C5D
:1003C000CDE900B400F08BF803B000F003B80020D2
:1003D0000146F9E730BCBDE8C08FC1F30A5210B541
:1003E000C1F3130140F2FF3341F480119A4201DA64
:1003F000002010BD40F233439A42A2F2334203DCA4
:10040000524200F04DF810BD904010BD30B50B4683
:10041000014600202022012409E021FA02F59D4234
:1004200005D303FA02F5491B04FA02F52844151E08
:10043000A2F10102F1DC30BD2DE9F05F054600209C
:1004400092469B4688460646814640241BE0284645
:1004500041464746224600F023F853465A46C01A02
:10046000914110D311461846224600F0E7F92D1AA3
:1004700067EB01084F4622460120002100F0DEF91B
:1004800017EB00094E41201EA4F10104DFDC4846B1
:1004900031462A46434600F000B830BCBDE8C09F54
:1004A000202A04DB203A21FA02F00021704721FAC9
:1004B00002F3D040C2F12002914008431946704730
:1004C00010B5141E73F1000408DA401C41F100015C
:1004D00092185B411A4301D120F0010010BD2DE9B3
:1004E000F04D92469B4611B1B1FA81F202E0B0FAAA
:1004F00080F22032904600F0A1F904460F4640EA0F
:100500000A0041EA0B0153465A46084313D01146EC
:1005100053EA010019D0C8F140025046FFF7C0FF6E
:1005200005460E4650465946424600F087F90843B4
:1005300005D0012004E020463946BDE8F08D0020BA
:10054000054346EAE0762C4337430A986305E40AFC
:10055000A0EB08000022FD0A44EA47540A3002D505
:1005600000200146E9E7010510196941DDE9084568
:1005700000196941BDE8F04DA2E72DE9FE4F804624
:1005800081EA0300C00F0C46009021F0004123F0E7
:100590000045B8EB0200A94105D2404621469046ED
:1005A0001C460B46024623F00040104347D0270D5F
:1005B000C7F30A00C3F30A510290401A0190402881
:1005C0006BDAC3F3130040F4801B0098924620B10D
:1005D0000023D2EB030A63EB0B0B01985946C0F1E1
:1005E0004002504600F02AF906460D46504659464C
:1005F000019A00F032F910EB08006141002487EA0B
:10060000115284EAE7731A4340D0009A62B3019A08
:10061000012A4FEA075215DC001B61EB02014FF083
:10062000004202EA0752CDE90042001C41F5801168
:1006300032462B46FFF753FF03B000F045B8404663
:100640002146F9E7001B61EB0201001C41F5801314
:1006500000185B412018A2F5001747EB030140EAA0
:10066000D570B6196D4111E06D084FEA360645EABE
:10067000C0754FEA0752001B61EB0201001C41F5F7
:10068000801149084FEA30000019514132462B468B
:1006900003B000F01CB8FFF713BF00980122400020
:1006A0000023D0EB020263EBE073009821464FEA8F
:1006B000E074B8EB000061EB0401E9E783F000436C
:1006C0005BE781F0004158E730BCBDE8C08F30BC2B
:1006D000BDE8C04FFFF7DFBF2DE9F04D81EA03040D
:1006E00004F0004B21F0004514464FF0000A23F0BF
:1006F000004150EA050220D054EA01021DD0C5F3A2
:100700000A570246C5F31303C1F31300C1F30A5697
:1007100040F4801543F48013A7EB0608101BD6465F
:1007200008F2FD3873EB050002D308F1010801E07F
:1007300092185B41B8F1000F03DA00200146BDE8D2
:10074000F08D00204FF48011064684460EE0171B02
:1007500073EB050705D3121B63EB050306434CEA55
:10076000010C49084FEA300092185B4150EA01073A
:10077000EDD152EA030012D082EA040083EA0501B7
:10078000084305D0101BAB4106D20122002306E02E
:1007900000224FF0004302E06FF0010253101AEB09
:1007A00006004CEB085110EB0A0041EB0B01BDE8D1
:1007B000F04DFFF785BEC1F30A52C1F3130140F2B9
:1007C000FF3341F480119A4202DA0020014670475B
:1007D00040F233439A42A2F2334202DC5242FFF724
:1007E0005FBE00F02BB8000030B5041E71F10004AC
:1007F00004DB4FF00044404264EB0101141E73F12E
:10080000000405DB1C464FF00043524263EB040337
:10081000994208BF904230BD064C074D06E0E068A3
:1008200040F0010394E8070098471034AC42F6D337
:10083000FFF7AEFC60AA000880AA0008202A04DBAB
:10084000203A00FA02F1002070479140C2F12003E3
:1008500020FA03F3194390407047202A06DBCB1798
:10086000203A41FA02F043EAE07306E041FA02F36B
:10087000D040C2F12002914008431946704770B53C
:100880008C1810F8015B15F0070301D110F8013B3B
:100890002A1106D110F8012B03E010F8016B01F8C2
:1008A000016B5B1EF9D12B0705D40023521E0DD41A
:1008B00001F8013BFAE710F8013BCB1A921C03E068
:1008C00013F8015B01F8015B521EF9D5A142D8D3A0
:1008D000002070BD064869464FF0CD324FF0AB3373
:1008E000036000E00260001D8842FBD170470000F9
:1008F000403C002010B50A4805F0E8FB09490860B3
:1009000009E008490968486880470648006805F01A
:10091000E3FB04490860034800680028F1D110BDDA
:100920005C370020E400002010B5024802F056FABF
:1009300010BD0000003C002010B5044600BF074871
:100940000068406820F4E05020430449096848608A
:10095000024804F06DF800BF10BD0000003C00200C
:100960002DE9FE4F0446002C01DA604200E02046EB
:1009700005460A20B5FBF0F100FB1156B5FBF0F07F
:100980000A21B0FBF1F201FB12076420B5FBF0F085
:10099000B0FBF1F201FB12084FF47A70B5FBF0F0F6
:1009A000B0FBF1F201FB120942F21070B5FBF0F05E
:1009B000B0FBF1F201FB120AE448B5FBF0F0B0FB2A
:1009C000F1F201FB120BE248B5FBF0F0B0FBF1F2E3
:1009D00001FB12000290DF48B5FBF0F0B0FBF1F232
:1009E00001FB12000190DC48B5FBF0F0B0FBF1F226
:1009F00001FB12000090009820B30021009805F040
:100A0000BBFD0121019805F0B7FD0221029805F018
:100A1000B3FD0321584605F0AFFD0421504605F013
:100A2000ABFD0521484605F0A7FD0621404605F02F
:100A3000A3FD0721384605F09FFD0821304605F04B
:100A40009BFD70E1019858B3002C04DA00211020BE
:100A500005F092FD03E00021122005F08DFD01213B
:100A6000019805F089FD0221029805F085FD03211A
:100A7000584605F081FD0421504605F07DFD052115
:100A8000484605F079FD0621404605F075FD072131
:100A9000384605F071FD0821304605F06DFD42E154
:100AA000029858B30021122005F066FD002C04DAEC
:100AB0000121102005F060FD03E00121122005F066
:100AC0005BFD0221029805F057FD0321584605F011
:100AD00053FD0421504605F04FFD0521484605F021
:100AE0004BFD0621404605F047FD0721384605F03D
:100AF00043FD0821304605F03FFD14E1BBF1000F36
:100B00002BD00021122005F037FD0121122005F025
:100B100033FD002C04DA0221102005F02DFD03E046
:100B20000221122005F028FD0321584605F024FD7E
:100B30000421504605F020FD0521484605F01CFD26
:100B40000621404605F018FD0721384605F014FD42
:100B50000821304605F010FDE5E0BAF1000F2BD07A
:100B60000021122005F008FD0121122005F004FDEE
:100B70000221122005F000FD002C04DA03211020D0
:100B800005F0FAFC03E00321122005F0F5FC042136
:100B9000504605F0F1FC0521484605F0EDFC062124
:100BA000404605F0E9FC0721384605F0E5FC082140
:100BB000304605F0E1FCB6E0B9F1000F2BD0002182
:100BC000122005F0D9FC0121122005F0D5FC0221EC
:100BD000122005F0D1FC0321122005F0CDFC002CE1
:100BE00004DA0421102005F0C7FC03E004211220E0
:100BF00005F0C2FC0521484605F0BEFC0621404632
:100C000005F0BAFC0721384605F0B6FC082130464D
:100C100005F0B2FC87E0B8F1000F2BD000211220C4
:100C200005F0AAFC0121122005F0A6FC02211220E9
:100C300005F0A2FC0321122005F09EFC04211220E5
:100C400005F09AFC002C04DA0521102005F094FC34
:100C500003E00521122005F08FFC0621404605F037
:100C60008BFC0721384605F087FC0821304605F04B
:100C700083FC58E05FB30021122005F07DFC0121C8
:100C8000122005F079FC0221122005F075FC0321E9
:100C9000122005F071FC0421122005F06DFC0521E5
:100CA000122005F069FC002C04DA0621102005F062
:100CB00063FC03E00621122005F05EFC07213846A4
:100CC00005F05AFC0821304605F056FC2BE056B3DF
:100CD0000021122005F050FC0121122005F04CFCEF
:100CE0000221122005F048FC0321122005F044FCEB
:100CF0000421122005F040FC0521122005F03CFCE7
:100D00000621122005F038FC002C04DA07211020FF
:100D100005F032FC03E00721122005F02DFC08212C
:100D2000304605F029FC0121002001F081FD012160
:100D3000084601F07DFD0121022001F079FD01212D
:100D4000032001F075FD00F009B80000A086010045
:100D500040420F008096980000E1F5051EBCBDE8FA
:100D6000E08F000030B52DED048B85B0B0EE408AE9
:100D7000F0EE608A044653EC182BFEA101A805F0A2
:100D8000C9FF9FEDFD0B53EC102B51EC180BFFF737
:100D9000AFFA41EC190BFFF720FB6421B0FBF1F235
:100DA00001FB12052A46F6A103A805F0B3FF9DF842
:100DB00006002E2857D10021122005F0DDFB01216D
:100DC000122005F0D9FB0221122005F0D5FB0321EA
:100DD000122005F0D1FB9DF804002D2804D1042138
:100DE000102005F0C9FB03E00421122005F0C4FB2C
:100DF0009DF805103039C8B2052105F0BDFB9DF8FE
:100E000007103039C8B2062105F0B6FB9DF808106E
:100E10003039C8B2072105F0AFFB9DF80910303911
:100E2000C8B2082105F0A8FB002C1BD09DF80A10C1
:100E30003039C8B2092105F09FFB9DF80B103039FD
:100E4000C8B20A2105F098FB9DF80C103039C8B2E1
:100E50000B2105F091FB9DF80D103039C8B20C2123
:100E600005F08AFB97E19DF807002E285AD1002152
:100E7000122005F081FB0121122005F07DFB0221EB
:100E8000122005F079FB9DF804002D2804D10321E0
:100E9000102005F071FB03E00321122005F06CFB2C
:100EA0009DF805103039C8B2042105F065FB9DF8A6
:100EB00006103039C8B2052105F05EFB9DF8081018
:100EC0003039C8B2062105F057FB9DF809103039BA
:100ED000C8B2072105F050FB9DF80A103039C8B29E
:100EE000082105F049FB002CBCD09DF80B103039CF
:100EF000C8B2092105F040FB9DF80C103039C8B28A
:100F00000A2105F039FB9DF80D103039C8B20B21CC
:100F100005F032FB9DF80E103039C8B20C2105F0F7
:100F20002BFB38E19DF808002E285DD1002112200E
:100F300005F022FB0121122005F01EFB9DF80400A4
:100F40002D2804D10221102005F016FB03E0022118
:100F5000122005F011FB9DF805103039C8B20321AD
:100F600005F00AFB9DF806103039C8B2042105F0DF
:100F700003FB9DF807103039C8B2052105F0FCFAD3
:100F80009DF809103039C8B2062105F0F5FA9DF830
:100F90000A103039C8B2072105F0EEFA9DF80B109F
:100FA0003039C8B2082105F0E7FA002CB9D09DF815
:100FB0000C103039C8B2092105F0DEFA9DF80D1089
:100FC0003039C8B20A2105F0D7FA9DF80E10303931
:100FD000C8B20B2105F0D0FA9DF80F103039C8B215
:100FE0000C2105F0C9FAD6E09DF809002E2860D141
:100FF0000021122005F0C0FA9DF804002D2804D12C
:101000000121102005F0B8FA03E00121122005F0BB
:10101000B3FA9DF805103039C8B2022105F0ACFAD8
:101020009DF806103039C8B2032105F0A5FA9DF8E5
:1010300007103039C8B2042105F09EFA9DF8081057
:101040003039C8B2052105F097FA9DF80A103039F9
:10105000C8B2062105F090FA9DF80B103039C8B2DD
:10106000072105F089FA9DF80C103039C8B2082123
:1010700005F082FA002CB6D09DF80D103039C8B2B8
:10108000092105F079FA9DF80E103039C8B20A210D
:1010900005F072FA9DF80F103039C8B20B2105F037
:1010A0006BFA9DF810103039C8B20C2105F064FAC3
:1010B00071E09DF80A002E286DD19DF804002D28BE
:1010C00004D10021102005F057FA03E0002112207E
:1010D00005F052FA9DF805103039C8B2012105F02B
:1010E0004BFA9DF806103039C8B2022105F044FAD7
:1010F0009DF807103039C8B2032105F03DFA9DF87C
:1011000008103039C8B2042105F036FA9DF80910EC
:101110003039C8B2052105F02FFA9DF80B1030398F
:10112000C8B2062105F028FA9DF80C103039C8B273
:10113000072105F021FA9DF80D103039C8B20821B9
:1011400005F01AFAACB19DF80E103039C8B2092179
:1011500005F012FA9DF80F103039C8B20A2105F0D7
:101160000BFA9DF810103039C8B20B2105F004FAC3
:101170000AE010E02520660000000000D012634164
:1011800025303264000000009DF811103039C8B2DB
:101190000C2105F0F1F90021084601F049FB01217D
:1011A000084601F045FB0021022001F041FB00212F
:1011B000032001F03DFB5CB100210C2001F038FB65
:1011C00000210D2001F034FB00210E2001F030FB46
:1011D00005B0BDEC048B30BD70B504460025BCE005
:1011E00020782D384D2870D2DFE800F045ACAC27D0
:1011F0002A2D303336393C3F42ACACACA9ACACAC58
:10120000484B4E515457736C70ACAC5DAC6366ACDC
:10121000AC5A7660ACACACAC69ACACACACACACAC25
:10122000797C7F828588A39DA0ACAC8EAC9497AC72
:10123000AC8BA691ACACACAC9A000020207084E0E2
:101240000120207081E0022020707EE003202070C9
:101250007BE00420207078E00520207075E00620F7
:10126000207072E0072020706FE0082020706CE092
:101270000920207069E01020207066E00A202070AC
:1012800063E00B20207060E00C2020705DE00D20FA
:1012900020705AE00E20207057E00F20207054E09C
:1012A0001120207051E0132020704EE01420207097
:1012B0004BE01520207048E01620207045E01720F4
:1012C000207042E0182020703FE03BE019202070A1
:1012D0003BE00920207038E00520207035E00A202E
:1012E000207032E00B2020702FE00C2020702CE0CA
:1012F0000D20207029E00E20207026E00F202070A5
:1013000023E01120207020E0132020701DE0142025
:1013100020701AE01520207017E01620207014E0CD
:101320001720207011E0182020700EE01920207086
:101330000BE00920207008E00520207005E01A204D
:10134000207002E01220207000BF00BF14F8010BD3
:10135000E9B205F011F9681CC5B20D2DFFF640AFDA
:1013600070BD000030B58DB0054600221146104614
:1013700004F088FB642006F04FFB0021084604F0CF
:10138000F1FB0121002004F0EDFB642006F044FB9A
:10139000002004F095FB5021002004F01BFC642089
:1013A00006F03AFB00221146104604F0A3FB124A55
:1013B00007CA0AAB07C300220AA9042004F09AFB5B
:1013C000642006F029FB002004F0B2FB03208DF816
:1013D000000038220D210DF11500FEF777FF684659
:1013E00004F014FC642006F017FB06F09BFC044696
:1013F00006F01EFD0DB030BDC0A7000800B589B0D5
:10140000242205496846FEF74FFF6A46002103483B
:1014100006F0A0FC09B000BD9CA7000865130008F9
:1014200000BFFEE710B51248006800F40050F0B1AC
:101430004FF400500E49086000BF0E4804F046FE0D
:101440000D4908600EE0002001F056F904460A48F4
:1014500000684168204688470748006804F03CFE61
:1014600005490860044800680028ECD100BF10BDA1
:1014700014040140EC380020F401002010B512489B
:10148000006800F48060F0B14FF480600E4908609D
:1014900000BF0E4804F01AFE0D4908600EE001205E
:1014A00001F02AF904460A48006841682046884746
:1014B0000748006804F010FE054908600448006809
:1014C0000028ECD100BF10BD14040140F438002006
:1014D000F801002010B51248006800F48060F0B1F7
:1014E0004FF480600E49086000BF0E4804F0EEFD26
:1014F0000D4908600EE0022001F0FEF804460A489B
:1015000000684168204688470748006804F0E4FD09
:1015100005490860044800680028ECD100BF10BDF0
:1015200014040140FC380020FC01002010B51248D2
:10153000006800F48060F0B14FF480600E490860EC
:1015400000BF0E4804F0C2FD0D4908600EE0032004
:1015500001F0D2F804460A480068416820468847EE
:101560000748006804F0B8FD0549086004480068B1
:101570000028ECD100BF10BD140401400439002044
:101580000002002010B51248006800F48060F0B13D
:101590004FF480600E49086000BF0E4804F096FDCD
:1015A0000D4908600EE0042001F0A6F804460A4840
:1015B00000684168204688470748006804F08CFDB1
:1015C00005490860044800680028ECD100BF10BD40
:1015D000140401400C3900200402002010B5124808
:1015E000006800F48060F0B14FF480600E4908603C
:1015F00000BF0E4804F06AFD0D4908600EE00520AA
:1016000001F07AF804460A48006841682046884795
:101610000748006804F060FD054908600448006858
:101620000028ECD100BF10BD140401401439002083
:101630000802002010B51248006800F48060F0B184
:101640004FF480600E49086000BF0E4804F03EFD74
:101650000D4908600EE0062001F04EF804460A48E5
:1016600000684168204688470748006804F034FD58
:1016700005490860044800680028ECD100BF10BD8F
:10168000140401401C3900200C02002010B512483F
:10169000006800F48060F0B14FF480600E4908608B
:1016A00000BF0E4804F012FD0D4908600EE007204F
:1016B00001F022F804460A4800684168204688473D
:1016C0000748006804F008FD054908600448006800
:1016D0000028ECD100BF10BD1404014024390020C3
:1016E0001002002010B51248006800F48060F0B1CC
:1016F0004FF480600E49086000BF0E4804F0E6FC1D
:101700000D4908600EE0082000F0F6FF04460A4884
:1017100000684168204688470748006804F0DCFC00
:1017200005490860044800680028ECD100BF10BDDE
:10173000140401402C3900201402002010B5044686
:10174000012C04D10021084604F07EFA12E0022C9C
:1017500008D10121002004F077FA0021012004F0D3
:1017600073FA07E00121002004F06EFA0121084617
:1017700004F06AFA10BD10B50446012C03D15021C3
:10178000002004F027FA022C0BD15021002004F095
:1017900021FA5021FF2004F01DFA5021002004F00E
:1017A00019FA10BD10B5034A0021042004F06AF9AB
:1017B00010BD00003D17000810B5034A00210420A9
:1017C00004F060F910BD00007717000810B504465A
:1017D0000A2C6AD2DFE804F0050B11171D23292F0C
:1017E000353B4FF40051324801F0BAF85EE04FF457
:1017F00080612F4801F0B4F858E04FF480612C4824
:1018000001F0AEF852E04FF48061294801F0A8F8E9
:101810004CE04FF48061264801F0A2F846E04FF416
:101820008061234801F09CF840E04FF4806120483B
:1018300001F096F83AE04FF480611D4801F090F80D
:1018400034E04FF480611A4801F08AF82EE04FF43A
:101850000051174801F084F84FF48061144801F0FA
:101860007FF84FF48061124801F07AF84FF48061FC
:101870000F4801F075F84FF480610D4801F070F8E1
:101880004FF480610A4801F06BF84FF4806108481A
:1018900001F066F84FF48061054801F061F84FF4FB
:1018A0008061034801F05CF800E000BF00BF10BD9C
:1018B0000008004810B504460A2C46D2DFE804F0C0
:1018C00005090D1115191D212529282001F040FDBC
:1018D0003CE0282001F03CFD38E0282001F038FDF4
:1018E00034E0282001F034FD30E0282001F030FD04
:1018F0002CE0282001F02CFD28E0282001F028FD14
:1019000024E0282001F024FD20E0282001F020FD23
:101910001CE0282001F01CFD282001F019FD2820E2
:1019200001F016FD282001F013FD282001F010FD24
:10193000282001F00DFD282001F00AFD282001F0EB
:1019400007FD282001F004FD00E000BF00BF10BD2E
:1019500010B504460A2C46D2DFE804F005090D1143
:1019600015191D212529282001F014FD3CE028200F
:1019700001F010FD38E0282001F00CFD34E02820B3
:1019800001F008FD30E0282001F004FD2CE02820C3
:1019900001F000FD28E0282001F0FCFC24E02820D4
:1019A00001F0F8FC20E0282001F0F4FC1CE02820E5
:1019B00001F0F0FC282001F0EDFC282001F0EAFC09
:1019C000282001F0E7FC282001F0E4FC282001F0A9
:1019D000E1FC282001F0DEFC282001F0DBFC2820BF
:1019E00001F0D8FC00E000BF00BF10BD10B586B00C
:1019F0000446FE4802900A2C7DD2DFE804F005225E
:101A0000405E7D9BB9D7F7F54FF400500190002060
:101A1000039001A9F64801F045F800224FF4005167
:101A2000F34801F050F93022F249F34804F010FB7A
:101A300000220F21282001F0BDFC282001F0AAFC83
:101A400010E24FF4806001900120039001A9E84862
:101A500001F028F800224FF48061E54801F033F9E5
:101A60003022E649E448083004F0F2FA00220F215F
:101A7000282001F09FFC282001F08CFCF2E14FF4BB
:101A8000806001900120039001A9D94801F00AF873
:101A900000224FF48061D64801F015F93022D84970
:101AA000D548103004F0D4FA00220F21282001F08C
:101AB00081FC282001F06EFCD4E14FF4806001909D
:101AC0000120039001A9CA4800F0ECFF00224FF466
:101AD0008061C74801F0F7F83022CA49C64818307B
:101AE00004F0B6FA00220F21282001F063FC282020
:101AF00001F050FCB6E1B4E14FF4806001900120A8
:101B0000039001A9BA4800F0CDFF00224FF4806194
:101B1000B74801F0D8F83022BB49B748203004F06C
:101B200097FA00220F21282001F044FC282001F020
:101B300031FC97E14FF4806001900120039001A9EE
:101B4000AB4800F0AFFF00224FF48061A84801F0DD
:101B5000BAF83022AD49A848283004F079FA0022BA
:101B60000F21282001F026FC282001F013FC79E148
:101B70004FF4806001900120039001A99C4800F07F
:101B800091FF00224FF48061994801F09CF83022C7
:101B90009F499948303004F05BFA00220F21282039
:101BA00001F008FC282001F0F5FB5BE14FF48060B8
:101BB00001900120039001A98D4800F073FF0022DD
:101BC0004FF480618A4801F07EF8302291498A48BA
:101BD000383004F03DFA00220F21282001F0EAFB02
:101BE000282001F0D7FB3DE11EE0FFE74FF48060C5
:101BF00001900120039001A97D4800F053FF0022CD
:101C00004FF480617A4801F05EF8302282497A48C8
:101C1000403004F01DFA00220F21282001F0CAFBF9
:101C2000282001F0B7FB1DE14FF400500190002087
:101C3000039001A96E4800F035FF00224FF40051D7
:101C40006B4801F040F84FF4806001900120039050
:101C500001A9674800F026FF00224FF48061644824
:101C600001F031F84FF4806001900120039001A948
:101C70005F4800F017FF00224FF480615C4801F0DC
:101C800022F84FF4806001900120039001A9584888
:101C900000F008FF00224FF48061554801F013F86E
:101CA0004FF4806001900120039001A9504800F09A
:101CB000F9FE00224FF480614D4801F004F84FF422
:101CC000806001900120039001A9494800F0EAFEDC
:101CD00000224FF48061464800F0F5FF4FF4806029
:101CE00001900120039001A9414800F0DBFE002291
:101CF0004FF480613E4800F0E6FF4FF480600190B1
:101D00000120039001A93A4800F0CCFE00224FF4D4
:101D10008061374800F0D7FF4FF4806001900120C8
:101D2000039001A9324800F0BDFE00224FF480610B
:101D30002F4800F0C8FF30222E492F4804F088F9C0
:101D400000220F21282001F035FB282001F022FB82
:101D500030222A492848083004F07AF900220F215D
:101D6000282001F027FB282001F014FB3022244911
:101D70002148103004F06CF900220F21282001F0D6
:101D800019FB282001F006FB30221E491A481830A2
:101D900004F05EF900220F21282001F00BFB28201F
:101DA00001F0F8FA302218491348203004F050F9B5
:101DB00000220F21282001F0FDFA282001F0EAFA84
:101DC000302212490C48283004F042F900220F2139
:101DD000282001F0EFFA282001F0DCFA30220C492B
:101DE0000548303004F034F9002217E000003110CB
:101DF00000080048251400088C3B00207D140008D2
:101E0000D51400082D15000885150008DD150008FB
:101E1000351600088D160008E51600080F21282049
:101E200001F0C8FA282001F0B5FA30220F49104815
:101E300004F00EF900220F21282001F0BBFA28201F
:101E400001F0A8FA30220B490948083004F000F9E3
:101E500000220F21282001F0ADFA282001F09AFA83
:101E600000E000BF00BF06B010BD00008D160008E6
:101E7000C43B0020E516000810B54FF4806102480D
:101E800000F06EFD10BD00000010004800B585B0E8
:101E90004FF480600090012001900020029069467C
:101EA000044800F0FFFD01229102024800F00BFF00
:101EB00005B000BD0010004810B5044634B900223A
:101EC0004FF48061094800F0FEFE0DE0012C05D1C1
:101ED00001229102054800F0F6FE05E0022C03D134
:101EE0006102024800F0E8FE10BD0000001000484A
:101EF00010B50A4804F0EAF80949086009E0084901
:101F00000968486880470648006804F0E5F8044915
:101F10000860034800680028F1D110BD6C3700202C
:101F2000EC00002010B50A4804F0D0F80949086018
:101F300009E008490968486880470648006804F0D5
:101F4000CBF804490860034800680028F1D110BDAF
:101F500074370020F000002010B50A4804F0B6F8ED
:101F60000949086009E00849096848688047064847
:101F7000006804F0B1F804490860034800680028CC
:101F8000F1D110BD7C370020F400002010B50A48C4
:101F900004F09CF80949086009E0084909684868A4
:101FA00080470648006804F097F804490860034831
:101FB00000680028F1D110BD64370020E80000203F
:101FC00010B50A4804F082F80949086009E0084998
:101FD0000968486880470648006804F07DF80449AD
:101FE0000860034800680028F1D110BD6C3800205B
:101FF0006C01002010B50446E3785B1CDAB223794B
:102000005B1CD9B2E08800F04BFB207210BD10B50C
:10201000032001F09DF910BD10B5032001F0BAF9BD
:1020200010BD000010B5032001F092F9014802F044
:102030005BFA10BDDC3B002000B5B3B00420229059
:1020400000202C900120249022A801F035FE08B138
:1020500000F0F0FA4FF400300090401221906846F2
:1020600001F08CFA08B100F0E5FA1848006840F475
:10207000004016499039C1F890001548154908608C
:10208000002048601F211348816040F2FF31C16089
:10209000002101618161C16102F078FA0D4802F00E
:1020A00051F9042200210B4802F078F90C220A4968
:1020B0000A4803F0CDFF00220F21032001F07AF936
:1020C000032001F067F933B000BD0000901002401A
:1020D00000280040DC3B002061210008180200209D
:1020E00030B58FB005463DBB1448007820B12024A0
:1020F00000201249087003E03D2401200F490870B8
:1021000003208DF810000E48C088A0F5FA620C4834
:1021100000790B4909780A4B5B78CDE90031CDE9AC
:10212000020207488278234606A10DF1250004F03B
:10213000F1FD04A803F06AFD0FB030BDF0010020EE
:10214000B801002025303264256325303264202513
:1021500030326420253032642530326400000000C3
:1021600010B5024802F0A4F910BD0000DC3B0020CD
:1021700010B5034A0021052003F0BCFC10BD00008F
:10218000E120000810B50A4803F0A0FF09490860E3
:1021900009E008490968486880470648006803F074
:1021A0009BFF04490860034800680028F1D110BD76
:1021B0005C3800206401002010B50A4803F086FF57
:1021C0000949086009E008490968486880470648E5
:1021D000006803F081FF0449086003480068002894
:1021E000F1D110BD643800206801002010B50A4804
:1021F00003F06CFF0949086009E00849096848686C
:1022000080470648006803F067FF044908600348F8
:1022100000680028F1D110BD24370020C80000203C
:1022200010B50A4803F052FF0949086009E008495F
:102230000968486880470648006803F04DFF044974
:102240000860034800680028F1D110BD2C37002039
:10225000CC00002010B50A4803F038FF0949086097
:1022600009E008490968486880470648006803F0A3
:1022700033FF04490860034800680028F1D110BD0D
:1022800034370020D000002010B50A4803F01EFFAC
:102290000949086009E00849096848688047064814
:1022A000006803F019FF044908600348006800282B
:1022B000F1D110BD3C370020D400002010B50A48F1
:1022C00003F004FF0949086009E008490968486803
:1022D00080470648006803F0FFFE04490860034891
:1022E00000680028F1D110BD44370020D80000203C
:1022F00010B50A4803F0EAFE0949086009E00849F8
:102300000968486880470648006803F0E5FE04490C
:102310000860034800680028F1D110BD4C37002048
:10232000DC00002010B50A4803F0D0FE094908601F
:1023300009E008490968486880470648006803F0D2
:10234000CBFE04490860034800680028F1D110BDA5
:1023500054370020E000002010B50A4803F0B6FE14
:102360000949086009E00849096848688047064843
:10237000006803F0B1FE04490860034800680028C3
:10238000F1D110BD343800205001002010B50A48AA
:1023900003F09CFE0949086009E00849096848689B
:1023A00080470648006803F097FE04490860034828
:1023B00000680028F1D110BD3C38002054010020F5
:1023C00010B50A4803F082FE0949086009E008498F
:1023D0000968486880470648006803F07DFE0449A4
:1023E0000860034800680028F1D110BD443800207F
:1023F0005801002010B50A4803F068FE094908603A
:1024000009E008490968486880470648006803F001
:1024100063FE04490860034800680028F1D110BD3C
:102420004C3800205C01002010B50A4803F04EFE35
:102430000949086009E00849096848688047064872
:10244000006803F049FE044908600348006800285A
:10245000F1D110BD543800206001002010B50A48A9
:1024600003F034FE0949086009E008490968486832
:1024700080470648006803F02FFE044908600348BF
:1024800000680028F1D110BD8438002074010020BC
:1024900010B50A4803F01AFE0949086009E0084926
:1024A0000968486880470648006803F015FE04493B
:1024B0000860034800680028F1D110BD8C38002066
:1024C000780100207047000010B50A4803F0FEFDB7
:1024D0000949086009E008490968486880470648D2
:1024E000006803F0F9FD044908600348006800280B
:1024F000F1D110BDFC360020B400002010B50A4810
:1025000003F0E4FD0949086009E0084909684868E2
:1025100080470648006803F0DFFD0449086003486F
:1025200000680028F1D110BD0438002038010020D7
:1025300010B50A4803F0CAFD0949086009E00849D6
:102540000968486880470648006803F0C5FD0449EB
:102550000860034800680028F1D110BD043700204E
:10256000B800002010B50A4803F0B0FD0949086022
:1025700009E008490968486880470648006803F090
:10258000ABFD04490860034800680028F1D110BD84
:102590000C370020BC00002010B50A4803F096FD5F
:1025A0000949086009E00849096848688047064801
:1025B000006803F091FD04490860034800680028A2
:1025C000F1D110BD14370020C000002010B50A481A
:1025D00003F07CFD0949086009E00849096848687A
:1025E00080470648006803F077FD04490860034807
:1025F00000680028F1D110BD1C370020C400002065
:1026000010B50A4803F062FD0949086009E008496D
:102610000968486880470648006803F05DFD044982
:102620000860034800680028F1D110BD84370020FD
:10263000F800002000BFFEE710B50A4803F046FD91
:102640000949086009E00849096848688047064860
:10265000006803F041FD0449086003480068002851
:10266000F1D110BDEC360020B000002010B50A48B2
:1026700003F02CFD0949086009E008490968486829
:1026800080470648006803F027FD044908600348B6
:1026900000680028F1D110BDCC380020980100203E
:1026A0007EB503460C4611A523CD8DE82300032CEF
:1026B00001DA581E83B2642093FBF0F01946DD174F
:1026C00003EB957503EBA505281A4FF4C87593FB2A
:1026D000F5F50544601E1DF8000028441044072548
:1026E00090FBF5F605FB1600C0B27EBD00030205A7
:1026F000000305010406020470B504460025092CF8
:1027000006D2DFE804F0060E161E262E363E4600E0
:1027100000BF4FF400512A4800F0C6FA00B9012565
:102720003FE04FF48061264800F0BEFA00B9012571
:1027300037E04FF48061224800F0B6FA00B9012575
:102740002FE04FF480611E4800F0AEFA00B9012579
:1027500027E04FF480611A4800F0A6FA00B901257D
:102760001FE04FF48061164800F09EFA00B9012581
:1027700017E04FF48061124800F096FA00B9012585
:102780000FE04FF480610E4800F08EFA00B9012589
:1027900007E04FF480610A4800F086FA00B901258D
:1027A00000BF00BF012D04D12146002003F0F6F93F
:1027B00003E02146012003F0F1F9284670BD000036
:1027C0000008004810B5034802F010F8014800F076
:1027D00048FB10BD003C002010B5134813490860A9
:1027E0004FF4000048604FF47011104881600C21D4
:1027F000C1604021016102214161C9028161091169
:10280000C161202101620021416281624FF4804157
:10281000C1620021016302F049F8044800F036FB70
:10282000FEF782F810BD000000240040003C0020AC
:1028300070B504460D4665B90D4850F83400C243E2
:102840000B4800EBC400002341680A4802F008F975
:102850000CE0074850F8343050F83400C2430448C4
:1028600000EBC4004168034802F0FAF870BD0000B4
:1028700098A80008003C002070B5054600241CE024
:1028800065B90F4850F83400C2430D4800EBC4004E
:10289000002341680B4802F0E3F80CE0084850F8C8
:1028A000343050F83400C243054800EBC40041689E
:1028B000044802F0D5F8601CC4B21B2CE0DB70BDEC
:1028C00098A80008003C002010B5044620780A288B
:1028D0003DD2DFE800F0050F191D22272C303438D7
:1028E00094ED021BB0EE410AF0EE610A0020FEF703
:1028F00039FA2DE094ED021BB0EE410AF0EE610AC8
:102900000120FEF72FFA23E02069FEF729F81FE0E7
:1029100004F11500FEF760FC1AE060780121FFF772
:1029200087FF15E060780021FFF782FF10E00120AB
:10293000FFF7A2FF0CE00020FFF79EFF08E007482A
:1029400000F04CFA04E02069FDF7F6FF00E000BF5C
:1029500000BF024802F062F810BD0000003C0020F9
:10296000F0B50B46002187E001258D4005EA030202
:10297000002A7DD0434D8E0855F826408D072E0F36
:102980000F25B5402C40B0F1904F01D100251EE03D
:102990003D4DA84201D1012519E03C4DA84201D18D
:1029A000022514E03A4DA84201D103250FE0394D2C
:1029B000A84201D104250AE0374DA84201D10525DE
:1029C00005E0364DA84201D1062500E007258E0717
:1029D000360FB540A54221D1314D2D689543304E7B
:1029E0003560351D2D689543361D3560351D2D68C4
:1029F0009543361D3560351D2D689543361D356070
:102A00008D072E0F0F2505FA06F41E4D8E0855F87A
:102A10002650A5431B4E8F0846F8275005684F00E7
:102A20000326BE4035430560CE0800F1200555F869
:102A300026504E07F70E0F26BE40B543CF0800F1D3
:102A4000200646F8275085684F000326BE40B54350
:102A50008560466801258D40AE434660C5684F00DD
:102A60000326BE40B543C560C56A01268E4000E01E
:102A700001E0B543C562491C23FA01F5002D7FF43E
:102A800073AFF0BD08000140000400480008004892
:102A9000000C0048001000480014004800180048CE
:102AA0000004014078B503460022E5E00126964087
:102AB0000D6805EA0604002C7DD04D68022D02D079
:102AC0004D68122D13D1D60803F1200555F82600C4
:102AD0005507EE0E0F25B540A8435607F60E0D69B3
:102AE000B5402843D60803F1200545F826001868AC
:102AF00056000325B540A8430D7905F0030556009F
:102B0000B540284318604D68012D08D04D68022D4E
:102B100005D04D68112D02D04D68122D13D1986843
:102B200056000325B540A8435600CD68B54028435C
:102B30009860586801259540A8430D79C5F30015A4
:102B40009540284358600D7905F00305032D09D100
:102B5000D86A01259540A8430D79C5F3C005954075
:102B60002843D862D86856000325B540A8435600CC
:102B70008D68B5402843D8604D6805F08055B5F1A3
:102B8000805F78D100BF3F4D2D6E45F001053D4E71
:102B9000356635462D6E05F00105009500BF00BF76
:102BA0004FEAB635960855F8260095072E0F0F25E3
:102BB000B540A84300E05EE0B3F1904F01D100259D
:102BC0001EE0314DAB4201D1012519E02F4DAB4242
:102BD00001D1022514E02E4DAB4201D103250FE0B7
:102BE0002C4DAB4201D104250AE02B4DAB4201D163
:102BF000052505E0294DAB4201D1062500E007255A
:102C00009607360FB5402843254D960845F826000F
:102C1000244D2868A0434D6805F48035B5F5803F04
:102C200000D120431F4D28602D1D2868A0434D680A
:102C300005F40035B5F5003F00D12043194D2D1D99
:102C400028602D1D2868A0434D6805F48015B5F552
:102C5000801F00D12043134D083528602D1D2868A2
:102C6000A0434D6805F40015B5F5001F00D12043C1
:102C70000C4D0C352860521C0D68D540002D7FF49A
:102C800015AF78BD0010024000040048000800485D
:102C9000000C0048001000480014004800180048CC
:102CA0000800014000040140024613690B400BB1CB
:102CB000012000E00020704742690A400AB18162A9
:102CC00000E0816170470AB1816100E08162704774
:102CD00001480068704700000C00002070B50446F1
:102CE0000CB9012070BD4CF6CC402168086045F25B
:102CF000555021680860D4E9001048602168A06838
:102D00008860FFF7E5FF054606E0FFF7E1FF401B9F
:102D1000302801D90320E5E72068C0680028F4D1F5
:102D200020680169E068814203D02168E068086199
:102D300003E04AF6AA20216808600020D2E7014695
:102D40004AF6AA200A68106000207047034800680D
:102D50000349096808440149086070470C000020D5
:102D60001400002010B50024032000F065FB0F20A4
:102D700000F008F808B1012401E000F0BBFA204699
:102D800010BD000070B50446002511480068D8B198
:102D90000F4800684FF47A71B1FBF0F00D490968F3
:102DA000B1FBF0F6304601F069FC58B9102C07D29F
:102DB00000222146501E00F0FDFA0748046004E09E
:102DC000012502E0012500E00125284670BD000034
:102DD0001400002018000020100000202DE9F04110
:102DE00004464FF0010894F83570012F01D0022FEE
:102DF00035D100BF94F83400012802D10220BDE88B
:102E0000F081012084F8340000BF022084F83500EE
:102E1000FFF75EFF06460EE0FFF75AFF801BB0F596
:102E20007A7F08D90220A06300BF002084F8340014
:102E300000BF0320E3E720688068C0F3800000281B
:102E4000EAD1002505E000212068143040F8251063
:102E50006D1C0F2DF7D9204600F0A6F8804640469D
:102E6000CDE710B504460CB9012010BD022084F84E
:102E70003500204600F096F80020A06384F8350065
:102E800000BF84F8340000BF00BFEEE72DE9F04139
:102E9000044614B90120BDE8F08194F8350028B942
:102EA000002084F83400204600F07DF8022084F8E9
:102EB00035002068006820F00100216808600026C5
:102EC00005E000212068143040F82610761C0F2EF3
:102ED000F7D92068806840F0040021688860D4E950
:102EE00001010843A16A0843E16A0843E169084314
:102EF000216A0843A1690843616A08432168496857
:102F0000274A1140084321684860204601F090FD9F
:102F100007460FB13846BEE7D4E9030108436169AB
:102F20000843216B08432168096821F0FE0108432A
:102F3000216808602068006840F00100216808608E
:102F4000FFF7C6FE054609E0FFF7C2FE401BB0F5DD
:102F50007A7F03D90820A06303209CE7206880685B
:102F600000F001000028EFD0FFF7B2FE054609E0AF
:102F7000FFF7AEFE401BB0F57A7F03D91020A063A7
:102F8000032088E720688068C0F300100028EFD095
:102F90000020A063012084F8350038467BE700005C
:102FA0000E0000FC7047704770B504460820216889
:102FB000C8602068806840F0040021688860FFF7DE
:102FC00087FE05460EE0FFF783FE401BB0F57A7FD3
:102FD00008D90420A06300BF002084F8340000BF9B
:102FE000032070BD20688068C0F3C0000028EAD0CC
:102FF000012084F8350000BF002084F8340000BFB1
:1030000000BFEEE77047704710B5044600BF502080
:10301000EFF3118180F31188BFF34F8FBFF36F8FF0
:1030200000BF07F069F818B14FF0805004490860FC
:10303000002080F3118800BF01200249086010BD04
:1030400004ED00E00800002070477047704710B59D
:1030500004462068006800F0010050B120688068D4
:1030600000F0010028B10120216848602046FFF7E8
:10307000CBFF20680068C0F3400050B12068806832
:10308000C0F3400028B10220216848602046FFF7C5
:10309000B9FF20680068C0F3800050B120688068E4
:1030A000C0F3800028B1042021684860204600F069
:1030B0001FF920680068C0F3C00050B12068806824
:1030C000C0F3C00028B10820216848602046FFF7FF
:1030D000BBFF20680068C0F3001050B12068806812
:1030E000C0F3001028B11020216848602046FFF787
:1030F0008AFF20680068C0F3401050B120688068E3
:10310000C0F3401028B12020216848602046FFF716
:103110009DFF20680068C0F3801050B1206880686F
:10312000C0F3801028B14020216848602046FFF796
:103130008CFF10BD70B504460CB9012070BD6068ED
:10314000012800D100BF4FF6FF716069884200D0AE
:1031500000BF94F8360028B9002084F835002046D6
:1031600000F050F8022084F836002068C5686068D6
:10317000012803D0A06AB0F5000F01D125F01E058B
:103180004FF6FF716069884202D04EF2C00085435D
:103190001A480540D4E901010843216A0843616ADD
:1031A0000843A16A084305436068012803D0A06A68
:1031B000B0F5000F03D1D4E90310084305434FF6DF
:1031C000FF716069884205D0D4E905100843E169C0
:1031D000084305432068C56009492068884205D135
:1031E000D4E90B0108432168086202E02168E06A23
:1031F0000862012084F8360000209FE7F8F119FFEB
:10320000007C004038B504460D492068884215D13D
:1032100000BF0C48806D40F000400A4988650846B0
:10322000806D00F00040009000BF00BF00220F2121
:10323000412000F0BFF8412000F0ACF838BD00009C
:10324000007C00400010024001460868C0697047D9
:1032500010B50346022083F836001348006840F09A
:103260000100114C20601868C06840F400201C6800
:10327000E0601868806840F001001C68A060186871
:10328000006940F001001C682061186881611868BD
:1032900042611868006940F004001C682061012048
:1032A00083F83600002010BD2004014010B504460C
:1032B000022084F836000D48006820F001000B4918
:1032C0000860204601F0FCFB2068C06820F4002064
:1032D0002168C8602068806820F00100216888604B
:1032E000012084F83600002010BD000020040140B9
:1032F0007047000008B500BF1448006E40F00100A0
:10330000124908660846006E00F00100009000BFF8
:1033100000BF002205216FF00B0000F04BF80022E7
:1033200005216FF00A0000F045F8002205216FF03A
:10333000090000F03FF800220521101F00F03AF8C4
:1033400000220521881F00F035F808BD001002405A
:1033500010B501460846002817DB00F01F030122C4
:103360009A400B4B440943F8242000BF00BF00BF24
:10337000BFF34F8F00BF00BF00BF00BF00BF00BF43
:10338000BFF36F8F00BF00BF00BF00BF10BD0000C4
:1033900080E100E001460846002809DB00F01F0339
:1033A00001229A4043099B0003F1E023C3F8002166
:1033B00000BF70472DE9F05F80460D461646002796
:1033C00003F0BCFC074639462A46334601F00700A5
:1033D000C0F1070ABAF1040F02D94FF0040A01E064
:1033E000C0F1070AD14600F1040ABAF1070F02D270
:1033F0004FF0000A01E0A0F1030AD4464FF0010AA1
:103400000AFA09FAAAF1010A0AEA020A0AFA0CFA05
:103410004FF0010B0BFA0CFBABF1010B0BEA030BAA
:103420004AEA0B042146404603F090FC00F000B845
:1034300030BCBDE8C09F000000BF00F00702064B93
:1034400019684FF6FF031940044B0B4343EA02216E
:10345000014B196000BF70470CED00E00000FA0559
:103460000246B2F5007F2AD11D48006800F4C06012
:10347000B0F5007F32D01A48006820F4C06040F4F4
:103480000070174B18601748006832235843164BDA
:10349000B0FBF3F0411C00E0491E1148406900F404
:1034A0008060B0F5806F01D10029F5D10C484069EA
:1034B00000F48060B0F5806F10D103207047084899
:1034C000006800F4C060B0F5806F07D00448006861
:1034D00020F4C06040F48060014B18600020EDE7EC
:1034E000007000401800002040420F000D4909689C
:1034F00021F00701491C0B4A11600B49096841F092
:103500000401094A1160012801D130BF02E040BF27
:1035100020BF20BF0449096821F00401024A11605C
:10352000704700000070004010ED00E00D49096890
:1035300021F00701891C0B4A11600B49096841F011
:103540000401094A1160012801D130BF02E040BFE7
:1035500020BF20BF0449096821F00401024A11601C
:10356000704700000070004010ED00E00248006865
:1035700000F4C06070470000007000402DE9F8437F
:1035800004460025A846208800F40060B0F5006FCE
:1035900030D1606E80B1B0F5800F13D0B0F5000F60
:1035A00003D0B0F5400F15D113E0FB48C06840F4DC
:1035B0008030F949C8600FE00021201D01F076FF3E
:1035C000054609E0002104F1200002F035F8054627
:1035D00002E001E0012500BF00BF55B9EE48883088
:1035E000006820F44000616E0843EB49C1F8880090
:1035F00000E0A846208800F48050B0F5805F30D10C
:10360000A06E80B1B0F1807F13D0B0F1007F03D005
:10361000B0F1407F15D113E0DF48C06840F480303E
:10362000DD49C8600FE00021201D01F03FFF054685
:1036300009E0002104F1200001F0FEFF054602E050
:1036400001E0012500BF00BF55B9D34888300068AC
:1036500020F04070A16E0843CF49C1F8880000E017
:10366000A846206800F40030B0F5003F77D14FF055
:103670000009C948806D012121EA107078B100BFAE
:10368000C548806D40F08050C34988650846806D0C
:1036900000F08050009000BF00BF4FF00109BF480C
:1036A000006840F48070BD490860FFF711FB0746D1
:1036B00006E0FFF70DFBC01B022801D9032505E03A
:1036C000B648006800F480700028F2D000BF85BBC7
:1036D000B1489030006800F44076D6B1D4F8840048
:1036E000B04216D0AC489030006820F44076AA482A
:1036F000D0F8900040F48030A749C1F89000084607
:10370000D0F8900020F48030C1F890000846C0F84E
:10371000906006F00100A8B1FFF7DAFA074609E069
:10372000FFF7D6FAC01B41F28831884202D903253F
:1037300007E017E098489030006800F00200002889
:10374000EED000BF65B994489030006820F4407016
:10375000D4F8841008439049C1F8900003E00CE0CD
:10376000A84600E0A846B9F1010F05D18A48806D4E
:1037700020F080508849886500BF207800F0010063
:1037800048B185488830006820F00300A16B0843E9
:103790008149C1F88800207800F00200022809D190
:1037A0007D488830006820F00C00E16B08437A49BE
:1037B000C1F88800207800F00400042809D1764878
:1037C0008830006820F03000216C08437249C1F84D
:1037D0008800207800F00800082809D16E48883059
:1037E000006820F0C000616C08436B49C1F8880094
:1037F000207800F01000102809D167488830006850
:1038000020F44070A16C08436349C1F88800207817
:1038100000F02000202809D15F488830006820F49B
:103820004060E16C08435C49C1F88800208800F4DE
:103830000070B0F5007F09D157488830006820F447
:103840004020E16D08435449C1F88800208800F405
:103850008060B0F5806F09D14F488830006820F44F
:103860004010216E08434C49C1F88800207800F0D0
:103870004000402809D148488830006820F4405072
:10388000216D08434449C1F88800207800F0800089
:10389000802809D140488830006820F44040616D9C
:1038A00008433D49C1F88800208800F48070B0F5D5
:1038B000807F09D138488830006820F44030A16DFD
:1038C00008433549C1F88800208800F40050B0F55D
:1038D000005F1FD130488830006820F04060E16E02
:1038E00008432D4988310860E06EB0F1006F06D1C1
:1038F0002948C06840F480102749C8600AE0E06E9B
:10390000B0F1806F06D10121201D01F0CFFD0546E9
:1039100005B1A846206800F40020B0F5002F1FD1A3
:103920001D488830006820F04060216F08431A4924
:1039300088310860206FB0F1006F06D11648C0686A
:1039400040F480101449C8600AE0206FB0F1806F25
:1039500006D10121201D01F0A9FD054605B1A846AB
:10396000206800F48020B0F5802F24D10A488830E8
:10397000006820F04060616F0843074988310860A3
:10398000606FB0F1006F0BD10348C06840F4801045
:103990000149C8600FE000000010024000700040C4
:1039A000606FB0F1806F06D10121201D01F07EFD16
:1039B000054605B1A846208800F48040B0F5804F48
:1039C0001FD12248006820F04050A16F08431F49D2
:1039D0000860A06FB0F1805F07D10221201D01F0C7
:1039E00065FD05466DB1A8460BE0A06FB0F1005F24
:1039F00007D1022104F1200001F01EFE054605B1A9
:103A0000A846208800F40040B0F5004F09D10F48C7
:103A1000006820F08040E16F08430C498839C1F804
:103A20008800206800F48030B0F5803F0AD1074854
:103A3000006820F00040D4F880100843034988391A
:103A4000C1F888004046BDE8F883000088100240B5
:103A50002DE9F04104460D4614B90120BDE8F0817E
:103A60005548006800F00700A8420ED2524800688E
:103A700020F007002843504908600846006800F01D
:103A80000700A84201D00120E8E7207800F00100FB
:103A9000002840D06068032806D14848006800F03C
:103AA0000070D8B90120D9E76068022806D14348E0
:103AB000006800F4003088B90120CFE7606830B9B1
:103AC0003E48006800F0020040B90120C6E73B48CC
:103AD000006800F4806008B90120BFE737488068BB
:103AE00020F003006168084334498860FFF7F0F86C
:103AF000064608E0FFF7ECF8801B41F28831884267
:103B000001D90320AAE72D48806800F00C00616805
:103B1000B0EB810FEED1207800F00200022807D12F
:103B20002648806820F0F000A16808432349886097
:103B30002148006800F00700A8420ED91E4800681E
:103B400020F0070028431C4908600846006800F080
:103B50000700A84201D0012080E7207800F004008F
:103B6000042807D11548806820F4E060E168084324
:103B700012498860207800F00800082808D10F4812
:103B8000806820F46050216940EAC1000B498860D8
:103B900000F01CF809498968C1F30311084A515C17
:103BA00001F01F01C8400749086007480068FFF797
:103BB000E9F80746384651E700200240001002406D
:103BC00054A700081800002010000020F0B50023C2
:103BD0000020DFF8D4C0DCF808C00CF00C01DFF8DE
:103BE000C8C0DCF80CC00CF0030719B10C291ED1B9
:103BF000012F1CD1DFF8B0C0DCF800C00CF0080CBD
:103C0000BCF1000F06D1DFF8A0C0DCF894C0CCF303
:103C1000032305E0DFF890C0DCF800C0CCF3031309
:103C2000DFF888C05CF8233041B9184606E0042963
:103C300001D11F4802E0082900D11E480C2932D1C9
:103C4000DFF864C0DCF80CC00CF00304012C09D0D0
:103C5000022C02D0032C04D101E0154A04E0154ADD
:103C600002E000BF1A4600BF00BFDFF83CC0DCF82E
:103C70000CC0CCF3021C0CF10106DFF82CC0DCF800
:103C80000CC0CCF3062C0CFB02FCBCFBF6F2DFF8FC
:103C900018C0DCF80CC0CCF3416C0CF1010C4FEAFD
:103CA0004C05B2FBF5F0F0BD001002406CA7000817
:103CB0000024F40000127A002DE9F843044614B9F8
:103CC0000120BDE8F883F948806800F00C07F74848
:103CD000C06800F00306207800F01000102876D1AC
:103CE0001FB10C2F75D1012E73D1F048006800F080
:103CF000020018B1A06908B90120E2E7EB48216A87
:103D0000006800F0080020B1E848006800F0F0000A
:103D100005E0E6489430006800F4706000098142D4
:103D20001FD9206A01F03AFD08B10120C9E700BFA0
:103D3000DE48006840F00800DC490860084600687A
:103D400020F0F000216A0843D849086000BF084607
:103D5000406820F47F40E16940EA0120D34948608F
:103D60001EE000BFD148006840F00800CF4908605D
:103D70000846006820F0F000216A0843CB4908603B
:103D800000BF0846406820F47F40E16940EA012016
:103D9000C6494860206A01F001FD08B1012090E7A2
:103DA000FFF714FFC1498968C1F30311C04A515C90
:103DB00001F01F01C840BF490860BF480068FEF716
:103DC000E1FF8046B8F1000F4ED0404679E74BE066
:103DD000FFE7A06980B3B548006840F00100B3492F
:103DE0000860FEF775FF054606E0FEF771FF401B11
:103DF000022801D9032064E7AC48006800F0020003
:103E00000028F2D000BFA948006840F00800A74988
:103E100008600846006820F0F000216A0843A349C2
:103E2000086000BF0846406820F47F40E16940EA2E
:103E300001209E49486017E0FFE79C48006820F099
:103E400001009A490860FEF743FF054606E0FEF7C9
:103E50003FFF401B022801D9032032E79348006846
:103E600000F002000028F2D1207800F001000028C4
:103E70005CD0082F03D00C2F0AD1032E08D18B4819
:103E8000006800F4003088B3606878BB012018E750
:103E900000BF6068B0F5803F06D18448006840F4F8
:103EA0008030824908601AE06068B0F5A02F0BD11D
:103EB0007E48006840F480207C490860084600681D
:103EC00040F4803008600AE07848006820F48030D0
:103ED000764908600846006820F48020086000BF2A
:103EE000606890B1FEF7F4FE054607E01EE0FEF7BD
:103EF000EFFE401B642801D90320E2E66B4800680E
:103F000000F400300028F2D010E0FEF7E1FE054694
:103F100006E0FEF7DDFE401B642801D90320D0E651
:103F20006248006800F400300028F2D1207800F0E8
:103F30000200022852D1042F03D00C2F14D1022EDC
:103F400012D15A48006800F4806018B1E06808B9DE
:103F50000120B6E65548406820F0F850217C40EA40
:103F600001605249486039E0E06800B34F4800689A
:103F700040F480704D490860FEF7AAFE054606E051
:103F8000FEF7A6FE401B022801D9032099E6474808
:103F9000006800F480600028F2D04448406820F0B7
:103FA000F850217C40EA01604049486016E03F48F3
:103FB000006820F480703D490860FEF789FE0546E0
:103FC00006E0FEF785FE401B022801D9032078E6B3
:103FD0003648006800F480600028F2D1207800F0B4
:103FE0000800082836D16069D0B1304894300068A4
:103FF00040F001002D49C1F89400FEF769FE054626
:1040000006E0FEF765FE401B022801D9032058E6B2
:1040100026489430006800F002000028F1D019E032
:1040200022489430006820F001002049C1F8940033
:10403000FEF74EFE054606E0FEF74AFE401B02284C
:1040400001D903203DE619489430006800F00200D1
:104050000028F1D1207800F00400042873D14FF03B
:1040600000091248806D00F0805078B900BF0F48F9
:10407000806D40F080500D4988650846806D00F0E5
:104080008050009000BF00BF4FF001090B4800684E
:1040900000F4807008BB0948006840F4807007494C
:1040A0000860FEF715FE054611E000000010024012
:1040B00054A70008180000201000002000700040E5
:1040C000FEF706FE401B022801D90320F9E59948B6
:1040D000006800F480700028F2D000BFA0680128BA
:1040E00008D19548006840F0010093499039C1F823
:1040F000900021E0A06805280FD18F48006840F0AB
:1041000004008D499039C1F890000846D0F890001D
:1041100040F00100C1F890000EE08748006820F0F0
:10412000010085499039C1F890000846D0F8900008
:1041300020F00400C1F8900000BFA068A0B1FEF715
:10414000C7FD054609E02EE0FEF7C2FD401B41F227
:104150008831884201D90320B3E57748006800F030
:1041600002000028F0D012E0FEF7B2FD054608E09C
:10417000FEF7AEFD401B41F28831884201D9032091
:104180009FE56D48006800F002000028F0D1B9F109
:10419000010F07D168489038806D20F08050664943
:1041A0009039886500BFA06A00285BD00C2F78D0BA
:1041B000A06A022857D160489038006820F08070CB
:1041C0005D4990390860FEF783FD054606E0FEF77D
:1041D0007FFD401B022801D9032072E55648903824
:1041E000006800F000700028F1D1D4E90B10401EE7
:1041F00041EA0011606B41EA0021A08F0122C2EB6D
:10420000500041EA40514020005DC2EB500041EABD
:104210004061A06B000941EA404047499039C968B4
:10422000464A1140084344499039C860084600682E
:1042300040F0807008600846C06840F08070C86038
:10424000FEF746FD054606E0FEF742FD401B02284C
:1042500001D9032035E538489038006800F0007037
:104260000028F1D064E034489038006820F0807075
:104270003149903908600846006800F0205020B9A4
:104280000846C06820F00300C8602B489038C0681A
:104290002B49084028499039C860FEF719FD0546AA
:1042A00007E00EE0FEF714FD401B022801D90320B1
:1042B00007E521489038006800F000700028F1D12F
:1042C00036E0A06A012800D1FBE41B489038C6689C
:1042D00006F00301E06A814228D106F07001206BEC
:1042E000401EB1EB001F21D106F4FE41606BB1EB23
:1042F000002F1BD106F40031A06B072801D001204C
:1043000000E00020814211D106F4C001A08F0122FB
:10431000C2EB5000B1EB405F08D106F0C061402015
:10432000005DC2EB5000B1EB406F01D00120C8E44A
:104330000020C6E400700040901002408C809DF97F
:10434000FFFFEEFE014600BF91F82000012801D1D9
:1043500002207047012081F8200000BF022081F870
:10436000210000BFCA200A68506253200A685062C8
:1043700000BF0868806840F020000A68906000BFB5
:10438000FF200A68506200BF012081F8210000BFB1
:10439000002081F8200000BF00BFDAE72DE9F041DE
:1043A00004460E46174600BF94F82000012802D1AB
:1043B0000220BDE8F081012084F8200000BF022027
:1043C00084F8210000BFCA20216848625320216878
:1043D000486200BF2068806820F48060216888609F
:1043E0002068C06800F0800060F490602168C860B8
:1043F0002068C06800F04000F0B9FEF769FC05468F
:1044000014E0FEF765FC401BB0F57A7F0ED900BFC3
:10441000FF202168486200BF032084F8210000BF0C
:10442000002084F8200000BF0320C2E72068C06895
:1044300000F004000028E4D020684661206880680D
:1044400020F007003843216888601448006840F471
:1044500080101249086011480830006840F480104C
:104460000E49083108602068806840F48040216867
:1044700088602068806840F480602168886000BFA0
:10448000FF202168486200BF012084F8210000BF9E
:10449000002084F8200000BF00BF8AE7000401402C
:1044A00010B50446014803F0B3F910BDB80100206F
:1044B00010B504464FF480100A4908602068C068AF
:1044C000C0F3802050B12068C06800F0800060F424
:1044D00090602168C8602046FFF7E2FF012084F861
:1044E000210010BD1404014070B504460125002CC4
:1044F00048D0022084F8210000BFCA202168486209
:1045000053202168486200BF204601F0C9F90546E2
:10451000002D37D12168086042F2011021684860FF
:10452000206880680020216888604FF6FF7021684D
:10453000486115482168086100202168C861216828
:1045400008622168C8622168C863216848642168DC
:104550008864204601F0C6F905469DB9002021680F
:1045600008642168C86400BFFF202168486200BF5A
:10457000204600F065F8002084F8210000BF84F890
:10458000200000BF284670BDFF007F0070B50446C4
:104590000125002C4FD094F8210028B9002084F880
:1045A0002000204600F04DF8022084F8210000BFD2
:1045B000CA202168486253202168486200BF204613
:1045C00001F06EF90546002D35D1206880681B4941
:1045D000084021688860216960680843A169084330
:1045E000216889680843216888602168E06808615B
:1045F00020680169208941EA00402168086120465D
:1046000001F070F90546B5B92068C06C20F00300D0
:104610002168C8646169E06908432168C96C08437E
:104620002168C86400BFFF202168486200BF15B937
:10463000012084F82100284670BD0000BFFF8FFFD5
:104640007047704770B504462068C06820F0A0002D
:104650002168C860FEF73CFB054607E0FEF738FB23
:10466000401BB0F57A7F01D9032070BD2068C06877
:1046700000F020000028F1D00020F6E770B50446D5
:104680002546681EB0F1807F01D301200FE0681E2F
:104690004FF0E02148610F214FF0FF3002F056FB50
:1046A00000204FF0E021886107200861002070BDE4
:1046B00000BFFEE710B50A4801F008FD094908608F
:1046C00009E008490968486880470648006801F021
:1046D00003FD04490860034800680028F1D110BDBB
:1046E000C43700201801002010B50A4801F0EEFC84
:1046F0000949086009E00849096848688047064890
:10470000006801F0E9FC04490860034800680028DB
:10471000F1D110BDBC3700201401002010B50A48AB
:1047200001F0D4FC0949086009E0084909684868B3
:1047300080470648006801F0CFFC04490860034840
:1047400000680028F1D110BDD437002020010020DE
:1047500010B50A4801F0BAFC0949086009E00849A7
:104760000968486880470648006801F0B5FC0449BC
:104770000860034800680028F1D110BDCC37002044
:104780001C01002010B50A4801F0A0FC094908608E
:1047900009E008490968486880470648006801F050
:1047A0009BFC04490860034800680028F1D110BD53
:1047B000AC3800208801002010B50A4801F086FCC2
:1047C0000949086009E008490968486880470648BF
:1047D000006801F081FC0449086003480068002873
:1047E000F1D110BDA43800208401002038B5054661
:1047F000002400BF2948C06C40F001002749C8646C
:104800000846C06C00F00100009000BF00BF00BF70
:104810000846C06C40F00200C8640846C06C00F056
:104820000200009000BF00BF00BF0846C06C40F00F
:104830000400C8640846C06C00F00400009000BF8B
:1048400000BF00BF0846C06C40F00800C8640846BE
:10485000C06C00F00800009000BF00BF4FF4E0649F
:1048600021464FF09040FEF77BF84FF6B874214692
:104870000B48FEF775F84FF47E7421460948FEF7A1
:104880006FF84FF6047421460748FEF769F80348AD
:10489000806D20F400700149886538BD0010024029
:1048A0000004004800080048000C004810B5BAB0E9
:1048B0000446142135A8FBF710FD442124A8FBF77A
:1048C0000CFD882102A8FBF708FD00BF4E48806D53
:1048D00040F080504C4988650846806D00F080505B
:1048E000019000BF00BF0420249000202E900120E2
:1048F000269024A8FFF7E0F908B1FDF79BFE4FF4DE
:10490000003002904012239002A8FEF737FE00BF4D
:104910003D48C06C40F001003B49C8640846C06C8B
:1049200000F00100019000BF00BF00BF0846C06C4E
:1049300040F00200C8640846C06C00F0020001901C
:1049400000BF00BF00BF0846C06C40F00400C86450
:104950000846C06C00F00400019000BF00BF00BF1B
:104960000846C06C40F00800C8640846C06C00F0FF
:104970000800019000BF00BF00BF0846C06C40F0B7
:104980001000C8640846C06C00F01000019000BF21
:1049900000BF4FF4E0603590022036900020379041
:1049A000032038900B20399035A94FF09040FEF746
:1049B00079F84FF6B870359035A91448FEF772F8BB
:1049C0004FF47E70359035A91148FEF76BF84FF61D
:1049D0000470359035A90F48FEF764F80F20359024
:1049E00035A90D48FEF75EF800BF0748806D40F41A
:1049F0000070054988650846806D00F400700190DC
:104A000000BF00BF3AB010BD0010024000040048D3
:104A100000080048000C0048001000480821026807
:104A2000D1600168896841F00401026891607047B3
:104A300070B50446FEF74CF9054609E0FEF748F963
:104A4000401BB0F57A7F03D90120A063032070BD1D
:104A500020688068C0F340100028EFD00020F6E7FF
:104A600030B50468143454F82140D543AC431C439A
:104A70000568143545F8214030BD000010B50248E6
:104A8000FEF7E5FA10BD00006802002010B50A48E4
:104A900001F01CFB0949086009E0084909684868F9
:104AA00080470648006801F017FB04490860034886
:104AB00000680028F1D110BD7C3800207001002072
:104AC0002DE9F84F04464FF0000972B66949206895
:104AD000084418B1B0F5C05F0AD104E06648006828
:104AE00000F4402905E06448006800F4401900E043
:104AF00000BF00BF2068D0F808A02068D0F80CB034
:104B000020684569206886692068006A00905949D4
:104B10002068084418B1B0F5C05F1CD10DE05648BC
:104B20008838806B40F000405349883988630846D4
:104B3000806B20F0004088630EE04F488838C06BDF
:104B400040F020004C498839C8630846C06B20F00B
:104B50002000C86300E000BF00BF0DB9002E76D072
:104B600044492068084418B1B0F5C05F12D108E08C
:104B70004148006820F440203F498839C1F8880046
:104B800009E03D48006820F440103B498839C1F8ED
:104B9000880000E000BF00BFDDB12068006940F080
:104BA00001002168086120684561FEF791F8074619
:104BB00000BFFEF78DF8A0EB07082068006800F042
:104BC0000800082802D0B8F57A7FF2D908202168B9
:104BD0004860DEB12068006940F00100216808618A
:104BE00020688661FEF774F8074600BFFEF770F88C
:104BF000A0EB07082068006800F01000102802D021
:104C0000B8F57A7FF2D910202168486019492068E8
:104C1000084418B1B0F5C05F17D10AE01648006823
:104C200020F4402040EA090013498839C1F888007F
:104C30000CE01148006820F4401040EA09000E49D9
:104C40008839C1F8880001E001E000BF00BF20689A
:104C5000006920F00100216808612068C0F808A000
:104C60002068C0F80CB000982168086262B600F0B5
:104C700005B800000084FFBF8810024018BCBDE8E2
:104C8000E08F000010B50A4801F020FA09490860D9
:104C900009E008490968486880470648006801F04B
:104CA0001BFA04490860034800680028F1D110BDD0
:104CB000943800207C01002010B50446A07800281C
:104CC00041D1607809283CD2DFE800F0050B1117CC
:104CD0001D23292F3500012220216348FDF7F3FF12
:104CE00030E0012240216048FDF7EDFF2AE001227B
:104CF00011035E48FDF7E7FF24E0012211035B4842
:104D0000FDF7E1FF1EE0012211035848FDF7DBFF2C
:104D100018E0012211035548FDF7D5FF12E00122EA
:104D200011035248FDF7CFFF0CE0012211034F4859
:104D3000FDF7C9FF06E0012211034C48FDF7C3FF50
:104D400000E000BF8EE0A078012848D160780928F3
:104D500043D2DFE800F0050B11181F262D343B006D
:104D6000002220214048FDF7AEFF37E0002240211D
:104D70003D48FDF7A8FF31E000224FF480513B4849
:104D8000FDF7A1FF2AE000224FF480513748FDF7DC
:104D90009AFF23E000224FF480513448FDF793FF3F
:104DA0001CE000224FF480513048FDF78CFF15E0E5
:104DB00000224FF480512D48FDF785FF0EE00022C0
:104DC0004FF480512948FDF77EFF07E000224FF4A1
:104DD00080512648FDF777FF00E000BF42E0A07851
:104DE00002283FD1607809283AD2DFE800F0050AAE
:104DF0000F151B21272D330020211B48FDF75CFFD9
:104E00002FE040211848FDF757FF2AE04FF480516A
:104E10001648FDF751FF24E04FF480511348FDF789
:104E20004BFF1EE04FF480511048FDF745FF18E09E
:104E30004FF480510D48FDF73FFF12E04FF48051D1
:104E40000A48FDF739FF0CE04FF480510748FDF7A1
:104E500033FF06E04FF480510448FDF72DFF00E0DA
:104E600000BF00BF10BD0000000C00480008004853
:104E700010B504460A2C66D2DFE804F0050A0F15C7
:104E80001B21272D333920213048FDF769FD5BE0D8
:104E900040212E48FDF764FD56E04FF480512C4828
:104EA000FDF75EFD50E04FF480512948FDF758FDB5
:104EB0004AE04FF480512648FDF752FD44E04FF49C
:104EC00080512348FDF74CFD3EE04FF480512048CF
:104ED000FDF746FD38E04FF480511D48FDF740FDD9
:104EE00032E04FF480511A48FDF73AFD2CE02021C2
:104EF0001648FDF735FD40211448FDF731FD4FF40C
:104F000080511348FDF72CFD4FF480511048FDF7F8
:104F100027FD4FF480510E48FDF722FD4FF48051DC
:104F20000B48FDF71DFD4FF480510948FDF718FDB2
:104F30004FF480510648FDF713FD4FF480510448AB
:104F4000FDF70EFD00E000BF00BF10BD000C0048E3
:104F50000008004810B586B00446012002900020E9
:104F600003900A2C72D2DFE804F005111D2B39479B
:104F7000556372802020019001A97748FDF792FDCA
:104F8000002220217448FDF79EFEE1E040200190C0
:104F900001A97148FDF786FD002240216E48FDF70A
:104FA00092FED5E04FF48050019001A96B48FDF7C7
:104FB00079FD00224FF480516848FDF784FEC7E078
:104FC0004FF48050019001A96448FDF76BFD002269
:104FD0004FF480516148FDF776FEB9E04FF4805000
:104FE000019001A95D48FDF75DFD00224FF480515D
:104FF0005A48FDF768FEABE04FF48050019001A9DC
:105000005648FDF74FFD00224FF480515348FDF7FD
:105010005AFE9DE04FF48050019001A94F48FDF7E2
:1050200041FD00224FF480514C48FDF74CFE8FE0CB
:105030004FF48050019001A94848FDF733FD00224C
:105040004FF480514548FDF73EFE81E07FE04FF48C
:105050008050019001A94148FDF724FD00224FF442
:1050600080513E48FDF72FFE72E02020019001A9FB
:105070003948FDF717FD002220213748FDF723FEB0
:105080004020019001A93448FDF70CFD0022402189
:105090003148FDF718FE4FF48050019001A92F48C8
:1050A000FDF700FD00224FF480512C48FDF70BFE68
:1050B0004FF48050019001A92848FDF7F3FC00222D
:1050C0004FF480512548FDF7FEFD4FF480500190CC
:1050D00001A92248FDF7E6FC00224FF480511F4849
:1050E000FDF7F1FD4FF48050019001A91B48FDF739
:1050F000D9FC00224FF480511848FDF7E4FD4FF42D
:105100008050019001A91548FDF7CCFC00224FF416
:1051100080511248FDF7D7FD4FF48050019001A94E
:105120000E48FDF7BFFC00224FF480510B48FDF7FD
:10513000CAFD4FF48050019001A90848FDF7B2FC68
:1051400000224FF480510548FDF7BDFD00E000BF8F
:1051500000BF06B010BD0000000C00480008004869
:1051600000B589B000220321084602F031FD08494C
:105170000860242207496846FBF796F86A46002132
:10518000054802F0E7FD08B9FDF754FA09B000BD83
:10519000A8010020CCA70008995C000800B589B0E0
:1051A00000220421032002F013FD08490860242294
:1051B00007496846FBF778F86A460021054802F07F
:1051C000C9FD08B9FDF736FA09B000BDAC010020F1
:1051D000F0A70008F55C000800B589B0002208219E
:1051E000052002F0F5FC08490860242207496846BA
:1051F000FBF75AF86A460021054802F0ABFD08B9F2
:10520000FDF718FA09B000BDB001002014A800088D
:10521000995D000800B589B000220C21032002F03E
:10522000D7FC08490860242207496846FBF73CF888
:105230006A460021054802F08DFD08B9FDF7FAF92C
:1052400009B000BDC401002050A80008095F000893
:1052500000B589B000223021052002F0B9FC0849D0
:105260000860242207496846FBF71EF86A460021B9
:10527000054802F06FFD08B9FDF7DCF909B000BD83
:10528000EC01002074A80008F95F000800B587B0A1
:10529000142102A8FBF721F800BF4848C06C40F079
:1052A00010004649C8640846C06C00F01000019028
:1052B00000BF00BF00BF0846C06C40F00400C864D7
:1052C0000846C06C00F00400019000BF00BF00BFA2
:1052D0000846C06C40F08000C8640846C06C00F00E
:1052E0008000019000BF00BF00BF0846C06C40F0C6
:1052F0000100C8640846C06C00F00100019000BFC6
:1053000000BF00BF0846C06C40F00200C8640846F9
:10531000C06C00F00200019000BF00BF00BF084653
:10532000C06C40F00800C8640846C06C00F008007B
:10533000019000BF00BF4FF6FF7002900320039062
:105340000020049002A91E48FDF7ACFB4FF6FF7049
:105350000290032003900020049002A91948FDF751
:10536000A1FB0320029003900020049002A916489C
:10537000FDF798FB49F6FF70029003200390002090
:10538000049002A94FF09040FDF78CFB4FF6FF70A0
:105390000290032003900020049002A90B48FDF71F
:1053A00081FB4FF6FF7002900320039000200490D1
:1053B00002A90748FDF776FB07B000BD00100240C8
:1053C0000010004800080048001C00480004004885
:1053D000000C004810B508480849086002204860E1
:1053E00040F6FF710548C1608160FDF777FC08B1A8
:1053F000FDF720F910BD00000030004058020020E9
:1054000010B50B480B49086000204860002109488E
:1054100081604FF6FF71416100210162416281624A
:10542000C1620163FDF786FE08B1FDF703F910BD07
:10543000007C00406802002000BFFEE770470000CB
:1054400010B50A4800F042FE0949086009E0084921
:105450000968486880470648006800F03DFE044936
:105460000860034800680028F1D110BDD436002040
:10547000A40000207047704710B50A4800F026FECF
:105480000949086009E008490968486880470648F2
:10549000006800F021FE0449086003480068002805
:1054A000F1D110BD9C380020800100202DE9F04191
:1054B00004460F4600255C48C06800F0030090B128
:1054C0005948C06800F003002168884209D120686B
:1054D00038B15548C068C0F30210401C616888426A
:1054E00033D0012531E02068012804D0022809D0FA
:1054F00003281AD10DE04C48006800F0020000B902
:10550000012514E04848006800F4806000B90125D6
:105510000DE04548006800F4003028B942480068B2
:1055200000F4802000B9012501E0012500BF00BF83
:105530005DB9D4E90010401E41EA00103A49C9683B
:1055400021F0730108433849C860002D68D13648FE
:10555000006820F0806034490860FDF7B9FB06461A
:1055600006E0FDF7B5FB801B022801D9032505E005
:105570002D48006800F000600028F2D100BFCDBBCC
:105580006FB9A0680002E168090940EA4140264974
:105590000969264A114008432349086120E0012F88
:1055A0000FD1A0680002218A0122C2EB510140EA1A
:1055B00041501D4909691E4A114008431A490861B2
:1055C0000EE0A0680002217D0122C2EB510140EAF9
:1055D000416015490969174A114008431249086199
:1055E0001148006840F080600F490860FDF770FBCB
:1055F000064607E014E0FDF76BFB801B022801D98B
:10560000032505E00848006800F000600028F2D09B
:1056100000BF2DB904480069A16908430249086127
:105620002846BDE8F081000000100240FF80FDFF29
:10563000FF809FFFFF80FFF92DE9F04104460F46F0
:1056400000255348C06800F0030090B15048C0687E
:1056500000F003002168884209D1206838B14C4825
:10566000C068C0F30210401C6168884233D0012535
:1056700031E02068012804D0022809D003281AD17B
:105680000DE04348006800F0020000B9012514E075
:105690003F48006800F4806000B901250DE03C48F7
:1056A000006800F4003028B93948006800F4802010
:1056B00000B9012501E0012500BF00BF5DB9D4E9B3
:1056C0000010401E41EA00103149C96821F0730101
:1056D00008432F49C860002D56D12D48006820F09E
:1056E00080502B490860FDF7F3FA064606E0FDF707
:1056F000EFFA801B022801D9032505E02448006841
:1057000000F000500028F2D100BF75BB6FB9A0684F
:105710000002E168090940EA41401D4949691D4A02
:10572000114008431A4948610EE0A0680002217C3C
:105730000122C2EB510140EA416015494969164A0C
:1057400011400843124948611148006840F08050F8
:105750000F490860FDF7BCFA064607E0FDF7B8FA06
:10576000801B022802D9032506E00DE008480068E6
:1057700000F000500028F1D000BF2DB90448406966
:1057800061690843024948612846BDE8F08100008C
:1057900000100240FF80FDFFFF80FFF9F8B50446CE
:1057A00000262348806D00F0805018B1FDF7DEFE22
:1057B000054616E000BF1E48806D40F080501C4931
:1057C00088650846806D00F08050009000BF00BFE3
:1057D000FDF7CCFE05461648806D20F08050144938
:1057E0008865B5F5007F07D1802C10D9A02C01D990
:1057F00002260CE001260AE0802C01D9032606E0EF
:10580000802C01D1022602E0702C00D1012609482B
:10581000006820F007003043064908600846006829
:1058200000F00700B04201D00120F8BD0020FCE7E5
:10583000001002400020024010B50A4800F046FC6B
:105840000949086009E0084909684868804706482E
:10585000006800F041FC0449086003480068002823
:10586000F1D110BDC43800209401002010B50A48C1
:1058700000F02CFC0949086009E0084909684868FB
:1058800080470648006800F027FC04490860034888
:1058900000680028F1D110BD0C3800203C01002028
:1058A00070B5044600262068C06800F04000B8B912
:1058B000701E2168C860FDF70BFA054609E0FDF788
:1058C00007FA401BB0F57A7F03D90326032084F83A
:1058D00021002068C06800F0400008B9032EEED116
:1058E000304670BD70B5044600251748006820F0AA
:1058F000800015490860081F006800F0200040B9CA
:105900002046FEF79FFEE0B1032084F82100032526
:1059100017E00D48001F006820F020000A49091F09
:1059200008602046FEF78EFE18B1032084F821009F
:1059300003250548001F006840F020000249091FA8
:105940000860284670BD00000C28004010B50A48C9
:1059500000F0BCFB0949086009E00849096848688B
:1059600080470648006800F0B7FB04490860034818
:1059700000680028F1D110BDE4360020AC00002002
:1059800010B50A4800F0A2FB0949086009E008497F
:105990000968486880470648006800F09DFB044994
:1059A0000860034800680028F1D110BDB438002019
:1059B0008C01002010B50A4800F088FB09490860F6
:1059C00009E008490968486880470648006800F00F
:1059D00083FB04490860034800680028F1D110BD2A
:1059E000143800204001002010B50A4800F06EFB7A
:1059F0000949086009E0084909684868804706487D
:105A0000006800F069FB044908600348006800284A
:105A1000F1D110BDDC3700202401002010B50A4868
:105A200000F054FB0949086009E008490968486822
:105A300080470648006800F04FFB044908600348AF
:105A400000680028F1D110BDE437002028010020B3
:105A500010B50A4800F03AFB0949086009E0084916
:105A60000968486880470648006800F035FB04492B
:105A70000860034800680028F1D110BD1C380020E0
:105A8000440100207CB504460D46164601208DF8E1
:105A900000008DF801408DF802500196074800681B
:105AA00002F064F838B100231A46694603480068DA
:105AB00002F0EAF87CBD6FF00400FBE7B0010020C3
:105AC00038B5044601208DF800008DF801400848E3
:105AD000006802F04BF838B100231A4669460448C2
