:020000040800F2
:10000000386E00207D020008D96E00082D5C0008C3
:10001000F56B00080918000869A00008000000003E
:100020000000000000000000000000009D0100082A
:100030000D29000800000000F901000821910008C6
:1000400029A20008DD6E00081D920008E97300086F
:10005000812A00089B02000811290008792900085C
:10006000AD290008E1290008152A000835260008F6
:10007000692600089D260008D126000805270008EB
:10008000392700086D2700083D090008752300087E
:10009000D92200080D23000841230008492A00083E
:1000A00051920008ED920008B9920008859200086C
:1000B00021930008559300089B020008655C000826
:1000C000315C0008CD5C0008995C0008ED800008F8
:1000D00021810008BD9F0008F19F000825A00008AD
:1000E00045290008097300089B0200089B020008CC
:1000F0009B0200089B0200089B0200089B0200086C
:100100009B020008517400089B02000855810008FA
:10011000BD9600089B020008899300089B02000816
:10012000A1270008D5270008092800083D28000855
:1001300071280008CD250008012600089B02000850
:10014000A9230008C5600008196100089B02000887
:10015000A5280008D928000811630008156F0008B9
:10016000355D0008015D00081D7400089B02000851
:100170009B020008BD9300089B02000800000000DD
:10018000D5720008B52A0008DFF80CD000F076FB25
:1001900000480047C9CC0008386E00202C4B196875
:1001A000086800F05AB880F30988BFF36F8F4FF0EA
:1001B000000080F3118870470000000008480068C4
:1001C000006880F308884FF0000080F3148862B65E
:1001D00061B6BFF34F8FBFF36F8F00DF00BF00BF6B
:1001E00008ED00E0DFF80C00016841F470010160E7
:1001F000704700BF88ED00E0EFF30980BFF36F8F19
:10020000134B1A681EF0100F08BF20ED108A20E96A
:10021000F04F106009B44FF0500080F31188BFF325
:100220004F8FBFF36F8F0FF02DF94FF0000080F369
:10023000118809BC1968086800F014B81EF0100F86
:1002400008BF00F014B880F30988BFF36F8F7047C0
:100250001C000020EFF30580704730C8B0E8C04FA5
:10026000FFF7A1BF30C8B0E8C04FFFF7E7BFB0EC61
:10027000088AB0EC08CAFFF7E6BF000007488047CD
:100280000748804707480047FEE7FEE7FEE7FEE72E
:10029000FEE7FEE7FEE7FEE7FEE7FEE7CD9100089A
:1002A0001D090008890100082DE9F05F05460020BE
:1002B00092469B4688460646814640241BE02846D7
:1002C00041464746224600F036F953465A46C01A80
:1002D000914110D311461846224600F01DF92D1AFF
:1002E00067EB01084F4622460120002100F014F977
:1002F00017EB00094E41201EA4F10104DFDC484643
:1003000031462A46434600F000B830BCBDE8C09FE5
:1003100040EA01039B0703D009E008C9121F08C087
:10032000042AFAD203E011F8013B00F8013B521E07
:10033000F9D27047D2B201E000F8012B491EFBD27E
:1003400070470022F6E710B513460A4604461946E0
:10035000FFF7F0FF204610BD30B5044600200346ED
:1003600000E05B1C934203D2E05CCD5C401BF8D004
:1003700030BD034611F8012B00F8012B002AF9D1FA
:10038000184670472DE9FE4F81EA030404F000444B
:1003900021F0004100944FF0000B23F0004350EA9D
:1003A00001045ED052EA03045BD0C3F30A54C1F3E4
:1003B0000A552C44A4F2F3340194A0FB0254C1F377
:1003C000130141F48011C3F3130343F4801301FBC1
:1003D000024400FB034E840A970A44EA815447EA28
:1003E0008357A4FB076802958D0A05FB07854FEA32
:1003F000932C04FB0C542705029D4FEA065847EA4C
:100400001637B5EB08056EEB070C870E920E47EA20
:10041000811742EA8312A7FB0201B6EB0B0164EBE2
:1004200000042B0D43EA0C335E1844EB1C50DA46F3
:100430005146E7FB0201C5F313044FEA0B3343EACD
:1004400014534FEA0432019C43EA0603A4F10C045E
:100450000294009CCDE900B400F08CF803B000F0E9
:1004600003B800200146F9E730BCBDE8C08F0EB5E7
:1004700040F2334102910021CDE900110A460B46BA
:1004800000F078F803B000BDC1F30A5210B5C1F313
:10049000130140F2FF3341F480119A4201DA002047
:1004A00010BD40F233439A42A2F2334203DC52427F
:1004B00000F041F810BD904010BD000030B5041EA2
:1004C00071F1000404DB4FF00044404264EB010191
:1004D000141E73F1000405DB1C464FF0004352422A
:1004E00063EB0403994208BF904230BD30B50B4620
:1004F000014600202022012409E021FA02F59D4254
:1005000005D303FA02F5491B04FA02F52844151E27
:10051000A2F10102F1DC30BD202A04DB203A00FA0E
:1005200002F1002070479140C2F1200320FA03F34A
:10053000194390407047202A04DB203A21FA02F048
:100540000021704721FA02F3D040C2F1200291400D
:1005500008431946704710B5141E73F1000408DAF9
:10056000401C41F1000192185B411A4301D120F077
:10057000010010BD2DE9F04D92469B4611B1B1FA34
:1005800081F202E0B0FA80F220329046FFF7C4FF19
:1005900004460F4640EA0A0041EA0B0153465A4618
:1005A000084313D0114653EA010019D0C8F14002A4
:1005B0005046FFF7C0FF05460E4650465946424694
:1005C000FFF7AAFF084305D0012004E02046394682
:1005D000BDE8F08D0020054346EAE0762C43374322
:1005E0000A986305E40AA0EB08000022FD0A44EA29
:1005F00047540A3002D500200146E9E701051019E9
:100600006941DDE9084500196941BDE8F04DA2E7FF
:100610002DE9FE4F804681EA0300C00F0C46009092
:1006200021F0004123F00045B8EB0200A94105D2BA
:100630004046214690461C460B46024623F00040A9
:10064000104347D0270DC7F30A00C3F30A510290A5
:10065000401A019040286BDAC3F3130040F4801B6A
:100660000098924620B10023D2EB030A63EB0B0BF8
:1006700001985946C0F140025046FFF74DFF06462B
:100680000D4650465946019A00F00AF910EB080051
:100690006141002487EA115284EAE7731A4340D08B
:1006A000009A62B3019A012A4FEA075215DC001B37
:1006B00061EB02014FF0004202EA0752CDE900422D
:1006C000001C41F5801132462B46FFF753FF03B063
:1006D00000F045B840462146F9E7001B61EB0201F6
:1006E000001C41F5801300185B412018A2F500178B
:1006F00047EB030140EAD570B6196D4111E06D0872
:100700004FEA360645EAC0754FEA0752001B61EB17
:100710000201001C41F5801149084FEA3000001920
:10072000514132462B4603B000F01CB8FFF713BF0F
:100730000098012240000023D0EB020263EBE0733B
:10074000009821464FEAE074B8EB000061EB040129
:10075000E9E783F000435BE781F0004158E730BCF4
:10076000BDE8C08F30BCBDE8C04FFFF7DFBF2DE94B
:10077000F04D81EA030404F0004B21F000451446DB
:100780004FF0000A23F0004150EA050220D054EA5D
:1007900001021DD0C5F30A570246C5F31303C1F386
:1007A0001300C1F30A5640F4801543F48013A7EBFD
:1007B0000608101BD64608F2FD3873EB050002D37D
:1007C00008F1010801E092185B41B8F1000F03DA6B
:1007D00000200146BDE8F08D00204FF48011064650
:1007E00084460EE0171B73EB050705D3121B63EB62
:1007F000050306434CEA010C49084FEA3000921801
:100800005B4150EA0107EDD152EA030012D082EABF
:10081000040083EA0501084305D0101BAB4106D252
:100820000122002306E000224FF0004302E06FF0B7
:10083000010253101AEB06004CEB085110EB0A00B2
:1008400041EB0B01BDE8F04DFFF785BEC1F30A5245
:10085000C1F3130140F2FF3341F480119A4202DAEE
:1008600000200146704740F233439A42A2F23342DD
:1008700002DC5242FFF75FBEFFF74EBE064C074D4B
:1008800006E0E06840F0010394E807009847103460
:10089000AC42F6D3FFF77CFCE81701080818010802
:1008A000202A06DBCB17203A41FA02F043EAE07334
:1008B00006E041FA02F3D040C2F120029140084321
:1008C0001946704770B58C1810F8015B15F00703D6
:1008D00001D110F8013B2A1106D110F8012B03E0D9
:1008E00010F8016B01F8016B5B1EF9D12B0705D4E1
:1008F0000023521E0DD401F8013BFAE710F8013B2A
:10090000CB1A921C03E013F8015B01F8015B521E45
:10091000F9D5A142D8D3002070BD00000648694631
:100920004FF0CD324FF0AB33036000E00260001DAA
:100930008842FBD170470000386A002010B50A4891
:1009400008F0B2FB0949086009E0084909684868ED
:1009500080470648006808F0ADFB0449086003487A
:1009600000680028F1D110BD6C610020000100205A
:100970002DE9F05F044688464FF00009474620689D
:1009800005F064FB8246206805F04CFB8346BAF113
:10099000000F02D1BBF1000F6ED02068C06800F0DC
:1009A000007000B3607E01281DD1207E01281AD17D
:1009B00001270FE0314881450AD3606D40F01000F7
:1009C0006065A06D40F00100A065012000F05AB8FC
:1009D00009F1010920680068C0F380100028E9D0FF
:1009E000402021680860022F10D0206805F02EFBFF
:1009F00060B1206805F01BFB40B920688168204A7F
:100A0000114041F01001816000BF00BF012F10D0E4
:100A1000206805F007FB60B1206805F008FB40B9CD
:100A200020688168164A114041F02001816000BFB2
:100A300000BF022F03D0032F03D10C2503E00825AC
:100A400001E0042500BF00BF03F096F906460EE062
:100A500003F092F9801B052809D9606D40F0100061
:100A60006065A06D40F00100A0650120AEE7206840
:100A7000806828400028EBD10020A7E7000040A3B1
:100A8000C0FFFF7F30BCBDE8C09F000070B50446CA
:100A9000206805F0CCFA0646206805F0CDFA70B360
:100AA0006EBB2068806800F00D0001280AD1206824
:100AB0008168174A1140891C816000BF03202168AA
:100AC000086009E0606D40F010006065A06D40F0C6
:100AD0000100A065012070BD03F04EF905460FE04E
:100AE00003F04AF9401B02280AD9606D40F010005B
:100AF0006065A06D40F00100A0650120EBE705E016
:100B00002068806800F001000028E9D10020E2E7B9
:100B1000C0FFFF7F70B50446206805F08DFA88BBE2
:100B2000206880681849084048B1606D40F01000A6
:100B30006065A06D40F00100A065012070BD2068D7
:100B400005F05AFA03F018F9054615E0206805F09B
:100B500073FA10B9206805F04FFA03F00DF9401B45
:100B6000022809D9606D40F010006065A06D40F06A
:100B70000100A0650120E1E72068006800F00100A5
:100B80000028E3D00020D9E73F00008010B50248DC
:100B900003F078F910BD00009067002010B50446FE
:100BA00000BF07480068406820F4E0502043044933
:100BB00009684860024805F0F9F900BF10BD00005F
:100BC000906700202DE9FE4F0446002C01DA6042B8
:100BD00000E0204605460A20B5FBF0F100FB115667
:100BE000B5FBF0F00A21B0FBF1F201FB1207642023
:100BF000B5FBF0F0B0FBF1F201FB12084FF47A7094
:100C0000B5FBF0F0B0FBF1F201FB120942F21070FB
:100C1000B5FBF0F0B0FBF1F201FB120AE448B5FBC2
:100C2000F0F0B0FBF1F201FB120BE248B5FBF0F083
:100C3000B0FBF1F201FB12000290DF48B5FBF0F0CF
:100C4000B0FBF1F201FB12000190DC48B5FBF0F0C3
:100C5000B0FBF1F201FB12000090009820B30021DC
:100C6000009809F0FBFA0121019809F0F7FA022136
:100C7000029809F0F3FA0321584609F0EFFA04212B
:100C8000504609F0EBFA0521484609F0E7FA06213B
:100C9000404609F0E3FA0721384609F0DFFA082157
:100CA000304609F0DBFA70E1019858B3002C04DA01
:100CB0000021102009F0D2FA03E00021122009F0EF
:100CC000CDFA0121019809F0C9FA0221029809F030
:100CD000C5FA0321584609F0C1FA0421504609F02B
:100CE000BDFA0521484609F0B9FA0621404609F047
:100CF000B5FA0721384609F0B1FA0821304609F063
:100D0000ADFA42E1029858B30021122009F0A6FA88
:100D1000002C04DA0121102009F0A0FA03E00121DF
:100D2000122009F09BFA0221029809F097FA032198
:100D3000584609F093FA0421504609F08FFA05212C
:100D4000484609F08BFA0621404609F087FA072148
:100D5000384609F083FA0821304609F07FFA14E199
:100D6000BBF1000F2BD00021122009F077FA0121EE
:100D7000122009F073FA002C04DA0221102009F085
:100D80006DFA03E00221122009F068FA03215846A7
:100D900009F064FA0421504609F060FA052148463A
:100DA00009F05CFA0621404609F058FA0721384656
:100DB00009F054FA0821304609F050FAE5E0BAF19A
:100DC000000F2BD00021122009F048FA0121122037
:100DD00009F044FA0221122009F040FA002C04DA4A
:100DE0000321102009F03AFA03E00321122009F050
:100DF00035FA0421504609F031FA0521484609F038
:100E00002DFA0621404609F029FA0721384609F053
:100E100025FA0821304609F021FAB6E0B9F1000FB1
:100E20002BD00021122009F019FA0121122009F01B
:100E300015FA0221122009F011FA0321122009F0FB
:100E40000DFA002C04DA0421102009F007FA03E05F
:100E50000421122009F002FA0521484609F0FEF9A2
:100E60000621404609F0FAF90721384609F0F6F95B
:100E70000821304609F0F2F987E0B8F1000F2BD0D5
:100E80000021122009F0EAF90121122009F0E6F907
:100E90000221122009F0E2F90321122009F0DEF903
:100EA0000421122009F0DAF9002C04DA05211020BF
:100EB00009F0D4F903E00521122009F0CFF9062149
:100EC000404609F0CBF90721384609F0C7F9082157
:100ED000304609F0C3F958E05FB30021122009F051
:100EE000BDF90121122009F0B9F90221122009F0FF
:100EF000B5F90321122009F0B1F90421122009F0FB
:100F0000ADF90521122009F0A9F9002C04DA062117
:100F1000102009F0A3F903E00621122009F09EF940
:100F20000721384609F09AF90821304609F096F968
:100F30002BE056B30021122009F090F90121122074
:100F400009F08CF90221122009F088F903211220FE
:100F500009F084F90421122009F080F905211220FA
:100F600009F07CF90621122009F078F9002C04DA46
:100F70000721102009F072F903E00721122009F07F
:100F80006DF90821304609F069F90121002001F0CE
:100F900083FE0121084601F07FFE0121022001F0BD
:100FA0007BFE0121032001F077FE00F009B800006C
:100FB000A086010040420F008096980000E1F505F0
:100FC0001EBCBDE8E08F000030B52DED048B85B070
:100FD000B0EE408AF0EE608A044653EC182BFEA176
:100FE00001A80AF0A9F89FEDFD0B53EC102B51EC72
:100FF000180BFFF7C7F941EC190BFFF745FA64210D
:10100000B0FBF1F201FB12052A46F6A103A80AF093
:1010100093F89DF806002E2857D10021122009F0E0
:101020001DF90121122009F019F90221122009F0FD
:1010300015F90321122009F011F99DF804002D285B
:1010400004D10421102009F009F903E00421122041
:1010500009F004F99DF805103039C8B2052109F0EE
:10106000FDF89DF807103039C8B2062109F0F6F8EE
:101070009DF808103039C8B2072109F0EFF89DF843
:1010800009103039C8B2082109F0E8F8002C1BD04B
:101090009DF80A103039C8B2092109F0DFF89DF82F
:1010A0000B103039C8B20A2109F0D8F89DF80C109D
:1010B0003039C8B20B2109F0D1F89DF80D10303944
:1010C000C8B20C2109F0CAF897E19DF807002E2854
:1010D0005AD10021122009F0C1F80121122009F093
:1010E000BDF80221122009F0B9F89DF804002D285E
:1010F00004D10321102009F0B1F803E003211220EC
:1011000009F0ACF89DF805103039C8B2042109F097
:10111000A5F89DF806103039C8B2052109F09EF8EF
:101120009DF808103039C8B2062109F097F89DF8EB
:1011300009103039C8B2072109F090F89DF80A105B
:101140003039C8B2082109F089F8002CBCD09DF8CC
:101150000B103039C8B2092109F080F89DF80C1045
:101160003039C8B20A2109F079F89DF80D103039EC
:10117000C8B20B2109F072F89DF80E103039C8B2D0
:101180000C2109F06BF838E19DF808002E285DD19C
:101190000021122009F062F80121122009F05EF806
:1011A0009DF804002D2804D10221102009F056F8E2
:1011B00003E00221122009F051F89DF805103039A2
:1011C000C8B2032109F04AF89DF806103039C8B2B8
:1011D000042109F043F89DF807103039C8B2052101
:1011E00009F03CF89DF809103039C8B2062109F021
:1011F00035F89DF80A103039C8B2072109F02EF8E9
:101200009DF80B103039C8B2082109F027F8002CDE
:10121000B9D09DF80C103039C8B2092109F01EF878
:101220009DF80D103039C8B20A2109F017F89DF861
:101230000E103039C8B20B2109F010F89DF80F10CC
:101240003039C8B20C2109F009F8D6E09DF8090040
:101250002E2860D10021122009F000F89DF804002A
:101260002D2804D10121102008F0F8FF03E001210E
:10127000122008F0F3FF9DF805103039C8B20221A2
:1012800008F0ECFF9DF806103039C8B2032108F0D1
:10129000E5FF9DF807103039C8B2042108F0DEFFE1
:1012A0009DF808103039C8B2052108F0D7FF9DF825
:1012B0000A103039C8B2062108F0D0FF9DF80B1093
:1012C0003039C8B2072108F0C9FF9DF80C10303939
:1012D000C8B2082108F0C2FF002CB6D09DF80D104E
:1012E0003039C8B2092108F0B9FF9DF80E10303925
:1012F000C8B20A2108F0B2FF9DF80F103039C8B209
:101300000B2108F0ABFF9DF810103039C8B20C214A
:1013100008F0A4FF71E09DF80A002E286DD19DF819
:1013200004002D2804D10021102008F097FF03E0CD
:101330000021122008F092FF9DF805103039C8B244
:10134000012108F08BFF9DF806103039C8B2022148
:1013500008F084FF9DF807103039C8B2032108F067
:101360007DFF9DF808103039C8B2042108F076FFDF
:101370009DF809103039C8B2052108F06FFF9DF8BB
:101380000B103039C8B2062108F068FF9DF80C1028
:101390003039C8B2072108F061FF9DF80D103039CF
:1013A000C8B2082108F05AFFACB19DF80E103039D0
:1013B000C8B2092108F052FF9DF80F103039C8B2A9
:1013C0000A2108F04BFF9DF810103039C8B20B21EC
:1013D00008F044FF0AE010E025206600000000004D
:1013E000D012634125303264000000009DF81110D6
:1013F0003039C8B20C2108F031FF0021084601F055
:101400004BFC0121084601F047FC0021022001F0BD
:1014100043FC0021032001F03FFC5CB100210C20C3
:1014200001F03AFC00210D2001F036FC00210E20D5
:1014300001F032FC05B0BDEC048B30BD70B5044644
:101440000025C2E020782738532870D2DFE800F06A
:10145000AFB2B2B2B2B248B2B22A2D303336393C52
:101460003F4245B2B2B2ACB2B2B24B4E5154575AEF
:10147000767073B2B260B26669B2B25D7963B2B2CD
:10148000B2B26CB2B2B2B2B2B2B27C7F8285888B99
:10149000A6A0A3B2B291B2979AB2B28EA994B2B2F8
:1014A000B2B29D000020207087E00120207084E00F
:1014B0000220207081E0032020707EE00420207054
:1014C0007BE00520207078E00620207075E0072082
:1014D000207072E0082020706FE0092020706CE01E
:1014E0001020207069E00A20207066E00B20207038
:1014F00063E00C20207060E00D2020705DE00E2085
:1015000020705AE00F20207057E01120207054E026
:101510001320207051E0142020704EE01520207020
:101520004BE01620207048E01720207045E041E095
:101530001820207041E0192020703EE00920207022
:101540003BE00520207038E00A20207035E00B20B9
:10155000207032E00C2020702FE00D2020702CE055
:101560000E20207029E00F20207026E0112020702E
:1015700023E01320207020E0142020701DE01520AF
:1015800020701AE01620207017E01720207014E059
:101590001820207011E0192020700EE00920207022
:1015A0000BE00520207008E01A20207005E01B20C9
:1015B000207002E01220207000BF00BF14F8010B61
:1015C000E9B208F04BFE681CC5B20D2DFFF63AAF2C
:1015D00070BD000070B590B0064600221146012093
:1015E0000BF0D8FE044606F0A1FC48A006F0E0F996
:1015F0004A4B0FCB0CAD0FC50CA806F049FF48A015
:1016000006F0D6F9642120460BF060FE0022114658
:10161000104606F0B1FE48A006F0CAF96421204643
:101620000BF054FE0021084606F016FF01210020B1
:1016300006F012FF46A006F0BBF9642120460BF02D
:1016400045FE002006F0B6FE5021002006F094FF73
:1016500044A006F0ADF9642120460BF037FE0022CD
:101660001146104606F0C0FE2C49143103C9CDE9DD
:101670000A0100220AA9042006F0B6FE3FA006F0E7
:1016800097F9642120460BF021FE002006F0CAFEE7
:1016900003208DF8000038220D210DF11500FEF712
:1016A00049FE684606F084FF3AA006F081F96421FD
:1016B00020460BF00BFE00200BF06EFD3B4908604E
:1016C00042F2107208460168002006F01BFF38A0A5
:1016D00006F06EF9642120460BF0F8FD42F210721C
:1016E00032480168002006F0EFFE37A006F060F9EE
:1016F000642120460BF0EAFD20460BF029FE0BF09A
:10170000BDFE05460BF02AFF10B070BD426F6F742E
:101710002073746172746564210000000412010872
:101720004D6F64627573206C696220626F6F742004
:10173000646F6E6521000000427574746F6E206CDA
:10174000696220626F6F7420646F6E652100000013
:101750004C656473206C696220626F6F7420646FE3
:101760006E65210042757A7A6572206C696220622A
:101770006F6F7420646F6E652100000043616C65BB
:101780006E646172206C696220626F6F7420646F96
:101790006E652100476C6173734C6364206C6962F1
:1017A00020626F6F7420646F6E652100CC01002091
:1017B000566F6C74616765206C696220626F6F742C
:1017C00020646F6E6521000054656D7065726174F0
:1017D000757265206C696220626F6F7420646F6E31
:1017E0006521000000B589B0242205496846FEF74E
:1017F0008FFD6A46002103480BF046FE09B000BD8C
:10180000E0110108D515000800BFFEE710B5124829
:10181000006800F40050F0B14FF400500E49086029
:1018200000BF0E4807F040FC0D4908600EE00020A4
:1018300001F086F904460A48006841682046884756
:101840000748006807F036FC05490860044800684E
:101850000028ECD100BF10BD14040140FC62002040
:101860005002002010B51248006800F48060F0B10A
:101870004FF480600E49086000BF0E4807F014FC6A
:101880000D4908600EE0012001F05AF904460A48AB
:1018900000684168204688470748006807F00AFC4E
:1018A00005490860044800680028ECD100BF10BD5D
:1018B00014040140046300205402002010B51248B3
:1018C000006800F48060F0B14FF480600E49086059
:1018D00000BF0E4807F0E8FB0D4908600EE002204B
:1018E00001F02EF904460A480068416820468847FE
:1018F0000748006807F0DEFB0549086004480068F7
:101900000028ECD100BF10BD140401400C6300207E
:101910005802002010B51248006800F48060F0B151
:101920004FF480600E49086000BF0E4807F0BCFB12
:101930000D4908600EE0032001F002F904460A4850
:1019400000684168204688470748006807F0B2FBF6
:1019500005490860044800680028ECD100BF10BDAC
:1019600014040140146300205C02002010B51248EA
:10197000006800F48060F0B14FF480600E490860A8
:1019800000BF0E4807F090FB0D4908600EE00420F0
:1019900001F0D6F804460A480068416820468847A6
:1019A0000748006807F086FB05490860044800689E
:1019B0000028ECD100BF10BD140401401C630020BE
:1019C0006002002010B51248006800F48060F0B199
:1019D0004FF480600E49086000BF0E4807F064FBBA
:1019E0000D4908600EE0052001F0AAF804460A48F7
:1019F00000684168204688470748006807F05AFB9E
:101A000005490860044800680028ECD100BF10BDFB
:101A100014040140246300206402002010B5124821
:101A2000006800F48060F0B14FF480600E490860F7
:101A300000BF0E4807F038FB0D4908600EE0062095
:101A400001F07EF804460A4800684168204688474D
:101A50000748006807F02EFB054908600448006845
:101A60000028ECD100BF10BD140401402C630020FD
:101A70006802002010B51248006800F48060F0B1E0
:101A80004FF480600E49086000BF0E4807F00CFB61
:101A90000D4908600EE0072001F052F804460A489C
:101AA00000684168204688470748006807F002FB45
:101AB00005490860044800680028ECD100BF10BD4B
:101AC00014040140346300206C02002010B5124859
:101AD000006800F48060F0B14FF480600E49086047
:101AE00000BF0E4807F0E0FA0D4908600EE008203C
:101AF00001F026F804460A480068416820468847F5
:101B00000748006807F0D6FA0549086004480068ED
:101B10000028ECD100BF10BD140401403C6300203C
:101B20007002002010B50446012C04D100210846A3
:101B300006F05CFD12E0022C08D10121002006F025
:101B400055FD0021012006F051FD07E00121002094
:101B500006F04CFD0121084606F048FD10BD10B509
:101B60000446012C03D15021002006F005FD022C73
:101B70000BD15021002006F0FFFC5021FF2006F081
:101B8000FBFC5021002006F0F7FC10BD10B5034A05
:101B90000021042006F0F0FB10BD0000251B00080A
:101BA00010B5034A0021042006F0E6FB10BD00003A
:101BB0005F1B000810B504460A2C6AD2DFE804F067
:101BC000050B11171D23292F353B4FF400513248C7
:101BD00001F01AFF5EE04FF480612F4801F014FF1E
:101BE00058E04FF480612C4801F00EFF52E04FF4B2
:101BF0008061294801F008FF4CE04FF480612648DD
:101C000001F002FF46E04FF48061234801F0FCFE42
:101C100040E04FF48061204801F0F6FE3AE04FF4D6
:101C200080611D4801F0F0FE34E04FF480611A48F5
:101C300001F0EAFE2EE04FF40051174801F0E4FEF7
:101C40004FF48061144801F0DFFE4FF480611248C8
:101C500001F0DAFE4FF480610F4801F0D5FE4FF439
:101C600080610D4801F0D0FE4FF480610A4801F018
:101C7000CBFE4FF48061084801F0C6FE4FF480614E
:101C8000054801F0C1FE4FF48061034801F0BCFE3D
:101C900000E000BF00BF10BD0008004810B50446BA
:101CA0000A2C46D2DFE804F005090D1115191D2193
:101CB0002529282002F0B2FA3CE0282002F0AEFAF2
:101CC00038E0282002F0AAFA34E0282002F0A6FA30
:101CD00030E0282002F0A2FA2CE0282002F09EFA40
:101CE00028E0282002F09AFA24E0282002F096FA50
:101CF00020E0282002F092FA1CE0282002F08EFA60
:101D0000282002F08BFA282002F088FA282002F01E
:101D100085FA282002F082FA282002F07FFA282093
:101D200002F07CFA282002F079FA282002F076FAF4
:101D300000E000BF00BF10BD10B504460A2C46D21B
:101D4000DFE804F005090D1115191D2125292820AA
:101D500002F086FA3CE0282002F082FA38E02820DF
:101D600002F07EFA34E0282002F07AFA30E02820EF
:101D700002F076FA2CE0282002F072FA28E02820FF
:101D800002F06EFA24E0282002F06AFA20E028200F
:101D900002F066FA1CE0282002F062FA282002F025
:101DA0005FFA282002F05CFA282002F059FA282075
:101DB00002F056FA282002F053FA282002F050FAD6
:101DC000282002F04DFA282002F04AFA00E000BF75
:101DD00000BF10BD10B586B00446FE4802900A2C24
:101DE0007DD2DFE804F00522405E7D9BB9D7F7F590
:101DF0004FF4005001900020039001A9F64801F033
:101E0000A5FE00224FF40051F34801F0B0FF30224C
:101E1000F249F34807F0FEF800220F21282002F0D3
:101E20002FFA282002F01CFA10E24FF48060019093
:101E30000120039001A9E84801F088FE00224FF438
:101E40008061E54801F093FF3022E649E44808301C
:101E500007F0E0F800220F21282002F011FA2820D4
:101E600002F0FEF9F2E14FF480600190012003904E
:101E700001A9D94801F06AFE00224FF48061D648DA
:101E800001F075FF3022D849D548103007F0C2F86C
:101E900000220F21282002F0F3F9282002F0E0F9B7
:101EA000D4E14FF4806001900120039001A9CA4859
:101EB00001F04CFE00224FF48061C74801F057FF4B
:101EC0003022CA49C648183007F0A4F800220F2172
:101ED000282002F0D5F9282002F0C2F9B6E1B4E1D9
:101EE0004FF4806001900120039001A9BA4801F0ED
:101EF0002DFE00224FF48061B74801F038FF3022F8
:101F0000BB49B748203007F085F800220F21282070
:101F100002F0B6F9282002F0A3F997E14FF48060AF
:101F200001900120039001A9AB4801F00FFE0022AF
:101F30004FF48061A84801F01AFF3022AD49A8484B
:101F4000283007F067F800220F21282002F098F9C6
:101F5000282002F085F979E14FF48060019001209A
:101F6000039001A99C4801F0F1FD00224FF480612B
:101F7000994801F0FCFE30229F499948303007F023
:101F800049F800220F21282002F07AF9282002F0D7
:101F900067F95BE14FF4806001900120039001A993
:101FA0008D4801F0D3FD00224FF480618A4801F092
:101FB000DEFE302291498A48383007F02BF80022A3
:101FC0000F21282002F05CF9282002F049F93DE1B8
:101FD0001EE0FFE74FF4806001900120039001A90B
:101FE0007D4801F0B3FD00224FF480617A4801F092
:101FF000BEFE302282497A48403007F00BF80022BA
:102000000F21282002F03CF9282002F029F91DE1D7
:102010004FF4005001900020039001A96E4801F098
:1020200095FD00224FF400516B4801F0A0FE4FF4E3
:10203000806001900120039001A9674801F086FDAE
:1020400000224FF48061644801F091FE4FF48060FB
:1020500001900120039001A95F4801F077FD002263
:102060004FF480615C4801F082FE4FF48060019083
:102070000120039001A9584801F068FD00224FF4A7
:102080008061554801F073FE4FF48060019001209B
:10209000039001A9504801F059FD00224FF48061DE
:1020A0004D4801F064FE4FF48060019001200390E0
:1020B00001A9494801F04AFD00224FF480614648D9
:1020C00001F055FE4FF4806001900120039001A9BA
:1020D000414801F03BFD00224FF480613E4801F091
:1020E00046FE4FF4806001900120039001A93A4818
:1020F00001F02CFD00224FF48061374801F037FEDB
:102100004FF4806001900120039001A9324801F052
:102110001DFD00224FF480612F4801F028FE30227F
:102120002E492F4806F076FF00220F21282002F0CA
:10213000A7F8282002F094F830222A4928480830CD
:1021400006F068FF00220F21282002F099F82820CD
:1021500002F086F8302224492148103006F05AFF58
:1021600000220F21282002F08BF8282002F078F8B6
:1021700030221E491A48183006F04CFF00220F2169
:10218000282002F07DF8282002F06AF83022184951
:102190001348203006F03EFF00220F21282002F0D5
:1021A0006FF8282002F05CF8302212490C482830E1
:1021B00006F030FF00220F21282002F061F82820CD
:1021C00002F04EF830220C490548303006F022FF6C
:1021D000002217E000003110000800480D18000828
:1021E0001C67002065180008BD18000815190008B4
:1021F0006D190008C51900081D1A0008751A000895
:10220000CD1A00080F21282002F03AF8282002F009
:1022100027F830220F49104806F0FCFE00220F215B
:10222000282002F02DF8282002F01AF830220B495D
:102230000948083006F0EEFE00220F21282002F0A7
:102240001FF8282002F00CF800E000BF00BF06B025
:1022500010BD0000751A000854670020CD1A000850
:1022600010B54FF48061024801F0CEFB10BD0000B4
:102270000010004800B585B04FF480600090012048
:102280000190002002906946044801F05FFC0122A1
:102290009102024801F06BFD05B000BD001000483E
:1022A00010B5044634B900224FF48061094801F0AA
:1022B0005EFD0DE0012C05D101229102054801F0DF
:1022C00056FD05E0022C03D16102024801F048FDF1
:1022D00010BD00000010004810B50A4806F0E4FEEA
:1022E0000949086009E008490968486880470648C4
:1022F000006806F0DFFE0449086003480068002813
:10230000F1D110BD7C6100200801002010B50A4801
:1023100006F0CAFE0949086009E0084909684868EA
:1023200080470648006806F0C5FE04490860034877
:1023300000680028F1D110BD846100200C0100204C
:1023400010B50A4806F0B0FE0949086009E00849DE
:102350000968486880470648006806F0ABFE0449F3
:102360000860034800680028F1D110BD8C6100208E
:102370001001002010B50A4806F096FE09490860D1
:1023800009E008490968486880470648006806F07F
:1023900091FE04490860034800680028F1D110BD8F
:1023A000746100200401002010B50A4806F07CFE8C
:1023B0000949086009E008490968486880470648F3
:1023C000006806F077FE04490860034800680028AA
:1023D000F1D110BD7C6200208801002010B50446B8
:1023E000E3785B1CDAB263795B1CD9B2E08800F059
:1023F0007BFB207110BD10B5032001F00FFF10BD55
:1024000010B5032001F02CFF10BD000010B5032013
:1024100001F004FF014802F0F5FF10BD6C670020D9
:1024200000B5B3B00420229000202C90012024900D
:1024300022A802F0CFFB08B100F020FB4FF40030DF
:10244000009040122190684601F0FCFF08B100F0B6
:1024500015FB1848006840F4004016499039C1F84F
:102460009000154815490860002048601F21134856
:10247000816040F2FF31C160002101618161C16171
:1024800003F012F80D4802F0EBFE042200210B4885
:1024900002F012FF0C220A490A4806F0BBFD002296
:1024A0000F21032001F0ECFE032001F0D9FE33B030
:1024B00000BD000090100240002800406C67002022
:1024C000A92500087402002030B58FB00546002D04
:1024D00047D12548007820B12024002022490870E7
:1024E00003E03D24012020490870204800780A219B
:1024F00090FBF1F201FB120028B91D48007880F032
:1025000001001B4908701A48007888B11948006812
:1025100016490978154A5278CDE9002102901348EE
:102520008278234614A10DF1250008F005FE12E083
:102530001048B0F904000F380C4909780B4A52785A
:10254000CDE90021029009488278234610A10DF1BF
:10255000250008F0F1FD03208DF8100004A806F016
:1025600027F80FB030BD00001C020020E801002059
:102570001D020020C401002025303264256325306F
:10258000326420253032642025303464000000009D
:1025900025303264256325303264202530326420B2
:1025A000252030326427000010B5024802F00EFFEB
:1025B00010BD00006C67002010B5034A0021052003
:1025C00005F012FF10BD0000C924000810B50A482C
:1025D00006F06AFD0949086009E008490968486889
:1025E00080470648006806F065FD04490860034816
:1025F00000680028F1D110BD6C620020800100202D
:1026000010B50A4806F050FD0949086009E008497C
:102610000968486880470648006806F04BFD044991
:102620000860034800680028F1D110BD74620020E2
:102630008401002010B50A4806F036FD09490860FB
:1026400009E008490968486880470648006806F0BC
:1026500031FD04490860034800680028F1D110BD2D
:1026600034610020E400002010B50A4806F01CFD8B
:102670000949086009E00849096848688047064830
:10268000006806F017FD0449086003480068002848
:10269000F1D110BD3C610020E800002010B50A48CF
:1026A00006F002FD0949086009E008490968486820
:1026B00080470648006806F0FDFC044908600348AE
:1026C00000680028F1D110BD44610020EC0000201A
:1026D00010B50A4806F0E8FC0949086009E0084915
:1026E0000968486880470648006806F0E3FC04492A
:1026F0000860034800680028F1D110BD4C6100203B
:10270000F000002010B50A4806F0CEFC0949086028
:1027100009E008490968486880470648006806F0EB
:10272000C9FC04490860034800680028F1D110BDC5
:1027300054610020F400002010B50A4806F0B4FCF3
:102740000949086009E0084909684868804706485F
:10275000006806F0AFFC04490860034800680028E0
:10276000F1D110BD5C610020F800002010B50A48CE
:1027700006F09AFC0949086009E0084909684868B8
:1027800080470648006806F095FC04490860034845
:1027900000680028F1D110BD64610020FC00002019
:1027A00010B50A4806F080FC0949086009E00849AC
:1027B0000968486880470648006806F07BFC0449C1
:1027C0000860034800680028F1D110BD4462002071
:1027D0006C01002010B50A4806F066FC0949086043
:1027E00009E008490968486880470648006806F01B
:1027F00061FC04490860034800680028F1D110BD5D
:102800004C6200207001002010B50A4806F04CFC14
:102810000949086009E0084909684868804706488E
:10282000006806F047FC0449086003480068002877
:10283000F1D110BD546200207401002010B50A4887
:1028400006F032FC0949086009E00849096848684F
:1028500080470648006806F02DFC044908600348DC
:1028600000680028F1D110BD5C62002078010020D2
:1028700010B50A4806F018FC0949086009E0084943
:102880000968486880470648006806F013FC044958
:102890000860034800680028F1D110BD6462002080
:1028A0007C01002010B50A4806F0FEFB09490860CB
:1028B00009E008490968486880470648006806F04A
:1028C000F9FB04490860034800680028F1D110BDF5
:1028D000946200209001002010B50A4806F0E4FB45
:1028E0000949086009E008490968486880470648BE
:1028F000006806F0DFFB0449086003480068002810
:10290000F1D110BD9C6200209401002070470000AE
:1029100010B50A4806F0C8FB0949086009E00849F3
:102920000968486880470648006806F0C3FB044908
:102930000860034800680028F1D110BD0C61002038
:10294000D000002010B50A4806F0AEFB0949086027
:1029500009E008490968486880470648006806F0A9
:10296000A9FB04490860034800680028F1D110BDA4
:10297000146200205401002010B50A4806F094FBB0
:102980000949086009E0084909684868804706481D
:10299000006806F08FFB04490860034800680028BF
:1029A000F1D110BD14610020D400002010B50A48F8
:1029B00006F07AFB0949086009E008490968486897
:1029C00080470648006806F075FB04490860034824
:1029D00000680028F1D110BD1C610020D800002043
:1029E00010B50A4806F060FB0949086009E008498B
:1029F0000968486880470648006806F05BFB0449A0
:102A00000860034800680028F1D110BD246100204F
:102A1000DC00002010B50A4806F046FB09490860B2
:102A200009E008490968486880470648006806F0D8
:102A300041FB04490860034800680028F1D110BD3B
:102A40002C610020E000002010B50A4806F02CFBA5
:102A50000949086009E0084909684868804706484C
:102A6000006806F027FB0449086003480068002856
:102A7000F1D110BD946100201401002000BFFEE7D9
:102A800010B50A4806F010FB0949086009E008493A
:102A90000968486880470648006806F00BFB04494F
:102AA0000860034800680028F1D110BDFC600020D8
:102AB000CC00002010B50A4806F0F6FA0949086073
:102AC00009E008490968486880470648006806F038
:102AD000F1FA04490860034800680028F1D110BDEC
:102AE000DC620020B40100207EB503460C4611A52F
:102AF00023CD8DE82300032C01DA581E83B2642015
:102B000093FBF0F01946DD1703EB957503EBA50574
:102B1000281A4FF4C87593FBF5F50544601E1DF89F
:102B2000000028441044072590FBF5F605FB16002D
:102B3000C0B27EBD000302050003050104060204C5
:102B400070B504460025092C06D2DFE804F0060E15
:102B5000161E262E363E460000BF4FF40051314867
:102B600001F0F6F800B901253FE04FF480612D48EF
:102B700001F0EEF800B9012537E04FF480612948F3
:102B800001F0E6F800B901252FE04FF480612548F7
:102B900001F0DEF800B9012527E04FF480612148FB
:102BA00001F0D6F800B901251FE04FF480611D48FF
:102BB00001F0CEF800B9012517E04FF48061194803
:102BC00001F0C6F800B901250FE04FF48061154807
:102BD00001F0BEF800B9012507E04FF4806111480B
:102BE00001F0B6F800B9012500BF00BF012D0BD1DF
:102BF0002146002005F0A4FC0120A0400A490988D4
:102C00000843094908800AE02146012005F098FCA4
:102C10000120A040044909888143034801802846D7
:102C200070BD000000080048E001002010B5034816
:102C300003F09AF8014801F068F910BD9067002090
:102C400010B51348134908604FF4000048604FF472
:102C50007011104881600C21C16040210161022186
:102C60004161C90281610911C16120210162002114
:102C7000416281624FF48041C1620021016303F02F
:102C8000D3F8044801F056F9FDF780FF10BD0000AD
:102C9000002400409067002070B504460D4665B9D9
:102CA0000D4850F83400C2430B4800EBC400002329
:102CB00041680A4803F092F90CE0074850F83430B4
:102CC00050F83400C243044800EBC4004168034894
:102CD00003F084F970BD0000A8130108906700207C
:102CE00070B5054600241CE065B90F4850F8340063
:102CF000C2430D4800EBC400002341680B4803F0B9
:102D00006DF90CE0084850F8343050F83400C243F4
:102D1000054800EBC4004168044803F05FF9601CFB
:102D2000C4B21B2CE0DB70BDA81301089067002023
:102D300010B5044620780A283DD2DFE800F0050FE0
:102D4000191D22272C30343894ED021BB0EE410AB5
:102D5000F0EE610A0020FEF737F92DE094ED021B3A
:102D6000B0EE410AF0EE610A0120FEF72DF923E0F2
:102D70002069FDF727FF1FE004F11500FEF75EFB59
:102D80001AE060780121FFF787FF15E060780021E5
:102D9000FFF782FF10E00120FFF7A2FF0CE0002008
:102DA000FFF79EFF08E0074801F06CF804E0206997
:102DB000FDF7F4FE00E000BF00BF024803F0ECF8AE
:102DC00010BD000090670020F8B504460D460020B5
:102DD000009000BF94F85000012801D10220F8BDF6
:102DE000012084F8500000BF2046FDF74FFE064644
:102DF0008EBB606D20F4885040F002006065206852
:102E000081681B4A114005F0804242F000421143A4
:102E1000816000BF13E00098401C00900098B0F55E
:102E2000912F0CD3606D20F0020040F0100060651F
:102E300000BF002084F8500000BF0120CFE72068C9
:102E40008168C90F0029E6D1606D20F0020040F0D2
:102E50000100606504E0FFE7606D40F01000606510
:102E600000BF002084F8500000BF3046B7E70000E4
:102E7000C0FFFF3F2DE9F84F05460C464FF0000A12
:102E800000200090FE49E068884200D000E000BFCA
:102E900000BF95F85000012802D1022000F05CBA72
:102EA000012085F8500000BF286803F0CFF8002803
:102EB00072D1606805281AD86068022806D00328F5
:102EC00007D0042808D005280DD108E00C20606048
:102ED0000CE01220606009E01820606006E04FF40A
:102EE0008070606002E00620606000BF00BF29685B
:102EF000D4E9002001F1300CC0F3012B0CEB8B0363
:102F0000D3F800C000F01F0E4FF01F0B0BFA0EFBA2
:102F10002CEA0B0C00F01F0BC2F3846E0EFA0BFEB2
:102F20004CEA0E0CC3F800C000BF286803F08EF80E
:102F30008146286803F076F88046B9F1000F2AD15F
:102F4000B8F1000FFBD1A2682168286803F094F85B
:102F500060692968C968C1F3C101490000FA01F735
:102F60002069042819D028682268216900F1600CC2
:102F70000CEB8103D3F800C0DFF808B30CEA0B0CAC
:102F800002F0F84B4BF0004B4BEA070B4CEA0B0CF2
:102F9000C3F800C000BFA8E0C2E10021286803F028
:102FA00038F8C0F3120030B90021286803F031F876
:102FB000C0F3846007E00021286803F02AF890FA43
:102FC000A0F0B0FA80F02168C1F3120119B92168AC
:102FD000C1F3846104E0216891FAA1F1B1FA81F1B1
:102FE000884204D100221146286803F05FF80121CD
:102FF000286803F00EF8C0F3120030B901212868E8
:1030000003F007F8C0F3846007E00121286803F0AB
:1030100000F890FAA0F0B0FA80F02168C1F3120134
:1030200019B92168C1F3846104E0216891FAA1F122
:10303000B1FA81F1884204D100220121286803F00D
:1030400035F80221286802F0E4FFC0F3120030B91D
:103050000221286802F0DDFFC0F3846007E002214E
:10306000286802F0D6FF90FAA0F0B0FA80F021684C
:10307000C1F3120119B92168C1F3846104E0216828
:1030800091FAA1F1B1FA81F1884204D10022022122
:10309000286803F00BF80321286802F0BAFFC0F398
:1030A000120030B90321286802F0B3FFC0F3846036
:1030B00007E00321286802F0ACFF90FAA0F0B0FA14
:1030C00080F02168C1F3120119B92168C1F384614C
:1030D00004E0216891FAA1F1B1FA81F1884204D1AA
:1030E00000220321286802F0E1FF286802F0A4FF13
:1030F000002870D12868E2682168D0F8B0C0C1F318
:1031000012032CEA030C02F0180B5F4B23FA0BF3AB
:103110000B404CEA030CC0F8B0C000BF5849E0684F
:10312000884258D12368C3F312031BB92368C3F341
:10313000846304E0236893FAA3F3B3FA83F35B1C7C
:1031400003F01F03092B3ED82368C3F312031BB9F6
:103150002368C3F3846304E0236893FAA3F3B3FA08
:1031600083F35B1C03F01F034FF0010C0CFA03FC0C
:103170002368C3F312031BB92368C3F3846304E019
:10318000236893FAA3F3B3FA83F35B1C03F01F03E2
:103190004CEA836C2368C3F312031BB92368C3F39F
:1031A000846304E0236893FAA3F3B3FA83F35B1C0C
:1031B00003F01F0303EB43034FF0000B4BEA0353F1
:1031C0004CEA03033FE02368C3F3120323B92368E7
:1031D000C3F3846305E03BE0236893FAA3F3B3FAF7
:1031E00083F35B1C03F01F034FF0010C0CFA03FC8C
:1031F0002368C3F312031BB92368C3F3846304E099
:10320000236893FAA3F3B3FA83F35B1C03F01F0361
:103210004CEA836C2368C3F312031BB92368C3F31E
:10322000846304E0236893FAA3F3B3FA83F35B1C8B
:1032300003F01F030A3B03EB43034FF0007B4BEA11
:1032400003534CEA03031946A268286802F014FFEE
:103250000E4920680840A0B300BF0D48806800F008
:10326000E07600BF0B492068884233D106F40000A5
:1032700040BB09492868884214D0084928680FE0F3
:1032800000007F4000F0FF03FFFF07000000088000
:1032900000030450000052C7000004500002045014
:1032A000884243D146F40001244802F0F9FE244844
:1032B00000682449B0FBF1F000EB40008000009072
:1032C00004E01BE006E00098401E009000980028F3
:1032D000F9D12BE01C492068884210D106F080709B
:1032E00068B91A492868884203D019492868884271
:1032F0001CD146F08071114802F0D2FE16E015494B
:103300002068884212D106F4800078B90F492868F5
:1033100088420BD146F48001084802F0C1FE05E066
:10332000686D40F0200068654FF0010A00BF002082
:1033300085F8500000BF5046B0E50000000304507F
:1033400018000020400D0300000084CB0000045052
:10335000000204500100008018BCBDE8E08F0000AE
:1033600070B504460CB9012070BD606D40F00200DC
:10337000606503212046FDF7FBFA05462068C0681A
:1033800040F400102168C86035B92046FDF77EFB87
:1033900005460DB901206065206840686FF30A009A
:1033A0002168486040F2FF702168086020688068EA
:1033B00020F0A040216888602068806840F00050BC
:1033C000216888602068C068514908402168C86049
:1033D0002068C06840F000402168C860206800692B
:1033E0006FF30A00216808612068406900F04040DE
:1033F000216848612068806900F078402168886110
:103400002068006A00F0F020216808622068406AA5
:1034100000F0FF20216848622068806A00F0FF20E9
:10342000216888622068006B3A4908402168086377
:103430002068406B3749103908402168486320688C
:10344000806B344910390840216888632068C06B5C
:1034500040F2DF7188432168C8632068006E2E49FE
:103460000840216808662068406E2B4908402168A2
:1034700048662068806E2849084021688866206870
:10348000C06E254908402168C8662068D0F8A000B1
:103490006FF312002168C1F8A0002068D0F8A400E2
:1034A0006FF312002168C1F8A4002068D0F8B000C2
:1034B0006FF312002168C1F8B0002068D0F8B400A2
:1034C00020F07F102168C1F8B400144802F0B4FD68
:1034D0000646134802F0B0FD0643124802F0ACFD68
:1034E000064336B910480068104908400B49C1F836
:1034F0000803204600F031F90020A065E0650021B6
:103500002166606500BF84F8500000BF28462BE7A5
:1035100004800080300882E000F0FF0300000450C7
:10352000000104500002045008030450E01000FEA3
:1035300001460868006C70472DE9F84F04464FF0CB
:1035400000090020009014B9012000F003B920699F
:1035500020B12020005D012800D100BF606D30B98E
:10356000204600F0FBF80020A06584F85000206899
:103570008168C1F3407131B1206881686C4A1140A3
:10358000816000BF00BF206802F05BFDA0B9206829
:103590008168684A114041F08051816000BF6648EF
:1035A00000686649B0FBF1F0009002E00098401E10
:1035B000009000980028F9D1206802F042FD48B937
:1035C000606D40F010006065A06D40F00100A065E6
:1035D0004FF00109206802F039FD0646606D00F0E9
:1035E000100000287BD1002EFCD1606D20F480708B
:1035F00040F002006065206802F01EFDD0B950481E
:1036000002F01AFD82464F4802F016FD4AEA000A0F
:103610004D4802F011FD4AEA000ABAF1000F09D143
:1036200060684A49896821F47C110143474A9160E6
:1036300000BF00BF607E616B41EA4030E168084333
:10364000A16808432021095D40EA01452020005D72
:10365000012803D1A08C401E45EA4045A06A28B14C
:10366000208D00F47070E16A084305432068C0684B
:103670003749084028432168C860206802F0E6FC0A
:103680008046206802F0CEFC0746B8F1000F2DD12D
:1036900027BB207E002141EA803194F8300041EAC6
:1036A00040052068C06844F202018843284321682D
:1036B000C86094F83800012812D1E06B40F0010195
:1036C000206C0843616C0843A16C084321680969B8
:1036D00040F2FC72914308432168086106E01FE054
:1036E0002068006920F00100216808612069012834
:1036F00009D12068006B20F00F00E169491E0843E2
:103700002168086305E02068006B20F00F00216845
:103710000863606D20F0020040F00100606505E084
:10372000606D40F0100060654FF0010948460CE7FD
:10373000C0FFFF5FC0FFFF7F18000020400D0300A7
:103740000000045000010450000204500003045023
:1037500007C0F0FF18BCBDE8E08F7047704700005D
:103760002DE9F04704460F46464802F04DFC054659
:103770006069082801D108261FE01DB1052D01D080
:10378000092D0DD12068C06800F0010030B1606DD6
:1037900040F0200060650120BDE8F08704260CE0C1
:1037A00000BF3848806800F4604028B1606D40F088
:1037B000200060650120EFE7042600F0DDFA804676
:1037C00013E0781C88B100F0D7FAA0EB0800B842EB
:1037D00000D857B9606D40F00400606500BF00205C
:1037E00084F8500000BF0320D6E72068006830400E
:1037F0000028E6D0606D40F400706065206802F03B
:103800002AFC98B1607E88B92068006800F0080042
:1038100008280BD1606D20F480706065606D00F445
:10382000805018B9606D40F001006065164920684D
:10383000884201D1154800E020682168884204D000
:103840001DB1052D01D0092D03D12068D0F80C90B1
:1038500009E00D492068884201D10C4800E0206849
:103860008246DAF80C90082E03D1082021680860FF
:1038700005E009F4804010B90C20216808600020A0
:103880008AE70000000304500001045000000450C7
:103890002DE9F0410446424802F0B6FB0646206896
:1038A00002F0D4FB002877D100BF94F85000012823
:1038B00002D10220BDE8F081012084F8500000BF51
:1038C0002046FDF727F90546002D60D1606D40F6D2
:1038D0000161884340F48070606532492068884205
:1038E00001D1314800E020682168884200D01EB92B
:1038F000606D20F480106065606D00F48050B0F55C
:10390000805F04D1A06D20F00600A06501E00020DA
:10391000A0651C202168086000BF002084F85000CA
:1039200000BF20492068884201D11F4800E020687C
:103930002168884204D01EB1052E01D0092E0ED177
:103940002068C06800F0007028B1606D20F400505D
:1039500040F480506065206802F086FB1DE0606DD9
:1039600040F4801060650F492068884201D10E48FC
:1039700000E020680746F86800F0007068B1606DEC
:1039800020F4005040F48050606506E004E000BF81
:10399000002084F8500000E0022528468AE7000055
:1039A00000030450000104500000045070B50446A8
:1039B000002594F82500022803D00420E0630125A7
:1039C00020E02068006820F00E0021680860206870
:1039D000006820F001002168086094F8440000F0BD
:1039E0001C0101208840216C4860012084F82500DA
:1039F00000BF002084F8240000BFA06B10B1204657
:103A0000A16B8847284670BDF0B50B46002187E0C2
:103A100001258D4005EA0302002A7DD0434D8E0822
:103A200055F826408D072E0F0F25B5402C40B0F1DC
:103A3000904F01D100251EE03D4DA84201D1012546
:103A400019E03C4DA84201D1022514E03A4DA842AC
:103A500001D103250FE0394DA84201D104250AE028
:103A6000374DA84201D1052505E0364DA84201D1C8
:103A7000062500E007258E07360FB540A54221D167
:103A8000314D2D689543304E3560351D2D68954379
:103A9000361D3560351D2D689543361D3560351D45
:103AA0002D689543361D35608D072E0F0F2505FABD
:103AB00006F41E4D8E0855F82650A5431B4E8F0860
:103AC00046F8275005684F000326BE403543056081
:103AD000CE0800F1200555F826504E07F70E0F26A8
:103AE000BE40B543CF0800F1200646F82750856850
:103AF0004F000326BE40B5438560466801258D40D2
:103B0000AE434660C5684F000326BE40B543C5605E
:103B1000C56A01268E4000E001E0B543C562491C3C
:103B200023FA01F5002D7FF473AFF0BD08000140CA
:103B30000004004800080048000C0048001000483D
:103B400000140048001800480004014078B50346FE
:103B50000022E5E0012696400D6805EA0604002CE7
:103B60007DD04D68022D02D04D68122D13D1D6089C
:103B700003F1200555F826005507EE0E0F25B54038
:103B8000A8435607F60E0D69B5402843D60803F141
:103B9000200545F82600186856000325B540A843BF
:103BA0000D7905F003055600B540284318604D68AF
:103BB000012D08D04D68022D05D04D68112D02D081
:103BC0004D68122D13D1986856000325B540A843BF
:103BD0005600CD68B5402843986058680125954047
:103BE000A8430D79C5F300159540284358600D7919
:103BF00005F00305032D09D1D86A01259540A84396
:103C00000D79C5F3C00595402843D862D8685600A1
:103C10000325B540A84356008D68B5402843D860B9
:103C20004D6805F08055B5F1805F78D100BF3F4DFC
:103C30002D6E45F001053D4E356635462D6E05F07D
:103C40000105009500BF00BF4FEAB635960855F84C
:103C5000260095072E0F0F25B540A84300E05EE033
:103C6000B3F1904F01D100251EE0314DAB4201D19F
:103C7000012519E02F4DAB4201D1022514E02E4D54
:103C8000AB4201D103250FE02C4DAB4201D10425FD
:103C90000AE02B4DAB4201D1052505E0294DAB4291
:103CA00001D1062500E007259607360FB5402843C9
:103CB000254D960845F82600244D2868A0434D68F8
:103CC00005F48035B5F5803F00D120431F4D2860B5
:103CD0002D1D2868A0434D6805F40035B5F5003F5B
:103CE00000D12043194D2D1D28602D1D2868A043AB
:103CF0004D6805F48015B5F5801F00D12043134DA4
:103D0000083528602D1D2868A0434D6805F400156E
:103D1000B5F5001F00D120430C4D0C352860521C16
:103D20000D68D540002D7FF415AF78BD001002401E
:103D30000004004800080048000C0048001000483B
:103D40000014004800180048080001400004014029
:103D5000024613690B400BB1012000E000207047C0
:103D600042690A400AB1816200E0816170470AB18C
:103D7000816100E08162704701480068704700007F
:103D80000C00002070B504460CB9012070BD4CF643
:103D9000CC402168086045F2555021680860D4E99C
:103DA000001048602168A0688860FFF7E5FF0546BD
:103DB00006E0FFF7E1FF401B302801D90320E5E7CB
:103DC0002068C0680028F4D120680169E068814259
:103DD00003D02168E068086103E04AF6AA20216860
:103DE00008600020D2E701464AF6AA200A6810605F
:103DF00000207047034800680349096808440149E6
:103E0000086070470C0000201400002010B500244A
:103E1000032000F077FA0F2000F008F808B1012421
:103E200001E000F0CDF9204610BD000070B5044659
:103E3000002511480068D8B10F4800684FF47A7126
:103E4000B1FBF0F00D490968B1FBF0F6304601F026
:103E5000A3FB58B9102C07D200222146501E00F0B7
:103E60000FFA0748046004E0012502E0012500E0A4
:103E70000125284670BD0000140000201800002015
:103E8000100000202DE9F04104464FF0010894F89D
:103E90003570012F01D0022F35D100BF94F83400C6
:103EA000012802D10220BDE8F081012084F834000D
:103EB00000BF022084F83500FFF75EFF06460EE0E3
:103EC000FFF75AFF801BB0F57A7F08D90220A06364
:103ED00000BF002084F8340000BF0320E3E720681F
:103EE0008068C0F380000028EAD1002505E00021A9
:103EF0002068143040F825106D1C0F2DF7D920468E
:103F000000F0A6F880464046CDE710B504460CB94F
:103F1000012010BD022084F83500204600F096F8FC
:103F20000020A06384F8350000BF84F8340000BF8F
:103F300000BFEEE72DE9F041044614B90120BDE8C9
:103F4000F08194F8350028B9002084F83400204628
:103F500000F07DF8022084F835002068006820F029
:103F6000010021680860002605E000212068143067
:103F700040F82610761C0F2EF7D92068806840F094
:103F8000040021688860D4E901010843A16A08435C
:103F9000E16A0843E1690843216A0843A1690843CB
:103FA000616A084321684968274A1140084321682B
:103FB0004860204601F0FAFF07460FB13846BEE7D9
:103FC000D4E90301084361690843216B0843216870
:103FD000096821F0FE010843216808602068006834
:103FE00040F0010021680860FFF7C6FE054609E0C1
:103FF000FFF7C2FE401BB0F57A7F03D90820A0630B
:1040000003209CE72068806800F001000028EFD0C2
:10401000FFF7B2FE054609E0FFF7AEFE401BB0F524
:104020007A7F03D91020A063032088E72068806886
:10403000C0F300100028EFD00020A063012084F816
:10404000350038467BE700000E0000FC70477047E3
:1040500070B5044608202168C8602068806840F078
:10406000040021688860FFF787FE05460EE0FFF731
:1040700083FE401BB0F57A7F08D90420A06300BFFF
:10408000002084F8340000BF032070BD20688068E1
:10409000C0F3C0000028EAD0012084F8350000BF3A
:1040A000002084F8340000BF00BFEEE770B504467E
:1040B0000CB9012070BD6068012800D100BF4FF627
:1040C000FF716069884200D000BF94F8360028B9BB
:1040D000002084F83500204600F050F8022084F8D3
:1040E00036002068C5686068012803D0A06AB0F572
:1040F000000F01D125F01E054FF6FF71606988425F
:1041000002D04EF2C00085431A480540D4E90101AF
:104110000843216A0843616A0843A16A08430543CA
:104120006068012803D0A06AB0F5000F03D1D4E97C
:104130000310084305434FF6FF716069884205D0BC
:10414000D4E905100843E169084305432068C560C8
:1041500009492068884205D1D4E90B010843216848
:10416000086202E02168E06A0862012084F83600F3
:1041700000209FE7F8F119FF007C004038B50446A5
:104180000D492068884215D100BF0C48806D40F071
:1041900000400A4988650846806D00F000400090A4
:1041A00000BF00BF00220F21412000F069F841202C
:1041B00000F056F838BD0000007C004000100240BE
:1041C00008B500BF1448006E40F0010012490866AF
:1041D0000846006E00F00100009000BF00BF002202
:1041E00005216FF00B0000F04BF8002205216FF065
:1041F0000A0000F045F8002205216FF0090000F0E8
:104200003FF800220521101F00F03AF80022052196
:10421000881F00F035F808BD0010024010B50146B7
:104220000846002817DB00F01F0301229A400B4BC1
:10423000440943F8242000BF00BF00BFBFF34F8FE5
:1042400000BF00BF00BF00BF00BF00BFBFF36F8F44
:1042500000BF00BF00BF00BF10BD000080E100E054
:1042600001460846002809DB00F01F0301229A409E
:1042700043099B0003F1E023C3F8002100BF70470E
:104280002DE9F05F80460D461646002706F068FFD0
:10429000074639462A46334601F00700C0F1070AAF
:1042A000BAF1040F02D94FF0040A01E0C0F1070A85
:1042B000D14600F1040ABAF1070F02D24FF0000A0A
:1042C00001E0A0F1030AD4464FF0010A0AFA09FA04
:1042D000AAF1010A0AEA020A0AFA0CFA4FF0010BE3
:1042E0000BFA0CFBABF1010B0BEA030B4AEA0B04D4
:1042F0002146404606F03CFF00F000B830BCBDE867
:10430000C09F000000BF00F00702064B19684FF67F
:10431000FF031940044B0B4343EA0221014B196090
:1043200000BF70470CED00E00000FA050246B2F550
:10433000007F2AD11D48006800F4C060B0F5007FFE
:1043400032D01A48006820F4C06040F40070174B67
:1043500018601748006832235843164BB0FBF3F03F
:10436000411C00E0491E1148406900F48060B0F52E
:10437000806F01D10029F5D10C48406900F48060BC
:10438000B0F5806F10D1032070470848006800F432
:10439000C060B0F5806F07D00448006820F4C060AA
:1043A00040F48060014B18600020EDE70070004091
:1043B0001800002040420F000C49096821F0070155
:1043C0000A4A11600A49096841F00401084A11606B
:1043D000012801D130BF02E040BF20BF20BF044907
:1043E000096821F00401024A116070470070004022
:1043F00010ED00E00D49096821F00701891C0B4A06
:1044000011600B49096841F00401094A1160012853
:1044100001D130BF02E040BF20BF20BF044909687E
:1044200021F00401024A1160704700000070004052
:1044300010ED00E00248006800F4C0607047000022
:10444000007000402DE9F84304460025A846208866
:1044500000F40060B0F5006F30D1606E80B1B0F54F
:10446000800F13D0B0F5000F03D0B0F5400F15D179
:1044700013E0FB48C06840F48030F949C8600FE0A1
:104480000021201D02F060FD054609E0002104F135
:10449000200002F01FFE054602E001E0012500BFFA
:1044A00000BF55B9EE488830006820F44000616EC6
:1044B0000843EB49C1F8880000E0A846208800F4D2
:1044C0008050B0F5805F30D1A06E80B1B0F1807FB8
:1044D00013D0B0F1007F03D0B0F1407F15D113E0CD
:1044E000DF48C06840F48030DD49C8600FE000213B
:1044F000201D02F029FD054609E0002104F12000FD
:1045000002F0E8FD054602E001E0012500BF00BF22
:1045100055B9D3488830006820F04070A16E084338
:10452000CF49C1F8880000E0A846206800F40030B8
:10453000B0F5003F77D14FF00009C948806D0121E7
:1045400021EA107078B100BFC548806D40F08050FE
:10455000C34988650846806D00F08050009000BF18
:1045600000BF4FF00109BF48006840F48070BD49AA
:104570000860FFF701FC074606E0FFF7FDFBC01BE4
:10458000022801D9032505E0B648006800F48070D0
:104590000028F2D000BF85BBB1489030006800F41D
:1045A0004076D6B1D4F88400B04216D0AC489030F2
:1045B000006820F44076AA48D0F8900040F480309B
:1045C000A749C1F890000846D0F8900020F4803048
:1045D000C1F890000846C0F8906006F00100A8B14C
:1045E000FFF7CAFB074609E0FFF7C6FBC01B41F215
:1045F0008831884202D9032507E017E098489030B7
:10460000006800F002000028EED000BF65B99448B1
:104610009030006820F44070D4F88410084390492A
:10462000C1F8900003E00CE0A84600E0A846B9F10C
:10463000010F05D18A48806D20F080508849886537
:1046400000BF207800F0010048B18548883000683C
:1046500020F00300A16B08438149C1F8880020784D
:1046600000F00200022809D17D488830006820F05F
:104670000C00E16B08437A49C1F88800207800F00B
:104680000400042809D176488830006820F0300002
:10469000216C08437249C1F88800207800F00800B6
:1046A000082809D16E488830006820F0C000616C8D
:1046B00008436B49C1F88800207800F010001028EA
:1046C00009D167488830006820F44070A16C084325
:1046D0006349C1F88800207800F02000202809D123
:1046E0005F488830006820F44060E16C08435C4912
:1046F000C1F88800208800F40070B0F5007F09D16F
:1047000057488830006820F44020E16D0843544940
:10471000C1F88800208800F48060B0F5806F09D16E
:104720004F488830006820F44010216E08434C49FF
:10473000C1F88800207800F04000402809D148489E
:104740008830006820F44050216D08434449C1F886
:104750008800207800F08000802809D14048883007
:10476000006820F44040616D08433D49C1F888006D
:10477000208800F48070B0F5807F09D138488830F7
:10478000006820F44030A16D08433549C1F8880025
:10479000208800F40050B0F5005F1FD13048883009
:1047A000006820F04060E16E08432D4988310860C0
:1047B000E06EB0F1006F06D12948C06840F4801067
:1047C0002749C8600AE0E06EB0F1806F06D1012190
:1047D000201D02F0B9FB054605B1A846206800F48B
:1047E0000020B0F5002F1FD11D488830006820F050
:1047F0004060216F08431A4988310860206FB0F18A
:10480000006F06D11648C06840F480101449C86093
:104810000AE0206FB0F1806F06D10121201D02F067
:1048200093FB054605B1A846206800F48020B0F54A
:10483000802F24D10A488830006820F04060616FE2
:104840000843074988310860606FB0F1006F0BD1F1
:104850000348C06840F480100149C8600FE00000C0
:104860000010024000700040606FB0F1806F06D110
:104870000121201D02F068FB054605B1A8462088ED
:1048800000F48040B0F5804F1FD12248006820F02E
:104890004050A16F08431F490860A06FB0F1805FCE
:1048A00007D10221201D02F04FFB05466DB1A8463D
:1048B0000BE0A06FB0F1005F07D1022104F12000EE
:1048C00002F008FC054605B1A846208800F4004027
:1048D000B0F5004F09D10F48006820F08040E16F2B
:1048E00008430C498839C1F88800206800F48030FA
:1048F000B0F5803F0AD10748006820F00040D4F8A6
:104900008010084303498839C1F888004046BDE853
:10491000F8830000881002402DE9F04104460D465E
:1049200014B90120BDE8F0815548006800F0070087
:10493000A8420ED25248006820F007002843504990
:1049400008600846006800F00700A84201D0012076
:10495000E8E7207800F00100002840D060680328D4
:1049600006D14848006800F00070D8B90120D9E7A6
:104970006068022806D14348006800F4003088B916
:104980000120CFE7606830B93E48006800F00200BF
:1049900040B90120C6E73B48006800F4806008B9D0
:1049A0000120BFE73748806820F0030061680843B2
:1049B00034498860FFF7E0F9064608E0FFF7DCF9C4
:1049C000801B41F28831884201D90320AAE72D4893
:1049D000806800F00C006168B0EB810FEED12078A8
:1049E00000F00200022807D12648806820F0F0007D
:1049F000A1680843234988602148006800F0070047
:104A0000A8420ED91E48006820F0070028431C4920
:104A100008600846006800F00700A84201D00120A5
:104A200080E7207800F00400042807D1154880684A
:104A300020F4E060E168084312498860207800F0C3
:104A40000800082808D10F48806820F460502169C8
:104A500040EAC1000B49886000F046F809498968BE
:104A6000C1F30311084A515C01F01F01C840074916
:104A7000086007480068FFF7D9F90746384651E74C
:104A800000200240001002407411010818000020AC
:104A90001000002001480068704700001800002046
:104AA00000B5FFF7F7FF05498968C1F30221044A01
:104AB000515C01F01F01C84000BD00000010024021
:104AC0008411010800B5FFF7E5FF05498968C1F3C6
:104AD000C221044A515C01F01F01C84000BD000022
:104AE0000010024084110108F0B500230020DFF817
:104AF000D4C0DCF808C00CF00C01DFF8C8C0DCF84A
:104B00000CC00CF0030719B10C291ED1012F1CD1C8
:104B1000DFF8B0C0DCF800C00CF0080CBCF1000FEE
:104B200006D1DFF8A0C0DCF894C0CCF3032305E085
:104B3000DFF890C0DCF800C0CCF30313DFF888C0C6
:104B40005CF8233041B9184606E0042901D11F481A
:104B500002E0082900D11E480C2932D1DFF864C0D8
:104B6000DCF80CC00CF00304012C09D0022C02D09C
:104B7000032C04D101E0154A04E0154A02E000BF0D
:104B80001A4600BF00BFDFF83CC0DCF80CC0CCF315
:104B9000021C0CF10106DFF82CC0DCF80CC0CCF3D1
:104BA000062C0CFB02FCBCFBF6F2DFF818C0DCF8AC
:104BB0000CC0CCF3416C0CF1010C4FEA4C05B2FB7C
:104BC000F5F0F0BD001002408C1101080024F40043
:104BD00000127A002DE9F843044614B90120BDE81B
:104BE000F883F948806800F00C07F748C06800F0C7
:104BF0000306207800F01000102876D11FB10C2F8A
:104C000075D1012E73D1F048006800F0020018B190
:104C1000A06908B90120E2E7EB48216A006800F0CA
:104C2000080020B1E848006800F0F00005E0E64820
:104C30009430006800F47060000981421FD9206A36
:104C400002F0FAFA08B10120C9E700BFDE480068A7
:104C500040F00800DC4908600846006820F0F000D9
:104C6000216A0843D849086000BF0846406820F41C
:104C70007F40E16940EA0120D34948601EE000BF5F
:104C8000D148006840F00800CF4908600846006835
:104C900020F0F000216A0843CB49086000BF0846B5
:104CA000406820F47F40E16940EA0120C64948603D
:104CB000206A02F0C1FA08B1012090E7FFF714FF63
:104CC000C1498968C1F30311C04A515C01F01F0159
:104CD000C840BF490860BF480068FFF7A7F8804692
:104CE000B8F1000F4ED0404679E74BE0FFE7A069EE
:104CF00080B3B548006840F00100B3490860FFF791
:104D00003BF8054606E0FFF737F8401B022801D9BB
:104D1000032064E7AC48006800F002000028F2D0ED
:104D200000BFA948006840F00800A749086008468D
:104D3000006820F0F000216A0843A349086000BF22
:104D40000846406820F47F40E16940EA01209E491E
:104D5000486017E0FFE79C48006820F001009A498E
:104D60000860FFF709F8054606E0FFF705F8401B65
:104D7000022801D9032032E79348006800F00200BE
:104D80000028F2D1207800F0010000285CD0082F24
:104D900003D00C2F0AD1032E08D18B48006800F4F1
:104DA000003088B3606878BB012018E700BF6068F6
:104DB000B0F5803F06D18448006840F480308249D5
:104DC00008601AE06068B0F5A02F0BD17E4800683B
:104DD00040F480207C4908600846006840F4803038
:104DE00008600AE07848006820F48030764908605E
:104DF0000846006820F48020086000BF606890B119
:104E0000FEF7BAFF054607E01EE0FEF7B5FF401BC0
:104E1000642801D90320E2E66B48006800F4003002
:104E20000028F2D010E0FEF7A7FF054606E0FEF7E7
:104E3000A3FF401B642801D90320D0E66248006824
:104E400000F400300028F2D1207800F0020002289F
:104E500052D1042F03D00C2F14D1022E12D15A4854
:104E6000006800F4806018B1E06808B90120B6E677
:104E70005548406820F0F850217C40EA01605249D2
:104E8000486039E0E06800B34F48006840F4807043
:104E90004D490860FEF770FF054606E0FEF76CFF1F
:104EA000401B022801D9032099E64748006800F416
:104EB00080600028F2D04448406820F0F850217CFF
:104EC00040EA01604049486016E03F48006820F42D
:104ED00080703D490860FEF74FFF054606E0FEF78B
:104EE0004BFF401B022801D9032078E636480068B2
:104EF00000F480600028F2D1207800F00800082833
:104F000036D16069D0B130489430006840F001007B
:104F10002D49C1F89400FEF72FFF054606E0FEF785
:104F20002BFF401B022801D9032058E62648943065
:104F3000006800F002000028F1D019E02248943007
:104F4000006820F001002049C1F89400FEF714FF2A
:104F5000054606E0FEF710FF401B022801D903209A
:104F60003DE619489430006800F002000028F1D1B5
:104F7000207800F00400042873D14FF00009124893
:104F8000806D00F0805078B900BF0F48806D40F010
:104F900080500D4988650846806D00F08050009073
:104FA00000BF00BF4FF001090B48006800F480709B
:104FB00008BB0948006840F4807007490860FEF7A4
:104FC000DBFE054611E000000010024074110108EC
:104FD000180000201000002000700040FEF7CCFEFA
:104FE000401B022801D90320F9E59948006800F424
:104FF00080700028F2D000BFA068012808D1954831
:10500000006840F0010093499039C1F8900021E018
:10501000A06805280FD18F48006840F004008D4932
:105020009039C1F890000846D0F8900040F0010097
:10503000C1F890000EE08748006820F00100854923
:105040009039C1F890000846D0F8900020F0040094
:10505000C1F8900000BFA068A0B1FEF78DFE054624
:1050600009E02EE0FEF788FE401B41F288318842BD
:1050700001D90320B3E57748006800F0020000285A
:10508000F0D012E0FEF778FE054608E0FEF774FE69
:10509000401B41F28831884201D903209FE56D48C9
:1050A000006800F002000028F0D1B9F1010F07D12B
:1050B00068489038806D20F0805066499039886546
:1050C00000BFA06A00285BD00C2F78D0A06A02280D
:1050D00057D160489038006820F080705D49903961
:1050E0000860FEF749FE054606E0FEF745FE401B58
:1050F000022801D9032072E556489038006800F074
:1051000000700028F1D1D4E90B10401E41EA0011D3
:10511000606B41EA0021A08F0122C2EB500041EAFE
:1051200040514020005DC2EB500041EA4061A06B5D
:10513000000941EA404047499039C968464A114050
:10514000084344499039C8600846006840F08070C0
:1051500008600846C06840F08070C860FEF70CFE2A
:10516000054606E0FEF708FE401B022801D9032091
:1051700035E538489038006800F000700028F1D01C
:1051800064E034489038006820F0807031499039EC
:1051900008600846006800F0205020B90846C06842
:1051A00020F00300C8602B489038C0682B490840A5
:1051B00028499039C860FEF7DFFD054607E00EE09C
:1051C000FEF7DAFD401B022801D9032007E521483C
:1051D0009038006800F000700028F1D136E0A06A35
:1051E000012800D1FBE41B489038C66806F0030193
:1051F000E06A814228D106F07001206B401EB1EBBD
:10520000001F21D106F4FE41606BB1EB002F1BD1D2
:1052100006F40031A06B072801D0012000E0002037
:10522000814211D106F4C001A08F0122C2EB5000CF
:10523000B1EB405F08D106F0C0614020005DC2EBD9
:105240005000B1EB406F01D00120C8E40020C6E45B
:1052500000700040901002408C809DF9FFFFEEFE30
:10526000014600BF91F82000012801D102207047BB
:10527000012081F8200000BF022081F8210000BF3A
:10528000CA200A68506253200A68506200BF08684A
:10529000806840F020000A68906000BFFF200A6824
:1052A000506200BF012081F8210000BF002081F87A
:1052B000200000BF00BFDAE72DE9F04104460E46AA
:1052C000174600BF94F82000012802D10220BDE853
:1052D000F081012084F8200000BF022084F8210022
:1052E00000BFCA202168486253202168486200BF7D
:1052F0002068806820F48060216888602068C06829
:1053000000F0800060F490602168C8602068C06888
:1053100000F04000F0B9FEF72FFD054614E0FEF75F
:105320002BFD401BB0F57A7F0ED900BFFF2021680E
:10533000486200BF032084F8210000BF002084F8E9
:10534000200000BF0320C2E72068C06800F004000E
:105350000028E4D0206846612068806820F00700BB
:105360003843216888601448006840F4801012496E
:10537000086011480830006840F480100E49083178
:1053800008602068806840F4804021688860206858
:10539000806840F480602168886000BFFF20216839
:1053A000486200BF012084F8210000BF002084F87B
:1053B000200000BF00BF8AE70004014010B504468A
:1053C000014806F0BFFC10BDE801002010B50446FE
:1053D0004FF480100A4908602068C068C0F380203C
:1053E00050B12068C06800F0800060F490602168CF
:1053F000C8602046FFF7E2FF012084F8210010BDBD
:105400001404014070B504460125002C48D0022048
:1054100084F8210000BFCA20216848625320216817
:10542000486200BF204601F089FF0546002D37D1B4
:105430002168086042F20110216848602068806895
:105440000020216888604FF6FF7021684861154888
:105450002168086100202168C8612168086221680C
:10546000C8622168C863216848642168886420464E
:1054700001F086FF05469DB9002021680864216877
:10548000C86400BFFF202168486200BF204600F0CA
:1054900065F8002084F8210000BF84F8200000BFD8
:1054A000284670BDFF007F0070B504460125002C22
:1054B0004FD094F8210028B9002084F8200020461D
:1054C00000F04DF8022084F8210000BFCA202168B6
:1054D000486253202168486200BF204601F02EFF39
:1054E0000546002D35D1206880681B490840216899
:1054F0008860216960680843A16908432168896858
:105500000843216888602168E068086120680169B3
:10551000208941EA004021680861204601F030FFFF
:105520000546B5B92068C06C20F003002168C86446
:105530006169E06908432168C96C08432168C8644F
:1055400000BFFF202168486200BF15B9012084F820
:105550002100284670BD0000BFFF8FFF70477047D5
:1055600070B504462068C06820F0A0002168C860BB
:10557000FEF702FC054607E0FEF7FEFB401BB0F518
:105580007A7F01D9032070BD2068C06800F0200038
:105590000028F1D00020F6E770B504462546681EC5
:1055A000B0F1807F01D301200FE0681E4FF0E021B1
:1055B00048610F214FF0FF3005F0DAFD00204FF079
:1055C000E021886107200861002070BD014600BF0E
:1055D00091F87000012801D102207047012081F864
:1055E000700000BF0868006840F002000A681060A0
:1055F00000BF002081F8700000BF00BFEDE77047DA
:105600007047704710B504462068006820F4907019
:10561000216808602068806820F0010021688860A7
:105620002068806800F04000402825D1206880680C
:1056300020F0400021688860E06E50B11548E16EAE
:105640008863E06EFEF7B2F910B3E06E816B8847B5
:105650001EE00020A4F85A0060650F20216808624F
:105660002068008B40F00800216808832020A06794
:105670002046FFF7C6FF0BE00020A4F85A00606543
:105680000F20216808622020A0672046FFF7B9FF9D
:10569000002010BDB59800087047000010B5044602
:1056A0002068006820F0C0002168086020688068D9
:1056B00000F0800080281CD12068806820F08000E5
:1056C00021688860A06E50B10F48A16E8863A06EFB
:1056D000FEF76CF9B0B1A06E816B884712E0002034
:1056E000A4F852006066202060672046FFF7D4FFD0
:1056F00008E00020A4F85200606620206067204681
:10570000FFF7CAFF002010BD1999000870B50446C4
:1057100001252068006820F4F07021680860206886
:10572000806820F0010021688860A06E60B1206868
:10573000806800F08000802803D13048A16E886323
:1057400002E00020A16E8863E06E60B1206880688E
:1057500000F04000402803D12948E16E886302E050
:105760000020E16E88632068806800F08000802857
:1057700010D12068806820F0800021688860A06EC9
:1057800040B1A06EFEF712F918B10020A16E886337
:1057900000E000252068806800F04000402811D11A
:1057A0002068806820F0400021688860E06E48B181
:1057B000E06EFEF7FBF820B10020E16E8863012562
:1057C00000E00025012D16D10020A4F85200A4F815
:1057D0005A0020666066E0670F2021680862206832
:1057E000008B40F008002168088320206067A067D4
:1057F0002046FFF705FF002070BD0000DF9800087D
:105800006F98000810B504460CB9012010BD242083
:1058100060672068006820F00100216808600020AF
:10582000216808602168486021688860204600F08F
:1058300015F90020E0676067A06700BF84F870007A
:1058400000BF00BFE2E7000002490968491C014AA5
:1058500011607047840200202DE9F047044620685B
:10586000C569206806682068876805F00F08B8F1E8
:10587000000F0CD105F0200048B106F0200030B137
:10588000206E10B12046216E8847BDE8F087B8F140
:10589000000F71D007F0010018B906F490700028CD
:1058A00079D005F0010048B106F4807030B10120D4
:1058B00021680862E06F40F00100E06705F0020037
:1058C00048B107F0010030B1022021680862E06FA2
:1058D00040F00400E06705F0040048B107F0010063
:1058E00030B1042021680862E06F40F00200E067F8
:1058F00005F0080060B106F0200010B907F00100C3
:1059000030B1082021680862E06F40F00800E067CD
:10591000E06F80B305F0200038B106F0200020B120
:10592000206E10B12046216E8847D4F87C90206804
:10593000806800F04000402802D009F0080020B341
:10594000204603F0F5FF2068806800F04000402802
:1059500017D12068806820F0400021688860E06EE0
:1059600058B12048E16E8863E06EFEF71FF810B171
:10597000E06E816B88470DE00DE02046FFF764FF85
:1059800008E02046FFF760FF04E02046FFF75CFFD9
:105990000020E06779E705F4801050B107F480003B
:1059A00038B14FF48010216808622046FFF727FEC7
:1059B0006BE705F0800040B106F0800028B1606E12
:1059C00010B12046616E88475FE705F0400030B1B6
:1059D00006F0400018B1204603F0BBFF55E700BFBA
:1059E00053E700005798000810B504460CB9012091
:1059F00010BDA06900B100E000BF606F28B90020B1
:105A000084F87000204600F02AF82420606720689F
:105A1000006820F0010021680860204604F012F8B8
:105A2000012800D1E4E7606A10B1204603F060FE6F
:105A30002068406820F490402168486020688068B1
:105A400020F02A00216888602068006840F001008A
:105A500021680860204603F0C7FEC9E77047704719
:105A600010B50346986F202865D101B10AB901200D
:105A700010BD00BF93F87000012801D10220F7E7A4
:105A8000012083F8700000BF5965A3F85820A3F8DF
:105A90005A200020186600BF9868B0F5805F0AD1D0
:105AA000186920B940F2FF10A3F85C0020E0FF2045
:105AB000A3F85C001CE0986848B9186918B9FF2081
:105AC000A3F85C0014E07F20A3F85C0010E0986865
:105AD000B0F1805F09D1186918B97F20A3F85C0084
