:020000040800F2
:10000000D02000207D0200086B150008CD120008EA
:10001000691500088D030008411A0008000000005F
:100020000000000000000000000000009D0100082A
:10003000D906000800000000F90100088D1700082B
:10004000451A00086D1500083918000897020008C5
:10005000F507000897020008DD0600082D070008D4
:10006000550700087D070008A5070008A904000837
:10007000D1040008F904000821050008490500081A
:1000800071050008990500086503000809040008C7
:1000900091030008B9030008E1030008CD07000838
:1000A00061180008D9180008B1180008891800085C
:1000B000011900082919000897020008F912000820
:1000C000D11200084913000821130008DD160008AA
:1000D00005170008C9190008F1190008191A0008C5
:1000E0000507000865160008970200089702000837
:1000F000970200089702000897020008970200087C
:1001000097020008B5160008970200082D1700088E
:10011000A119000897020008511900089702000869
:10012000C1050008E90500081106000839060008A5
:1001300061060008590400088104000897020008BD
:1001400031040008C1130008E913000897020008F1
:1001500089060008B1060008111400089915000866
:1001600099130008711300088D1600089702000803
:1001700097020008791900089702000800000000A3
:100180003D1600081D080008DFF80CD000F0ACF8A0
:1001900000480047DD1A0008D02000202C4B1968C9
:1001A000086800F05AB880F30988BFF36F8F4FF0EA
:1001B000000080F3118870470000000008480068C4
:1001C000006880F308884FF0000080F3148862B65E
:1001D00061B6BFF34F8FBFF36F8F00DF00BF00BF6B
:1001E00008ED00E0DFF80C00016841F470010160E7
:1001F000704700BF88ED00E0EFF30980BFF36F8F19
:10020000134B1A681EF0100F08BF20ED108A20E96A
:10021000F04F106009B44FF0500080F31188BFF325
:100220004F8FBFF36F8F02F03DFC4FF0000080F363
:10023000118809BC1968086800F014B81EF0100F86
:1002400008BF00F014B880F30988BFF36F8F7047C0
:1002500014000020EFF30580704730C8B0E8C04FAD
:10026000FFF7A1BF30C8B0E8C04FFFF7E7BFB0EC61
:10027000088AB0EC08CAFFF7E6BF000006488047CE
:1002800006480047FEE7FEE7FEE7FEE7FEE7FEE77B
:10029000FEE7FEE7FEE7FEE7F51700088901000824
:1002A00040EA01039B0703D009E008C9121F08C0F8
:1002B000042AFAD203E011F8013B00F8013B521E78
:1002C000F9D27047D2B201E000F8012B491EFBD2EF
:1002D00070470022F6E710B513460A460446194651
:1002E000FFF7F0FF204610BD064C074D06E0E06822
:1002F00040F0010394E8070098471034AC42F6D36D
:10030000FFF746FFC0350008E035000870B58C18CF
:1003100010F8015B15F0070301D110F8013B2A1119
:1003200006D110F8012B03E010F8016B01F8016B06
:100330005B1EF9D12B0705D40023521E0DD401F802
:10034000013BFAE710F8013BCB1A921C03E013F8CB
:10035000015B01F8015B521EF9D5A142D8D3002000
:1003600070BD000010B5074801F00AFA064C04E021
:1003700040688047206C01F005FA20640028F7D11E
:1003800010BD0000401B002098000020FEE7000088
:1003900010B5074801F0F4F9064C04E040688047C6
:1003A000A06C01F0EFF9A0640028F7D110BD0000A7
:1003B000501B00209800002010B5074801F0E0F91C
:1003C000064C04E040688047E06C01F0DBF9E06433
:1003D0000028F7D110BD0000581B00209800002015
:1003E00010B5074801F0CCF9064C04E0406880479E
:1003F000206D01F0C7F920650028F7D110BD00007D
:10040000601B00209800002010B5074801F0B8F9E3
:10041000064C04E040688047606C01F0B3F960640A
:100420000028F7D110BD0000481B002098000020D4
:1004300010B5074801F0A4F9064C04E04068804775
:10044000A06C01F09FF9A0640028F7D110BD000056
:10045000501C00201801002010B5074801F090F949
:10046000064C04E040688047206C01F08BF9206462
:100470000028F7D110BD0000401C0020180100200A
:1004800010B5074801F07CF9064C04E0406880474D
:10049000606C01F077F960640028F7D110BD0000AE
:1004A000481C00201801002010B5074801F068F929
:1004B000064C04E040688047606A01F063F96062BE
:1004C0000028F7D110BD0000081B00209800002074
:1004D00010B5074801F054F9064C04E04068804725
:1004E000A06A01F04FF9A0620028F7D110BD00000A
:1004F000101B00209800002010B5074801F040F9BB
:10050000064C04E040688047E06A01F03BF9E06295
:100510000028F7D110BD0000181B00209800002013
:1005200010B5074801F02CF9064C04E040688047FC
:10053000206B01F027F920630028F7D110BD0000DF
:10054000201B00209800002010B5074801F018F982
:10055000064C04E040688047606B01F013F960636B
:100560000028F7D110BD0000281B002098000020B3
:1005700010B5074801F004F9064C04E040688047D4
:10058000A06B01F0FFF8A0630028F7D110BD0000B8
:10059000301B00209800002010B5074801F0F0F84B
:1005A000064C04E040688047E06B01F0EBF8E06344
:1005B0000028F7D110BD0000381B00209800002053
:1005C00010B5074801F0DCF8064C04E040688047AD
:1005D000E06A01F0D7F8E0620028F7D110BD000012
:1005E000181C00201801002010B5074801F0C8F8B9
:1005F000064C04E040688047206B01F0C3F820639C
:100600000028F7D110BD0000201C00201801002098
:1006100010B5074801F0B4F8064C04E04068804784
:10062000606B01F0AFF860630028F7D110BD0000E7
:10063000281C00201801002010B5074801F0A0F880
:10064000064C04E040688047A06B01F09BF8A06373
:100650000028F7D110BD0000301C00201801002038
:1006600010B5074801F08CF8064C04E0406880475C
:10067000E06B01F087F8E0630028F7D110BD0000BF
:10068000381C00201801002010B5074801F078F848
:10069000064C04E040688047606D01F073F86065C7
:1006A0000028F7D110BD0000681C002018010020B0
:1006B00010B5074801F064F8064C04E04068804734
:1006C000A06D01F05FF8A0650028F7D110BD000013
:1006D000701C0020180100207047000010B507486A
:1006E00001F04EF8064C04E040688047206901F0B4
:1006F00049F820610028F7D110BD0000E01A002061
:100700009800002010B5074801F03AF8064C04E0C4
:1007100040688047606901F035F860610028F7D1D2
:1007200010BD0000E81B00201801002010B507488C
:1007300001F026F8064C04E040688047606901F04B
:1007400021F860610028F7D110BD0000E81A0020F0
:100750009800002010B5074801F012F8064C04E09C
:1007600040688047A06901F00DF8A0610028F7D12A
:1007700010BD0000F01A00209800002010B50748B6
:1007800000F0FEFF064C04E040688047E06900F09E
:10079000F9FFE0610028F7D110BD0000F81A002031
:1007A0009800002010B5074800F0EAFF064C04E06E
:1007B00040688047206A00F0E5FF20620028F7D1FA
:1007C00010BD0000001B00209800002010B5074855
:1007D00000F0D6FF064C04E040688047606D00F0F2
:1007E000D1FF60650028F7D110BD0000681B002014
:1007F0009800002010B5074800F0C2FF064C04E046
:1008000040688047E06800F0BDFFE0600028F7D155
:1008100010BD0000D01A00209800002010B5074835
:1008200000F0AEFF064C04E040688047A06F00F087
:10083000A9FFA0670028F7D110BD0000B01C002060
:10084000180100202DE9F84FDFF898B100234FF090
:10085000010C4FF0030A4FF00F090BF1040EB9E041
:100860000CFA03F4224070D04D68022D01D0122DF5
:100870000ED1DD0800EB8508D8F820505E07F70E92
:1008800009FA07F6B5430E69BE402E43C8F820604A
:1008900007685E0091F804800AFA06F508F003087C
:1008A000AF4308FA06F848EA0708C0F800804F6826
:1008B000012F05D0022F03D0112F01D0122F13D1F9
:1008C000D0F80880CF6828EA0508B74047EA08074B
:1008D0008760D0F804800F7928EA0408C7F300176E
:1008E0009F4047EA08074760D1F804806FEA08078D
:1008F000BF0706D1C76AA743C8F3C0049C403C4366
:10090000C462C468AC438D68B5402543C5604C687B
:10091000E4005ED5344C256E45F001052566246E55
:1009200023F0030504F001040094304C2E19B46840
:100930009D072F0F09FA07F5AC43B0F1904F05D092
:100940002B4DA84204D101251CE042E0002519E00E
:10095000284DA84201D1022514E0274DA84201D11B
:1009600003250FE0254DA84201D104250AE0244DBE
:10097000A84201D1052505E0224DA84201D1062556
:1009800000E00725BD402543B560DBF800405D462B
:100990004E689443F60300D514432C60DEF8004003
:1009A00075464E689443B60300D514432C600D4D34
:1009B00008352C684E689443F60200D514432C6029
:1009C000084D0C352C684E689443B60200D514438C
:1009D0002C605B1C0A6832FA03F57FF441AF00F02B
:1009E00013B8000000040140001002400000014064
:1009F0000004004800080048000C004800100048AF
:100A0000001400480018004818BCBDE8E08F000042
:100A100001488068704700000400002070B50400A1
:100A200011D021684CF6CC400860216845F2555041
:100A30000860D4E9000141602168A0688860FFF780
:100A4000E7FF054609E0012070BD00BFFFF7E0FFAA
:100A5000401B302801D9032070BD2068C0680028E1
:100A6000F4D120680269E1688A4201D0016102E0A4
:100A70004AF6AA210160002070BD0000024881688A
:100A800042681144816070470400002010B50024C2
:100A9000032000F067F80F2000F008F808B10124E7
:100AA00001E000F025F8204610BD000070B50E4EA4
:100AB00005460024706898B14FF47A71B1FBF0F0EC
:100AC0000A490968B1FBF0F000F0ECFB40B9102DC9
:100AD00006D200222946501E00F024F8356000E0BE
:100AE0000124204670BD00000400002010000020FA
:100AF0000B4882B0016E41F001010166016E01F008
:100B000001010091816D41F080518165806D00226D
:100B100000F0805000900F21901E02B000F002B84B
:100B200000100240F0B40E4B1B680C46C3F30223C6
:100B3000C3F10705042D00D90425191D072901D289
:100B4000002300E0DB1E012606FA05F1491E2140C4
:100B500099409E40761E16403143F0BC00F086BF9F
:100B60000CED00E0064900F0070208684FF6FF03AD
:100B7000184040EA0220034A104308607047000012
:100B80000CED00E00000FA051649B0F5007F08689A
:100B9000C0F3412009D0022805D0086820F4C060C5
:100BA00040F480600860002070470128FBD008688E
:100BB00020F4C06040F4007008600B4832220068E6
:100BC00050430A4AB0FBF2F0401C00E0401E4A6964
:100BD000520501D50028F9D148694005E3D5032025
:100BE00070470000007000401000002040420F00DD
:100BF0000248006800F4C0607047000000700040C8
:100C00002DE9F0470F46050058D0404E306800F0FF
:100C10000700B84209D2306820F00700384330603E
:100C2000306800F00700B84248D12878384CC00737
:100C30002CD06868032811D0022812D0216898B1FE
:100C4000490500293ADAA16821F003010143A160B6
:100C5000FFF7DEFE804641F2883910E02168890105
:100C6000EFE721688903ECE78907EAE7FFF7D0FEA1
:100C7000A0EB0801494502D90320BDE8F087A06830
:100C8000696800F00C00B0EB810FEFD12878800785
:100C900005D5A068A96820F0F0000843A06030687E
:100CA00000F00700B8420BD9306820F00700384345
:100CB0003060306800F00700B84201D00120DCE766
:100CC0002878400705D5A068E96820F4E06008436B
:100CD000A0602878000706D5A068296920F4605034
:100CE00040EAC100A06000F01BF8A168094AC1F306
:100CF0000311515C01F01F01C84007490860074813
:100D00000068BDE8F047FFF7D1BE000000200240B8
:100D1000001002407435000810000020040000207C
:100D200070B52549002318468A68CC6812F00C0279
:100D300004F00306214C4FEA640509D00C2A05D0C3
:100D4000042A32D0082A00D1284670BD012E10D1C5
:100D50000B681B0704D4D1F89430C3F3032302E0DB
:100D60000B68C3F30313164E56F82330DAB10C2A7E
:100D7000EBD1C86800F00300022818D0032818D06F
:100D80001846CA68CB68C2F30212C3F30623434372
:100D9000521CB3FBF2F2C868C0F34160401C400033
:100DA000B2FBF0F070BD184670BD204670BD204605
:100DB000E7E72846E5E70000001002400024F400C1
:100DC000843500082DE9F84304006ED0FD4DA86875
:100DD00000F00C06E86800F003072078C00663D531
:100DE00076B10C2E01D1012F0AD0A0690028286805
:100DF00078D040F001002860FFF70AFE80465BE0F3
:100E00002868800702D5A0690028DED0216A2868FA
:100E1000000703D5286800F0F00004E0D5F894003E
:100E2000F02202EA1010814216D9084600F0C8FBF1
:100E300000283AD1286840F0080028602868216A14
:100E400020F0F000084328606868E16920F47F40E2
:100E500040EA0120686015E0286840F0080028603A
:100E60002868216A20F0F000084328606868E1697A
:100E700020F47F4040EA01206860206A00F0A0FB77
:100E80000028D6D1FFF74CFFA968CF4AC1F3031160
:100E9000515C01F01F01C840CC490860CC48006893
:100EA000FFF704FE00287DD12DE0C9E0FFF7B0FD7B
:100EB000A0EB0800022876D828688007F6D52868B5
:100EC00040F0080028602868216A20F0F0000843FC
:100ED00028606868E16920F47F4040EA012068608A
:100EE00011E0FFE720F001002860FFF791FD804648
:100EF00006E000BFFFF78CFDA0EB08000228DAD85F
:100F000028688007F6D42078C00740D0082E18D073
:100F10000C2E01D1032F14D06068B0F5803F17D09C
:100F2000B0F5A02F286817D020F4803028602868FA
:100F300020F4802028606068E0B1FFF769FD8046FA
:100F400014E02868800322D56068002878D01EE06D
:100F5000286840F48030EDE740F480202860F7E70F
:100F6000FFF756FDA0EB08006428A4D8286880038A
:100F7000F6D50CE0FFF74CFD804605E0FFF748FD95
:100F8000A0EB0800642896D828688003F6D420785F
:100F900080073BD5042E11D00C2E01D1022F0DD08D
:100FA000E06801E03EE19FE0002828681ED040F4A0
:100FB00080702860FFF72CFD07460CE0286840058C
:100FC0000CD5E0680028C1D008E000BFFFF720FD85
:100FD000C01B022893D828684005F7D56868217C93
:100FE00020F0F85040EA016068600FE020F4807063
:100FF0002860FFF70DFD074605E000BFFFF708FD7D
:10100000C01B022870D828684005F7D42078000754
:1010100029D560690028D5F8940012D040F001006D
:10102000C5F89400FFF7F4FC074604E0FFF7F0FC76
:10103000C01B022858D8D5F894008007F6D512E0D6
:1010400029E120F00100C5F89400FFF7E1FC074614
:1010500005E000BFFFF7DCFCC01B022844D8D5F830
:1010600094008007F6D42078400768D5A86D002743
:10107000C00008D4A86D40F08050A865A86D012775
:1010800000F08050009053480168C90512D40168EF
:10109000814641F480710160FFF7BAFC804605E0AB
:1010A000FFF7B6FCA0EB080002281DD8D9F8000015
:1010B000C005F5D5A068012817D00528D5F89000FF
:1010C00018D020F00100C5F89000D5F8900020F06D
:1010D000040000BFC5F89000A06841F28839D0B183
:1010E000FFF796FC804611E06BE0D5F8900040F0E9
:1010F0000100EFE740F00400C5F89000F5E700BFFD
:10110000FFF786FCA0EB080149455AD8D5F89000B6
:101110008007F5D50EE0FFF77BFC804606E000BFB8
:10112000FFF776FCA0EB080149457AD8D5F8900086
:101130008007F5D41FB1A86D20F08050A865A06A83
:10114000F0B30C2E75D00228286820F0807028603B
:1011500004D0286810F0205F51D054E0FFF758FC0D
:10116000064604E0FFF754FC801B022859D8286883
:101170008001F7D4D4E90B016FF00F0202EB0111EB
:101180000843A18F5204490802EB4151626B41EAC6
:101190000221084394F840104FF07E42490802EBC8
:1011A00041610843A16B090940EA4140E9680A4AE4
:1011B00011400843E860286840F0807028600DE026
:1011C0006BE02EE000100240743500081000002093
:1011D00004000020007000408C809DF9E86840F019
:1011E0008070E860FFF714FC044604E0FFF710FC91
:1011F000001B022815D828688001F7D54DE0E86863
:1012000020F00300E860E86825490840E860FFF73F
:10121000FFFB044609E000BFFFF7FAFB001B0228B2
:1012200003D90320BDE8F88303E028688001F3D4E4
:1012300033E00128F6D0E868E26A00F00301914249
:1012400029D1216B00F0700209011039914222D19D
:10125000626B00F4FE41B1EB022F1CD1A26B00F4D3
:101260000031072A01D0012200E00022914212D170
:10127000A18F00F4C00249084905A1F5001191426F
:1012800009D194F8401000F0C06049084906A1F166
:101290000071814201D00120C4E70020C2E70000B4
:1012A000FFFFEEFE10B5401EB0F1807F01D301209C
:1012B00010BD4FF0E02460610F21601700F0D6FBF5
:1012C0000020A06107202061002010BDFEE7000083
:1012D00010B5074800F054FA064C04E04068804717
:1012E000606F00F04FFA60670028F7D110BD000072
:1012F000A81B00209800002010B5074800F040FA15
:10130000064C04E040688047206F00F03BFA2067FD
:101310000028F7D110BD0000A01B0020980000207D
:1013200010B5074800F02CFA064C04E040688047EE
:10133000E06F00F027FAE0670028F7D110BD000049
:10134000B81B00209800002010B5074800F018FADC
:10135000064C04E040688047A06F00F013FAA067D5
:101360000028F7D110BD0000B01B0020980000201D
:1013700010B5074800F004FA064C04E040688047C6
:10138000A06E00F0FFF9A0660028F7D110BD0000A4
:10139000901C00201801002010B5074800F0F0F95B
:1013A000064C04E040688047606E00F0EBF9606630
:1013B0000028F7D110BD0000881C00201801002073
:1013C00010B5074800F0DCF9064C04E0406880479F
:1013D000E06C00F0D7F9E0640028F7D110BD000000
:1013E000581C00201801002010B5074800F0C8F96B
:1013F000064C04E040688047206D00F0C3F920658A
:101400000028F7D110BD0000601C0020180100204A
:1014100010B5074800F0B4F9064C04E04068804776
:10142000E06D00F0AFF9E0650028F7D110BD0000D5
:10143000781C00201801002010B50022092103208B
:1014400000F0D2FB0149086010BD0000A00100209F
:1014500010B500220C21032000F0C6FB01490860F2
:1014600010BD0000A401002010B5002218210320A7
:1014700000F0BAFB0149086010BD0000A80100207F
:1014800070B586B014216846FEF723FF3048C16C62
:1014900041F01001C164C16C01F010010591C16CF3
:1014A00041F00401C164C16C01F004010591C16CFB
:1014B00041F08001C164C16C01F080010591C16CF3
:1014C00041F00101C164C16C01F001010591C16CE1
:1014D00041F00201C164C16C01F002010591C16CCF
:1014E00041F00801C164C06C4FF6FF7600F00800BF
:1014F000009605900324002569461648CDE901456C
:10150000FFF7A0F9009669461348CDE90145FFF7BA
:1015100099F9009469461148CDE90145FFF792F920
:10152000009669464FF09040CDE90145FFF78AF9F2
:10153000009669460A48CDE90145FFF783F9009610
:1015400069460848CDE90145FFF77CF906B070BD52
:10155000001002400010004800080048001C00482D
:1015600000040048000C0048FEE7704710B507482B
:1015700000F006F9064C04E040688047606800F01F
:1015800001F960600028F7D110BD0000B81A0020F2
:10159000980000207047704710B5074800F0F0F839
:1015A000064C04E040688047206E00F0EBF82066AF
:1015B0000028F7D110BD0000801C00201801002079
:1015C000F8B51C4D06460024A86DC00002D5FFF7F3
:1015D0000FFB0DE0A86D40F08050A865A86D00F0ED
:1015E00080500090FFF704FBA96D21F08051A965A0
:1015F000B0F5007F04D0802E07D94FF003040AE035
:10160000802E08D9A02E01D804E001D1022402E0E6
:10161000702E00D101240848016821F00701214300
:101620000160006800F00700A04201D00120F8BD71
:101630000020F8BD001002400020024010B507480D
:1016400000F09EF8064C04E040688047606F00F0B0
:1016500099F860670028F7D110BD0000A81C002091
:101660001801002010B5074800F08AF8064C04E085
:1016700040688047A06900F085F8A0610028F7D194
:1016800010BD0000F01B00201801002010B5074815
:1016900000F076F8064C04E040688047E06E00F009
:1016A00071F8E0660028F7D110BD0000981C0020FA
:1016B0001801002010B5074800F062F8064C04E05D
:1016C00040688047E06900F05DF8E0610028F7D1EC
:1016D00010BD0000F81B00201801002010B50748BD
:1016E00000F04EF8064C04E040688047206800F0A7
:1016F00049F820600028F7D110BD0000C01B002071
:101700001801002010B5074800F03AF8064C04E034
:1017100040688047606800F035F860600028F7D1C5
:1017200010BD0000C81B00201801002010B507489C
:1017300000F026F8064C04E040688047206A00F07C
:1017400021F820620028F7D110BD0000001C002005
:1017500018010020012000F0F1F9FBE770B5054CFD
:10176000054D02E06068804708342068A842F9D03F
:1017700070BD0000AC010020EFBEADDE00BF7047C1
:1017800000687047002800D00068704710B5FFF768
:1017900075F901F025FD012803D0BDE8104001F0E6
:1017A0002DBA10BD10B596B044216846FEF791FDE4
:1017B000142111A8FEF78DFD1820009001200024AF
:1017C000CDE906040590602008900A946846FFF76A
:1017D000F9FA0F20CDE9110413941494002111A8F3
:1017E0001594FFF70DFA4FF40070FFF7CDF916B01E
:1017F00010BD00000D48016841F4700101600C4803
:10180000016841F001010160002181600268094B1B
:101810001A4002608214C260026822F480220260D0
:1018200081610249C00380390860704788ED00E09B
:1018300000100240FFFFF6EA10B50748FFF7A0FFCF
:10184000064C04E040688047A068FFF79BFFA0605B
:101850000028F7D110BD0000C01A00209800002019
:1018600010B50748FFF78CFF064C04E0406880473E
:10187000A06DFFF787FFA0650028F7D110BD00001D
:10188000701B00209800002010B50748FFF778FF74
:10189000064C04E040688047606EFFF773FF6066A7
:1018A0000028F7D110BD0000881B00209800002000
:1018B00010B50748FFF764FF064C04E04068804716
:1018C000206EFFF75FFF20660028F7D110BD0000F3
:1018D000801B00209800002010B50748FFF750FF3C
:1018E000064C04E040688047E06DFFF74BFFE06581
:1018F0000028F7D110BD0000781B002098000020C0
:1019000010B50748FFF73CFF064C04E040688047ED
:10191000A06EFFF737FFA0660028F7D110BD0000CA
:10192000901B00209800002010B50748FFF728FF03
:10193000064C04E040688047E06EFFF723FFE06656
:101940000028F7D110BD0000981B0020980000204F
:1019500010B50748FFF714FF064C04E040688047C5
:10196000A06AFFF70FFFA0620028F7D110BD0000AA
:10197000101C00201801002010B50748FFF700FFD9
:10198000064C04E040688047206FFFF7FBFE2067AD
:101990000028F7D110BD0000A01C00201801002075
:1019A00010B50748FFF7ECFE064C04E0406880479E
:1019B000606AFFF7E7FE60620028F7D110BD000003
:1019C000081C00201801002010B50748FFF7D8FEBA
:1019D000064C04E040688047A068FFF7D3FEA06093
:1019E0000028F7D110BD0000D01B002018010020F6
:1019F00010B50748FFF7C4FE064C04E04068804776
:101A0000E068FFF7BFFEE0600028F7D110BD0000DE
:101A1000D81B00201801002010B50748FFF7B0FEC2
:101A2000064C04E0406880472069FFF7ABFE206168
:101A30000028F7D110BD0000E01B00201801002095
:101A4000FEE7000010B50748FFF79AFE064C04E0D9
:101A5000406880472068FFF795FE20600028F7D196
:101A600010BD0000B01A0020980000200907090EE0
:101A7000002804DB00F1E02080F80014704700F03B
:101A80000F0000F1E02080F8141D704702E008C844
:101A9000121F08C1002AFAD170477047002001E0E8
:101AA00001C1121F002AFBD1704700000949012023
:101AB000096809B10020704707494A6A002AF9D12C
:101AC000044A283212680969491E8A42F3D1022069
:101AD00070470000A4060020140000208AB0FEF722
:101AE000D5FFFFF75FFEFFF7CBFC10480E49016002
:101AF0000021416040F6FF71C1608160FEF78EFFFA
:101B000000F036F824220A496846FEF7C9FB6A4607
:101B10000021084800F0A2F807490860FFF71EFE00
:101B200000F042F8FEE7000000300040CC01002049
:101B300050350008551700080000002010B5EFF3DD
:101B4000058149B9EFF3108131B9084909680229C3
:101B500005D1EFF3118111B16FF0050403E000240A
:101B600008B100F0D7FE204610BD00006400002040
:101B7000EFF3058058B9EFF3108040B909490868C0
:101B8000022801D030B109E0EFF3118030B16FF0DD
:101B90000500704701200860002070474FF0FF30BB
:101BA000704700006400002010B5EFF3058060B9B5
:101BB000EFF3108048B90B490868022802D00128C9
:101BC00006D00BE0EFF3118040B16FF0050010BDBF
:101BD0000220086000F006FF002010BD4FF0FF302B
:101BE00010BD000064000020F8B514464FF0000559
:101BF000EFF305826ABBEFF3108252BB164A1268FC
:101C0000022A02D1EFF311821ABB10B309B3ACB1AF
:101C1000D4E902326BB1502A1BD32269CAB1676979
:101C200000FB01F6B74214D30025009501F020F81F
:101C300007E072B9226962B9626952B9002200F004
:101C4000F3FF050005D00CB1216800E0002100F091
:101C50002BFE2846F8BD000064000020F0B585B0DA
:101C60004FEA01034FF00004EFF305810394A1BB99
:101C7000EFF3108189BB21490968022902D1EFF3F2
:101C8000118151BB48B3802618218DF8104004AD56
:101C900042B3176807B13D4697691FB139467F1EA9
:101CA000382F02D21779FF0702D0002005B0F0BD0F
:101CB000576907B1BE08D2F808C0BCF1000F0DD0BB
:101CC000D4685C2C18D312693AB137B18DE806108C
:101CD0003246294601F058FA03900DE0D7685FB903
:101CE00012694AB903AACDE90012B2B2294601F03D
:101CF0001BFA012800D003940398D7E76400002062
:101D00002DE9F041134C0F46054666692068001D19
:101D100000F048FC681C07D137B12168BDE8F041EC
:101D20000D48091D00F08EBC20683544B542456061
:101D3000216805D2A068BDE8F041091D00F06ABC29
:101D40006068091D00F066FC206B854200D22563A7
:101D5000BDE8F08114000020CC0600202DE9F04100
:101D6000054600F07BFC2D4C2069401C206120685A
:101D70002B4F10B1E06930B32BE0256020690128BA
:101D800027D1002606EB860007EB800000F034FC2C
:101D9000761C382EF6D3234800F02EFC2148143050
:101DA00000F02AFC1F48283000F026FC1D483C307B
:101DB00000F022FC1B48503000F01EFC1948606007
:101DC0001430A06005E02068E96AC06A884200D843
:101DD0002560E06A401CE0626864E86AA1698842A4
:101DE00000D9A06100EB800007EB8000291D00F006
:101DF00029FC00F053FCE06900280CD02068E96A57
:101E0000C06A884207D208494FF080500860BFF38B
:101E10004F8FBFF36F8FBDE8F081000014000020EA
:101E20001C0200207C06002004ED00E038B500F024
:101E300015FC104CA068C8B90F4800F0DDFB0E4837
:101E4000143000F0D9FB0C482060143060600A4B5D
:101E500000202833009003F1500210210A2000F0E6
:101E600007FFA06010B105A100F01EFDBDE83840DD
:101E700000F014BC50000020E0060020546D7251A8
:101E80000000000030B4026C0B46002A0BD0C16881
:101E90001144C1604468A14201D30168C16030BCF3
:101EA0001846FEF7FDB930BC70472DE9F041856B4F
:101EB000174604460026026C82B1C7B1E068FEF7FF
:101EC000EFF9E168206C091AE1602268914202D2C0
:101ED0006168081AE060022F16D017E02068A8B9E0
:101EE000606801F0F5F90646002060600EE0A06829
:101EF000FEF7D6F9216CA0680844A06061688842AA
:101F000004D32068A06001E005B16D1E6D1CA563BF
:101F10003046BDE8F08110B5044690F8590058B13C
:101F200001280CD002280FD0502080F31188BFF375
:101F30004F8FBFF36F8FFEE7206B00F0C3FB20468F
:101F4000BDE8104000F0BEBB10BD000009480021F4
:101F5000826902B101210268D26A0AB10020704789
:101F6000054A1268012AF9D80029F7D1016B4069A6
:101F7000081A7047140000201C0200200F4840F689
:101F8000B831420705D0C01D0C4A20F00700821A64
:101F9000891A0B4A00230144C2E900030839103AA8
:101FA00021F0070111604B600B600B1AC0E90013B0
:101FB00093604FF000405360D0607047B00E002037
:101FC000780000201F4C204E12E000BF00F046FBBE
:101FD000F068C568281D00F0E5FA2069401E206100
:101FE000E068401EE06000F059FB2846FFF793FFD1
:101FF000E0680028EAD115480068012807D914498B
:102000004FF080500860BFF34F8FBFF36F8FFFF723
:102010009DFF0228D7D300F03DFD206B6169884207
:1020200007D2502080F31188BFF34F8FBFF36F8F1B
:10203000FEE7FFF78BFF022801D300F095FB01F0CC
:10204000C1F9C0E714000020B80600201C020020DF
:1020500004ED00E070B51D46049C51B1C4F80020A9
:10206000C4E90F010121204600F036FE84F84C50EF
:1020700070BD2460F4E72DE9F0470E46DDE90984E0
:102080001746824691009946089DA522206BFEF7CF
:1020900019F96FF00301206B01EB8701084420F070
:1020A0000707780707D0502080F31188BFF34F8FC0
:1020B000BFF36F8FFEE72218315C82F83410315C79
:1020C00011B1401C1028F6D3002684F84360382D47
:1020D00000D33725E562C4E91356201D00F097FAB6
:1020E00004F1180000F093FA2461C5F1380064622D
:1020F000A061666584F858604A465146384600F04B
:102100003BFA2060B8F1000F01D0C8F80040BDE8EC
:10211000F087000030B5114900E011460A6882429C
:10212000FBD34B685C18844203D140681844486074
:10213000084643681C18944209D1084C103C246896
:10214000A24209D052681A4442600A6812680260CA
:10215000814200D0086030BD0460F9E778000020BB
:1021600070B5002441600B4D0061914206D8D11A30
:102170008269914206D2011D686807E09A4203D243
:10218000994201D3012403E0011D286800F042FABE
:10219000204670BD5000002010B5044600F05EFAE5
:1021A000A06B28B15FF0000400F078FA204610BD63
:1021B0000124F9E730B589B0304D55E00498002886
:1021C00006DADDE90601059A9047049800284BDB02
:1021D000069C606910B1201D00F0E4F902A800F02F
:1021E000B9F8024604980A283ED2DFE800F0050557
:1021F000053D263705053D260598A169034601449E
:102200002046FFF7ADFF00B3616A20468847E069CA
:10221000012829D1002000900598A16900234218C7
:102220001946204601F060F978B9502080F31188F2
:10223000BFF34F8FBFF36F8FFEE70598A06128B102
:10224000811813462046FFF78BFF0DE0502080F3E6
:102250001188BFF34F8FBFF36F8FFEE794F82C0008
:1022600010B9204600F02EFA002204A9A86800F058
:1022700085FE0028A2D109B030BD0000500000202A
:102280002DE9FC410F46054600F004FC01A800F0D2
:1022900061F80446019818B101F094F8BDE8FC819A
:1022A000224EAFB170680068A8B30027291B3A46D8
:1022B000B06800F00DFB01F085F80028EED11C4954
:1022C0004FF080500860BFF34F8FBFF36F8FE5E78B
:1022D000A542EBD801F076F830682746C068C4689C
:1022E000201D00F05FF9E069012810D1A0692B469C
:1022F00041193A462046FFF733FF40B1002003461C
:10230000014600902A46204601F0EEF820B1616AAD
:1023100020468847C2E707E0502080F31188BFF3CA
:102320004F8FBFF36F8FFEE70127BFE750000020FC
:1023300004ED00E006484168096829B14168C968B0
:10234000C9684968016370474FF0FF31FAE7000040
:102350001400002070B5054600F050FF064E0446FC
:102360003069844203D200F009F8012000E0002027
:1023700028602046346170BD50000020F8B5194D2A
:102380001FE0C068C4680668201D00F00BF9616A90
:1023900020468847E069012813D1A0693044B04243
:1023A00006D924616060211D286800F033F908E037
:1023B00000200346014600903246204601F094F882
:1023C00038B1286801680029DBD16968C5E90010C7
:1023D000F8BD502080F31188BFF34F8FBFF36F8F8C
:1023E000FEE700005000002008484068401C4FF005
:1023F000500080F3118804D0BFF34F8FBFF36F8F6D
:10240000FEE7BFF34F8FBFF36F8FFEE78000002022
:10241000074C2068016841B1C0680021D0F8000075
:10242000FFF72EFFFFF7C6FEF3E701210020F7E7D5
:10243000500000202DE9F041044600F00FF994F916
:10244000455004F1240609E0606A48B1304600F0C6
:102450007FFF08B100F08CFA6D1E6DB2002DF3DC29
:102460004FF0FF3684F8456000F018F900F0F6F8F8
:1024700094F9445004F1100709E0206948B1384646
:1024800000F066FF08B100F073FA6D1E6DB2002D0A
:10249000F3DC84F84460BDE8F04100F0FFB80000D0
:1024A0002DE9F0410546002700F0F4FA314E30687E
:1024B00008B9FFF763FDF06805424BD1C5B3083595
:1024C00068070ED005F00700C0F108000544680752
:1024D00007D0502080F31188BFF34F8FBFF36F8F69
:1024E000FEE72DB37068854234D82248103001468B
:1024F0000C6801E020460C466168A94202D22168BE
:102500000029F7D131688C4224D007682168016026
:1025100060680837411B10290FD96019420708D09D
:10252000502080F31188BFF34F8FBFF36F8FFEE70A
:1025300010E041606560FFF7EDFD61687068401A6A
:102540007060B268904200D2B060F0680143002031
:10255000C4E9000100F036FF780707D0502080F36F
:102560001188BFF34F8FBFF36F8FFEE73846BDE88A
:10257000F08100006800002010B5031F4FF0807448
:102580001C601B1F21F001011960191F044B0B6017
:1025900014390A60091F6FF0020244380A6010BD46
:1025A000E9230008D0E9013201699A60D0E90123EA
:1025B0005A604A68824201D182684A600022026100
:1025C0000868401E0860086870470000034B0360FD
:1025D00003F15C000860802010607047F80700205D
:1025E000044B036003F15C0008604FF480701060DE
:1025F00070470000540A002000F108014FF0FF323C
:10260000C0E90112C1600161002101607047002131
:102610000161704730B50B685A1C02D000F1080206
:1026200002E0026904E02246546825689D42FAD916
:1026300053684B6099608A60516008610168491C69
:10264000016030BD42684A6093688B60936859604E
:10265000916008610168491C01607047502080F357
:102660001188BFF34F8FBFF36F8F0A494868401C32
:10267000486001280CD10848006810F0FF0F07D00F
:10268000502080F31188BFF34F8FBFF36F8FFEE7A9
:10269000704700008000002004ED00E00849486811
:1026A00028B1401E486001D180F311887047502046
:1026B00080F31188BFF34F8FBFF36F8FFEE70000E9
:1026C0008000002070B5002827D0144DA0F1080428
:1026D0006168E868014207D1502080F31188BFF398
:1026E0004F8FBFF36F8FFEE722683AB1502080F31F
:1026F0001188BFF34F8FBFF36F8FFEE78143616097
:1027000000F0C8F960686968084468602046FFF70F
:1027100001FDBDE8704000F055BE70BD68000020AE
:102720000F4810B501684FF47A72B1FBF2F30D480F
:102730006FF07F448360B4FBF3F3C360B1FBF1F34C
:102740002D24B4FBF3F303614FF0E0200023036179
:102750008361B1FBF2F1491E41610721016110BDA6
:102760001000002080000020F1B5394D82B00299A0
:10277000E868814200D902904FF0E024206920F0FF
:1027800001002061A1690298AA68401E02FB0016A0
:102790002869864200D9361A72B6BFF34F8FBFF34D
:1027A0006F8FFFF783F998B366610027A7612069EF
:1027B00040F001002061029800906846FEF7EBFEB1
:1027C000009820B1BFF34F8F30BFBFF36F8F02A8C7
:1027D000FEF7E0FE62B6BFF34F8FBFF36F8F72B6A6
:1027E000BFF34F8FBFF36F8F062020612069C003B6
:1027F00016D5A0692A69311AA868411A491E914262
:1028000001D3814200D9411E61610298401E12E04D
:10281000FFE7A0696061206940F00100206111E0DC
:102820000298AA68A1695043411AB1FBF2F0431C17
:102830005343591A6161A761216941F00101216186
:1028400000F014F9A868401E606162B6FEBD000089
:102850008000002010B5FDF7FDFC114910280ED3B3
:1028600000F1E02090F8F0030A78904207D250205F
:1028700080F31188BFF34F8FBFF36F8FFEE70948D6
:102880000068496900F4E060884207D9502080F36D
:102890001188BFF34F8FBFF36F8FFEE710BD0000AD
:1028A000800000200CED00E010B5084B002200BFB6
:1028B00053F832401CB1521C082AF9D310BD43F81A
:1028C000321003EBC201486010BD0000DC010020A3
:1028D00070B515460E460446FFF7C0FE94F9441045
:1028E0000020491C01D184F8440094F94510491C8A
:1028F00001D184F84500FFF7D1FEA06B28B92A4624
:10290000314604F1240000F051F82046BDE8704043
:10291000FFF790BD10B5020014D00F48806B38B19E
:10292000502080F31188BFF34F8FBFF36F8FFEE706
:1029300000F0B0F800211046FFF7E2F900F042FD88
:10294000002807D105494FF080500860BFF34F8F32
:10295000BFF36F8F10BD00001400002004ED00E0F5
:1029600002498A6A02604969416070471400002088
:1029700001490120486270471400002010B50C4640
:1029800050B1094909681831FFF744FE2046BDE8F7
:1029900010400121FFF7B4B9502080F31188BFF334
:1029A0004F8FBFF36F8FFEE71400002070B5144601
:1029B0000D4668B10A4909681831FFF743FE0CB1AA
:1029C0004FF0FF3521462846BDE87040FFF798B923
:1029D000502080F31188BFF34F8FBFF36F8FFEE756
:1029E0001400002030B587B00024039405AA04A980
:1029F00003A80494FFF7EAFDDDE903010094CDE9A3
:102A00000110002315A11748059A00F0BDFB164DD3
:102A1000002868631FD000F037FD012809D0401C52
:102A200019D1502080F31188BFF34F8FBFF36F8F00
:102A3000FEE7502080F31188BFF34F8FBFF36F8FF5
:102A40004FF0FF3028630120E8616C6107B0BDE8FA
:102A5000304000F059B807B030BD000049444C4543
:102A600000000000C51F00081400002008494A6942
:102A70000B6B02449A4207D9502080F31188BFF3B0
:102A80004F8FBFF36F8FFEE74A691044486170476C
:102A9000140000200248816B491C816370470000CC
:102AA00014000020164810B5816B11B1012141625C
:102AB00010BD002141628169124A01E0B9B1491E8D
:102AC00001EB810352F82330002BF7D001EB810397
:102AD00002EB830202F1080453685B685360A3426F
:102AE00001D15B685360DA680260816110BD5020DB
:102AF00080F31188BFF34F8FBFF36F8FFEE70000A5
:102B0000140000201C0200201CB537480168374A19
:102B1000914207D1502080F31188BFF34F8FBFF34C
:102B20006F8FFEE700683149491E884207D1502067
:102B300080F31188BFF34F8FBFF36F8FFEE72C49EF
:102B400008780190FF20087008788DF800009DF843
:102B500000009DF8002000F0F000904207D05020C7
:102B600080F31188BFF34F8FBFF36F8FFEE79DF89F
:102B70000000204C00F0500020700720606105E04C
:102B80009DF8002052008DF80020401E9DF8002086
:102B90001206F5D46061032807D0502080F3118815
:102BA000BFF34F8FBFF36F8FFEE74FF4407060614C
:102BB000019808700C482030016841F470010160F0
:102BC000016841F070410160FFF7AAFD00206060DC
:102BD000FDF708FB0848016841F040410160FDF73E
:102BE000EDFA00201CBD000000ED00E071C20F41B5
:102BF00000E400E08000002034EF00E010B5502039
:102C000080F31188BFF34F8FBFF36F8F00F0FCFA92
:102C100018B104494FF080500860002080F31188FB
:102C200010BD000004ED00E0F8B517460E460500A3
:102C300014D0DEB105FB06F05030FFF731FC040084
:102C40000AD0002084F8460004F150023B46314689
:102C500028460094FFF7FEF92046F8BD502080F387
:102C60001188BFF34F8FBFF36F8FFEE70020E3E7BC
:102C700038B5049D18B153B1CAB181B120E05020DC
:102C800080F31188BFF34F8FBFF36F8FFEE75020A3
:102C900080F31188BFF34F8FBFF36F8FFEE7502093
:102CA00080F31188BFF34F8FBFF36F8FFEE739B109
:102CB000502080F31188BFF34F8FBFF36F8FFEE773
:102CC00050241C46012384F846302B460094FFF71D
:102CD000C1F9204638BD000070B50D46040025D06E
:102CE000FFF7BCFCD4E90F20216802FB00116160F2
:102CF0000021A1632168A1600A46D4E90F01401EAA
:102D000000FB0121E16021464FF0FF3001F8440F44
:102D1000487004F110008DB1FFF76EFC04F124003F
:102D2000FFF76AFCFFF7BAFC012070BD502080F36A
:102D30001188BFF34F8FBFF36F8FFEE72169002922
:102D4000F0D000F005FB0028ECD004494FF0805093
:102D50000860BFF34F8FBFF36F8FE3E704ED00E030
:102D60002DE9FF4782B01D468A464FF00008040057
:102D700003D0BAF1000F08D011E0502080F3118881
:102D8000BFF34F8FBFF36F8FFEE7206C38B1502039
:102D900080F31188BFF34F8FBFF36F8FFEE7022DD3
:102DA0000AD1E06B012807D0502080F31188BFF3CF
:102DB0004F8FBFF36F8FFEE700F012FA3F4F4FF0D7
:102DC00000094FF0805648B9049838B1502080F37C
:102DD0001188BFF34F8FBFF36F8FFEE7FFF73EFC05
:102DE000A06BE16B884207D3022D05D00498D0B1C7
:102DF000B8F1000F1AD01EE02A4651462046FFF7D0
:102E000054F8616A19B104F1240000F0A1FA20B16C
:102E10003E60BFF34F8FBFF36F8FFFF73FFC012082
:102E200006B0BDE8F087FFF739FC22E06846FFF7FF
:102E300097FD4FF00108FFF731FCFFF72BFEFFF77E
:102E40000DFC94F94400401C01D184F8449094F99D
:102E50004500401C01D184F84590FFF71FFC04A9F0
:102E6000684600F027F930B12046FFF7E3FA00F09A
:102E7000A9FA0020D4E7FFF7F1FBA06BE16B8842D1
:102E800013D1FFF70BFC04F110000499FFF776FD56
:102E90002046FFF7CFFA00F095FA00289ED13E6059
:102EA000BFF34F8FBFF36F8F98E7FFF7F7FB204615
:102EB000FFF7C0FA00F086FA90E7000004ED00E0AA
:102EC0002DE9F0471F4690468946040003D0B9F12A
:102ED000000F08D011E0502080F31188BFF34F8F0E
:102EE000BFF36F8FFEE7206C38B1502080F311885C
:102EF000BFF34F8FBFF36F8FFEE7022F0AD1E06B56
:102F0000012807D0502080F31188BFF34F8FBFF303
:102F10006F8FFEE7FFF79EFC5020EFF3118680F3E2
:102F20001188BFF34F8FBFF36F8FA06BE16B8842A7
:102F300006D3022F04D0002086F31188BDE8F08765
:102F400094F945503A4649462046FEF7AEFF681CC4
:102F500004D06D1C84F845500120EDE7606A00281C
:102F6000FAD004F1240000F0F3F90028F4D0B8F10D
:102F7000000FF1D00121C8F80010EDE72DE9F74767
:102F8000002683B08A46040003D0BAF1000F08D0AF
:102F900011E0502080F31188BFF34F8FBFF36F8F84
:102FA000FEE7206C38B1502080F31188BFF34F8FBB
:102FB000BFF36F8FFEE700F013F9DFF8F4804FF0F6
:102FC00000094FF0805748B9059838B1502080F378
:102FD0001188BFF34F8FBFF36F8FFEE7FFF73EFB04
:102FE000A56BC5B151462046FEF74CFF6D1EA5638B
:102FF000206950B104F1100000F0AAF928B1C8F816
:103000000070BFF34F8FBFF36F8FFFF747FB0120B7
:1030100006B0BDE8F087059808B11EB106E0FFF7DD
:103020003DFB27E06846FFF79BFC0126FFF736FBD8
:10303000FFF730FDFFF712FB94F94400401C01D16B
:1030400084F8449094F94500401C01D184F84590DF
:10305000FFF724FB05A9684600F02CF8002820465D
:103060000AD0FFF7E7F900F0ADF92046FFF794F832
:103070000028B3D00020CBE7FFF78EF890B104F121
:1030800024000599FFF77AFC2046FFF7D3F900F0FA
:1030900099F90028A2D1C8F80070BFF34F8FBFF391
:1030A0006F8F9BE72046FFF7C5F900F08BF995E796
:1030B00004ED00E02DE9F0410C46050011D0C4B14B
:1030C000FFF7CCFA174B5A696E682068911B471CB2
:1030D00017D02F689B6A9F4219D0964217D80124B7
:1030E00010E0502080F31188BFF34F8FBFF36F8F34
:1030F000FEE7502080F31188BFF34F8FBFF36F8F2F
:10310000FEE70024FFF7CAFA2046BDE8F0818842B6
:1031100005D9401A20602846FFF722FCF1E700207D
:103120002060DCE7140000202DE9FF5F8346DDE925
:103130000E87994616468A469000FFF7B1F90500BA
:103140001CD05C20FFF7ACF9040014D000202563EC
:1031500084F85900CDE90240CDE900874B4632465C
:1031600051465846FEF787FF2046FEF7F7FD01203F
:1031700004B000F006B82846FFF7A4FA4FF0FF307D
:10318000F6E730BCBDE8C09FF0B585B0DDE90B6463
:103190000A9DA6B1DCB15C2700972663022684F85D
:1031A0005960002604AFCDE90246CDE90057FEF78D
:1031B00062FF2046FEF7D2FD049805B0F0BD502016
:1031C00080F31188BFF34F8FBFF36F8FFEE750205E
:1031D00080F31188BFF34F8FBFF36F8FFEE70000BE
:1031E0000548C16919B1806B18B1002070470120F2
:1031F0007047022070470000140000200148406919
:1032000070470000140000202DE9F0412E4C0027EB
:10321000A06B40B1206A401C2062606A00B10127A7
:103220003846BDE8F0816669761C666113D1606836
:10323000006838B1502080F31188BFF34F8FBFF37F
:103240006F8FFEE76068A1686160A060A06A401CA3
:10325000A062FFF76FF8206BDFF87080864209D319
:103260006068006880B16068C068C5686868864248
:103270000DD220632068C06A00EB800158F821005D
:103280000128CAD90127C8E74FF0FF30F1E7281D10
:10329000FFF788F9A86A18B105F11800FFF782F95D
:1032A000E86AA169884200D9A06100EB800108EBBF
:1032B0008100291DFFF7C6F9E86A2168C96A8842BA
:1032C000CED30127CCE70000140000201C02002010
:1032D00070B504004FF0000133D01B4D28688442C4
:1032E00007D0502080F31188BFF34F8FBFF36F8F4B
:1032F000FEE7206D38B1401E2065E36CE26A9A4219
:103300001FD040B11DE0502080F31188BFF34F8FD4
:10331000BFF36F8FFEE7201DFFF744F9E06CE0621A
:10332000C0F13800A061E06AA969884200D9A861AB
:10333000064900EB800001EB8000211DFFF782F9B8
:103340000121084670BD0000140000201C0200206E
:1033500070B5C068C46854B104F118000646FFF7A0
:1033600021F9154DA86B50B13146144815E0502095
:1033700080F31188BFF34F8FBFF36F8FFEE7201DDF
:10338000FFF710F9E06AA969884200D9A8610C49E1
:1033900000EB800001EB8000211DFFF753F9E06A8C
:1033A0002968C96A884202D901246C6200E00024BD
:1033B000FEF7C0FF204670BD14000020A4060020C8
:1033C0001C0200202DE9F0472C4D00242746A86B55
:1033D00038B1FFF743F9A86B401EA863A86B40B152
:1033E00046E0502080F31188BFF34F8FBFF36F8FFB
:1033F000FEE72969224E0120D1B3A6F591698046E6
:103400003068E0B1F068C46804F11800FFF7CAF84A
:10341000201DFFF7C7F8E06AA969884200D9A861B2
:1034200000EB800109EB8100211DFFF70BF9E06A39
:103430002968C96A8842E3D3C5F82480E0E70CB163
:10344000FEF778FF2C6A4CB14FEA0806FFF7DCFE66
:1034500000B16E62641EF9D100202862686A38B13A
:103460000849012738070860BFF34F8FBFF36F8FFC
:10347000FFF714F93846BDE8F0870000140000207B
:10348000A406002004ED00E010B586B0FEF7CEFCE7
:10349000114CA068B8B100200390049005AA04A9BB
:1034A00003A8FFF79DF8DDE9032102208DE807005E
:1034B00000230AA10B48059AFFF766FEE06010B1F1
:1034C00006B0012010BD502080F31188BFF34F8F4C
:1034D000BFF36F8FFEE7000050000020546D722094
:1034E00053766300112400082DE9FF411E46134660
:1034F00002000A9D4FF0000016D0144CA768002F60
:103500000FD0CDE900130292062917DAFFF768FE03
:1035100002284FF000030FD000226946A068FFF791
:103520001FFC04B0BDE8F081502080F31188BFF388
:103530004F8FBFF36F8FFEE72A46EEE70023324638
:1035400069463846FFF7BCFCEBE70000500000205E
:10355000B43500080000000000000000000000007A
:1035600000000000800000001800000000000000C3
:103570000000000000000000000000000102030441
:1035800006070809A0860100400D0300801A060006
:1035900000350C0040420F0080841E0000093D00F1
:1035A00000127A000024F40000366E010048E801A1
:1035B000006CDC0264656661756C745461736B0049
:1035C000E035000800000020CC0100000C030008DA
:1035D00004360008CC010020041F00009C1A0008DB
:1035E00041321082010371093D1AAA0101FF012530
:1035F00017EFBEADDE7D172A08084B3914085A5163
:04360000081A690833
:040000050800018965
:00000001FF
