:020000040800F2
:10000000D82200207D020008D5360008652C0008A3
:10001000D13600080904000815440008000000005B
:100020000000000000000000000000009D0100082A
:100030000113000800000000F90100085940000801
:1000400019440008D93600087141000897020008D9
:100050007514000897020008051300086D130008C6
:10006000A1130008D513000809140008291000087E
:100070005D10000891100008C5100008F910000874
:100080002D1100086111000865030008590F0008D0
:10009000BD0E0008F10E0008250F00083D140008F1
:1000A000A5410008414200080D420008D94100085E
:1000B00075420008A9420008970200089D2C00081C
:1000C000692C0008052D0008D12C0008A13B000870
:1000D000D53B000879430008AD430008E143000820
:1000E00039130008053B0008970200089702000832
:1000F000970200089702000897020008970200087C
:10010000970200086D3B000897020008093C0008B0
:100110004543000897020008DD42000897020008E6
:1001200095110008C9110008FD11000831120008DE
:1001300065120008C10F0008F50F000897020008BB
:100140008D0F0008A12D0008C52D0008970200089A
:1001500099120008CD120008BD2F000811370008C1
:100160006D2D0008392D0008393B00089702000862
:1001700097020008114300089702000800000000E1
:10018000D13A0008A9140008DFF80CD000F0ACF850
:10019000004800479D450008D82200202C4B1968D4
:1001A000086800F05AB880F30988BFF36F8F4FF0EA
:1001B000000080F3118870470000000008480068C4
:1001C000006880F308884FF0000080F3148862B65E
:1001D00061B6BFF34F8FBFF36F8F00DF00BF00BF6B
:1001E00008ED00E0DFF80C00016841F470010160E7
:1001F000704700BF88ED00E0EFF30980BFF36F8F19
:10020000134B1A681EF0100F08BF20ED108A20E96A
:10021000F04F106009B44FF0500080F31188BFF325
:100220004F8FBFF36F8F05F055FE4FF0000080F346
:10023000118809BC1968086800F014B81EF0100F86
:1002400008BF00F014B880F30988BFF36F8F7047C0
:1002500018000020EFF30580704730C8B0E8C04FA9
:10026000FFF7A1BF30C8B0E8C04FFFF7E7BFB0EC61
:10027000088AB0EC08CAFFF7E6BF000006488047CE
:1002800006480047FEE7FEE7FEE7FEE7FEE7FEE77B
:10029000FEE7FEE7FEE7FEE72141000889010008CE
:1002A00040EA01039B0703D009E008C9121F08C0F8
:1002B000042AFAD203E011F8013B00F8013B521E78
:1002C000F9D27047D2B201E000F8012B491EFBD2EF
:1002D00070470022F6E710B513460A460446194651
:1002E000FFF7F0FF204610BD064C074D06E0E06822
:1002F00040F0010394E8070098471034AC42F6D36D
:10030000FFF746FFA8710008C871000870B58C1887
:1003100010F8015B15F0070301D110F8013B2A1119
:1003200006D110F8012B03E010F8016B01F8016B06
:100330005B1EF9D12B0705D40023521E0DD401F802
:10034000013BFAE710F8013BCB1A921C03E013F8CB
:10035000015B01F8015B521EF9D5A142D8D3002000
:1003600070BD000010B50A4803F03AFE0949086064
:1003700009E008490968486880470648006803F0B2
:1003800035FE04490860034800680028F1D110BD1B
:10039000A41B0020DC00002070B505460022114699
:1003A000104603F04BFC642004F01CF900210846C1
:1003B00003F07CFC0121002003F078FC642004F0B1
:1003C00011F9002003F058FC5021002003F08AFCB2
:1003D000642004F007F904F08BFA044604F00EFBE5
:1003E00070BD000000B589B0242205496846FFF7BA
:1003F00057FF6A460021034804F092FA09B000BD95
:10040000487000089903000800BFFEE710B51248C5
:10041000006800F40050F0B14FF400500E4908603D
:1004200000BF0E4803F0DCFD0D4908600EE000201F
:1004300001F054F804460A4800684168204688479D
:100440000748006803F0D2FD0549086004480068C9
:100450000028ECD100BF10BD14040140341D002061
:10046000AC01002010B51248006800F48060F0B1C3
:100470004FF480600E49086000BF0E4803F0B0FDE5
:100480000D4908600EE0012001F028F804460A48F2
:1004900000684168204688470748006803F0A6FDC9
:1004A00005490860044800680028ECD100BF10BD71
:1004B000140401403C1D0020B001002010B512487A
:1004C000006800F48060F0B14FF480600E4908606D
:1004D00000BF0E4803F084FD0D4908600EE00220C5
:1004E00000F0FCFF04460A4800684168204688473F
:1004F0000748006803F07AFD054908600448006871
:100500000028ECD100BF10BD14040140441D0020A0
:10051000B401002010B51248006800F48060F0B10A
:100520004FF480600E49086000BF0E4803F058FD8C
:100530000D4908600EE0032000F0D0FF04460A4891
:1005400000684168204688470748006803F04EFD70
:1005500005490860044800680028ECD100BF10BDC0
:10056000140401404C1D0020B801002010B51248B1
:10057000006800F48060F0B14FF480600E490860BC
:1005800000BF0E4803F02CFD0D4908600EE004206A
:1005900000F0A4FF04460A480068416820468847E6
:1005A0000748006803F022FD054908600448006818
:1005B0000028ECD100BF10BD14040140541D0020E0
:1005C000BC01002010B51248006800F48060F0B152
:1005D0004FF480600E49086000BF0E4803F000FD34
:1005E0000D4908600EE0052000F078FF04460A4837
:1005F00000684168204688470748006803F0F6FC19
:1006000005490860044800680028ECD100BF10BD0F
:10061000140401405C1D0020C001002010B51248E8
:10062000006800F48060F0B14FF480600E4908600B
:1006300000BF0E4803F0D4FC0D4908600EE0062010
:1006400000F04CFF04460A4800684168204688478D
:100650000748006803F0CAFC0549086004480068C0
:100660000028ECD100BF10BD14040140641D00201F
:10067000C401002010B51248006800F48060F0B199
:100680004FF480600E49086000BF0E4803F0A8FCDC
:100690000D4908600EE0072000F020FF04460A48DC
:1006A00000684168204688470748006803F09EFCC0
:1006B00005490860044800680028ECD100BF10BD5F
:1006C000140401406C1D0020C801002010B5124820
:1006D000006800F48060F0B14FF480600E4908605B
:1006E00000BF0E4803F07CFC0D4908600EE00820B6
:1006F00000F0F4FE04460A48006841682046884736
:100700000748006803F072FC054908600448006867
:100710000028ECD100BF10BD14040140741D00205E
:10072000CC01002010B50446012C04D1002108465C
:1007300003F0F4FA03E00121002003F0EFFA10BD0A
:1007400010B50446012C03D15021002003F0CAFA51
:10075000022C0BD15021002003F0C4FA5021FF20BD
:1007600003F0C0FA5021002003F0BCFA10BD0000D5
:1007700010B5034A0021042003F060FA10BD000008
:100780002507000810B5034A0021042003F056FA9B
:1007900010BD00004107000810B504460A2C6AD2BB
:1007A000DFE804F0050B11171D23292F353B4FF40B
:1007B0000051324800F0F4FE5EE04FF480612F48B3
:1007C00000F0EEFE58E04FF480612C4800F0E8FEA7
:1007D00052E04FF48061294800F0E2FE4CE04FF413
:1007E0008061264800F0DCFE46E04FF4806123483B
:1007F00000F0D6FE40E04FF48061204800F0D0FECB
:100800003AE04FF480611D4800F0CAFE34E04FF436
:1008100080611A4800F0C4FE2EE04FF400511748E2
:1008200000F0BEFE4FF48061144800F0B9FE4FF4B2
:100830008061124800F0B4FE4FF480610F4800F070
:10084000AFFE4FF480610D4800F0AAFE4FF48061C6
:100850000A4800F0A5FE4FF48061084800F0A0FEB1
:100860004FF48061054800F09BFE4FF4806103481F
:1008700000F096FE00E000BF00BF10BD0008004879
:1008800010B504460A2C46D2DFE804F005090D1124
:1008900015191D212529282001F0F0F93CE0282018
:1008A00001F0ECF938E0282001F0E8F934E02820E4
:1008B00001F0E4F930E0282001F0E0F92CE02820F4
:1008C00001F0DCF928E0282001F0D8F924E0282004
:1008D00001F0D4F920E0282001F0D0F91CE0282014
:1008E00001F0CCF9282001F0C9F9282001F0C6F95F
:1008F000282001F0C3F9282001F0C0F9282001F0D8
:10090000BDF9282001F0BAF9282001F0B7F9282014
:1009100001F0B4F900E000BF00BF10BD10B50446FF
:100920000A2C46D2DFE804F005090D1115191D2126
:100930002529282001F0C4F93CE0282001F0C0F965
:1009400038E0282001F0BCF934E0282001F0B8F9A3
:1009500030E0282001F0B4F92CE0282001F0B0F9B3
:1009600028E0282001F0ACF924E0282001F0A8F9C3
:1009700020E0282001F0A4F91CE0282001F0A0F9D3
:10098000282001F09DF9282001F09AF9282001F093
:1009900097F9282001F094F9282001F091F92820F6
:1009A00001F08EF9282001F08BF9282001F088F958
:1009B00000E000BF00BF10BD10B586B00446FE4881
:1009C00002900A2C7DD2DFE804F00522405E7D9B78
:1009D000B9D7F7F54FF4005001900020039001A91A
:1009E000F64800F07FFE00224FF40051F34800F07B
:1009F0008AFF3022F249F34803F0B4FA00220F21B3
:100A0000282001F06DF9282001F05AF910E24FF486
:100A1000806001900120039001A9E84800F062FE87
:100A200000224FF48061E54800F06DFF3022E64976
:100A3000E448083003F096FA00220F21282001F044
:100A40004FF9282001F03CF9F2E14FF48060019069
:100A50000120039001A9D94800F044FE00224FF480
:100A60008061D64800F04FFF3022D849D548103079
:100A700003F078FA00220F21282001F031F9282014
:100A800001F01EF9D4E14FF4806001900120039041
:100A900001A9CA4800F026FE00224FF48061C74831
:100AA00000F031FF3022CA49C648183003F05AFA24
:100AB00000220F21282001F013F9282001F000F96D
:100AC000B6E1B4E14FF4806001900120039001A9E8
:100AD000BA4800F007FE00224FF48061B74800F0EA
:100AE00012FF3022BB49B748203003F03BFA002206
:100AF0000F21282001F0F4F8282001F0E1F897E117
:100B00004FF4806001900120039001A9AB4800F0F0
:100B1000E9FD00224FF48061A84800F0F4FE302285
:100B2000AD49A848283003F01DFA00220F212820E3
:100B300001F0D6F8282001F0C3F879E14FF4806085
:100B400001900120039001A99C4800F0CBFD0022F8
:100B50004FF48061994800F0D6FE30229F499948B1
:100B6000303003F0FFF900220F21282001F0B8F8FF
:100B7000282001F0A5F85BE14FF48060019001208E
:100B8000039001A98D4800F0ADFD00224FF4806173
:100B90008A4800F0B8FE302291498A48383003F084
:100BA000E1F900220F21282001F09AF8282001F015
:100BB00087F83DE11EE0FFE74FF4806001900120DF
:100BC000039001A97D4800F08DFD00224FF4806163
:100BD0007A4800F098FE302282497A48403003F08B
:100BE000C1F900220F21282001F07AF8282001F015
:100BF00067F81DE14FF4005001900020039001A917
:100C00006E4800F06FFD00224FF400516B4800F079
:100C10007AFE4FF4806001900120039001A967489B
:100C200000F060FD00224FF48061644800F06BFE2C
:100C30004FF4806001900120039001A95F4800F00B
:100C400051FD00224FF480615C4800F05CFE4FF4DF
:100C5000806001900120039001A9584800F042FDF6
:100C600000224FF48061554800F04DFE4FF4806043
:100C700001900120039001A9504800F033FD0022AB
:100C80004FF480614D4800F03EFE4FF480600190CB
:100C90000120039001A9494800F024FD00224FF4EF
:100CA0008061464800F02FFE4FF4806001900120E3
:100CB000039001A9414800F015FD00224FF4806126
:100CC0003E4800F020FE4FF4806001900120039028
:100CD00001A93A4800F006FD00224FF48061374830
:100CE00000F011FE4FF4806001900120039001A9F3
:100CF000324800F0F7FC00224FF480612F4800F0EA
:100D000002FE30222E492F4803F02CF900220F2139
:100D1000282000F0E5FF282000F0D2FF30222A49E9
:100D20002848083003F01EF900220F21282000F087
:100D3000D7FF282000F0C4FF30222449214810307A
:100D400003F010F900220F21282000F0C9FF28200D
:100D500000F0B6FF30221E491A48183003F002F99D
:100D600000220F21282000F0BBFF282000F0A8FF60
:100D7000302218491348203003F0F4F800220F21E4
:100D8000282000F0ADFF282000F09AFF3022124901
:100D90000C48283003F0E6F800220F21282000F04C
:100DA0009FFF282000F08CFF30220C49054830308E
:100DB00003F0D8F8002217E00000311000080048C6
:100DC0000D040008841E002065040008BD0400080E
:100DD000150500086D050008C50500081D0600087A
:100DE00075060008CD0600080F21282000F078FFC6
:100DF000282000F065FF30220F49104803F0B2F8B8
:100E000000220F21282000F06BFF282000F058FF5F
:100E100030220B490948083003F0A4F800220F21C2
:100E2000282000F05DFF282000F04AFF00E000BF0E
:100E300000BF06B010BD000075060008BC1E0020F3
:100E4000CD06000810B54FF48061024800F0A8FB01
:100E500010BD00000010004800B585B04FF4806060
:100E6000009001200190002002906946044800F0A3
:100E700039FC01229102024800F045FD05B000BD99
:100E80000010004810B5044634B900224FF48061C8
:100E9000094800F038FD0DE0012C05D10122910236
:100EA000054800F030FD05E0022C03D16102024844
:100EB00000F022FD10BD00000010004810B50A48E7
:100EC00003F08EF80949086009E008490968486894
:100ED00080470648006803F089F804490860034821
:100EE00000680028F1D110BDB41B0020E4000020F0
:100EF00010B50A4803F074F80949086009E0084988
:100F00000968486880470648006803F06FF804499C
:100F10000860034800680028F1D110BDBC1B002008
:100F2000E800002010B50A4803F05AF809490860A3
:100F300009E008490968486880470648006803F0E6
:100F400055F804490860034800680028F1D110BD35
:100F5000C41B0020EC00002010B50A4803F040F844
:100F60000949086009E00849096848688047064857
:100F7000006803F03BF80449086003480068002853
:100F8000F1D110BDAC1B0020E000002010B50A48D4
:100F900003F026F80949086009E00849096848682B
:100FA00080470648006803F021F8044908600348B8
:100FB00000680028F1D110BDB41C0020640100209D
:100FC00010B50A4803F00CF80949086009E008491F
:100FD0000968486880470648006803F007F8044934
:100FE0000860034800680028F1D110BDA41C00204F
:100FF0005C01002010B50A4802F0F2FF09490860C0
:1010000009E008490968486880470648006802F016
:10101000EDFF04490860034800680028F1D110BDC5
:10102000AC1C00206001002010B50A4802F0D8FF77
:101030000949086009E00849096848688047064886
:10104000006802F0D3FF04490860034800680028E4
:10105000F1D110BD6C1B0020C000002010B50A4863
:1010600002F0BEFF0949086009E0084909684868BC
:1010700080470648006802F0B9FF04490860034849
:1010800000680028F1D110BD741B0020C4000020AE
:1010900010B50A4802F0A4FF0949086009E00849B0
:1010A0000968486880470648006802F09FFF0449C5
:1010B0000860034800680028F1D110BD7C1B0020A7
:1010C000C800002010B50A4802F08AFF09490860EC
:1010D00009E008490968486880470648006802F046
:1010E00085FF04490860034800680028F1D110BD5D
:1010F000841B0020CC00002010B50A4802F070FFCD
:101100000949086009E008490968486880470648B5
:10111000006802F06BFF044908600348006800287B
:10112000F1D110BD8C1B0020D000002010B50A4862
:1011300002F056FF0949086009E008490968486853
:1011400080470648006802F051FF044908600348E0
:1011500000680028F1D110BD941B0020D4000020AD
:1011600010B50A4802F03CFF0949086009E0084947
:101170000968486880470648006802F037FF04495C
:101180000860034800680028F1D110BD9C1B0020B6
:10119000D800002010B50A4802F022FF0949086073
:1011A00009E008490968486880470648006802F075
:1011B0001DFF04490860034800680028F1D110BDF4
:1011C0007C1C00204801002010B50A4802F008FFEE
:1011D0000949086009E008490968486880470648E5
:1011E000006802F003FF0449086003480068002813
:1011F000F1D110BD841C00204C01002010B50A481C
:1012000002F0EEFE0949086009E0084909684868EB
:1012100080470648006802F0E9FE04490860034878
:1012200000680028F1D110BD8C1C00205001002066
:1012300010B50A4802F0D4FE0949086009E00849DF
:101240000968486880470648006802F0CFFE0449F4
:101250000860034800680028F1D110BD941C0020EC
:101260005401002010B50A4802F0BAFE094908608E
:1012700009E008490968486880470648006802F0A4
:10128000B5FE04490860034800680028F1D110BD8C
:101290009C1C00205801002010B50A4802F0A0FE56
:1012A0000949086009E00849096848688047064814
:1012B000006802F09BFE04490860034800680028AB
:1012C000F1D110BDCC1C00206C01002010B50A48E3
:1012D00002F086FE0949086009E008490968486883
:1012E00080470648006802F081FE04490860034810
:1012F00000680028F1D110BDD41C0020700100202E
:101300007047000010B50A4802F06AFE09490860FB
:1013100009E008490968486880470648006802F003
:1013200065FE04490860034800680028F1D110BD3B
:10133000441B0020AC00002010B50A4802F050FE0B
:101340000949086009E00849096848688047064873
:10135000006802F04BFE044908600348006800285A
:10136000F1D110BD4C1C00203001002010B50A48FE
:1013700002F036FE0949086009E008490968486832
:1013800080470648006802F031FE044908600348BF
:1013900000680028F1D110BD4C1B0020B0000020D7
:1013A00010B50A4802F01CFE0949086009E0084926
:1013B0000968486880470648006802F017FE04493B
:1013C0000860034800680028F1D110BD541B0020BC
:1013D000B400002010B50A4802F002FE0949086076
:1013E00009E008490968486880470648006802F033
:1013F000FDFD04490860034800680028F1D110BDD4
:101400005C1B0020B800002010B50A4802F0E8FD7F
:101410000949086009E008490968486880470648A2
:10142000006802F0E3FD04490860034800680028F2
:10143000F1D110BD641B0020BC00002010B50A488B
:1014400002F0CEFD0949086009E0084909684868CA
:1014500080470648006802F0C9FD04490860034857
:1014600000680028F1D110BDCC1B0020F000002046
:101470007047000010B50A4802F0B2FD0949086043
:1014800009E008490968486880470648006802F092
:10149000ADFD04490860034800680028F1D110BD83
:1014A000341B0020A800002010B50A4802F098FD67
:1014B0000949086009E00849096848688047064802
:1014C000006802F093FD04490860034800680028A2
:1014D000F1D110BD141D00209001002010B504466C
:1014E000092C06D2DFE804F0060F18212A333C4508
:1014F0004E0000BF4FF40051284800F0F5F908B93C
:10150000012010BD47E04FF48061244800F0ECF961
:1015100008B90120F5E73EE04FF480611F4800F074
:10152000E3F908B90120ECE735E04FF480611B488E
:1015300000F0DAF908B90120E3E72CE04FF480610C
:10154000164800F0D1F908B90120DAE723E04FF49A
:101550008061124800F0C8F908B90120D1E71AE00B
:101560004FF480610D4800F0BFF908B90120C8E7C9
:1015700011E04FF48061094800F0B6F908B9012084
:10158000BFE708E04FF48061044800F0ADF908B906
:101590000120B6E700BF00BF0020B2E70008004806
:1015A000F0B50B46002187E001258D4005EA0302D6
:1015B000002A7DD0434D8E0855F826408D072E0F0A
:1015C0000F25B5402C40B0F1904F01D100251EE011
:1015D0003D4DA84201D1012519E03C4DA84201D161
:1015E000022514E03A4DA84201D103250FE0394D00
:1015F000A84201D104250AE0374DA84201D10525B2
:1016000005E0364DA84201D1062500E007258E07EA
:10161000360FB540A54221D1314D2D689543304E4E
:101620003560351D2D689543361D3560351D2D6897
:101630009543361D3560351D2D689543361D356043
:101640008D072E0F0F2505FA06F41E4D8E0855F84E
:101650002650A5431B4E8F0846F8275005684F00BB
:101660000326BE4035430560CE0800F1200555F83D
:1016700026504E07F70E0F26BE40B543CF0800F1A7
:10168000200646F8275085684F000326BE40B54324
:101690008560466801258D40AE434660C5684F00B1
:1016A0000326BE40B543C560C56A01268E4000E0F2
:1016B00001E0B543C562491C23FA01F5002D7FF412
:1016C00073AFF0BD08000140000400480008004866
:1016D000000C0048001000480014004800180048A2
:1016E0000004014078B503460022E5E0012696405B
:1016F0000D6805EA0604002C7DD04D68022D02D04D
:101700004D68122D13D1D60803F1200555F8260097
:101710005507EE0E0F25B540A8435607F60E0D6986
:10172000B5402843D60803F1200545F8260018687F
:1017300056000325B540A8430D7905F00305560072
:10174000B540284318604D68012D08D04D68022D22
:1017500005D04D68112D02D04D68122D13D1986817
:1017600056000325B540A8435600CD68B540284330
:101770009860586801259540A8430D79C5F3001578
:101780009540284358600D7905F00305032D09D1D4
:10179000D86A01259540A8430D79C5F3C005954049
:1017A0002843D862D86856000325B540A8435600A0
:1017B0008D68B5402843D8604D6805F08055B5F177
:1017C000805F78D100BF3F4D2D6E45F001053D4E45
:1017D000356635462D6E05F00105009500BF00BF4A
:1017E0004FEAB635960855F8260095072E0F0F25B7
:1017F000B540A84300E05EE0B3F1904F01D1002571
:101800001EE0314DAB4201D1012519E02F4DAB4215
:1018100001D1022514E02E4DAB4201D103250FE08A
:101820002C4DAB4201D104250AE02B4DAB4201D136
:10183000052505E0294DAB4201D1062500E007252D
:101840009607360FB5402843254D960845F82600E3
:10185000244D2868A0434D6805F48035B5F5803FD8
:1018600000D120431F4D28602D1D2868A0434D68DE
:1018700005F40035B5F5003F00D12043194D2D1D6D
:1018800028602D1D2868A0434D6805F48015B5F526
:10189000801F00D12043134D083528602D1D286876
:1018A000A0434D6805F40015B5F5001F00D1204395
:1018B0000C4D0C352860521C0D68D540002D7FF46E
:1018C00015AF78BD00100240000400480008004831
:1018D000000C0048001000480014004800180048A0
:1018E0000800014000040140024613690B400BB19F
:1018F000012000E00020704742690A400AB181627D
:1019000000E0816170470AB1816100E08162704747
:1019100001480068704700000800002001464AF6B0
:10192000AA200A6810600020704700000348006881
:10193000034909680844014908607047080000200D
:101940001000002010B50024032000F00BFA204600
:1019500010BD000070B50446002511480068D8B1DC
:101960000F4800684FF47A71B1FBF0F00D49096837
:10197000B1FBF0F6304601F05BF958B9102C07D2F4
:1019800000222146501E00F0ABF90748046004E035
:10199000012502E0012500E00125284670BD000078
:1019A00010000020140000200C0000207047704739
:1019B000704770470246022082F8360018480068D7
:1019C00040F00100164B18605068012809D0906A59
:1019D000B0F5000F05D11068C06820F4606013688E
:1019E000D8601068806840F0100013689860106834
:1019F000806840F00200136898601068006940F049
:101A0000010013681861106881611068006940F076
:101A1000040013681861012082F836000020704726
:101A20002004014010B50446022084F836000D4819
:101A3000006820F001000B490860204601F0DCF945
:101A40002068806820F01000216888602068806825
:101A500020F0020021688860012084F83600002010
:101A600010BD0000200401407047704710B50446C7
:101A70002068006800F0010050B12068806800F024
:101A8000010028B10120216848602046FFF790FF3F
:101A900020680068C0F3400050B120688068C0F33F
:101AA000400028B10220216848602046FFF77EFFF1
:101AB00020680068C0F3800050B120688068C0F3DF
:101AC000800028B1042021684860204600F0D4F846
:101AD00020680068C0F3C00050B120688068C0F37F
:101AE000C00028B10820216848602046FFF761FF48
:101AF00020680068C0F3001050B120688068C0F30F
:101B0000001028B11020216848602046FFF74FFFE1
:101B100020680068C0F3401050B120688068C0F3AE
:101B2000401028B12020216848602046FFF79DFF23
:101B300020680068C0F3801050B120688068C0F34E
:101B4000801028B14020216848602046FFF78CFFB4
:101B500010BD000070B504460CB9012070BD60686E
:101B6000012800D100BF4FF6FF716069884200D0A4
:101B700000BF94F8360028B9002084F835002046CC
:101B800000F050F8022084F836002068C5686068CC
:101B9000012803D0A06AB0F5000F01D125F01E0581
:101BA0004FF6FF716069884202D04EF2C000854353
:101BB0001A480540D4E901010843216A0843616AD3
:101BC0000843A16A084305436068012803D0A06A5E
:101BD000B0F5000F03D1D4E90310084305434FF6D5
:101BE000FF716069884205D0D4E905100843E169B6
:101BF000084305432068C56009492068884205D12B
:101C0000D4E90B0108432168086202E02168E06A18
:101C10000862012084F8360000209FE7F8F119FFE0
:101C2000007C004038B504460F492068884219D12D
:101C300000BF0E48806D40F000400C4988650846A2
:101C4000806D00F00040009000BF00BF0022052121
:101C5000412000F045F8412000F032F820212046D4
:101C6000FFF7A8FE38BD0000007C004000100240D5
:101C700001460868C06970477047000010B501460A
:101C80000846002817DB00F01F0301229A400B4B87
:101C9000440943F8242000BF00BF00BFBFF34F8FAB
:101CA00000BF00BF00BF00BF00BF00BFBFF36F8F0A
:101CB00000BF00BF00BF00BF10BD000080E100E01A
:101CC00001460846002809DB00F01F0301229A4064
:101CD00043099B0003F1E023C3F8002100BF7047D4
:101CE0002DE9F05F80460D461646002702F0AEFB58
:101CF000074639462A46334601F00700C0F1070A75
:101D0000BAF1040F02D94FF0040A01E0C0F1070A4A
:101D1000D14600F1040ABAF1070F02D24FF0000ACF
:101D200001E0A0F1030AD4464FF0010A0AFA09FAC9
:101D3000AAF1010A0AEA020A0AFA0CFA4FF0010BA8
:101D40000BFA0CFBABF1010B0BEA030B4AEA0B0499
:101D50002146404602F082FB00F000B830BCBDE8EE
:101D6000C09F000000BF00F00702064B19684FF645
:101D7000FF031940044B0B4343EA0221014B196056
:101D800000BF70470CED00E00000FA050246B2F516
:101D9000007F2AD11D48006800F4C060B0F5007FC4
:101DA00032D01A48006820F4C06040F40070174B2D
:101DB00018601748006832235843164BB0FBF3F005
:101DC000411C00E0491E1148406900F48060B0F5F4
:101DD000806F01D10029F5D10C48406900F4806082
:101DE000B0F5806F10D1032070470848006800F4F8
:101DF000C060B0F5806F07D00448006820F4C06070
:101E000040F48060014B18600020EDE70070004056
:101E10001400002040420F000D49096821F007011D
:101E2000491C0B4A11600B49096841F00401094A39
:101E30001160012801D130BF02E040BF20BF20BFA8
:101E40000449096821F00401024A1160704700004A
:101E50000070004010ED00E00248006800F4C0602F
:101E600070470000007000402DE9F843044600254B
:101E7000A846208800F40060B0F5006F30D1606E95
:101E800080B1B0F5800F13D0B0F5000F03D0B0F5DE
:101E9000400F15D113E0FB48C06840F48030F94989
:101EA000C8600FE00021201D01F04CFC054609E050
:101EB000002104F1200001F00BFD054602E001E0E5
:101EC000012500BF00BF55B9EE488830006820F4F6
:101ED0004000616E0843EB49C1F8880000E0A84665
:101EE000208800F48050B0F5805F30D1A06E80B1C2
:101EF000B0F1807F13D0B0F1007F03D0B0F1407F0C
:101F000015D113E0DF48C06840F48030DD49C86077
:101F10000FE00021201D01F015FC054609E000211D
:101F200004F1200001F0D4FC054602E001E00125A7
:101F300000BF00BF55B9D3488830006820F040701A
:101F4000A16E0843CF49C1F8880000E0A846206888
:101F500000F40030B0F5003F77D14FF00009C948D8
:101F6000806D012121EA107078B100BFC548806DF5
:101F700040F08050C34988650846806D00F080506D
:101F8000009000BF00BF4FF00109BF48006840F457
:101F90008070BD490860FFF7BBFC074606E0FFF70D
:101FA000B7FCC01B022801D9032505E0B64800682C
:101FB00000F480700028F2D000BF85BBB14890309B
:101FC000006800F44076D6B1D4F88400B04216D050
:101FD000AC489030006820F44076AA48D0F89000D1
:101FE00040F48030A749C1F890000846D0F890002E
:101FF00020F48030C1F890000846C0F8906006F0E8
:102000000100A8B1FFF784FC074609E0FFF780FC58
:10201000C01B41F28831884202D9032507E017E04E
:1020200098489030006800F002000028EED000BF11
:1020300065B994489030006820F44070D4F884105A
:1020400008439049C1F8900003E00CE0A84600E086
:10205000A846B9F1010F05D18A48806D20F0805063
:102060008849886500BF207800F0010048B18548A4
:102070008830006820F00300A16B08438149C1F853
:102080008800207800F00200022809D17D488830BD
:10209000006820F00C00E16B08437A49C1F8880021
:1020A000207800F00400042809D1764888300068C0
:1020B00020F03000216C08437249C1F88800207874
:1020C00000F00800082809D16E488830006820F028
:1020D000C000616C08436B49C1F88800207800F0AB
:1020E0001000102809D167488830006820F440703B
:1020F000A16C08436349C1F88800207800F02000F3
:10210000202809D15F488830006820F44060E16CE5
:1021100008435C49C1F88800208800F40070B0F5DD
:10212000007F09D157488830006820F44020E16DD5
:1021300008435449C1F88800208800F48060B0F555
:10214000806F09D14F488830006820F44010216E1C
:1021500008434C49C1F88800207800F0400040282E
:1021600009D148488830006820F44050216D084368
:102170004449C1F88800207800F08000802809D107
:1021800040488830006820F44040616D08433D4974
:10219000C1F88800208800F48070B0F5807F09D1F4
:1021A00038488830006820F44030A16D0843354934
:1021B000C1F88800208800F40050B0F5005F1FD1FE
:1021C00030488830006820F04060E16E08432D49B7
:1021D00088310860E06EB0F1006F06D12948C06810
:1021E00040F480102749C8600AE0E06EB0F1806FCB
:1021F00006D10121201D01F0A5FA054605B1A8462A
:10220000206800F40020B0F5002F1FD11D48883051
:10221000006820F04060216F08431A498831086047
:10222000206FB0F1006F06D11648C06840F48010EE
:102230001449C8600AE0206FB0F1806F06D1012117
:10224000201D01F07FFA054605B1A846206800F47C
:102250008020B0F5802F24D10A488830006820F013
:102260004060616F0843074988310860606FB0F1D2
:10227000006F0BD10348C06840F480100149C8606A
:102280000FE000000010024000700040606FB0F1ED
:10229000806F06D10121201D01F054FA054605B1D9
:1022A000A846208800F48040B0F5804F1FD1224816
:1022B000006820F04050A16F08431F490860A06FDC
:1022C000B0F1805F07D10221201D01F03BFA0546E5
:1022D0006DB1A8460BE0A06FB0F1005F07D10221FD
:1022E00004F1200001F0F4FA054605B1A846208863
:1022F00000F40040B0F5004F09D10F48006820F00D
:102300008040E16F08430C498839C1F88800206893
:1023100000F48030B0F5803F0AD10748006820F013
:102320000040D4F88010084303498839C1F8880078
:102330004046BDE8F8830000881002402DE9F041D6
:1023400004460D4614B90120BDE8F08155480068E7
:1023500000F00700A8420ED25248006820F00700A3
:102360002843504908600846006800F00700A8426A
:1023700001D00120E8E7207800F00100002840D0DB
:102380006068032806D14848006800F00070D8B99A
:102390000120D9E76068022806D14348006800F4AC
:1023A000003088B90120CFE7606830B93E48006846
:1023B00000F0020040B90120C6E73B48006800F485
:1023C000806008B90120BFE73748806820F003002B
:1023D0006168084334498860FFF79AFA064608E0C6
:1023E000FFF796FA801B41F28831884201D9032019
:1023F000AAE72D48806800F00C006168B0EB810FFF
:10240000EED1207800F00200022807D1264880682B
:1024100020F0F000A1680843234988602148006843
:1024200000F00700A8420ED91E48006820F00700FF
:1024300028431C4908600846006800F00700A842CD
:1024400001D0012080E7207800F00400042807D1A3
:102450001548806820F4E060E1680843124988600C
:10246000207800F00800082808D10F48806820F480
:102470006050216940EAC1000B49886000F01CF8F7
:1024800009498968C1F30311084A515C01F01F0131
:10249000C8400749086007480068FFF75BFA07462D
:1024A000384651E70020024000100240007000084A
:1024B000140000200C000020F0B500230020DFF8FD
:1024C000D4C0DCF808C00CF00C01DFF8C8C0DCF8A0
:1024D0000CC00CF0030719B10C291ED1012F1CD11F
:1024E000DFF8B0C0DCF800C00CF0080CBCF1000F45
:1024F00006D1DFF8A0C0DCF894C0CCF3032305E0DC
:10250000DFF890C0DCF800C0CCF30313DFF888C01C
:102510005CF8233041B9184606E0042901D11F4870
:1025200002E0082900D11E480C2932D1DFF864C02E
:10253000DCF80CC00CF00304012C09D0022C02D0F2
:10254000032C04D101E0154A04E0154A02E000BF63
:102550001A4600BF00BFDFF83CC0DCF80CC0CCF36B
:10256000021C0CF10106DFF82CC0DCF80CC0CCF327
:10257000062C0CFB02FCBCFBF6F2DFF818C0DCF802
:102580000CC0CCF3416C0CF1010C4FEA4C05B2FBD2
:10259000F5F0F0BD00100240187000080024F400AF
:1025A00000127A002DE9F843044614B90120BDE871
:1025B000F883F948806800F00C07F748C06800F01D
:1025C0000306207800F01000102876D11FB10C2FE0
:1025D00075D1012E73D1F048006800F0020018B1E7
:1025E000A06908B90120E2E7EB48216A006800F021
:1025F000080020B1E848006800F0F00005E0E64877
:102600009430006800F47060000981421FD9206A8C
:1026100001F010FA08B10120C9E700BFDE480068E8
:1026200040F00800DC4908600846006820F0F0002F
:10263000216A0843D849086000BF0846406820F472
:102640007F40E16940EA0120D34948601EE000BFB5
:10265000D148006840F00800CF490860084600688B
:1026600020F0F000216A0843CB49086000BF08460B
:10267000406820F47F40E16940EA0120C649486093
:10268000206A01F0D7F908B1012090E7FFF714FFA5
:10269000C1498968C1F30311C04A515C01F01F01AF
:1026A000C840BF490860BF480068FFF753F980463B
:1026B000B8F1000F4ED0404679E74BE0FFE7A06944
:1026C00080B3B548006840F00100B3490860FFF7E7
:1026D0001FF9054606E0FFF71BF9401B022801D948
:1026E000032064E7AC48006800F002000028F2D044
:1026F00000BFA948006840F00800A74908600846E4
:10270000006820F0F000216A0843A349086000BF78
:102710000846406820F47F40E16940EA01209E4974
:10272000486017E0FFE79C48006820F001009A49E4
:102730000860FFF7EDF8054606E0FFF7E9F8401BF3
:10274000022801D9032032E79348006800F0020014
:102750000028F2D1207800F0010000285CD0082F7A
:1027600003D00C2F0AD1032E08D18B48006800F447
:10277000003088B3606878BB012018E700BF60684C
:10278000B0F5803F06D18448006840F4803082492B
:1027900008601AE06068B0F5A02F0BD17E48006891
:1027A00040F480207C4908600846006840F480308E
:1027B00008600AE07848006820F4803076490860B4
:1027C0000846006820F48020086000BF606890B16F
:1027D000FFF79EF8054607E01EE0FFF799F8401B5B
:1027E000642801D90320E2E66B48006800F4003059
:1027F0000028F2D010E0FFF78BF8054606E0FFF75F
:1028000087F8401B642801D90320D0E6624800689D
:1028100000F400300028F2D1207800F002000228F5
:1028200052D1042F03D00C2F14D1022E12D15A48AA
:10283000006800F4806018B1E06808B90120B6E6CD
:102840005548406820F0F850217C40EA0160524928
:10285000486039E0E06800B34F48006840F4807099
:102860004D490860FFF754F8054606E0FFF750F8B9
:10287000401B022801D9032099E64748006800F46C
:1028800080600028F2D04448406820F0F850217C55
:1028900040EA01604049486016E03F48006820F483
:1028A00080703D490860FFF733F8054606E0FFF702
:1028B0002FF8401B022801D9032078E6364800682B
:1028C00000F480600028F2D1207800F00800082889
:1028D00036D16069D0B130489430006840F00100D2
:1028E0002D49C1F89400FFF713F8054606E0FFF7FD
:1028F0000FF8401B022801D9032058E626489430DF
:10290000006800F002000028F1D019E0224894305D
:10291000006820F001002049C1F89400FEF7F8FF9C
:10292000054606E0FEF7F4FF401B022801D903200C
:102930003DE619489430006800F002000028F1D10B
:10294000207800F00400042873D14FF000091248E9
:10295000806D00F0805078B900BF0F48806D40F066
:1029600080500D4988650846806D00F080500090C9
:1029700000BF00BF4FF001090B48006800F48070F1
:1029800008BB0948006840F4807007490860FEF7FA
:10299000BFFF054611E00000001002400070000873
:1029A000140000200C00002000700040FEF7B0FF73
:1029B000401B022801D90320F9E59948006800F47A
:1029C00080700028F2D000BFA068012808D1954887
:1029D000006840F0010093499039C1F8900021E06F
:1029E000A06805280FD18F48006840F004008D4989
:1029F0009039C1F890000846D0F8900040F00100EE
:102A0000C1F890000EE08748006820F00100854979
:102A10009039C1F890000846D0F8900020F00400EA
:102A2000C1F8900000BFA068A0B1FEF771FF054695
:102A300009E02EE0FEF76CFF401B41F2883188422E
:102A400001D90320B3E57748006800F002000028B0
:102A5000F0D012E0FEF75CFF054608E0FEF758FFF5
:102A6000401B41F28831884201D903209FE56D481F
:102A7000006800F002000028F0D1B9F1010F07D181
:102A800068489038806D20F080506649903988659C
:102A900000BFA06A00285BD00C2F78D0A06A022863
:102AA00057D160489038006820F080705D499039B7
:102AB0000860FEF72DFF054606E0FEF729FF401BE4
:102AC000022801D9032072E556489038006800F0CA
:102AD00000700028F1D1D4E90B10401E41EA00112A
:102AE000606B41EA0021A08F0122C2EB500041EA55
:102AF00040514020005DC2EB500041EA4061A06BB4
:102B0000000941EA404047499039C968464A1140A6
:102B1000084344499039C8600846006840F0807016
:102B200008600846C06840F08070C860FEF7F0FE9C
:102B3000054606E0FEF7ECFE401B022801D9032003
:102B400035E538489038006800F000700028F1D072
:102B500064E034489038006820F080703149903942
:102B600008600846006800F0205020B90846C06898
:102B700020F00300C8602B489038C0682B490840FB
:102B800028499039C860FEF7C3FE054607E00EE00D
:102B9000FEF7BEFE401B022801D9032007E52148AD
:102BA0009038006800F000700028F1D136E0A06A8B
:102BB000012800D1FBE41B489038C66806F00301E9
:102BC000E06A814228D106F07001206B401EB1EB13
:102BD000001F21D106F4FE41606BB1EB002F1BD129
:102BE00006F40031A06B072801D0012000E000208E
:102BF000814211D106F4C001A08F0122C2EB500026
:102C0000B1EB405F08D106F0C0614020005DC2EB2F
:102C10005000B1EB406F01D00120C8E40020C6E4B1
:102C200000700040901002408C809DF9FFFFEEFE86
:102C300070B504462546681EB0F1807F01D301209F
:102C40000FE0681E4FF0E02148610F214FF0FF3088
:102C500001F004FC00204FF0E021886107200861AA
:102C6000002070BD00BFFEE710B50A4801F0B8F9BA
:102C70000949086009E0084909684868804706482A
:102C8000006801F0B3F904490860034800680028AF
:102C9000F1D110BD0C1C00201001002010B50A4815
:102CA00001F09EF90949086009E008490968486887
:102CB00080470648006801F099F904490860034814
:102CC00000680028F1D110BD041C00200C01002078
:102CD00010B50A4801F084F90949086009E008497B
:102CE0000968486880470648006801F07FF9044990
:102CF0000860034800680028F1D110BD1C1C0020AA
:102D00001801002010B50A4801F06AF90949086065
:102D100009E008490968486880470648006801F0EA
:102D200065F904490860034800680028F1D110BD26
:102D3000141C00201401002010B50A4801F050F9BD
:102D40000949086009E00849096848688047064859
:102D5000006801F04BF90449086003480068002846
:102D6000F1D110BDF41C00208001002010B50A48EC
:102D700001F036F90949086009E00849096848681E
:102D800080470648006801F031F9044908600348AB
:102D900000680028F1D110BDEC1C00207C0100204F
:102DA00010B50648FEF762FE01200549086003F0F1
:102DB0004BFE012801D003F095F910BD0802002058
:102DC0000400002010B50A4801F00AF9094908601A
:102DD00009E008490968486880470648006801F02A
:102DE00005F904490860034800680028F1D110BDC6
:102DF000C41C0020680100202DE9F84F04464FF064
:102E0000000972B669492068084418B1B0F5C05F7E
:102E10000AD104E06648006800F4402905E06448EF
:102E2000006800F4401900E000BF00BF2068D0F83F
:102E300008A02068D0F80CB0206845692068866931
:102E40002068006A009059492068084418B1B0F51C
:102E5000C05F1CD10DE056488838806B40F00040C0
:102E60005349883988630846806B20F000408863A6
:102E70000EE04F488838C06B40F020004C4988393C
:102E8000C8630846C06B20F02000C86300E000BFA4
:102E900000BF0DB9002E76D044492068084418B10F
:102EA000B0F5C05F12D108E04148006820F440202E
:102EB0003F498839C1F8880009E03D48006820F49E
:102EC00040103B498839C1F8880000E000BF00BFCE
:102ED000DDB12068006940F00100216808612068C8
:102EE0004561FEF715FD074600BFFEF711FDA0EB9B
:102EF00007082068006800F00800082802D0B8F52C
:102F00007A7FF2D9082021684860DEB12068006924
:102F100040F001002168086120688661FEF7F8FC36
:102F2000074600BFFEF7F4FCA0EB07082068006826
:102F300000F01000102802D0B8F57A7FF2D91020E6
:102F40002168486019492068084418B1B0F5C05F8D
:102F500017D10AE01648006820F4402040EA090032
:102F600013498839C1F888000CE01148006820F442
:102F7000401040EA09000E498839C1F8880001E094
:102F800001E000BF00BF2068006920F00100216857
:102F900008612068C0F808A02068C0F80CB000984C
:102FA0002168086262B600F005B800000084FFBF27
:102FB0008810024018BCBDE8E08F000010B50A4838
:102FC00001F00EF80949086009E0084909684868F5
:102FD00080470648006801F009F804490860034882
:102FE00000680028F1D110BDDC1C00207401002015
:102FF00010B50446A078002841D1607809283CD259
:10300000DFE800F0050B11171D23292F35000122E1
:1030100020216348FEF777FC30E001224021604820
:10302000FEF771FC2AE0012211035E48FEF76BFCFB
:1030300024E0012211035B48FEF765FC1EE001223B
:1030400011035848FEF75FFC18E0012211035548B0
:10305000FEF759FC12E0012211035248FEF753FC1F
:103060000CE0012211034F48FEF74DFC06E001225F
:1030700011034C48FEF747FC00E000BF8EE0A0784B
:10308000012848D16078092843D2DFE800F0050B19
:1030900011181F262D343B00002220214048FEF746
:1030A00032FC37E0002240213D48FEF72CFC31E0A5
:1030B00000224FF480513B48FEF725FC2AE0002215
:1030C0004FF480513748FEF71EFC23E000224FF4F6
:1030D00080513448FEF717FC1CE000224FF4805169
:1030E0003048FEF710FC15E000224FF480512D48C7
:1030F000FEF709FC0EE000224FF480512948FEF74C
:1031000002FC07E000224FF480512648FEF7FBFB4B
:1031100000E000BF42E0A07802283FD16078092893
:103120003AD2DFE800F0050A0F151B21272D3300E6
:1031300020211B48FEF7E0FB2FE040211848FEF756
:10314000DBFB2AE04FF480511648FEF7D5FB24E064
:103150004FF480511348FEF7CFFB1EE04FF480512F
:103160001048FEF7C9FB18E04FF480510D48FEF7F8
:10317000C3FB12E04FF480510A48FEF7BDFB0CE0A0
:103180004FF480510748FEF7B7FB06E04FF480513B
:103190000448FEF7B1FB00E000BF00BF10BD000017
:1031A000000C00480008004810B504460A2C66D2FE
:1031B000DFE804F0050A0F151B21272D33392021E4
:1031C0003048FEF7EDF95BE040212E48FEF7E8F9C4
:1031D00056E04FF480512C48FEF7E2F950E04FF4EE
:1031E00080512948FEF7DCF94AE04FF48051264827
:1031F000FEF7D6F944E04FF480512348FEF7D0F9AA
:103200003EE04FF480512048FEF7CAF938E04FF411
:1032100080511D48FEF7C4F932E04FF480511A483E
:10322000FEF7BEF92CE020211648FEF7B9F940213F
:103230001448FEF7B5F94FF480511348FEF7B0F982
:103240004FF480511048FEF7ABF94FF480510E480F
:10325000FEF7A6F94FF480510B48FEF7A1F94FF4A1
:1032600080510948FEF79CF94FF480510648FEF75B
:1032700097F94FF480510448FEF792F900E000BF3F
:1032800000BF10BD000C00480008004810B586B013
:10329000044601200290002003900A2C72D2DFE83D
:1032A00004F005111D2B39475563728020200190D1
:1032B00001A97748FEF716FA002220217448FEF78C
:1032C00022FBE1E04020019001A97148FEF70AFAD3
:1032D000002240216E48FEF716FBD5E04FF48050E7
:1032E000019001A96B48FEF7FDF900224FF48051CF
:1032F0006848FEF708FBC7E04FF48050019001A931
:103300006448FEF7EFF900224FF480516148FEF760
:10331000FAFAB9E04FF48050019001A95D48FEF738
:10332000E1F900224FF480515A48FEF7ECFAABE085
:103330004FF48050019001A95648FEF7D3F90022BE
:103340004FF480515348FEF7DEFA9DE04FF4805071
:10335000019001A94F48FEF7C5F900224FF48051B2
:103360004C48FEF7D0FA8FE04FF48050019001A94D
:103370004848FEF7B7F900224FF480514548FEF760
:10338000C2FA81E07FE04FF48050019001A94148EA
:10339000FEF7A8F900224FF480513E48FEF7B3FA39
:1033A00072E02020019001A93948FEF79BF9002224
:1033B00020213748FEF7A7FA4020019001A93448A0
:1033C000FEF790F9002240213148FEF79CFA4FF4B5
:1033D0008050019001A92F48FEF784F900224FF494
:1033E00080512C48FEF78FFA4FF48050019001A9CC
:1033F0002848FEF777F900224FF480512548FEF760
:1034000082FA4FF48050019001A92248FEF76AF930
:1034100000224FF480511F48FEF775FA4FF4805098
:10342000019001A91B48FEF75DF900224FF480517D
:103430001848FEF768FA4FF48050019001A915482A
:10344000FEF750F900224FF480511248FEF75BFA64
:103450004FF48050019001A90E48FEF743F9002275
:103460004FF480510B48FEF74EFA4FF48050019014
:1034700001A90848FEF736F900224FF480510548AB
:10348000FEF741FA00E000BF00BF06B010BD00002B
:10349000000C00480008004800B589B00022032154
:1034A000084601F07BF9074908602422064968466E
:1034B000FCF7F6FE6A460021044801F031FA09B033
:1034C00000BD0000A00100206C7000086D3D0008E8
:1034D00000B589B000220421032001F05FF90749FB
:1034E0000860242206496846FCF7DAFE6A46002195
:1034F000044801F015FA09B000BD0000A401002045
:1035000090700008C93D000800B589B0002208216C
:10351000052001F043F9074908602422064968465E
:10352000FCF7BEFE6A460021044801F0F9F909B033
:1035300000BD0000A8010020B47000086D3E000826
:1035400000B587B0142102A8FCF7C3FE00BF4848AD
:10355000C06C40F010004649C8640846C06C00F0DA
:103560001000019000BF00BF00BF0846C06C40F0D3
:103570000400C8640846C06C00F00400019000BF5D
:1035800000BF00BF0846C06C40F08000C864084619
:10359000C06C00F08000019000BF00BF00BF084673
:1035A000C06C40F00100C8640846C06C00F0010027
:1035B000019000BF00BF00BF0846C06C40F0020091
:1035C000C8640846C06C00F00200019000BF00BF54
:1035D00000BF0846C06C40F00800C8640846C06CD4
:1035E00000F00800019000BF00BF4FF6FF7002908E
:1035F000032003900020049002A91E48FEF772F8F1
:103600004FF6FF700290032003900020049002A95F
:103610001948FEF767F803200290039000200490F9
:1036200002A91648FEF75EF849F6FF7002900320E3
:1036300003900020049002A94FF09040FEF752F84A
:103640004FF6FF700290032003900020049002A91F
:103650000B48FEF747F84FF6FF70029003200390E7
:103660000020049002A90748FEF73CF807B000BD0F
:10367000001002400010004800080048001C0048EC
:1036800000040048000C004810B50F480F490860BE
:103690000020486000210D4881604FF6FF714161B4
:1036A0004FF4003181610021C16101624FF480015A
:1036B000416200218162C1620163FEF74BFA08B1E9
:1036C000FDF7D6FE10BD0000007C0040080200207F
:1036D00000BFFEE77047000010B50A4800F080FC0C
:1036E0000949086009E008490968486880470648B0
:1036F000006800F07BFC044908600348006800286B
:10370000F1D110BD1C1B0020A000002070477047A5
:1037100010B50A4800F064FC0949086009E008494E
:103720000968486880470648006800F05FFC044963
:103730000860034800680028F1D110BDE41C002097
:10374000780100202DE9F04104460F4600255C4831
:10375000C06800F0030090B15948C06800F0030051
:103760002168884209D1206838B15548C068C0F343
:103770000210401C6168884233D0012531E0206886
:10378000012804D0022809D003281AD10DE04C48A2
:10379000006800F0020000B9012514E04848006804
:1037A00000F4806000B901250DE04548006800F490
:1037B000003028B94248006800F4802000B9012593
:1037C00001E0012500BF00BF5DB9D4E90010401E33
:1037D00041EA00103A49C96821F0730108433849A9
:1037E000C860002D68D13648006820F080603449F8
:1037F0000860FEF78DF8064606E0FEF789F8801BA4
:10380000022801D9032505E02D48006800F000607A
:103810000028F2D100BFCDBB6FB9A0680002E168FB
:10382000090940EA414026490969264A11400843EE
:103830002349086120E0012F0FD1A0680002218AEE
:103840000122C2EB510140EA41501D4909691E4A5B
:10385000114008431A4908610EE0A0680002217D6A
:103860000122C2EB510140EA416015490969174A3A
:1038700011400843124908611148006840F0806017
:103880000F490860FEF744F8064607E014E0FEF72B
:103890003FF8801B022801D9032505E0084800688D
:1038A00000F000600028F2D000BF2DB90448006984
:1038B000A1690843024908612846BDE8F08100007B
:1038C00000100240FF80FDFFFF809FFFFF80FFF997
:1038D0002DE9F04104460F4600255348C06800F02A
:1038E000030090B15048C06800F00300216888428E
:1038F00009D1206838B14C48C068C0F30210401CA0
:103900006168884233D0012531E02068012804D065
:10391000022809D003281AD10DE04348006800F0BE
:10392000020000B9012514E03F48006800F48060FF
:1039300000B901250DE03C48006800F4003028B9CA
:103940003948006800F4802000B9012501E0012514
:1039500000BF00BF5DB9D4E90010401E41EA00106D
:103960003149C96821F0730108432F49C860002D0F
:1039700056D12D48006820F080502B490860FDF793
:10398000C7FF064606E0FDF7C3FF801B022801D9EA
:10399000032505E02448006800F000500028F2D11B
:1039A00000BF75BB6FB9A0680002E168090940EA71
:1039B00041401D4949691D4A114008431A4948615F
:1039C0000EE0A0680002217C0122C2EB510140EA16
:1039D000416015494969164A114008431249486136
:1039E0001148006840F080500F490860FDF790FFD3
:1039F000064607E0FDF78CFF801B022802D903254D
:103A000006E00DE00848006800F000500028F1D002
:103A100000BF2DB904484069616908430249486103
:103A20002846BDE8F081000000100240FF80FDFF45
:103A3000FF80FFF9F8B5044600262348806D00F0AA
:103A4000805018B1FEF708FA054616E000BF1E4880
:103A5000806D40F080501C4988650846806D00F0FC
:103A60008050009000BF00BFFEF7F6F905461648EB
:103A7000806D20F0805014498865B5F5007F07D12E
:103A8000802C10D9A02C01D902260CE001260AE0D6
:103A9000802C01D9032606E0802C01D1022602E009
:103AA000702C00D101260948006820F0070030433F
:103AB000064908600846006800F00700B04201D0DF
:103AC0000120F8BD0020FCE7001002400020024069
:103AD00010B50A4800F084FA0949086009E008496D
:103AE0000968486880470648006800F07FFA044982
:103AF0000860034800680028F1D110BD0C1D0020AB
:103B00008C01002010B50A4800F06AFA09490860E3
:103B100009E008490968486880470648006800F0DD
:103B200065FA04490860034800680028F1D110BD17
:103B3000541C00203401002010B50A4800F050FA4F
:103B40000949086009E0084909684868804706484B
:103B5000006800F04BFA0449086003480068002838
:103B6000F1D110BDFC1C00208401002010B50A48D2
:103B700000F036FA0949086009E008490968486810
:103B800080470648006800F031FA0449086003489D
:103B900000680028F1D110BD5C1C00203801002015
:103BA00010B50A4800F01CFA0949086009E0084904
:103BB0000968486880470648006800F017FA044919
:103BC0000860034800680028F1D110BD241C0020C3
:103BD0001C01002010B50A4800F002FA09490860EB
:103BE00009E008490968486880470648006800F00D
:103BF000FDF904490860034800680028F1D110BDB0
:103C00002C1C00202001002010B50A4800F0E8F923
:103C10000949086009E0084909684868804706487A
:103C2000006800F0E3F904490860034800680028D0
:103C3000F1D110BD641C00203C0100207CB504467D
:103C40000D46164601208DF800008DF801408DF8D4
:103C5000025001960748006800F06EFD38B100235D
:103C60001A4669460348006800F0F4FD7CBD6FF019
:103C70000400FBE7A801002038B5044601208DF8B8
:103C800000008DF801400848006800F055FD38B18B
:103C900000231A4669460448006800F0DBFD38BD81
:103CA0006FF00400FBE70000A401002038B50446D3
:103CB0000D4601208DF800008DF801408DF802506E
:103CC0000748006800F038FD38B100231A466946FD
:103CD0000348006800F0BEFD38BD6FF00400FBE74C
:103CE000A001002038B504460D4600208DF80000E4
:103CF0008DF80140ADF802500748006800F01CFD47
:103D000038B100231A4669460348006800F0A2FD56
:103D100038BD6FF00400FBE7A401002038B504466D
:103D20000D4600208DF800008DF801408DF80250FE
:103D30000748006800F000FD38B100231A466946C4
:103D40000348006800F086FD38BD6FF00400FBE713
:103D5000A001002000BF0448FDF7E0FD4FF4FA7019
:103D600000F040FCF7E70000F801002008B5FCF780
:103D7000FFFC00BF4FF0FF33002269461148006886
:103D800000F08EFC0028F5D19DF8000001280FD12D
:103D90006C46607810B1012808D103E0A078FFF7E5
:103DA00075FA04E0A078FFF7FFF900E000BFE1E753
:103DB0009DF800000028DDD16D462846FFF718F970
:103DC000D8E70000A001002008B5FCF7DBFC00BF2D
:103DD0004FF0FF33002269462348006800F060FC82
:103DE0000028F5D19DF8000001280DD16D466878B6
:103DF00010B1012806D102E0FDF72EF803E0FDF72F
:103E000021F800E000BFE3E79DF800000028DFD1C3
:103E10006C46607848B90020FDF734F8608800F0FF
:103E2000E1FB0120FDF72EF8D2E76078FF2806D1EC
:103E30000120FDF727F8608800F0D4FBC8E70026D2
:103E40000AE00220FDF71EF86088617890FBF1F728
:103E5000384600F0C7FB761C6078B042F1DC0120E8
:103E6000FDF710F8B4E70000A40100201CB500BF66
:103E70004FF0FF33002269463748006800F010FC1D
:103E80000028F5D19DF800000128F1D16C4660783A
:103E900006285FD2DFE800F003070B0F133EA0787F
:103EA000FCF78AFD57E0A078FCF776FC53E0A07899
:103EB000FCF7E6FC4FE0A078FCF730FD4BE0002576
:103EC00007E0264800EBC500406800B903E0681C25
:103ED000C5B2202DF5DB00BF202D1AD0A178204AD5
:103EE00002EBC10000F088F828B9A1781C4A02EB67
:103EF000C10000F078F8194901EBC501606848601D
:103F0000164A02EBC501A278154B03EBC20000F084
:103F100055F820E0002509E0104800EBC500406896
:103F20006168884200D103E0681CC5B2202DF3DB34
:103F300000BF202D0DD00020084901EBC5014860CD
:103F4000064A02EBC501A278054B03EBC20000F064
:103F50005CF800E000BF8BE7A8010020841D002072
:103F6000341D002070B505460E461446094901EB84
:103F7000C40000F041F820B9064901EBC40000F08C
:103F800032F86E60034901EBC400294600F016F8D0
:103F900070BD0000CC1A002010B5054C02E060682E
:103FA00080470834034920688842F8D010BD0000DB
:103FB000D0010020EFBEADDE00BF704770B50546F2
:103FC0000C462146284600F020F8002020602846B4
:103FD00000F035F806460EB92C6000E0346070BD84
:103FE000014608687047002101607047014609B921
:103FF000002070470868FCE7014600200A6801E0DD
:10400000401C1268002AFBD1704710B502460B46CF
:10401000146804B910BD002110680CE0984208D162
:1040200011B90468146001E004680C6000240460A5
:10403000F0E7014600680028F0D100BFEAE7024639
:10404000106808B900207047116800E00968086826
:104050000028FBD10846F6E710B5FDF767FC10BD58
:1040600000B5B9B0442128A8FCF733F9142123A8DE
:10407000FCF72FF9882101A8FCF72BF91C202890C8
:1040800001202D902A902E9000202F9060203090BB
:104090000020329028A8FEF785FA08B1FDF7E8F96C
:1040A0000F20239000202490259026902790002117
:1040B00023A8FEF743F908B1FDF7DAF94FF40070D1
:1040C00001904FF44020189001A8FDF7CDFE08B1F3
:1040D000FDF7CEF900BF1148806D40F080500F49C8
:1040E00088650846806D00F08050009000BF00BFDA
:1040F00000BF0846806D40F0004088650846806D2E
:1041000000F00040009000BF00BF4815FDF73EFEE4
:1041100008B1FDF7ADF939B000BD00000010024054
:104120001048006840F470000E4908600E480068AE
:1041300040F001000C4908600020886008460068D3
:104140000A490840084908608814C86008460068A1
:1041500020F48020086000208861C803014980396C
:104160000860704788ED00E000100240FFFFF6EAAB
:1041700010B50A48FFF734FF0949086009E008490B
:1041800009684868804706480068FFF72FFF044920
:104190000860034800680028F1D110BD241B0020EE
:1041A000A400002010B50A48FFF71AFF094908606B
:1041B00009E0084909684868804706480068FFF731
:1041C00015FF04490860034800680028F1D110BDBC
:1041D000D41B0020F400002010B50A48FFF700FFB0
:1041E0000949086009E008490968486880470648A5
:1041F0000068FFF7FBFE04490860034800680028D8
:10420000F1D110BDEC1B00200001002010B50A48C0
:10421000FFF7E6FE0949086009E0084909684868AF
:10422000804706480068FFF7E1FE0449086003483C
:1042300000680028F1D110BDE41B0020FC00002024
:1042400010B50A48FFF7CCFE0949086009E00849A3
:1042500009684868804706480068FFF7C7FE0449B8
:104260000860034800680028F1D110BDDC1B002065
:10427000F800002010B50A48FFF7B2FE09490860AF
:1042800009E0084909684868804706480068FFF760
:10429000ADFE04490860034800680028F1D110BD54
:1042A000F41B00200401002010B50A48FFF798FE17
:1042B0000949086009E008490968486880470648D4
:1042C0000068FFF793FE044908600348006800286F
:1042D000F1D110BDFC1B00200801002010B50A48D8
:1042E000FFF77EFE0949086009E008490968486847
:1042F000804706480068FFF779FE044908600348D4
:1043000000680028F1D110BD741C00204401002079
:1043100010B50A48FFF764FE0949086009E008493A
:1043200009684868804706480068FFF75FFE04494F
:104330000860034800680028F1D110BD041D00206A
:104340008801002010B50A48FFF74AFE09490860B5
:1043500009E0084909684868804706480068FFF78F
:1043600045FE04490860034800680028F1D110BDEB
:104370006C1C00204001002010B50A48FFF730FEF9
:104380000949086009E00849096848688047064803
:104390000068FFF72BFE0449086003480068002806
:1043A000F1D110BD341C00202401002010B50A48B2
:1043B000FFF716FE0949086009E0084909684868DE
:1043C000804706480068FFF711FE0449086003486B
:1043D00000680028F1D110BD3C1C002028010020FD
:1043E00010B50A48FFF7FCFD0949086009E00849D3
:1043F00009684868804706480068FFF7F7FD0449E8
:104400000860034800680028F1D110BD441C00205A
:104410002C01002000BFFEE710B50A48FFF7E0FDC1
:104420000949086009E00849096848688047064862
:104430000068FFF7DBFD04490860034800680028B6
:10444000F1D110BD141B00209C0000200248006820
:10445000C0F30220704700000CED00E010B500280A
:1044600004DB0A07130E054A135406E00A07140E6C
:10447000034A00F00F031B1FD45410BD00E400E0FA
:1044800018ED00E0EFF311807047EFF305807047FF
:10449000EFF31080704702E008C8121F08C1002A1D
:1044A000FAD170477047002001E001C1121F002AB5
:1044B000FBD1704701210120094A12680AB100208E
:1044C0000CE0084A12680AB1002007E0064A1368A7
:1044D000064A1268521E934200D102207047000023
:1044E000080700203C0000203007002028000020A2
:1044F0002DE9F04107463E4626B940F2355115A058
:1045000001F03EF920480068864201D100241EE0F7
:1045100001F07AF9756901F09FF91C48006885423D
:1045200003D01B480068854201D102240FE01948DE
:10453000854205D1B06A08B9032408E0022406E0E8
:104540001548854200D00DB9042400E0012420461E
:10455000BDE8F0812E2E2F4D6964646C6577617221
:1045600065732F54686972645F50617274792F4665
:1045700072656552544F532F536F757263652F7474
:1045800061736B732E630000180000201C00002074
:1045900020000020300700201C0700208AB0FDF713
:1045A000D1F9FFF75DFDFEF7CBFFFFF76DF800F0E7
:1045B00035F82422084901A8FBF772FE01AA002160
:1045C000064800F0ADF906490860FFF7E5FC00F089
:1045D00045F800BFFEE70000DC6F0008553D00080D
:1045E0000000002070B50546FFF74FFF48B9FFF700
:1045F0004FFF30B908480068022805D1FFF742FF95
:1046000010B16FF0050404E0002415B1284601F054
:1046100083FA204670BD00006800002010B5FFF747
:1046200034FF48B9FFF734FF30B90B48006802285F
:1046300005D1FFF727FF10B16FF0050409E0064828
:10464000006820B9012004490860002401E04FF00F
:10465000FF34204610BD00006800002010B5FFF7B1
:1046600014FF48B9FFF714FF30B90C48006802285E
:1046700005D1FFF707FF10B16FF005040CE0074804
:104680000068012806D102200449086001F074FB8B
:10469000002401E04FF0FF34204610BD68000020E8
:1046A0002DE9F84307460D4691461C463E464FF01D
:1046B0000008FFF7EAFE48B9FFF7EAFE30B91C48E8
:1046C000006802281FD1FFF7DDFEE0B10EB105B191
:1046D00014B16FF0030828E0002000906A462946D4
:1046E000304602F041F8012802D06FF002081CE0C9
:1046F0000098D0B14FF080500E490860BFF34F8F43
:10470000BFF36F8F11E006B115B96FF003080CE02D
:1047100022462946304601F06BFF012805D014B12E
:104720006FF0010801E06FF002084046BDE8F88331
:104730006800002004ED00E02DE9F04107463D4609
:104740000DB9002624E0FFF7A0FE48B9FFF7A0FE50
:1047500030B911480068022816D1FFF793FE98B1CE
:1047600000BF5021EFF3118081F31188BFF34F8F09
:10477000BFF36F8F044600BFD5E90E10461A00BF85
:1047800084F3118800BF03E0284600F0B5FF064619
:104790003046BDE8F0810000680000202DE9F843B4
:1047A00005460E4614464FF00009FFF76EFE00283E
:1047B0004BD1FFF76DFE002847D12548006802283D
:1047C00003D1FFF75FFE00283FD1002D3DD0002E22
:1047D0003BD04FF0FF37BCB1A06858B1E06850281B
:1047E00008D3206930B105FB06F06169814201D32D
:1047F00001270AE0A06840B9E06830B9206920B913
:10480000606910B9002700E00027012F09D10020BE
:10481000009031462846A368226901F0C1FC814618
:1048200006E02FB900223146284601F075FC81468A
:10483000B9F1000F09D014B1D4F8008001E04FF0B5
:1048400000084146484601F02BF94846BDE8F88388
:10485000680000202DE9F84307460D4691461C46A6
:104860003E464FF00008FFF710FE48B9FFF710FE74
:1048700030B91D480068022820D1FFF703FEE8B1D7
:104880000EB105B114B16FF003082AE000200090CA
:1048900000236A462946304601F022FE012802D054
:1048A0006FF002081DE00098D8B14FF080500F491A
:1048B0000860BFF34F8FBFF36F8F12E006B115B9D9
:1048C0006FF003080DE0002322462946304601F030
:1048D00031FD012805D014B16FF0010801E06FF03F
:1048E00002084046BDE8F8836800002004ED00E0BF
:1048F00010B5FFF7CAFD48B9FFF7CAFD30B9074840
:104900000068022804D1FFF7BDFD08B1002402E0D1
:1049100002F094F80446204610BD00006800002014
:104920002DE9F04786B08046894614460020049061
:10493000FFF7ABFD00285DD1FFF7AAFD002859D194
:104940002D480068022803D1FFF79CFD002851D1B3
:10495000B8F1000F4ED080261825002005900DF1EB
:10496000140A471E44B3206808B1D4F800A0A06917
:1049700000B1A5692DB1382D03D8207900F00100D0
:1049800018B1002006B0BDE8F087606908B1606921
:104990008608A06840B1E0685C2805D3206918B19A
:1049A000606908B1012708E0A06830B9E06820B963
:1049B000206910B9002700E00027012F0CD12169E0
:1049C000A0684B463246CDE9005102905146404620
:1049D00001F0CCFF04900DE067B904A8B2B24B46D9
:1049E0005146CDE90050404601F08AFF012801D030
:1049F000002004900498C5E7680000202DE9F041EC
:104A000006463746FFF741FD48B9FFF741FD30B98B
:104A10000E480068022805D1FFF734FD10B16FF091
:104A2000050410E017B96FF003040CE03846FFF7F7
:104A30005FFD0546042D04D00024384601F0AEF891
:104A400001E06FF002042046BDE8F081680000201C
:104A50002DE9F04105460E461648076816480068DD
:104A6000001D00F035FE681C38B936B112480168E7
:104A7000091D124800F0BCFE1AE07C190E480068BF
:104A80004460BC4207D20C480168091D0C4800680C
:104A900000F094FE0CE008480168091D0948006810
:104AA00000F08CFE08480068844201D20648046089
:104AB000BDE8F0812C000020180000203007002005
:104AC000200000201C0000204800002010B50446F3
:104AD00000F09AFE24480068401C234908602348DF
:104AE000006840B9214804600846006801280DD1DB
:104AF00000F086FA0AE01E48006838B91B480068D2
:104B0000C06AE16A884201D8184804601948006800
:104B1000401C184908600846006860641649E06A4D
:104B20000968884202D91449E06A0860E16A01EB29
:104B30008101124A02EB8100211D00F059FE00F0B4
:104B40008BFE0B48006868B108480068C06AE16ADB
:104B5000884207D24FF0805009490860BFF34F8F59
:104B6000BFF36F8F10BD0000280000201800002048
:104B7000340000204400002030000020800200208B
:104B800004ED00E008B500F03FFE12480068E8B907
:104B9000114800F003FE114800F000FE0E481049D5
:104BA00008600E480F49086000200F4B0F4A102183
:104BB00000900A2001F0F4FA0649086008460068EF
:104BC00020B10BA10348006800F06AFF00F044FE2A
:104BD00008BD00005C0000204407002058070020AA
:104BE00054000020580000206C070020BC07002063
:104BF000546D72510000000010B516E000F004FE84
:104C00000C48C068C468201D00F062FD0A480068B6
:104C1000401E0949086009480068401E07490860AD
:104C200000F01AFE204600F05FF8044800680028F3
:104C3000E4D110BD1C070020280000202400002023
:104C400070B504460D46206C70B1216CE0680844D4
:104C5000E0606168E068884201D32068E06028462F
:104C6000226CE168FBF71CFB70BD2DE9F0410446A6
:104C70000F4615464FF00008A66B206C40B920681F
:104C800060BB606801F0ACFF80460020606025E0FA
:104C90007DB93946226CA068FBF702FB216CA06845
:104CA0000844A060D4E90110884217D32068A060AE
:104CB00014E03946226CE068FBF7F2FA216CE068F8
:104CC000401AE0602168E068884203D2216C606885
:104CD000401AE060022D01D106B1761E701CA0635F
:104CE0004046BDE8F081000010B5044694F8590034
:104CF00030B9206B00F0CCFD204600F0C9FD14E077
:104D000094F85900012803D1204600F0C1FD0CE0C1
:104D100094F85900022801D1012000E0002020B9B8
:104D200040F6826101A000F02BFD10BD2E2E2F4D0C
:104D30006964646C6577617265732F546869726425
:104D40005F50617274792F4672656552544F532FCC
:104D5000536F757263652F7461736B732E630000FC
:104D600000210C4A126802B101210B4A1268D26A72
:104D70000AB100200DE0094A1268012A01D9002079
:104D800007E009B1002004E0054A1268054B1B68E2
:104D9000D01A704730000020180000208002002048
:104DA000480000202C0000200146084A12681268C2
:104DB0000AB9012200E000220A600A6822B9034A07
:104DC0001268D268106800E000207047540000208C
:104DD00030B540F6B833174800F007042CB1C01DB9
:104DE00020F00700134C041B1B1B0246124C2260D0
:104DF0000024114D6C60D018083820F007000F4CCB
:104E0000206000240D4D2D686C600C4D2D682C60C9
:104E10001146441A4C60094C24680C60084D4C68DB
:104E20002C60084D4C682C604FF00044064D2C60FF
:104E300030BD0000140F00206C0000207400002022
:104E40007C000020780000208000002000BFFFF7D9
:104E5000D3FE16480068012807D94FF08050144946
:104E60000860BFF34F8FBFF36F8FFFF779FF0446E2
:104E7000022C1AD301F026F80E4800680E49096882
:104E8000884201D3012000E0002020B940F6E8412B
:104E90000AA000F075FCFFF763FF0446022C02D362
:104EA000204600F063FD01F05DFFD0E780020020A6
:104EB00004ED00E0480000202C0000202E2E2F4D95
:104EC0006964646C6577617265732F546869726494
:104ED0005F50617274792F4672656552544F532F3B
:104EE000536F757263652F7461736B732E6300006B
:104EF0002DE9F04106460D4617469846069C0DB929
:104F0000246000E02760E66325640121204601F06B
:104F1000B3F984F84C80BDE8F08100002DE9F05F22
:104F200082460F4690469B460A9E0C9C4FEA88019B
:104F3000A522206BFBF7C6F9A8F10100216B01EB5C
:104F4000800929F0070909F0070008B9012000E0ED
:104F5000002020B940F25D311AA000F011FC0025BC
:104F600007E0795D04F134004155785D00B902E055
:104F70006D1C102DF5D300BF002143200155382EA4
:104F800000D33726E662E66400202065201D00F08D
:104F900012FC04F1180000F00EFC2461C6F1380088
:104FA000A06164620020606584F858005A4651464A
:104FB000484600F077FB20600B9808B10B9804601E
:104FC00000F01AB82E2E2F4D6964646C65776172FB
:104FD00065732F54686972645F50617274792F46EB
:104FE00072656552544F532F536F757263652F74FA
:104FF00061736B732E63000030BCBDE8C09F00007E
:1050000010B5002407E004EB84010F4A02EB810095
:1050100000F0C4FB641C382CF5D30C4800F0BEFB38
:105020000B4800F0BBFB0B4800F0B8FB0A4800F04F
:10503000B5FB0A4800F0B2FB04480949086004487F
:105040000849086010BD000080020020E006002032
:10505000F4060020080700201C070020300700206D
:105060001C0000202000002010B50146164800E07A
:10507000006803688B42FBD30246436813448B42AB
:1050800004D143684C682344436001460A464B6898
:1050900013440468A34211D10C4C03682468A34252
:1050A00008D04B680468646823444B6003681B683D
:1050B0000B6005E0054B1B680B6001E003680B60AB
:1050C000884200D0016010BD6C00002074000020F8
:1050D0002DE9F04104460D4616461F464FF00008E4
:1050E00065602461B5420CD8F01BA169884202D3E7
:1050F0004FF0010811E0211D0948006800F05EFB37
:105100000BE0BE4204D2BD4202D34FF0010804E0DE
:10511000211D0448006800F051FB4046BDE8F081C5
:10512000580000205400002070B5054600F06CFBCC
:10513000A86B08B9012400E0002400F08DFB204694
:1051400070BD70B5054600F05FFBA86BE96B884247
:1051500001D1012400E0002400F07EFB204670BD58
:10516000F8B505460F4613480068C068C468201D9E
:1051700000F0AEFAE069012817D1A06941192B4669
:105180003A462046FFF7A4FF78B1002003462A469E
:1051900001460090204601F0CBFE064626B94FF4AA
:1051A000F27105A000F0ECFA00BF2046616A884762
:1051B000F8BD0000540000202E2E2F4D6964646C51
:1051C0006577617265732F54686972645F506172AC
:1051D00074792F4672656552544F532F536F757211
:1051E00063652F74696D6572732E6300F0B587B0C7
:1051F00070E0039800280BDA04AE26B940F2C32110
:1052000039A000F0BDFAD6E90020B168904700BF90
:10521000039800285EDB059C606908B9012000E066
:10522000002010B9201D00F053FA02A800F0CCF8BD
:10523000054603980A284BD2DFE800F00905072B42
:105240002D4306082C2E00BF00BF00BF00BF0498EE
:10525000A269811803462A462046FFF739FFB8B1F4
:105260002046616A8847E069012811D1002000903A
:105270000498A169421800231946204601F058FEFF
:10528000074627B940F2FD2117A000F079FA00BFC8
:105290001FE000BF1DE000BF0498A061A06908B135
:1052A000012000E0002020B94FF445710EA000F06D
:1052B00067FAA06941192B462A462046FFF708FFE6
:1052C00007E094F82C0010B9204600F0E1FA00E065
:1052D00000BF00BF002203A91048006801F088F950
:1052E000002886D107B0F0BD2E2E2F4D6964646C66
:1052F0006577617265732F54686972645F5061727B
:1053000074792F4672656552544F532F536F7572DF
:1053100063652F74696D6572732E63005C000020F5
:10532000F8B505460C4600F0CDFD684600F04CF897
:105330000646009820BB44B9B54206D801F012FDDC
:1053400031462846FFF70CFF1CE03CB10E480068D0
:10535000006808B9012000E000200446A91B22468D
:105360000A48006800F0B2FB01F0FCFC50B94FF0B5
:10537000805007490860BFF34F8FBFF36F8F01E084
:1053800001F0F0FCF8BD0000580000205C00002097
:1053900004ED00E00A490968096809B9012100E043
:1053A000002121B14FF0FF31064A116006E00449A7
:1053B0000968C968C868034A4168116070470000FD
:1053C0001C0000204800002070B5044601F04CFB92
:1053D000054607480068854204D200F00BF801201A
:1053E000206001E00020206001480560284670BD73
:1053F000640000202DE9F8432CE021480068C068D3
:1054000005681F480068C068C468201D00F060F986
:105410002046616A8847E06901281BD1A0694619C6
:10542000AE4207D966602461211D1548006800F06E
:10543000C5F90FE0002003462A46014600902046A9
:1054400001F076FD074627B940F26E310DA000F05D
:1054500097F900BF0A480068006808B9012000E019
:1054600000200028C9D00648D0F800801248006803
:10547000034908601048C0F80080BDE8F8830000C8
:10548000540000202E2E2F4D6964646C6577617284
:1054900065732F54686972645F50617274792F4626
:1054A00072656552544F532F536F757263652F7435
:1054B000696D6572732E6300580000200B48006808
:1054C000401C08B9012000E0002018B9F521084867
:1054D00000F056F900BF502080F31188BFF34F8FC2
:1054E000BFF36F8F00BF00BFFEE700008400002005
:1054F0002C71000808B500BF6846FFF755FC04464C
:1055000020460099FFF70CFFFFF770FEF4E770B537
:10551000044600F079F994F9455010E0606A08B942
:10552000012000E0002038B904F1240001F0B8FBAC
:1055300018B100F0B7FB00E003E0681E45B2002D93
:10554000ECDC00BFFF2084F8450000F085F900F096
:105550005BF994F9445010E0206908B9012000E09B
:10556000002048B904F1100001F09AFB08B100F0E6
:1055700099FB681E45B200E001E0002DECDC00BFA5
:10558000FF2084F8440000F067F970BD2DE9F04178
:1055900004464FF0000800F095FC3C48006808B94C
:1055A000FFF716FC3A480068204000285DD19CB106
:1055B000083404F0070078B104F00700C0F10800D7
:1055C000044404F0070008B9012000E0002018B9E5
:1055D0009521304800F0D4F8002C46D02E480068C1
:1055E000844242D82D4E3046056801E02E462D6893
:1055F0006868A04202D228680028F7D123480068D2
:10560000854232D0306800F1080828683060686848
:10561000001B102812D92F1907F0070008B9012024
:1056200000E0002018B9C2211A4800F0A9F8686803
:10563000001B78606C603846FFF716FD16496868F5
:105640000968081A1449086008460068144909687E
:10565000884203D210480068114908600C49686804
:105660000968084368600020286001F07BFB08F0AF
:10567000070008B9012000E0002020B94FF4817133
:10568000044800F07DF84046BDE8F0817400002039
:1056900080000020E4700008780000206C000020EA
:1056A0007C000020001F4FF080730360001F21F07A
:1056B00001030360001F054B036014380260001FE4
:1056C0006FF002030360203870470000BD540008EB
:1056D00001460A69D1E901309860D1E901035860B7
:1056E0005068884201D188685060002008611068C5
:1056F000401E10601068704770B50446254625B9F5
:1057000040F27C7105A000F03BF800F07DF8D5E98F
:105710000E10461A00F0A0F8304670BD2E2E2F4D08
:105720006964646C6577617265732F54686972642B
:105730005F50617274792F4672656552544F532FD2
:10574000536F757263652F71756575652E63000003
:10575000034B0360034B0B60802313607047000012
:105760005C080020B8080020034B0360034B0B606B
:105770004FF4807313607047B80A0020140B0020A8
:1057800038B504460D460020009000F03DF800BFFB
:1057900000980028FCD000F05FF838BD00F1080147
:1057A00041604FF0FF31816000F10801C16001618B
:1057B00000210160704700210161704710B5024669
:1057C0000B685C1C0CB9106907E002F1080000E0EE
:1057D0004068446824689C42FAD944684C604C682C
:1057E000A160886041600A611468641C146010BD87
:1057F00042684A6093688B60936859609160086161
:1058000003685B1C0360704710B500BF502080F335
:105810001188BFF34F8FBFF36F8F00BF0B48006835
:10582000401C0A4908600846006801280CD1084855
:105830000068C0B208B9012000E0002020B940F2A1
:10584000B7110448FFF79CFF10BD00008400002042
:1058500004ED00E02C71000810B50B48006820B979
:105860004FF4DF710948FFF78BFF07480068401EBF
:10587000054908600846006820B9002080F31188B7
:1058800000BF00BF10BD0000840000202C71000884
:1058900070B506463546002E33D0083D2C461949D2
:1058A00060680968084008B1012000E0002020B9C4
:1058B0004FF48B711448FFF763FF206808B901208B
:1058C00000E0002020B940F217110F48FFF758FF01
:1058D0000C4960680968084098B1206888B909498E
:1058E000606809688843606000F0ECFA0749606806
:1058F00009680844054908602046FFF7B5FB01F038
:1059000031FA70BD80000020E470000878000020AB
:10591000202012490860084600684FF6FF71B1FB6D
:10592000F0F00F4908600F480068B0FBF0F02D213F
:10593000B1FBF0F00C49086000204FF0E021086155
:105940008861084800684FF47A71B0FBF1F0401E9E
:105950004FF0E0214861072008617047880000206F
:105960008C00002014000020900000202DE9F84356
:1059700005462E480068854201D92C4805682C4808
:10598000006805FB00F82B48FCF74CF872B6BFF333
:105990004F8FBFF36F8F002027490860FEF78AFD05
:1059A000074637B9224801682248FCF703F862B677
:1059B0003AE041461F48FBF7FDFF00956846FDF7BA
:1059C000A6FE009810B10120FCF726FA6846FDF704
:1059D0009DFE1848FCF726F81648FCF749F90446DE
:1059E00062B6BFF34F8FBFF36F8F1348006830B1BB
:1059F0006E1E0F4801680F48FBF7DCFF11E00C48F2
:105A00000068B4FBF0F60A480068B4FBF0F100FB54
:105A1000114414B906480468761C21460548FBF772
:105A2000C9FF304600F018FABDE8F8838C0000206A
:105A300088000020080200200400002070B5FAF75A
:105A400009FC0546102D10D305F1E02090F8F04335
:105A50000F480078844201DB012000E0002020B9DB
:105A60004FF464710B48FFF78BFE0B48006800F49D
:105A7000E0600A490968884201D8012000E000205E
:105A800020B94FF468710348FFF77AFE70BD00003B
:105A9000940000202C7100080CED00E0980000201C
:105AA000024600200BE0084B53F8303033B9064B68
:105AB00043F8301003EBC0035A6002E0401C082892
:105AC000F1D300BF70470000400200202DE9F041F3
:105AD00005460E4617462C46FFF796FE94F94400FD
