:020000040800F2
:10000000786E00207D02000821720008C95D00089A
:10001000B96E000859160008A1A5000800000000EC
:100020000000000000000000000000009D0100082A
:10003000FD25000800000000F9010008BD9500083A
:10004000F1A7000825720008E99600086D780008FD
:100050006D2700089B020008012600086926000899
:100060009D260008D1260008052700082523000842
:10007000592300088D230008C1230008F523000838
:10008000292400085D2400083D09000849200008D3
:10009000AD1F0008E11F00081520000839270008DF
:1000A0001D970008B9970008859700085197000828
:1000B000ED970008219800089B020008255E0008C3
:1000C000F15D00088D5E0008595E0008718500082A
:1000D000A5850008F5A4000829A500085DA500086D
:1000E000352600088D7700089B0200089B02000857
:1000F0009B0200089B0200089B0200089B0200086C
:100100009B020008D57800089B020008D9850008EA
:10011000F59B00089B020008559800089B02000808
:1001200091240008C5240008F92400082D250008A2
:1001300061250008BD220008F12200089B0200088A
:100140007D200008B5620008C56200089B02000817
:1001500095250008C9250008BD64000899730008AA
:10016000F55E0008C15E0008A17800089B02000847
:100170009B020008899800089B020008000000000C
:1001800059770008A1270008DFF80CD000F076FBB3
:100190000048004791D20008786E00202C4B196867
:1001A000086800F05AB880F30988BFF36F8F4FF0EA
:1001B000000080F3118870470000000008480068C4
:1001C000006880F308884FF0000080F3148862B65E
:1001D00061B6BFF34F8FBFF36F8F00DF00BF00BF6B
:1001E00008ED00E0DFF80C00016841F470010160E7
:1001F000704700BF88ED00E0EFF30980BFF36F8F19
:10020000134B1A681EF0100F08BF20ED108A20E96A
:10021000F04F106009B44FF0500080F31188BFF325
:100220004F8FBFF36F8F0FF05DFB4FF0000080F337
:10023000118809BC1968086800F014B81EF0100F86
:1002400008BF00F014B880F30988BFF36F8F7047C0
:1002500020000020EFF30580704730C8B0E8C04FA1
:10026000FFF7A1BF30C8B0E8C04FFFF7E7BFB0EC61
:10027000088AB0EC08CAFFF7E6BF000007488047CD
:100280000748804707480047FEE7FEE7FEE7FEE72E
:10029000FEE7FEE7FEE7FEE7FEE7FEE799960008C9
:1002A0001D090008890100082DE9F05F05460020BE
:1002B00092469B4688460646814640241BE02846D7
:1002C00041464746224600F036F953465A46C01A80
:1002D000914110D311461846224600F01DF92D1AFF
:1002E00067EB01084F4622460120002100F014F977
:1002F00017EB00094E41201EA4F10104DFDC484643
:1003000031462A46434600F000B830BCBDE8C09FE5
:1003100040EA01039B0703D009E008C9121F08C087
:10032000042AFAD203E011F8013B00F8013B521E07
:10033000F9D27047D2B201E000F8012B491EFBD27E
:1003400070470022F6E710B513460A4604461946E0
:10035000FFF7F0FF204610BD30B5044600200346ED
:1003600000E05B1C934203D2E05CCD5C401BF8D004
:1003700030BD034611F8012B00F8012B002AF9D1FA
:10038000184670472DE9FE4F81EA030404F000444B
:1003900021F0004100944FF0000B23F0004350EA9D
:1003A00001045ED052EA03045BD0C3F30A54C1F3E4
:1003B0000A552C44A4F2F3340194A0FB0254C1F377
:1003C000130141F48011C3F3130343F4801301FBC1
:1003D000024400FB034E840A970A44EA815447EA28
:1003E0008357A4FB076802958D0A05FB07854FEA32
:1003F000932C04FB0C542705029D4FEA065847EA4C
:100400001637B5EB08056EEB070C870E920E47EA20
:10041000811742EA8312A7FB0201B6EB0B0164EBE2
:1004200000042B0D43EA0C335E1844EB1C50DA46F3
:100430005146E7FB0201C5F313044FEA0B3343EACD
:1004400014534FEA0432019C43EA0603A4F10C045E
:100450000294009CCDE900B400F08CF803B000F0E9
:1004600003B800200146F9E730BCBDE8C08F0EB5E7
:1004700040F2334102910021CDE900110A460B46BA
:1004800000F078F803B000BDC1F30A5210B5C1F313
:10049000130140F2FF3341F480119A4201DA002047
:1004A00010BD40F233439A42A2F2334203DC52427F
:1004B00000F041F810BD904010BD000030B5041EA2
:1004C00071F1000404DB4FF00044404264EB010191
:1004D000141E73F1000405DB1C464FF0004352422A
:1004E00063EB0403994208BF904230BD30B50B4620
:1004F000014600202022012409E021FA02F59D4254
:1005000005D303FA02F5491B04FA02F52844151E27
:10051000A2F10102F1DC30BD202A04DB203A00FA0E
:1005200002F1002070479140C2F1200320FA03F34A
:10053000194390407047202A04DB203A21FA02F048
:100540000021704721FA02F3D040C2F1200291400D
:1005500008431946704710B5141E73F1000408DAF9
:10056000401C41F1000192185B411A4301D120F077
:10057000010010BD2DE9F04D92469B4611B1B1FA34
:1005800081F202E0B0FA80F220329046FFF7C4FF19
:1005900004460F4640EA0A0041EA0B0153465A4618
:1005A000084313D0114653EA010019D0C8F14002A4
:1005B0005046FFF7C0FF05460E4650465946424694
:1005C000FFF7AAFF084305D0012004E02046394682
:1005D000BDE8F08D0020054346EAE0762C43374322
:1005E0000A986305E40AA0EB08000022FD0A44EA29
:1005F00047540A3002D500200146E9E701051019E9
:100600006941DDE9084500196941BDE8F04DA2E7FF
:100610002DE9FE4F804681EA0300C00F0C46009092
:1006200021F0004123F00045B8EB0200A94105D2BA
:100630004046214690461C460B46024623F00040A9
:10064000104347D0270DC7F30A00C3F30A510290A5
:10065000401A019040286BDAC3F3130040F4801B6A
:100660000098924620B10023D2EB030A63EB0B0BF8
:1006700001985946C0F140025046FFF74DFF06462B
:100680000D4650465946019A00F00AF910EB080051
:100690006141002487EA115284EAE7731A4340D08B
:1006A000009A62B3019A012A4FEA075215DC001B37
:1006B00061EB02014FF0004202EA0752CDE900422D
:1006C000001C41F5801132462B46FFF753FF03B063
:1006D00000F045B840462146F9E7001B61EB0201F6
:1006E000001C41F5801300185B412018A2F500178B
:1006F00047EB030140EAD570B6196D4111E06D0872
:100700004FEA360645EAC0754FEA0752001B61EB17
:100710000201001C41F5801149084FEA3000001920
:10072000514132462B4603B000F01CB8FFF713BF0F
:100730000098012240000023D0EB020263EBE0733B
:10074000009821464FEAE074B8EB000061EB040129
:10075000E9E783F000435BE781F0004158E730BCF4
:10076000BDE8C08F30BCBDE8C04FFFF7DFBF2DE94B
:10077000F04D81EA030404F0004B21F000451446DB
:100780004FF0000A23F0004150EA050220D054EA5D
:1007900001021DD0C5F30A570246C5F31303C1F386
:1007A0001300C1F30A5640F4801543F48013A7EBFD
:1007B0000608101BD64608F2FD3873EB050002D37D
:1007C00008F1010801E092185B41B8F1000F03DA6B
:1007D00000200146BDE8F08D00204FF48011064650
:1007E00084460EE0171B73EB050705D3121B63EB62
:1007F000050306434CEA010C49084FEA3000921801
:100800005B4150EA0107EDD152EA030012D082EABF
:10081000040083EA0501084305D0101BAB4106D252
:100820000122002306E000224FF0004302E06FF0B7
:10083000010253101AEB06004CEB085110EB0A00B2
:1008400041EB0B01BDE8F04DFFF785BEC1F30A5245
:10085000C1F3130140F2FF3341F480119A4202DAEE
:1008600000200146704740F233439A42A2F23342DD
:1008700002DC5242FFF75FBEFFF74EBE064C074D4B
:1008800006E0E06840F0010394E807009847103460
:10089000AC42F6D3FFF77CFC701C0108901C0108E9
:1008A000202A06DBCB17203A41FA02F043EAE07334
:1008B00006E041FA02F3D040C2F120029140084321
:1008C0001946704770B58C1810F8015B15F00703D6
:1008D00001D110F8013B2A1106D110F8012B03E0D9
:1008E00010F8016B01F8016B5B1EF9D12B0705D4E1
:1008F0000023521E0DD401F8013BFAE710F8013B2A
:10090000CB1A921C03E013F8015B01F8015B521E45
:10091000F9D5A142D8D3002070BD00000648694631
:100920004FF0CD324FF0AB33036000E00260001DAA
:100930008842FBD170470000786A002010B50A4851
:1009400008F000FE0949086009E00849096848689C
:1009500080470648006808F0FBFD0449086003482A
:1009600000680028F1D110BD68610020040100205A
:100970002DE9F05F044688464FF00009474620689D
:1009800005F05CFC8246206805F044FC8346BAF121
:10099000000F02D1BBF1000F6ED02068C06800F0DC
:1009A000007000B3607E01281DD1207E01281AD17D
:1009B00001270FE0314881450AD3606D40F01000F7
:1009C0006065A06D40F00100A065012000F05AB8FC
:1009D00009F1010920680068C0F380100028E9D0FF
:1009E000402021680860022F10D0206805F026FC06
:1009F00060B1206805F013FC40B920688168204A86
:100A0000114041F01001816000BF00BF012F10D0E4
:100A1000206805F0FFFB60B1206805F000FC40B9DC
:100A200020688168164A114041F02001816000BFB2
:100A300000BF022F03D0032F03D10C2503E00825AC
:100A400001E0042500BF00BF03F0DAF906460EE01E
:100A500003F0D6F9801B052809D9606D40F010001D
:100A60006065A06D40F00100A0650120AEE7206840
:100A7000806828400028EBD10020A7E7000040A3B1
:100A8000C0FFFF7F30BCBDE8C09F000070B50446CA
:100A9000206805F0C4FB0646206805F0C5FB70B36E
:100AA0006EBB2068806800F00D0001280AD1206824
:100AB0008168174A1140891C816000BF03202168AA
:100AC000086009E0606D40F010006065A06D40F0C6
:100AD0000100A065012070BD03F092F905460FE00A
:100AE00003F08EF9401B02280AD9606D40F0100017
:100AF0006065A06D40F00100A0650120EBE705E016
:100B00002068806800F001000028E9D10020E2E7B9
:100B1000C0FFFF7F70B50446206805F085FB88BBE9
:100B2000206880681849084048B1606D40F01000A6
:100B30006065A06D40F00100A065012070BD2068D7
:100B400005F052FB03F05CF9054615E0206805F05E
:100B50006BFB10B9206805F047FB03F051F9401B0F
:100B6000022809D9606D40F010006065A06D40F06A
:100B70000100A0650120E1E72068006800F00100A5
:100B80000028E3D00020D9E73F00008030B58BB0CB
:100B900005460C46224606A10DF115000AF0B0FDEF
:100BA00003208DF80000684602F006F90BB030BD56
:100BB000457272202020202020256C640000000057
:100BC00010B5024803F072F910BD0000D067002094
:100BD00010B5044600BF07480068406820F4E050A4
:100BE0002043044909684860024805F0D7FA00BF6D
:100BF00010BD0000D06700202DE9FE4F0446002CF8
:100C000001DA604200E0204605460A20B5FBF0F11B
:100C100000FB1156B5FBF0F00A21B0FBF1F201FB2D
:100C200012076420B5FBF0F0B0FBF1F201FB1208F3
:100C30004FF47A70B5FBF0F0B0FBF1F201FB120952
:100C400042F21070B5FBF0F0B0FBF1F201FB120ABA
:100C5000E448B5FBF0F0B0FBF1F201FB120BE24807
:100C6000B5FBF0F0B0FBF1F201FB12000290DF489F
:100C7000B5FBF0F0B0FBF1F201FB12000190DC4893
:100C8000B5FBF0F0B0FBF1F201FB12000090009810
:100C900020B30021009809F0C5FD0121019809F059
:100CA000C1FD0221029809F0BDFD0321584609F05B
:100CB000B9FD0421504609F0B5FD0521484609F06B
:100CC000B1FD0621404609F0ADFD0721384609F087
:100CD000A9FD0821304609F0A5FD70E1019858B33F
:100CE000002C04DA0021102009F09CFD03E0002113
:100CF000122009F097FD0121019809F093FD0221CE
:100D0000029809F08FFD0321584609F08BFD04215C
:100D1000504609F087FD0521484609F083FD06216C
:100D2000404609F07FFD0721384609F07BFD082188
:100D3000304609F077FD42E1029858B300211220B5
:100D400009F070FD002C04DA0121102009F06AFD81
:100D500003E00121122009F065FD0221029809F04B
:100D600061FD0321584609F05DFD0421504609F05C
:100D700059FD0521484609F055FD0621404609F078
:100D800051FD0721384609F04DFD0821304609F094
:100D900049FD14E1BBF1000F2BD00021122009F016
:100DA00041FD0121122009F03DFD002C04DA022151
:100DB000102009F037FD03E00221122009F032FD76
:100DC0000321584609F02EFD0421504609F02AFD62
:100DD0000521484609F026FD0621404609F022FD7E
:100DE0000721384609F01EFD0821304609F01AFD9A
:100DF000E5E0BAF1000F2BD00021122009F012FD1E
:100E00000121122009F00EFD0221122009F00AFD35
:100E1000002C04DA0321102009F004FD03E0032173
:100E2000122009F0FFFC0421504609F0FBFC0521CB
:100E3000484609F0F7FC0621404609F0F3FC07217B
:100E4000384609F0EFFC0821304609F0EBFCB6E02B
:100E5000B9F1000F2BD00021122009F0E3FC012191
:100E6000122009F0DFFC0221122009F0DBFC032133
:100E7000122009F0D7FC002C04DA0421102009F01C
:100E8000D1FC03E00421122009F0CCFC05214846E6
:100E900009F0C8FC0621404609F0C4FC0721384689
:100EA00009F0C0FC0821304609F0BCFC87E0B8F12D
:100EB000000F2BD00021122009F0B4FC01211220D8
:100EC00009F0B0FC0221122009F0ACFC0321122031
:100ED00009F0A8FC0421122009F0A4FC002C04DA7B
:100EE0000521102009F09EFC03E00521122009F0E5
:100EF00099FC0621404609F095FC0721384609F087
:100F000091FC0821304609F08DFC58E05FB30021C8
:100F1000122009F087FC0121122009F083FC022134
:100F2000122009F07FFC0321122009F07BFC042130
:100F3000122009F077FC0521122009F073FC002C27
:100F400004DA0621102009F06DFC03E006211220CE
:100F500009F068FC0721384609F064FC0821304696
:100F600009F060FC2BE056B30021122009F05AFC76
:100F70000121122009F056FC0221122009F052FC36
:100F80000321122009F04EFC0421122009F04AFC32
:100F90000521122009F046FC0621122009F042FC2E
:100FA000002C04DA0721102009F03CFC03E00721A3
:100FB000122009F037FC0821304609F033FC0121EA
:100FC000002001F0ADFE0121084601F0A9FE01213B
:100FD000022001F0A5FE0121032001F0A1FE00F096
:100FE00009B80000A086010040420F0080969800DA
:100FF00000E1F5051EBCBDE8E08F000030B52DED29
:10100000048B85B0B0EE408AF0EE608A044653EC63
:10101000182BFEA101A80AF073FB9FEDFD0B53EC0A
:10102000102B51EC180BFFF7ADF941EC190BFFF742
:101030002BFA6421B0FBF1F201FB12052A46F6A15E
:1010400003A80AF05DFB9DF806002E2857D1002169
:10105000122009F0E7FB0121122009F0E3FB022135
:10106000122009F0DFFB0321122009F0DBFB9DF8C1
:1010700004002D2804D10421102009F0D3FB03E043
:101080000421122009F0CEFB9DF805103039C8B2BA
:10109000052109F0C7FB9DF807103039C8B20621B9
:1010A00009F0C0FB9DF808103039C8B2072109F0DB
:1010B000B9FB9DF809103039C8B2082109F0B2FB1C
:1010C000002C1BD09DF80A103039C8B2092109F054
:1010D000A9FB9DF80B103039C8B20A2109F0A2FB18
:1010E0009DF80C103039C8B20B2109F09BFB9DF81C
:1010F0000D103039C8B20C2109F094FB97E19DF82E
:1011000007002E285AD10021122009F08BFB012163
:10111000122009F087FB0221122009F083FB9DF8C1
:1011200004002D2804D10321102009F07BFB03E0EB
:101130000321122009F076FB9DF805103039C8B262
:10114000042109F06FFB9DF806103039C8B2052163
:1011500009F068FB9DF808103039C8B2062109F083
:1011600061FB9DF809103039C8B2072109F05AFB1C
:101170009DF80A103039C8B2082109F053FB002C41
:10118000BCD09DF80B103039C8B2092109F04AFBD8
:101190009DF80C103039C8B20A2109F043FB9DF8C4
:1011A0000D103039C8B20B2109F03CFB9DF80E1030
:1011B0003039C8B20C2109F035FB38E19DF8080040
:1011C0002E285DD10021122009F02CFB01211220D4
:1011D00009F028FB9DF804002D2804D102211020DD
:1011E00009F020FB03E00221122009F01BFB9DF80F
:1011F00005103039C8B2032109F014FB9DF8061020
:101200003039C8B2042109F00DFB9DF807103039C0
:10121000C8B2052109F006FB9DF809103039C8B2A3
:10122000062109F0FFFA9DF80A103039C8B20721EB
:1012300009F0F8FA9DF80B103039C8B2082109F00E
:10124000F1FA002CB9D09DF80C103039C8B2092140
:1012500009F0E8FA9DF80D103039C8B20A2109F0FA
:10126000E1FA9DF80E103039C8B20B2109F0DAFA14
:101270009DF80F103039C8B20C2109F0D3FAD6E02E
:101280009DF809002E2860D10021122009F0CAFA29
:101290009DF804002D2804D10121102009F0C2FA84
:1012A00003E00121122009F0BDFA9DF80510303944
:1012B000C8B2022109F0B6FA9DF806103039C8B25A
:1012C000032109F0AFFA9DF807103039C8B20421A4
:1012D00009F0A8FA9DF808103039C8B2052109F0C4
:1012E000A1FA9DF80A103039C8B2062109F09AFA1D
:1012F0009DF80B103039C8B2072109F093FA9DF818
:101300000C103039C8B2082109F08CFA002CB6D084
:101310009DF80D103039C8B2092109F083FA9DF803
:101320000E103039C8B20A2109F07CFA9DF80F106E
:101330003039C8B20B2109F075FA9DF81010303918
:10134000C8B20C2109F06EFA71E09DF80A002E284F
:101350006DD19DF804002D2804D10021102009F042
:1013600061FA03E00021122009F05CFA9DF80510F3
:101370003039C8B2012109F055FA9DF8061030390C
:10138000C8B2022109F04EFA9DF807103039C8B2F0
:10139000032109F047FA9DF808103039C8B204213A
:1013A00009F040FA9DF809103039C8B2052109F05A
:1013B00039FA9DF80B103039C8B2062109F032FA1B
:1013C0009DF80C103039C8B2072109F02BFA9DF8AE
:1013D0000D103039C8B2082109F024FAACB19DF8DB
:1013E0000E103039C8B2092109F01CFA9DF80F100F
:1013F0003039C8B20A2109F015FA9DF810103039B9
:10140000C8B20B2109F00EFA0AE010E025206600B0
:1014100000000000D012634125303264000000005B
:101420009DF811103039C8B20C2109F0FBF90021E8
:10143000084601F075FC0121084601F071FC00210D
:10144000022001F06DFC0021032001F069FC5CB179
:1014500000210C2001F064FC00210D2001F060FC53
:1014600000210E2001F05CFC05B0BDEC048B30BD0A
:1014700070B504460025C2E020782738532870D282
:10148000DFE800F0AFB2B2B2B2B248B2B22A2D3049
:101490003336393C3F4245B2B2B2ACB2B2B24B4E37
:1014A0005154575A767073B2B260B26669B2B25D87
:1014B0007963B2B2B2B26CB2B2B2B2B2B2B27C7F43
:1014C0008285888BA6A0A3B2B291B2979AB2B28E4F
:1014D000A994B2B2B2B29D000020207087E0012032
:1014E000207084E00220207081E0032020707EE0E4
:1014F000042020707BE00520207078E0062020701A
:1015000075E00720207072E0082020706FE009204D
:1015100020706CE01020207069E00A20207066E0E6
:101520000B20207063E00C20207060E00D20207004
:101530005DE00E2020705AE00F20207057E011204F
:10154000207054E01320207051E0142020704EE0F1
:10155000152020704BE01620207048E017202070E6
:1015600045E041E01820207041E0192020703EE065
:10157000092020703BE00520207038E00A20207010
:1015800035E00B20207032E00C2020702FE00D2081
:1015900020702CE00E20207029E00F20207026E023
:1015A0001120207023E01320207020E014202070F0
:1015B0001DE0152020701AE01620207017E017207B
:1015C000207014E01820207011E0192020700EE027
:1015D000092020700BE00520207008E01A20207000
:1015E00005E01B20207002E01220207000BF00BF29
:1015F00014F8010BE9B209F015F9681CC5B20D2DFC
:10160000FFF63AAF70BD000070B5054606F0D0FE9B
:1016100004A006F00FFC0CF013FA04460CF080FA5C
:1016200070BD0000426F6F742073746172746564E2
:101630002100000000B589B0242205496846FEF764
:1016400067FE6A46002103480CF000FA09B000BDAD
:101650007416010809160008762102A00DF004FC9A
:1016600000BFFEE72E2E2F436F72652F5372632F3C
:1016700073746D33326C3478785F69742E63000054
:1016800070B50F48006800F40050B8B14FF4005036
:101690000B49086000BF002001F072FA05460948B6
:1016A00007F050FF044606E0284661688847204658
:1016B00007F04EFF0446002CF6D100BF70BD0000BD
:1016C00014040140F862002070B50F48006800F46F
:1016D0008060B8B14FF480600B49086000BF012002
:1016E00001F04EFA0546094807F02CFF044606E0D3
:1016F000284661688847204607F02AFF0446002CE8
:10170000F6D100BF70BD000014040140006300204A
:1017100070B50F48006800F48060B8B14FF4806085
:101720000B49086000BF022001F02AFA054609486B
:1017300007F008FF044606E028466168884720460F
:1017400007F006FF0446002CF6D100BF70BD000074
:10175000140401400863002070B50F48006800F4CD
:101760008060B8B14FF480600B49086000BF03206F
:1017700001F006FA0546094807F0E4FE044606E0D3
:10178000284661688847204607F0E2FE0446002CA0
:10179000F6D100BF70BD00001404014010630020AA
:1017A00070B50F48006800F48060B8B14FF48060F5
:1017B0000B49086000BF042001F0E2F90546094822
:1017C00007F0C0FE044606E02846616888472046C8
:1017D00007F0BEFE0446002CF6D100BF70BD00002D
:1017E000140401401863002070B50F48006800F42D
:1017F0008060B8B14FF480600B49086000BF0520DD
:1018000001F0BEF90546094807F09CFE044606E0D3
:10181000284661688847204607F09AFE0446002C57
:10182000F6D100BF70BD0000140401402063002009
:1018300070B50F48006800F48060B8B14FF4806064
:101840000B49086000BF062001F09AF905460948D7
:1018500007F078FE044606E028466168884720467F
:1018600007F076FE0446002CF6D100BF70BD0000E4
:10187000140401402863002070B50F48006800F48C
:101880008060B8B14FF480600B49086000BF07204A
:1018900001F076F90546094807F054FE044606E0D3
:1018A000284661688847204607F052FE0446002C0F
:1018B000F6D100BF70BD0000140401403063002069
:1018C00070B50F48006800F48060B8B14FF48060D4
:1018D0000B49086000BF082001F052F9054609488D
:1018E00007F030FE044606E0284661688847204637
:1018F00007F02EFE0446002CF6D100BF70BD00009C
:10190000140401403863002010B50446012C04D1B2
:101910000021084607F0ACF812E0022C08D10121A2
:10192000002007F0A5F80021012007F0A1F807E04A
:101930000121002007F09CF80121084607F098F8E3
:1019400010BD10B50446012C03D15021002007F032
:1019500055F8022C0BD15021002007F04FF85021F0
:10196000FF2007F04BF85021002007F047F810BD8A
:1019700010B504460A2C6AD2DFE804F0050B1117F3
:101980001D23292F353B4FF40051324802F080F8D7
:101990005EE04FF480612F4802F07AF858E04FF48F
:1019A00080612C4802F074F852E04FF480612948BD
:1019B00002F06EF84CE04FF48061264802F068F8BF
:1019C00046E04FF48061234802F062F840E04FF4B3
:1019D0008061204802F05CF83AE04FF480611D48D5
:1019E00002F056F834E04FF480611A4802F050F8E3
:1019F0002EE04FF40051174802F04AF84FF480618E
:101A0000144802F045F84FF48061124802F040F8A3
:101A10004FF480610F4802F03BF84FF480610D48AD
:101A200002F036F84FF480610A4802F031F84FF4C2
:101A30008061084802F02CF84FF48061054802F0FC
:101A400027F84FF48061034802F022F800E000BF5D
:101A500000BF10BD0008004810B504460A2C46D24D
:101A6000DFE804F005090D1115191D21252928208D
:101A700002F0C0FC3CE0282002F0BCFC38E028204A
:101A800002F0B8FC34E0282002F0B4FC30E028205A
:101A900002F0B0FC2CE0282002F0ACFC28E028206A
:101AA00002F0A8FC24E0282002F0A4FC20E028207A
:101AB00002F0A0FC1CE0282002F09CFC282002F090
:101AC00099FC282002F096FC282002F093FC2820A4
:101AD00002F090FC282002F08DFC282002F08AFC05
:101AE000282002F087FC282002F084FC00E000BFE0
:101AF00000BF10BD10B504460A2C46D2DFE804F042
:101B000005090D1115191D212529282002F094FC25
:101B10003CE0282002F090FC38E0282002F08CFC09
:101B200034E0282002F088FC30E0282002F084FC19
:101B30002CE0282002F080FC28E0282002F07CFC29
:101B400024E0282002F078FC20E0282002F074FC39
:101B50001CE0282002F070FC282002F06DFC2820F8
:101B600002F06AFC282002F067FC282002F064FCE6
:101B7000282002F061FC282002F05EFC282002F000
:101B80005BFC282002F058FC00E000BF00BF10BD45
:101B900010B586B00446DB4802900A2C7DD2DFE8FF
:101BA00004F0051C344C647D95ADC5DD4FF4005048
:101BB00001900020039001A9D34802F00BF83022D5
:101BC000D249D34807F074FC00220E21282002F0ED
:101BD00043FC282002F030FC90E14FF4806001903B
:101BE0000120039001A9C84801F0F4FF3022C9493F
:101BF000C748083007F05CFC00220E21282002F0C4
:101C00002BFC282002F018FC78E14FF48060019052
:101C10000120039001A9BC4801F0DCFF3022BE493D
:101C2000BB48103007F044FC00220E21282002F0AF
:101C300013FC282002F000FC60E14FF4806001906A
:101C40000120039001A9B04801F0C4FF3022B3493C
:101C5000AF48183007F02CFC00220E21282002F09B
:101C6000FBFB282002F0E8FB48E14FF48060019084
:101C70000120039001A9A44801F0ACFF3022A8493B
:101C8000A348203007F014FC00220E21282002F087
:101C9000E3FB282002F0D0FB30E12EE14FF480601E
:101CA00001900120039001A9974801F093FF302291
:101CB0009C499748283007F0FBFB00220E21282082
:101CC00002F0CAFB282002F0B7FB17E14FF4806056
:101CD00001900120039001A98B4801F07BFF302285
:101CE00091498B48303007F0E3FB00220E21282079
:101CF00002F0B2FB282002F09FFBFFE04FF480606F
:101D000001900120039001A97F4801F063FF302278
:101D100086497F48383007F0CBFB00220E2128206F
:101D200002F09AFB282002F087FBE7E04FF4806086
:101D300001900120039001A9734801F04BFF30226C
:101D40007B497348403007F0B3FB00220E21282066
:101D500002F082FB282002F06FFBCFE04FF400502E
:101D600001900020039001A9674801F033FF4FF470
:101D7000806001900120039001A9634801F02AFFCF
:101D80004FF4806001900120039001A95E4801F0AA
:101D900021FF4FF4806001900120039001A95A486F
:101DA00001F018FF4FF4806001900120039001A919
:101DB000554801F00FFF4FF480600190012003901F
:101DC00001A9514801F006FF4FF480600190012005
:101DD000039001A94C4801F0FDFE4FF48060019092
:101DE0000120039001A9484801F0F4FE4FF48060FF
:101DF00001900120039001A9434801F0EBFE30223D
:101E00004249434807F054FB00220E21282002F0EB
:101E100023FB282002F010FB30223E493C480830CA
:101E200007F046FB00220E21282002F015FB282097
:101E300002F002FB302238493548103007F038FBF9
:101E400000220E21282002F007FB282002F0F4FADD
:101E5000302232492E48183007F02AFB00220E218A
:101E6000282002F0F9FA282002F0E6FA30222C4964
:101E70002748203007F01CFB00220E21282002F00A
:101E8000EBFA282002F0D8FA3022264920482830E0
:101E900007F00EFB00220E21282002F0DDFA282098
:101EA00002F0CAFA302220491948303007F000FB0E
:101EB00000220E21282002F0CFFA282002F0BCFADE
:101EC00030221A491248383007F0F2FA00220E2167
:101ED000282002F0C1FA282002F0AEFA302214497C
:101EE0000B48403007F0E4FA00220E21282002F0CF
:101EF000B3FA282002F0A0FA00E000BF00BF06B04D
:101F000010BD0000000031100008004881160008D4
:101F10005C670020C916000811170008591700084F
:101F2000A1170008E91700083118000879180008FF
:101F3000C118000810B54FF48061024801F0A8FDF7
:101F400010BD00000010004800B585B04FF480605F
:101F5000009001200190002002906946044801F0A1
:101F600039FE01229102024801F045FF05B000BD93
:101F70000010004810B5044634B900224FF48061C7
:101F8000094801F038FF0DE0012C05D10122910232
:101F9000054801F030FF05E0022C03D16102024840
:101FA00001F022FF10BD00000010004810B50A48E3
:101FB00007F0C8FA0949086009E008490968486853
:101FC00080470648006807F0C3FA044908600348E0
:101FD00000680028F1D110BD786100200C010020BC
:101FE00010B50A4807F0AEFA0949086009E0084947
:101FF0000968486880470648006807F0A9FA04495C
:102000000860034800680028F1D110BD80610020FD
:102010001001002010B50A4807F094FA0949086039
:1020200009E008490968486880470648006807F0E1
:102030008FFA04490860034800680028F1D110BDF8
:10204000886100201401002010B50A4807F07AFAD0
:102050000949086009E00849096848688047064856
:10206000006807F075FA0449086003480068002812
:10207000F1D110BD706100200801002010B50A48A0
:1020800007F060FA0949086009E0084909684868EA
:1020900080470648006807F05BFA04490860034877
:1020A00000680028F1D110BD786200208C0100206A
:1020B00010B50446E3785B1CDAB263795B1CD9B2D5
:1020C000E08800F087FB207110BD10B5032002F0FE
:1020D00091F910BD10B5032002F0AEF910BD00005B
:1020E00010B5032002F086F9014803F059FA10BD3B
:1020F000AC67002000B5B3B00420229000202C90E3
:102100000120249022A802F033FE18B1332120A030
:102110000CF0AAFE4FF40030009040122190684667
:1021200002F05EFA18B13B2119A00CF09DFE224886
:10213000006840F4004020499039C1F890001F48E1
:102140001F490860002048601F211D48816040F23F
:10215000FF31C160002101618161C16103F072FA48
:10216000174803F04BF904220021154803F072F9D7
:102170000C221449144807F09BF900220D2103207A
:1021800002F06AF9032002F057F933B000BD0000F5
:102190002E2E5C4C69627261726965735C6C696257
:1021A0005F63616C656E6461725C68775F63616CCC
:1021B000656E6461722E630090100240002800403A
:1021C000AC670020AD2200087002002030B58FB04F
:1021D0000546002D47D12548007820B12024002055
:1021E0002249087003E03D2401202049087020485E
:1021F00000780A2190FBF1F201FB120028B91D487A
:10220000007880F001001B4908701A48007888B1F6
:102210001948006816490978154A5278CDE9002115
:10222000029013488278234614A10DF1250009F08D
:1022300067FA12E01048B0F904000F380C49097829
:102240000B4A5278CDE90021029009488278234652
:1022500010A10DF1250009F053FA03208DF81000AC
:1022600004A806F0E7FB0FB030BD0000E00100203D
:1022700008020020E1010020D00100202530326456
:1022800025632530326420253032642025303464C3
:10229000000000002530326425632530326420259B
:1022A00030326420252030326427000010B5024807
:1022B00003F05AF910BD0000AC67002010B50A48C1
:1022C00007F040F90949086009E0084909684868C9
:1022D00080470648006807F03BF904490860034856
:1022E00000680028F1D110BD686200208401002040
:1022F00010B50A4807F026F90949086009E00849BD
:102300000968486880470648006807F021F90449D1
:102310000860034800680028F1D110BD70620020F9
:102320008801002010B50A4807F00CF90949086037
:1023300009E008490968486880470648006807F0CE
:1023400007F904490860034800680028F1D110BD6E
:1023500030610020E800002010B50A4807F0F2F8CC
:102360000949086009E00849096848688047064843
:10237000006807F0EDF80449086003480068002889
:10238000F1D110BD38610020EC00002010B50A48E2
:1023900007F0D8F80949086009E008490968486861
:1023A00080470648006807F0D3F8044908600348EE
:1023B00000680028F1D110BD40610020F00000202D
:1023C00010B50A4807F0BEF80949086009E0084955
:1023D0000968486880470648006807F0B9F804496A
:1023E0000860034800680028F1D110BD4861002052
:1023F000F400002010B50A4807F0A4F80949086065
:1024000009E008490968486880470648006807F0FD
:102410009FF804490860034800680028F1D110BD06
:1024200050610020F800002010B50A4807F08AF833
:102430000949086009E00849096848688047064872
:10244000006807F085F80449086003480068002820
:10245000F1D110BD58610020FC00002010B50A48E1
:1024600007F070F80949086009E0084909684868F8
:1024700080470648006807F06BF804490860034885
:1024800000680028F1D110BD60610020000100202B
:1024900010B50A4807F056F80949086009E00849EC
:1024A0000968486880470648006807F051F8044901
:1024B0000860034800680028F1D110BD4062002088
:1024C0007001002010B50A4807F03CF8094908607F
:1024D00009E008490968486880470648006807F02D
:1024E00037F804490860034800680028F1D110BD9E
:1024F000486200207401002010B50A4807F022F855
:102500000949086009E008490968486880470648A1
:10251000006807F01DF804490860034800680028B7
:10252000F1D110BD506200207801002010B50A489A
:1025300007F008F80949086009E00849096848688F
:1025400080470648006807F003F80449086003481C
:1025500000680028F1D110BD586200207C010020E5
:1025600010B50A4806F0EEFF0949086009E008497D
:102570000968486880470648006806F0E9FF044992
:102580000860034800680028F1D110BD6062002097
:102590008001002010B50A4806F0D4FF0949086000
:1025A00009E008490968486880470648006806F05D
:1025B000CFFF04490860034800680028F1D110BD2E
:1025C000906200209401002010B50A4806F0BAFF7E
:1025D0000949086009E008490968486880470648D1
:1025E000006806F0B5FF0449086003480068002849
:1025F000F1D110BD986200209801002070470000C2
:1026000010B50A4806F09EFF0949086009E008492C
:102610000968486880470648006806F099FF044941
:102620000860034800680028F1D110BD086100204F
:10263000D400002010B50A4806F084FF094908605C
:1026400009E008490968486880470648006806F0BC
:102650007FFF04490860034800680028F1D110BDDD
:10266000106200205801002010B50A4806F06AFFE9
:102670000949086009E00849096848688047064830
:10268000006806F065FF04490860034800680028F8
:10269000F1D110BD10610020D800002010B50A480B
:1026A00006F050FF0949086009E0084909684868D0
:1026B00080470648006806F04BFF0449086003485D
:1026C00000680028F1D110BD18610020DC00002056
:1026D00010B50A4806F036FF0949086009E00849C4
:1026E0000968486880470648006806F031FF0449D9
:1026F0000860034800680028F1D110BD2061002067
:10270000E000002010B50A4806F01CFF09490860E7
:1027100009E008490968486880470648006806F0EB
:1027200017FF04490860034800680028F1D110BD74
:1027300028610020E400002010B50A4806F002FFDE
:102740000949086009E0084909684868804706485F
:10275000006806F0FDFE0449086003480068002890
:10276000F1D110BD906100201801002010B50A4879
:1027700006F0E8FE0949086009E008490968486868
:1027800080470648006806F0E3FE044908600348F5
:1027900000680028F1D110BDF8600020D0000020B2
:1027A00010B50A4806F0CEFE0949086009E008495C
:1027B0000968486880470648006806F0C9FE044971
:1027C0000860034800680028F1D110BDD8620020DD
:1027D000B80100207EB503460C4611A523CD8DE837
:1027E0002300032C01DA581E83B2642093FBF0F01F
:1027F0001946DD1703EB957503EBA505281A4FF471
:10280000C87593FBF5F50544601E1DF800002844CB
:102810001044072590FBF5F605FB1600C0B27EBDFF
:102820000003020500030501040602041FB500228F
:10283000114601200BF090F80446142120460BF0BD
:1028400027F820460BF066F800221146104605F0E6
:10285000D5FF05A005F0EEFA094B0FCB8DE80F0070
:10286000684606F021F91FBD427574746F6E206CC6
:10287000696220626F6F7420646F6E6521000000D2
:10288000A816010810B50022114601200BF064F8CB
:1028900004461E2120460AF0FBFF20460BF03AF8C2
:1028A000002005F0C9FF5021002006F0A7F804A081
:1028B00005F0C0FA084A0021042005F09FFF10BD72
:1028C00042757A7A6572206C696220626F6F74203B
:1028D000646F6E6521000000431900081FB50022D7
:1028E000114601200BF038F80446282120460AF052
:1028F000CFFF20460BF00EF800221146104605F0DF
:10290000B5FF00200D4908703220487009208870FA
:102910001820C8700620487140F2E470C880002278
:10292000042005F0A3FF06A005F084FA0A4B0FCBA4
:102930008DE80F00684606F0B7F81FBDD8010020EB
:1029400043616C656E646172206C696220626F6FB6
:102950007420646F6E652100B816010810B58AB046
:102960000022114601200AF0F7FF044632212046DA
:102970000AF08EFF20460AF0CDFF002005F094FFFC
:1029800003208DF8000038220D210DF11500FDF710
:10299000D1FC684606F04EF804A005F04BFA094A4F
:1029A0000021052005F062FF0AB010BD476C61737D
:1029B000734C6364206C696220626F6F7420646F73
:1029C0006E652100CD2100081FB5002211460120AF
:1029D0000AF0C2FF04461E2120460AF059FF204695
:1029E0000AF098FF0021084605F078FF0121002039
:1029F00005F074FF07A005F01DFA0B4A0021042022
:102A000005F0FCFE094B0FCB8DE80F00684606F081
:102A10004BF81FBD4C656473206C696220626F6F58
:102A20007420646F6E65210009190008981601086A
:102A30001FB511A11448FDF79CFC10201349087024
:102A40001348144908600022114601200AF084FF4F
:102A500004460A2120460AF01BFF20460AF05AFFCE
:102A60000D4B0FCB8DE80F00684605F053FF0BA010
:102A700005F0E0F91FBD0000436F736B756E2045D4
:102A80005247414E00000000CC6500205802002053
:102A9000E2010020DC650020E81601084D6F646249
:102AA0007573206C696220626F6F7420646F6E654D
:102AB000210000007FB50022114601200AF04CFFE2
:102AC0000446462120460AF0E3FE20460AF022FF93
:102AD000002000F0CBF8054642F210722946002093
:102AE00005F034FF05A005F0A5F90B4B0FCB8DE8E1
:102AF0000F00684605F0D8FF7FBD000054656D707B
:102B000065726174757265206C696220626F6F74A2
:102B100020646F6E65210000D81601087FB5002281
:102B2000114601200AF018FF04463C2120460AF015
:102B3000AFFE20460AF0EEFE002000F097F80546B2
:102B400042F210722946002005F01EFF05A005F094
:102B500071F90A4B0FCB8DE80F00684605F0A4FF12
:102B60007FBD0000566F6C74616765206C696220E0
:102B7000626F6F7420646F6E65210000C8160108D3
:102B800070B504460025092C06D2DFE804F0060ED5
:102B9000161E262E363E460000BF4FF40051314827
:102BA00001F01AF900B901253FE04FF480612D488A
:102BB00001F012F900B9012537E04FF4806129488E
:102BC00001F00AF900B901252FE04FF48061254892
:102BD00001F002F900B9012527E04FF48061214896
:102BE00001F0FAF800B901251FE04FF480611D489B
:102BF00001F0F2F800B9012517E04FF4806119489F
:102C000001F0EAF800B901250FE04FF480611548A2
:102C100001F0E2F800B9012507E04FF480611148A6
:102C200001F0DAF800B9012500BF00BF012D0BD17A
:102C30002146002005F0C6FE0120A0400A4909886F
:102C40000843094908800AE02146012005F0BAFE40
:102C50000120A04004490988814303480180284697
:102C600070BD0000000800480402002010B50446B2
:102C700014B1012C16D10AE00C48006820B90020DC
:102C80000AF06CFD094908600848006810BD084852
:102C9000006820B900200AF061FD05490860044879
:102CA0000068F3E700BF00BF0020EFE7C801002085
:102CB000CC01002010B5034803F036F9014801F0BB
:102CC00038F910BDD067002010B5134813490860CB
:102CD0004FF4000048604FF47011104881600C21DF
:102CE000C1604021016102214161C9028161091174
:102CF000C161202101620021416281624FF4804163
:102D0000C1620021016303F06FF9044801F026F964
:102D1000FDF756FF10BD000000240040D0670020E2
:102D200070B504460D4665B90D4850F83400C243ED
:102D30000B4800EBC400002341680A4803F046FA40
:102D40000CE0074850F8343050F83400C2430448CF
:102D500000EBC4004168034803F038FA70BD00007E
:102D600030180108D067002070B5054600241CE02B
:102D700065B90F4850F83400C2430D4800EBC40059
:102D8000002341680B4803F021FA0CE0084850F892
:102D9000343050F83400C243054800EBC4004168A9
:102DA000044803F013FA601CC4B21B2CE0DB70BDB6
:102DB00030180108D067002010B5044620780A2892
:102DC0003DD2DFE800F0050F191D22272C303438E2
:102DD00094ED021BB0EE410AF0EE610A0020FEF70E
:102DE0000DF92DE094ED021BB0EE410AF0EE610A00
:102DF0000120FEF703F923E02069FDF7FDFE1FE047
:102E000004F11500FEF734FB1AE060780121FFF7AA
:102E100087FF15E060780021FFF782FF10E00120B6
:102E2000FFF7A2FF0CE00020FFF79EFF08E0074835
:102E300001F03CF804E02069FDF7CAFE00E000BFA5
:102E400000BF024803F0A0F910BD0000D0670020C9
:102E5000F8B504460D460020009000BF94F85000DD
:102E6000012801D10220F8BD012084F8500000BFE4
:102E70002046FDF70BFE06468EBB606D20F48850A1
:102E800040F002006065206881681B4A114005F02F
:102E9000804242F000421143816000BF13E000987D
:102EA000401C00900098B0F5912F0CD3606D20F07D
:102EB000020040F01000606500BF002084F8500060
:102EC00000BF0120CFE720688168C90F0029E6D143
:102ED000606D20F0020040F00100606504E0FFE753
:102EE000606D40F01000606500BF002084F8500065
:102EF00000BF3046B7E70000C0FFFF3F2DE9F84FA5
:102F000005460C464FF0000A00200090FE49E0689C
:102F1000884200D000E000BF00BF95F850000128B3
:102F200002D1022000F05CBA012085F8500000BFF9
:102F3000286803F083F9002872D1606805281AD840
:102F40006068022806D0032807D0042808D0052886
:102F50000DD108E00C2060600CE01220606009E0F8
:102F60001820606006E04FF48070606002E0062088
:102F7000606000BF00BF2968D4E9002001F1300C77
:102F8000C0F3012B0CEB8B03D3F800C000F01F0E35
:102F90004FF01F0B0BFA0EFB2CEA0B0C00F01F0B73
:102FA000C2F3846E0EFA0BFE4CEA0E0CC3F800C09E
:102FB00000BF286803F042F98146286803F02AF927
:102FC0008046B9F1000F2AD1B8F1000FFBD1A268F9
:102FD0002168286803F048F960692968C968C1F365
:102FE000C101490000FA01F72069042819D02868B6
:102FF0002268216900F1600C0CEB8103D3F800C05A
:10300000DFF808B30CEA0B0C02F0F84B4BF0004B66
:103010004BEA070B4CEA0B0CC3F800C000BFA8E05A
:10302000C2E10021286803F0ECF8C0F3120030B9C7
:103030000021286803F0E5F8C0F3846007E0002170
:10304000286803F0DEF890FAA0F0B0FA80F021686A
:10305000C1F3120119B92168C1F3846104E0216848
:1030600091FAA1F1B1FA81F1884204D1002211460E
:10307000286803F013F90121286803F0C2F8C0F3AF
:10308000120030B90121286803F0BBF8C0F3846056
:1030900007E00121286803F0B4F890FAA0F0B0FA34
:1030A00080F02168C1F3120119B92168C1F384616C
:1030B00004E0216891FAA1F1B1FA81F1884204D1CA
:1030C00000220121286803F0E9F80221286803F0B2
:1030D00098F8C0F3120030B90221286803F091F883
:1030E000C0F3846007E00221286803F08AF890FAB0
:1030F000A0F0B0FA80F02168C1F3120119B921687B
:10310000C1F3846104E0216891FAA1F1B1FA81F17F
:10311000884204D100220221286803F0BFF803216D
:10312000286803F06EF8C0F3120030B90321286854
:1031300003F067F8C0F3846007E00321286803F018
:1031400060F890FAA0F0B0FA80F02168C1F31201A3
:1031500019B92168C1F3846104E0216891FAA1F1F1
:10316000B1FA81F1884204D100220321286803F0DA
:1031700095F8286803F058F8002870D12868E268AC
:103180002168D0F8B0C0C1F312032CEA030C02F09E
:10319000180B5F4B23FA0BF30B404CEA030CC0F8FF
:1031A000B0C000BF5849E068884258D12368C3F3D3
:1031B00012031BB92368C3F3846304E0236893FA02
:1031C000A3F3B3FA83F35B1C03F01F03092B3ED870
:1031D0002368C3F312031BB92368C3F3846304E0B9
:1031E000236893FAA3F3B3FA83F35B1C03F01F0382
:1031F0004FF0010C0CFA03FC2368C3F312031BB954
:103200002368C3F3846304E0236893FAA3F3B3FA57
:1032100083F35B1C03F01F034CEA836C2368C3F346
:1032200012031BB92368C3F3846304E0236893FA91
:10323000A3F3B3FA83F35B1C03F01F0303EB430315
:103240004FF0000B4BEA03534CEA03033FE02368C3
:10325000C3F3120323B92368C3F3846305E03BE09F
:10326000236893FAA3F3B3FA83F35B1C03F01F0301
:103270004FF0010C0CFA03FC2368C3F312031BB9D3
:103280002368C3F3846304E0236893FAA3F3B3FAD7
:1032900083F35B1C03F01F034CEA836C2368C3F3C6
:1032A00012031BB92368C3F3846304E0236893FA11
:1032B000A3F3B3FA83F35B1C03F01F030A3B03EB96
:1032C00043034FF0007B4BEA03534CEA03031946D8
:1032D000A268286802F0C8FF0E4920680840A0B321
:1032E00000BF0D48806800F0E07600BF0B49206801
:1032F000884233D106F4000040BB0949286888425F
:1033000014D0084928680FE000007F4000F0FF0358
:10331000FFFF07000000088000030450000052C7B0
:103320000000045000020450884243D146F40001DA
:10333000244802F0ADFF244800682449B0FBF1F0B6
:1033400000EB40008000009004E01BE006E00098E5
:10335000401E009000980028F9D12BE01C492068FD
:10336000884210D106F0807068B91A4928688842EE
:1033700003D01949286888421CD146F08071114851
:1033800002F086FF16E015492068884212D106F443
:10339000800078B90F49286888420BD146F4800133
:1033A000084802F075FF05E0686D40F02000686590
:1033B0004FF0010A00BF002085F8500000BF5046C2
:1033C000B0E50000000304501C000020400D030085
:1033D000000084CB00000450000204500100008073
:1033E00018BCBDE8E08F000070B504460CB90120A0
:1033F00070BD606D40F00200606503212046FDF75E
:10340000B7FA05462068C06840F400102168C8601B
:1034100035B92046FDF73AFB05460DB90120606538
:10342000206840686FF30A002168486040F2FF702E
:10343000216808602068806820F0A04021688860CA
:103440002068806840F00050216888602068C0686B
:10345000514908402168C8602068C06840F00040B9
:103460002168C860206800696FF30A00216808615C
:103470002068406900F04040216848612068806908
:1034800000F07840216888612068006A00F0F02030
:10349000216808622068406A00F0FF2021684862C5
:1034A0002068806A00F0FF20216888622068006B35
:1034B0003A490840216808632068406B3749103951
:1034C0000840216848632068806B344910390840FF
:1034D000216888632068C06B40F2DF7188432168EF
:1034E000C8632068006E2E4908402168086620687D
:1034F000406E2B490840216848662068806E284944
:103500000840216888662068C06E25490840216807
:10351000C8662068D0F8A0006FF312002168C1F8D7
:10352000A0002068D0F8A4006FF312002168C1F851
:10353000A4002068D0F8B0006FF312002168C1F831
:10354000B0002068D0F8B40020F07F102168C1F8E6
:10355000B400144802F068FE0646134802F064FE08
:103560000643124802F060FE064336B91048006870
:10357000104908400B49C1F80803204600F031F912
:103580000020A065E06500212166606500BF84F829
:10359000500000BF28462BE704800080300882E0FE
:1035A00000F0FF030000045000010450000204502A
:1035B00008030450E01000FE01460868006C7047E4
:1035C0002DE9F84F04464FF000090020009014B98F
:1035D000012000F003B9206920B12020005D0128FE
:1035E00000D100BF606D30B9204600F0FBF800202C
:1035F000A06584F8500020688168C1F3407131B142
:10360000206881686C4A1140816000BF00BF20685B
:1036100002F00FFEA0B920688168684A114041F0AD
:103620008051816000BF664800686649B0FBF1F0D8
:10363000009002E00098401E009000980028F9D108
:10364000206802F0F6FD48B9606D40F0100060653A
:10365000A06D40F00100A0654FF00109206802F064
:10366000EDFD0646606D00F0100000287BD1002EB5
:10367000FCD1606D20F4807040F00200606520682D
:1036800002F0D2FDD0B9504802F0CEFD82464F483C
:1036900002F0CAFD4AEA000A4D4802F0C5FD4AEAB6
:1036A000000ABAF1000F09D160684A49896821F41B
:1036B0007C110143474A916000BF00BF607E616B8F
:1036C00041EA4030E1680843A16808432021095DD0
:1036D00040EA01452020005D012803D1A08C401E56
:1036E00045EA4045A06A28B1208D00F47070E16A77
:1036F000084305432068C0683749084028432168CB
:10370000C860206802F09AFD8046206802F082FDC1
:103710000746B8F1000F2DD127BB207E002141EADA
:10372000803194F8300041EA40052068C06844F2D6
:103730000201884328432168C86094F838000128B2
:1037400012D1E06B40F00101206C0843616C08432A
:10375000A16C08432168096940F2FC729143084357
:103760002168086106E01FE02068006920F0010080
:10377000216808612069012809D12068006B20F0C8
:103780000F00E169491E08432168086305E02068CD
:10379000006B20F00F0021680863606D20F00200CC
:1037A00040F00100606505E0606D40F0100060656C
:1037B0004FF0010948460CE7C0FFFF5FC0FFFF7FE5
:1037C0001C000020400D03000000045000010450C4
:1037D000000204500003045007C0F0FF18BCBDE80D
:1037E000E08F7047704700002DE9F04704460F4610
:1037F000464802F001FD05466069082801D1082607
:103800001FE01DB1052D01D0092D0DD12068C06824
:1038100000F0010030B1606D40F0200060650120D3
:10382000BDE8F08704260CE000BF3848806800F44B
:10383000604028B1606D40F0200060650120EFE736
:10384000042600F0DDFA804613E0781C88B100F011
:10385000D7FAA0EB0800B84200D857B9606D40F025
:103860000400606500BF002084F8500000BF032002
:10387000D6E72068006830400028E6D0606D40F44C
:1038800000706065206802F0DEFC98B1607E88B947
:103890002068006800F0080008280BD1606D20F453
:1038A00080706065606D00F4805018B9606D40F004
:1038B0000100606516492068884201D1154800E082
:1038C00020682168884204D01DB1052D01D0092D42
:1038D00003D12068D0F80C9009E00D492068884297
:1038E00001D10C4800E020688246DAF80C90082EDE
:1038F00003D108202168086005E009F4804010B970
:103900000C202168086000208AE7000000030450B2
:1039100000010450000004502DE9F04104464248E3
:1039200002F06AFC0646206802F088FC002877D185
:1039300000BF94F85000012802D10220BDE8F081B8
:10394000012084F8500000BF2046FDF7E3F805464B
:10395000002D60D1606D40F60161884340F48070B5
:10396000606532492068884201D1314800E0206812
:103970002168884200D01EB9606D20F48010606517
:10398000606D00F48050B0F5805F04D1A06D20F030
:103990000600A06501E00020A0651C2021680860E9
:1039A00000BF002084F8500000BF204920688842F2
:1039B00001D11F4800E020682168884204D01EB170
:1039C000052E01D0092E0ED12068C06800F00070CD
:1039D00028B1606D20F4005040F48050606520688C
:1039E00002F03AFC1DE0606D40F4801060650F4904
:1039F0002068884201D10E4800E020680746F86838
:103A000000F0007068B1606D20F4005040F4805008
:103A1000606506E004E000BF002084F8500000E08C
:103A2000022528468AE700000003045000010450E4
:103A30000000045070B50446002594F825000228C3
:103A400003D00420E063012520E02068006820F016
:103A50000E00216808602068006820F001002168DD
:103A6000086094F8440000F01C0101208840216C9B
:103A70004860012084F8250000BF002084F824005D
:103A800000BFA06B10B12046A16B8847284670BDCF
:103A9000F0B50B46002187E001258D4005EA0302C1
:103AA000002A7DD0434D8E0855F826408D072E0FF5
:103AB0000F25B5402C40B0F1904F01D100251EE0FC
:103AC0003D4DA84201D1012519E03C4DA84201D14C
:103AD000022514E03A4DA84201D103250FE0394DEB
:103AE000A84201D104250AE0374DA84201D105259D
:103AF00005E0364DA84201D1062500E007258E07D6
:103B0000360FB540A54221D1314D2D689543304E39
:103B10003560351D2D689543361D3560351D2D6882
:103B20009543361D3560351D2D689543361D35602E
:103B30008D072E0F0F2505FA06F41E4D8E0855F839
:103B40002650A5431B4E8F0846F8275005684F00A6
:103B50000326BE4035430560CE0800F1200555F828
:103B600026504E07F70E0F26BE40B543CF0800F192
:103B7000200646F8275085684F000326BE40B5430F
:103B80008560466801258D40AE434660C5684F009C
:103B90000326BE40B543C560C56A01268E4000E0DD
:103BA00001E0B543C562491C23FA01F5002D7FF4FD
:103BB00073AFF0BD08000140000400480008004851
:103BC000000C00480010004800140048001800488D
:103BD0000004014078B503460022E5E00126964046
:103BE0000D6805EA0604002C7DD04D68022D02D038
:103BF0004D68122D13D1D60803F1200555F8260083
:103C00005507EE0E0F25B540A8435607F60E0D6971
:103C1000B5402843D60803F1200545F8260018686A
:103C200056000325B540A8430D7905F0030556005D
:103C3000B540284318604D68012D08D04D68022D0D
:103C400005D04D68112D02D04D68122D13D1986802
:103C500056000325B540A8435600CD68B54028431B
:103C60009860586801259540A8430D79C5F3001563
:103C70009540284358600D7905F00305032D09D1BF
:103C8000D86A01259540A8430D79C5F3C005954034
:103C90002843D862D86856000325B540A84356008B
:103CA0008D68B5402843D8604D6805F08055B5F162
:103CB000805F78D100BF3F4D2D6E45F001053D4E30
:103CC000356635462D6E05F00105009500BF00BF35
:103CD0004FEAB635960855F8260095072E0F0F25A2
:103CE000B540A84300E05EE0B3F1904F01D100255C
:103CF0001EE0314DAB4201D1012519E02F4DAB4201
:103D000001D1022514E02E4DAB4201D103250FE075
:103D10002C4DAB4201D104250AE02B4DAB4201D121
:103D2000052505E0294DAB4201D1062500E0072518
:103D30009607360FB5402843254D960845F82600CE
:103D4000244D2868A0434D6805F48035B5F5803FC3
:103D500000D120431F4D28602D1D2868A0434D68C9
:103D600005F40035B5F5003F00D12043194D2D1D58
:103D700028602D1D2868A0434D6805F48015B5F511
:103D8000801F00D12043134D083528602D1D286861
:103D9000A0434D6805F40015B5F5001F00D1204380
:103DA0000C4D0C352860521C0D68D540002D7FF459
:103DB00015AF78BD0010024000040048000800481C
:103DC000000C00480010004800140048001800488B
:103DD0000800014000040140024613690B400BB18A
:103DE000012000E00020704742690A400AB1816268
:103DF00000E0816170470AB1816100E08162704733
:103E000001480068704700001000002001464AF693
:103E1000AA200A681060002070470000034800686C
:103E200003490968084401490860704710000020F0
:103E30001800002010B50024032000F04FFB0F20D5
:103E400000F008F808B1012401E000F0A5FA2046CE
:103E500010BD000070B50446002511480068D8B1B7
:103E60000F4800684FF47A71B1FBF0F00D49096812
:103E7000B1FBF0F6304601F05DFC58B9102C07D2CA
:103E800000222146501E00F0E7FA0748046004E0D3
:103E9000012502E0012500E00125284670BD000053
:103EA000180000201C000020140000202DE9F04123
:103EB00004464FF0010894F83570012F01D0022F0D
:103EC00035D100BF94F83400012802D10220BDE8AA
:103ED000F081012084F8340000BF022084F835000E
:103EE000FFF78EFF06460EE0FFF78AFF801BB0F556
:103EF0007A7F08D90220A06300BF002084F8340034
:103F000000BF0320E3E720688068C0F3800000283A
:103F1000EAD1002505E000212068143040F8251082
:103F20006D1C0F2DF7D9204600F0A6F880464046BC
:103F3000CDE710B504460CB9012010BD022084F86D
:103F40003500204600F096F80020A06384F8350084
:103F500000BF84F8340000BF00BFEEE72DE9F04158
:103F6000044614B90120BDE8F08194F8350028B961
:103F7000002084F83400204600F07DF8022084F808
:103F800035002068006820F00100216808600026E4
:103F900005E000212068143040F82610761C0F2E12
:103FA000F7D92068806840F0040021688860D4E96F
:103FB00001010843A16A0843E16A0843E169084333
:103FC000216A0843A1690843616A08432168496876
:103FD000274A1140084321684860204602F0DEF875
:103FE00007460FB13846BEE7D4E9030108436169CB
:103FF0000843216B08432168096821F0FE0108434A
:10400000216808602068006840F0010021680860AD
:10401000FFF7F6FE054609E0FFF7F2FE401BB0F59C
:104020007A7F03D90820A06303209CE7206880687A
:1040300000F001000028EFD0FFF7E2FE054609E09E
:10404000FFF7DEFE401BB0F57A7F03D91020A06396
:10405000032088E720688068C0F300100028EFD0B4
:104060000020A063012084F8350038467BE700007B
:104070000E0000FC7047704770B5044608202168A8
:10408000C8602068806840F0040021688860FFF7FD
:10409000B7FE05460EE0FFF7B3FE401BB0F57A7F92
:1040A00008D90420A06300BF002084F8340000BFBA
:1040B000032070BD20688068C0F3C0000028EAD0EB
:1040C000012084F8350000BF002084F8340000BFD0
:1040D00000BFEEE77047704701214FF090429161B9
:1040E0009162014A116070470800002070477047D4
:1040F000704710B504462068006800F0010050B118
:104100002068806800F0010028B101202168486023
:104110002046FFF7E1FF20680068C0F3400050B17F
:1041200020688068C0F3400028B102202168486000
:104130002046FFF7CFFF20680068C0F3800050B131
:1041400020688068C0F3800028B10420216848609E
:10415000204600F01FF920680068C0F3C00050B18D
:1041600020688068C0F3C00028B10820216848603A
:104170002046FFF7BBFF20680068C0F3001050B175
:1041800020688068C0F3001028B1102021684860C2
:104190002046FFF7A0FF20680068C0F3401050B130
:1041A00020688068C0F3401028B120202168486052
:1041B0002046FFF79DFF20680068C0F3801050B1D3
:1041C00020688068C0F3801028B1402021684860D2
:1041D0002046FFF78CFF10BD70B504460CB90120D6
:1041E00070BD6068012800D100BF4FF6FF716069A3
:1041F000884200D000BF94F8360028B9002084F827
:104200003500204600F050F8022084F8360020687F
:10421000C5686068012803D0A06AB0F5000F01D11D
:1042200025F01E054FF6FF716069884202D04EF2FC
:10423000C00085431A480540D4E901010843216ABA
:104240000843616A0843A16A08430543606801287E
:1042500003D0A06AB0F5000F03D1D4E903100843DE
:1042600005434FF6FF716069884205D0D4E9051017
:104270000843E169084305432068C560094920688F
:10428000884205D1D4E90B0108432168086202E0A5
:104290002168E06A0862012084F8360000209FE768
:1042A000F8F119FF007C004038B504460D4920683C
:1042B000884215D100BF0C48806D40F000400A498B
:1042C00088650846806D00F00040009000BF00BF88
:1042D00000220F21412000F0BFF8412000F0ACF88F
:1042E00038BD0000007C0040001002400146086814
:1042F000C069704710B50346022083F836001348A2
:10430000006840F00100114C20601868C06840F45B
:1043100000201C68E0601868806840F001001C689C
:10432000A0601868006940F001001C6820611868EE
:104330008161186842611868006940F004001C68D7
:104340002061012083F83600002010BD20040140C8
:1043500010B50446022084F836000D48006820F0AD
:1043600001000B490860204601F0C6FF2068C068C4
:1043700020F400202168C8602068806820F00100D7
:1043800021688860012084F83600002010BD0000FC
:10439000200401407047000008B500BF1448006EBB
:1043A00040F00100124908660846006E00F0010066
:1043B000009000BF00BF002205216FF00B0000F04D
:1043C0004BF8002205216FF00A0000F045F80022AA
:1043D00005216FF0090000F03FF800220521101FB1
:1043E00000F03AF800220521881F00F035F808BDDA
:1043F0000010024010B501460846002817DB00F007
:104400001F0301229A400B4B440943F8242000BFAC
:1044100000BF00BFBFF34F8F00BF00BF00BF00BF92
:1044200000BF00BFBFF36F8F00BF00BF00BF00BF62
:1044300010BD000080E100E001460846002809DBCD
:1044400000F01F0301229A4043099B0003F1E0237F
:10445000C3F8002100BF70472DE9F05F80460D468C
:104460001646002707F060F9074639462A463346C4
:1044700001F00700C0F1070ABAF1040F02D94FF0AA
:10448000040A01E0C0F1070AD14600F1040ABAF1BA
:10449000070F02D24FF0000A01E0A0F1030AD44650
:1044A0004FF0010A0AFA09FAAAF1010A0AEA020A15
:1044B0000AFA0CFA4FF0010B0BFA0CFBABF1010BF3
:1044C0000BEA030B4AEA0B042146404607F034F995
:1044D00000F000B830BCBDE8C09F000000BF00F095
:1044E0000702064B19684FF6FF031940044B0B43B4
:1044F00043EA0221014B196000BF70470CED00E058
:104500000000FA050246B2F5007F2AD11D48006876
:1045100000F4C060B0F5007F32D01A48006820F483
:10452000C06040F40070174B1860174800683223D1
:104530005843164BB0FBF3F0411C00E0491E1148F4
:10454000406900F48060B0F5806F01D10029F5D199
:104550000C48406900F48060B0F5806F10D10320F2
:1045600070470848006800F4C060B0F5806F07D05D
:104570000448006820F4C06040F48060014B18607B
:104580000020EDE7007000401C00002040420F00BA
:104590000D49096821F00701891C0B4A11600B497C
:1045A000096841F00401094A1160012801D130BFB6
:1045B00002E040BF20BF20BF0449096821F0040188
:1045C000024A1160704700000070004010ED00E0EA
:1045D0000248006800F4C0607047000000700040AE
:1045E0002DE9F84304460025A846208800F4006021
:1045F000B0F5006F30D1606E80B1B0F5800F13D090
:10460000B0F5000F03D0B0F5400F15D113E0FB4813
:10461000C06840F48030F949C8600FE00021201DD7
:1046200002F0D4FE054609E0002104F1200002F06A
:1046300093FF054602E001E0012500BF00BF55B928
:10464000EE488830006820F44000616E0843EB4972
:10465000C1F8880000E0A846208800F48050B0F53A
:10466000805F30D1A06E80B1B0F1807F13D0B0F107
:10467000007F03D0B0F1407F15D113E0DF48C06860
:1046800040F48030DD49C8600FE00021201D02F0B9
:104690009DFE054609E0002104F1200002F05CFFC8
:1046A000054602E001E0012500BF00BF55B9D3482F
:1046B0008830006820F04070A16E0843CF49C1F8EF
:1046C000880000E0A846206800F40030B0F5003F04
:1046D00077D14FF00009C948806D012121EA10709F
:1046E00078B100BFC548806D40F08050C3498865EF
:1046F0000846806D00F08050009000BF00BF4FF072
:104700000109BF48006840F48070BD490860FFF7A8
:1047100077FB074606E0FFF773FBC01B022801D9B1
:10472000032505E0B648006800F480700028F2D048
:1047300000BF85BBB1489030006800F44076D6B128
:10474000D4F88400B04216D0AC489030006820F411
:104750004076AA48D0F8900040F48030A749C1F8CC
:1047600090000846D0F8900020F48030C1F8900006
:104770000846C0F8906006F00100A8B1FFF740FBC2
:10478000074609E0FFF73CFBC01B41F28831884235
:1047900002D9032507E017E098489030006800F040
:1047A00002000028EED000BF65B994489030006840
:1047B00020F44070D4F8841008439049C1F8900068
:1047C00003E00CE0A84600E0A846B9F1010F05D1CE
:1047D0008A48806D20F080508849886500BF207825
:1047E00000F0010048B185488830006820F00300DF
:1047F000A16B08438149C1F88800207800F00200CD
:10480000022809D17D488830006820F00C00E16B57
:1048100008437A49C1F88800207800F00400042891
:1048200009D176488830006820F03000216C0843B8
:104830007249C1F88800207800F00800082809D1E2
:104840006E488830006820F0C000616C08436B49F6
:10485000C1F88800207800F01000102809D16748BE
:104860008830006820F44070A16C08436349C1F8A7
:104870008800207800F02000202809D15F48883087
:10488000006820F44060E16C08435C49C1F888008E
:10489000208800F40070B0F5007F09D157488830B7
:1048A000006820F44020E16D08435449C1F88800B5
:1048B000208800F48060B0F5806F09D14F488830BF
:1048C000006820F44010216E08434C49C1F888006C
:1048D000207800F04000402809D14848883000681E
:1048E00020F44050216D08434449C1F888002078E5
:1048F00000F08000802809D140488830006820F40A
:104900004040616D08433D49C1F88800208800F4AB
:104910008070B0F5807F09D138488830006820F475
:104920004030A16D08433549C1F88800208800F463
:104930000050B0F5005F1FD130488830006820F08B
:104940004060E16E08432D4988310860E06EB0F1A7
:10495000006F06D12948C06840F480102749C8601C
:104960000AE0E06EB0F1806F06D10121201D02F057
:104970002DFD054605B1A846206800F40020B0F5DD
:10498000002F1FD11D488830006820F04060216F43
:1049900008431A4988310860206FB0F1006F06D1D2
:1049A0001648C06840F480101449C8600AE0206FBF
:1049B000B0F1806F06D10121201D02F007FD0546F0
:1049C00005B1A846206800F48020B0F5802F24D1DE
:1049D0000A488830006820F04060616F084307494A
:1049E00088310860606FB0F1006F0BD10348C06878
:1049F00040F480100149C8600FE000000010024040
:104A000000700040606FB0F1806F06D10121201D61
:104A100002F0DCFC054605B1A846208800F4804081
:104A2000B0F5804F1FD12248006820F04050A16FA0
:104A300008431F490860A06FB0F1805F07D10221D1
:104A4000201D02F0C3FC05466DB1A8460BE0A06F27
:104A5000B0F1005F07D1022104F1200002F07CFDDB
:104A6000054605B1A846208800F40040B0F5004F87
:104A700009D10F48006820F08040E16F08430C49DD
:104A80008839C1F88800206800F48030B0F5803F94
:104A90000AD10748006820F00040D4F8801008438D
:104AA00003498839C1F888004046BDE8F883000012
:104AB000881002402DE9F04104460D4614B901204A
:104AC000BDE8F0815548006800F00700A8420ED20A
:104AD0005248006820F00700284350490860084603
:104AE000006800F00700A84201D00120E8E7207824
:104AF00000F00100002840D06068032806D1484833
:104B0000006800F00070D8B90120D9E76068022879
:104B100006D14348006800F4003088B90120CFE78F
:104B2000606830B93E48006800F0020040B90120DA
:104B3000C6E73B48006800F4806008B90120BFE781
:104B40003748806820F00300616808433449886072
:104B5000FFF756F9064608E0FFF752F9801B41F2CD
:104B60008831884201D90320AAE72D48806800F0E7
:104B70000C006168B0EB810FEED1207800F00200EC
:104B8000022807D12648806820F0F000A168084379
:104B9000234988602148006800F00700A8420ED928
:104BA0001E48006820F0070028431C49086008469A
:104BB000006800F00700A84201D0012080E72078BB
:104BC00000F00400042807D11548806820F4E06054
:104BD000E168084312498860207800F0080008283E
:104BE00008D10F48806820F46050216940EAC10074
:104BF0000B49886000F046F809498968C1F3031140
:104C0000084A515C01F01F01C84007490860074885
:104C10000068FFF71FF90746384651E700200240B9
:104C200000100240081601081C000020140000209B
:104C300001480068704700001C00002000B5FFF725
:104C4000F7FF05498968C1F30221044A515C01F06C
:104C50001F01C84000BD00000010024018160108E6
:104C600000B5FFF7E5FF05498968C1F3C221044A91
:104C7000515C01F01F01C84000BD0000001002405F
:104C800018160108F0B500230020DFF8D4C0DCF8C6
:104C900008C00CF00C01DFF8C8C0DCF80CC00CF048
:104CA000030719B10C291ED1012F1CD1DFF8B0C0A8
:104CB000DCF800C00CF0080CBCF1000F06D1DFF8E6
:104CC000A0C0DCF894C0CCF3032305E0DFF890C06B
:104CD000DCF800C0CCF30313DFF888C05CF82330A5
:104CE00041B9184606E0042901D11F4802E008290D
:104CF00000D11E480C2932D1DFF864C0DCF80CC0AA
:104D00000CF00304012C09D0022C02D0032C04D196
:104D100001E0154A04E0154A02E000BF1A4600BF50
:104D200000BFDFF83CC0DCF80CC0CCF3021C0CF177
:104D30000106DFF82CC0DCF80CC0CCF3062C0CFB11
:104D400002FCBCFBF6F2DFF818C0DCF80CC0CCF3B8
:104D5000416C0CF1010C4FEA4C05B2FBF5F0F0BDD3
:104D600000100240201601080024F40000127A000E
:104D70002DE9F843044614B90120BDE8F883F94849
:104D8000806800F00C07F748C06800F00306207840
:104D900000F01000102876D11FB10C2F75D1012E14
:104DA00073D1F048006800F0020018B1A06908B99A
:104DB0000120E2E7EB48216A006800F0080020B11A
:104DC000E848006800F0F00005E0E648943000682C
:104DD00000F47060000981421FD9206A02F06EFC65
:104DE00008B10120C9E700BFDE48006840F00800B4
:104DF000DC4908600846006820F0F000216A08439A
:104E0000D849086000BF0846406820F47F40E16947
:104E100040EA0120D34948601EE000BFD148006845
:104E200040F00800CF4908600846006820F0F00014
:104E3000216A0843CB49086000BF0846406820F457
:104E40007F40E16940EA0120C6494860206A02F0DB
:104E500035FC08B1012090E7FFF714FFC1498968CC
:104E6000C1F30311C04A515C01F01F01C840BF49A2
:104E70000860BF480068FEF7EDFF8046B8F1000FFC
:104E80004ED0404679E74BE0FFE7A06980B3B548D4
:104E9000006840F00100B3490860FEF7B1FF054625
:104EA00006E0FEF7ADFF401B022801D9032064E7AE
:104EB000AC48006800F002000028F2D000BFA9480A
:104EC000006840F00800A74908600846006820F024
:104ED000F000216A0843A349086000BF0846406803
:104EE00020F47F40E16940EA01209E49486017E0D4
:104EF000FFE79C48006820F001009A490860FEF72F
:104F00007FFF054606E0FEF77BFF401B022801D924
:104F1000032032E79348006800F002000028F2D135
:104F2000207800F0010000285CD0082F03D00C2F5F
:104F30000AD1032E08D18B48006800F4003088B3F2
:104F4000606878BB012018E700BF6068B0F5803F5B
:104F500006D18448006840F48030824908601AE035
:104F60006068B0F5A02F0BD17E48006840F4802027
:104F70007C4908600846006840F4803008600AE018
:104F80007848006820F48030764908600846006858
:104F900020F48020086000BF606890B1FEF730FF09
:104FA000054607E01EE0FEF72BFF401B642801D9F1
:104FB0000320E2E66B48006800F400300028F2D0DD
:104FC00010E0FEF71DFF054606E0FEF719FF401B47
:104FD000642801D90320D0E66248006800F400305C
:104FE0000028F2D1207800F00200022852D1042FCC
:104FF00003D00C2F14D1022E12D15A48006800F4AD
:10500000806018B1E06808B90120B6E655484068EC
:1050100020F0F850217C40EA01605249486039E0B4
:10502000E06800B34F48006840F480704D49086064
:10503000FEF7E6FE054606E0FEF7E2FE401B02280C
:1050400001D9032099E64748006800F480600028F1
:10505000F2D04448406820F0F850217C40EA0160DA
:105060004049486016E03F48006820F480703D49A0
:105070000860FEF7C5FE054606E0FEF7C1FE401BD0
:10508000022801D9032078E63648006800F48060E1
:105090000028F2D1207800F00800082836D1606995
:1050A000D0B130489430006840F001002D49C1F87B
:1050B0009400FEF7A5FE054606E0FEF7A1FE401BA4
:1050C000022801D9032058E626489430006800F0F1
:1050D00002000028F1D019E022489430006820F046
:1050E00001002049C1F89400FEF78AFE054606E05B
:1050F000FEF786FE401B022801D903203DE6194831
:105100009430006800F002000028F1D1207800F00F
:105110000400042873D14FF000091248806D00F09C
:10512000805078B900BF0F48806D40F080500D4925
:1051300088650846806D00F08050009000BF00BF79
:105140004FF001090B48006800F4807008BB094863
:10515000006840F4807007490860FEF751FE05467C
:1051600011E0000000100240081601081C00002099
:105170001400002000700040FEF742FE401B022891
:1051800001D90320F9E59948006800F480700028EF
:10519000F2D000BFA068012808D19548006840F00F
:1051A000010093499039C1F8900021E0A0680528DA
:1051B0000FD18F48006840F004008D499039C1F844
:1051C00090000846D0F8900040F00100C1F890002F
:1051D0000EE08748006820F0010085499039C1F849
:1051E00090000846D0F8900020F00400C1F890002C
:1051F00000BFA068A0B1FEF703FE054609E02EE05F
:10520000FEF7FEFD401B41F28831884201D90320A0
:10521000B3E57748006800F002000028F0D012E003
:10522000FEF7EEFD054608E0FEF7EAFD401B41F201
:105230008831884201D903209FE56D48006800F05D
:1052400002000028F0D1B9F1010F07D16848903869
:10525000806D20F0805066499039886500BFA06A53
:1052600000285BD00C2F78D0A06A022857D1604864
:105270009038006820F080705D4990390860FEF732
:10528000BFFD054606E0FEF7BBFD401B022801D925
:10529000032072E556489038006800F0007000283E
:1052A000F1D1D4E90B10401E41EA0011606B41EAD4
:1052B0000021A08F0122C2EB500041EA4051402062
:1052C000005DC2EB500041EA4061A06B000941EA79
:1052D000404047499039C968464A1140084344490B
:1052E0009039C8600846006840F080700860084641
:1052F000C06840F08070C860FEF782FD054606E099
:10530000FEF77EFD401B022801D9032035E5384811
:105310009038006800F000700028F1D064E0344854
:105320009038006820F08070314990390860084654
:10533000006800F0205020B90846C06820F0030043
:10534000C8602B489038C0682B49084028499039DC
:10535000C860FEF755FD054607E00EE0FEF750FD7C
:10536000401B022801D9032007E521489038006836
:1053700000F000700028F1D136E0A06A012800D1C9
:10538000FBE41B489038C66806F00301E06A8142DE
:1053900028D106F07001206B401EB1EB001F21D117
:1053A00006F4FE41606BB1EB002F1BD106F4003117
:1053B000A06B072801D0012000E00020814211D11C
:1053C00006F4C001A08F0122C2EB5000B1EB405F98
:1053D00008D106F0C0614020005DC2EB5000B1EB87
:1053E000406F01D00120C8E40020C6E400700040F6
:1053F000901002408C809DF9FFFFEEFE014600BF39
:1054000091F82000012801D102207047012081F885
:10541000200000BF022081F8210000BFCA200A68D6
:10542000506253200A68506200BF0868806840F0EC
:1054300020000A68906000BFFF200A68506200BF29
:10544000012081F8210000BF002081F8200000BF6A
:1054500000BFDAE72DE9F04104460E46174600BFCB
:1054600094F82000012802D10220BDE8F08101203B
:1054700084F8200000BF022084F8210000BFCA2069
:105480002168486253202168486200BF2068806814
:1054900020F48060216888602068C06800F0800087
:1054A00060F490602168C8602068C06800F0400027
:1054B000F0B9FEF7A5FC054614E0FEF7A1FC401B81
:1054C000B0F57A7F0ED900BFFF202168486200BF87
:1054D000032084F8210000BF002084F8200000BFD2
:1054E0000320C2E72068C06800F004000028E4D070
:1054F000206846612068806820F0070038432168F2
:1055000088601448006840F480101249086011480F
:105510000830006840F480100E49083108602068A7
:10552000806840F48040216888602068806840F48A
:1055300080602168886000BFFF202168486200BF4A
:10554000012084F8210000BF002084F8200000BF63
:1055500000BF8AE70004014010B50446014806F088
:10556000D5FE10BD0802002010B504464FF480108F
:105570000A4908602068C068C0F3802050B12068E4
:10558000C06800F0800060F490602168C860204628
:10559000FFF7E2FF012084F8210010BD1404014050
:1055A00070B504460125002C48D0022084F8210063
:1055B00000BFCA202168486253202168486200BFAA
:1055C000204602F0FDF80546002D37D1216808601D
:1055D00042F201102168486020688068002021683C
:1055E00088604FF6FF70216848611548216808619E
:1055F00000202168C861216808622168C8622168AA
:10560000C8632168486421688864204602F0FAF87B
:1056100005469DB90020216808642168C86400BF60
:10562000FF202168486200BF204600F065F8002096
:1056300084F8210000BF84F8200000BF284670BD18
:10564000FF007F0070B504460125002C4FD094F870
:10565000210028B9002084F82000204600F04DF8F1
:10566000022084F8210000BFCA202168486253202C
:105670002168486200BF204602F0A2F80546002DCE
:1056800035D1206880681B490840216888602169FD
:1056900060680843A1690843216889680843216854
:1056A00088602168E068086120680169208941EA12
:1056B000004021680861204602F0A4F80546B5B90B
:1056C0002068C06C20F003002168C8646169E0694B
:1056D00008432168C96C08432168C86400BFFF20E3
:1056E0002168486200BF15B9012084F821002846CE
:1056F00070BD0000BFFF8FFF7047704770B5044654
:105700002068C06820F0A0002168C860FEF778FB20
:10571000054607E0FEF774FB401BB0F57A7F01D920
:10572000032070BD2068C06800F020000028F1D080
:105730000020F6E770B504462546681EB0F1807F6C
:1057400001D301200FE0681E4FF0E02148610F21D6
:105750004FF0FF3005F0F0FF00204FF0E0218861AE
:1057600007200861002070BD014600BF91F870005D
:10577000012801D102207047012081F8700000BF8C
:105780000868006840F002000A68106000BF00204E
:1057900081F8700000BF00BFEDE7704770477047A9
:1057A00010B504462068006820F4907021680860F5
:1057B0002068806820F00100216888602068806887
:1057C00000F04000402825D12068806820F040008B
:1057D00021688860E06E50B11548E16E8863E06E24
:1057E000FEF728F910B3E06E816B88471EE00020B9
:1057F000A4F85A0060650F20216808622068008BB9
:1058000040F00800216808832020A0672046FFF7A9
:10581000C6FF0BE00020A4F85A0060650F20216845
:1058200008622020A0672046FFF7B9FF002010BDC6
:10583000ED9D00087047000010B504462068006820
:1058400020F0C000216808602068806800F08000B7
:1058500080281CD12068806820F080002168886042
:10586000A06E50B10F48A16E8863A06EFEF7E2F8FB
:10587000B0B1A06E816B884712E00020A4F85200FE
:105880006066202060672046FFF7D4FF08E0002014
:10589000A4F852006066202060672046FFF7CAFF28
:1058A000002010BD519E000870B5044601252068F7
:1058B000006820F4F070216808602068806820F09B
:1058C000010021688860A06E60B12068806800F0E7
:1058D0008000802803D13048A16E886302E0002058
:1058E000A16E8863E06E60B12068806800F04000BF
:1058F000402803D12948E16E886302E00020E16E70
:1059000088632068806800F08000802810D12068BB
:10591000806820F0800021688860A06E40B1A06E91
:10592000FEF788F818B10020A16E886300E000251A
:105930002068806800F04000402811D1206880680D
:1059400020F0400021688860E06E48B1E06EFEF70C
:1059500071F820B10020E16E8863012500E0002588
:10596000012D16D10020A4F85200A4F85A00206698
:105970006066E0670F20216808622068008B40F0B5
:1059800008002168088320206067A0672046FFF791
:1059900005FF002070BD0000179E0008A79D0008AD
:1059A00010B504460CB9012010BD242060672068A2
:1059B000006820F00100216808600020216808606C
:1059C0002168486021688860204600F015F90020B1
:1059D000E0676067A06700BF84F8700000BF00BF89
:1059E000E2E7000002490968491C014A116070475A
:1059F000800200202DE9F04704462068C569206830
:105A000006682068876805F00F08B8F1000F0CD110
:105A100005F0200048B106F0200030B1206E10B132
:105A20002046216E8847BDE8F087B8F1000F71D09D
:105A300007F0010018B906F49070002879D005F03D
:105A4000010048B106F4807030B10120216808627D
:105A5000E06F40F00100E06705F0020048B107F098
:105A6000010030B1022021680862E06F40F00400BC
:105A7000E06705F0040048B107F0010030B10420F0
:105A800021680862E06F40F00200E06705F008005E
:105A900060B106F0200010B907F0010030B1082015
:105AA00021680862E06F40F00800E067E06F80B3B3
:105AB00005F0200038B106F0200020B1206E10B1B2
:105AC0002046216E8847D4F87C902068806800F0DA
:105AD0004000402802D009F0080020B3204604F01E
