:020000040800F2
:10000000186600207D020008396C0008ED5B0008CE
:10001000556900084D170008C99C00080000000041
:100020000000000000000000000000009D0100082A
:100030005128000800000000F9010008A18D000807
:10004000899E00083D6C00089D8E000849710008DB
:10005000C52900089B02000855280008BD28000893
:10006000F1280008252900085929000879250008E9
:10007000AD250008E12500081526000849260008DE
:100080007D260008B126000821090008B9220008D1
:100090001D22000851220008852200088D29000831
:1000A000D18E00086D8F0008398F0008058F000879
:1000B000A18F0008D58F00089B020008255C00086E
:1000C000F15B00088D5C0008595C0008B17E0008F7
:1000D000E57E00081D9C0008519C0008859C0008D6
:1000E00089280008697000089B0200089B0200082C
:1000F0009B0200089B0200089B0200089B0200086C
:100100009B020008B17100089B020008197F0008DB
:100110001D9300089B020008099000089B0200083C
:10012000E5260008192700084D2700088127000848
:10013000B527000811250008452500089B02000886
:10014000ED22000885600008956000089B02000809
:10015000E92700081D280008C9600008756C000820
:10016000F55C0008C15C00087D7100089B02000876
:100170009B0200083D9000089B0200080000000060
:1001800035700008F9290008DFF80CD000F068FB92
:1001900000480047CDC40008186600202C4B1968A1
:1001A000086800F05AB880F30988BFF36F8F4FF0EA
:1001B000000080F3118870470000000008480068C4
:1001C000006880F308884FF0000080F3148862B65E
:1001D00061B6BFF34F8FBFF36F8F00DF00BF00BF6B
:1001E00008ED00E0DFF80C00016841F470010160E7
:1001F000704700BF88ED00E0EFF30980BFF36F8F19
:10020000134B1A681EF0100F08BF20ED108A20E96A
:10021000F04F106009B44FF0500080F31188BFF325
:100220004F8FBFF36F8F0EF0B1FB4FF0000080F3E4
:10023000118809BC1968086800F014B81EF0100F86
:1002400008BF00F014B880F30988BFF36F8F7047C0
:1002500014000020EFF30580704730C8B0E8C04FAD
:10026000FFF7A1BF30C8B0E8C04FFFF7E7BFB0EC61
:10027000088AB0EC08CAFFF7E6BF000007488047CD
:100280000748804707480047FEE7FEE7FEE7FEE72E
:10029000FEE7FEE7FEE7FEE7FEE7FEE74D8E00081D
:1002A00001090008890100082DE9F05F05460020DA
:1002B00092469B4688460646814640241BE02846D7
:1002C00041464746224600F010F953465A46C01AA6
:1002D000914110D311461846224600F0F7F82D1A26
:1002E00067EB01084F4622460120002100F0EEF89E
:1002F00017EB00094E41201EA4F10104DFDC484643
:1003000031462A46434600F000B830BCBDE8C09FE5
:1003100040EA01039B0703D009E008C9121F08C087
:10032000042AFAD203E011F8013B00F8013B521E07
:10033000F9D27047D2B201E000F8012B491EFBD27E
:1003400070470022F6E710B513460A4604461946E0
:10035000FFF7F0FF204610BD30B5044600200346ED
:1003600000E05B1C934203D2E05CCD5C401BF8D004
:1003700030BD034611F8012B00F8012B002AF9D1FA
:10038000184670472DE9FE4F81EA030404F000444B
:1003900021F0004100944FF0000B23F0004350EA9D
:1003A00001045ED052EA03045BD0C3F30A54C1F3E4
:1003B0000A552C44A4F2F3340194A0FB0254C1F377
:1003C000130141F48011C3F3130343F4801301FBC1
:1003D000024400FB034E840A970A44EA815447EA28
:1003E0008357A4FB076802958D0A05FB07854FEA32
:1003F000932C04FB0C542705029D4FEA065847EA4C
:100400001637B5EB08056EEB070C870E920E47EA20
:10041000811742EA8312A7FB0201B6EB0B0164EBE2
:1004200000042B0D43EA0C335E1844EB1C50DA46F3
:100430005146E7FB0201C5F313044FEA0B3343EACD
:1004400014534FEA0432019C43EA0603A4F10C045E
:100450000294009CCDE900B400F066F803B000F00F
:1004600003B800200146F9E730BCBDE8C08FC1F3F6
:100470000A5210B5C1F3130140F2FF3341F4801169
:100480009A4201DA002010BD40F233439A42A2F2B0
:10049000334203DC524200F028F810BD904010BDFA
:1004A00030B50B46014600202022012409E021FA44
:1004B00002F59D4205D303FA02F5491B04FA02F541
:1004C0002844151EA2F10102F1DC30BD202A04DB14
:1004D000203A00FA02F1002070479140C2F1200357
:1004E00020FA03F3194390407047202A04DB203A96
:1004F00021FA02F00021704721FA02F3D040C2F144
:100500002002914008431946704710B5141E73F13C
:10051000000408DA401C41F1000192185B411A43C3
:1005200001D120F0010010BD2DE9F04D92469B460F
:1005300011B1B1FA81F202E0B0FA80F220329046B5
:10054000FFF7C4FF04460F4640EA0A0041EA0B01E8
:1005500053465A46084313D0114653EA010019D0B6
:10056000C8F140025046FFF7C0FF05460E46504610
:1005700059464246FFF7AAFF084305D0012004E090
:1005800020463946BDE8F08D0020054346EAE07676
:100590002C4337430A986305E40AA0EB08000022C5
:1005A000FD0A44EA47540A3002D500200146E9E733
:1005B000010510196941DDE9084500196941BDE8E7
:1005C000F04DA2E72DE9FE4F804681EA0300C00FFF
:1005D0000C46009021F0004123F00045B8EB0200EA
:1005E000A94105D24046214690461C460B4602468C
:1005F00023F00040104347D0270DC7F30A00C3F390
:100600000A510290401A019040286BDAC3F313009C
:1006100040F4801B0098924620B10023D2EB030ADD
:1006200063EB0B0B01985946C0F140025046FFF7AF
:100630004DFF06460D4650465946019A00F022F9F4
:1006400010EB08006141002487EA115284EAE77345
:100650001A4340D0009A62B3019A012A4FEA075226
:1006600015DC001B61EB02014FF0004202EA075269
:10067000CDE90042001C41F5801132462B46FFF7C0
:1006800053FF03B000F045B840462146F9E7001B90
:1006900061EB0201001C41F5801300185B4120183A
:1006A000A2F5001747EB030140EAD570B6196D417A
:1006B00011E06D084FEA360645EAC0754FEA075269
:1006C000001B61EB0201001C41F5801149084FEA53
:1006D00030000019514132462B4603B000F01CB8DF
:1006E000FFF713BF0098012240000023D0EB020265
:1006F00063EBE073009821464FEAE074B8EB00002A
:1007000061EB0401E9E783F000435BE781F000411E
:1007100058E730BCBDE8C08F30BCBDE8C04FFFF724
:10072000DFBF2DE9F04D81EA030404F0004B21F016
:10073000004514464FF0000A23F0004150EA05023C
:1007400020D054EA01021DD0C5F30A570246C5F372
:100750001303C1F31300C1F30A5640F4801543F4A8
:100760008013A7EB0608101BD64608F2FD3873EB82
:10077000050002D308F1010801E092185B41B8F1CD
:10078000000F03DA00200146BDE8F08D00204FF491
:100790008011064684460EE0171B73EB050705D350
:1007A000121B63EB050306434CEA010C49084FEAB0
:1007B000300092185B4150EA0107EDD152EA030084
:1007C00012D082EA040083EA0501084305D0101B19
:1007D000AB4106D20122002306E000224FF0004385
:1007E00002E06FF0010253101AEB06004CEB0851C7
:1007F00010EB0A0041EB0B01BDE8F04DFFF785BEA1
:10080000C1F30A52C1F3130140F2FF3341F48011E6
:100810009A4202DA00200146704740F233439A427E
:10082000A2F2334202DC5242FFF75FBEFFF74EBE38
:1008300030B5041E71F1000404DB4FF00044404267
:1008400064EB0101141E73F1000405DB1C464FF03C
:100850000043524263EB0403994208BF904230BD0B
:10086000064C074D06E0E06840F0010394E80700FD
:1008700098471034AC42F6D3FFF78AFCE00B01082E
:10088000000C0108202A06DBCB17203A41FA02F0BF
:1008900043EAE07306E041FA02F3D040C2F12002DD
:1008A000914008431946704770B58C1810F8015BE9
:1008B00015F0070301D110F8013B2A1106D110F8F9
:1008C000012B03E010F8016B01F8016B5B1EF9D1FD
:1008D0002B0705D40023521E0DD401F8013BFAE783
:1008E00010F8013BCB1A921C03E013F8015B01F8EE
:1008F000015B521EF9D5A142D8D3002070BD000083
:10090000064869464FF0CD324FF0AB33036000E04C
:100910000260001D8842FBD1704700001862002071
:1009200010B50A4808F000FA0949086009E00849CA
:100930000968486880470648006808F0FBF90449E0
:100940000860034800680028F1D110BD4C59002010
:10095000F00000202DE9F05F044688464FF00009C2
:100960004746206805F052FB8246206805F03AFBB6
:100970008346BAF1000F02D1BBF1000F6ED02068A0
:10098000C06800F0007000B3607E01281DD1207E99
:1009900001281AD101270FE0314881450AD3606D43
:1009A00040F010006065A06D40F00100A0650120DE
:1009B00000F05AB809F1010920680068C0F38010FE
:1009C0000028E9D0402021680860022F10D020685C
:1009D00005F01CFB60B1206805F009FB40B92068F8
:1009E0008168204A114041F01001816000BF00BFC2
:1009F000012F10D0206805F0F5FA60B1206805F0ED
:100A0000F6FA40B920688168164A114041F0200189
:100A1000816000BF00BF022F03D0032F03D10C253C
:100A200003E0082501E0042500BF00BF03F046F9FC
:100A300006460EE003F042F9801B052809D9606DD7
:100A400040F010006065A06D40F00100A06501203D
:100A5000AEE72068806828400028EBD10020A7E797
:100A6000000040A3C0FFFF7F30BCBDE8C09F000076
:100A700070B50446206805F0BAFA0646206805F00D
:100A8000BBFA70B36EBB2068806800F00D000128CF
:100A90000AD120688168174A1140891C816000BF13
:100AA00003202168086009E0606D40F01000606577
:100AB000A06D40F00100A065012070BD03F0FEF8BC
:100AC00005460FE003F0FAF8401B02280AD9606DD2
:100AD00040F010006065A06D40F00100A0650120AD
:100AE000EBE705E02068806800F001000028E9D10C
:100AF0000020E2E7C0FFFF7F70B50446206805F0E4
:100B00007BFA88BB206880681849084048B1606D4E
:100B100040F010006065A06D40F00100A06501206C
:100B200070BD206805F048FA03F0C8F8054615E0E6
:100B3000206805F061FA10B9206805F03DFA03F06D
:100B4000BDF8401B022809D9606D40F010006065B7
:100B5000A06D40F00100A0650120E1E72068006879
:100B600000F001000028E3D00020D9E73F0000801A
:100B700010B5024803F028F910BD0000705F002096
:100B800010B5044600BF07480068406820F4E050F4
:100B90002043044909684860024805F0E7F900BFAE
:100BA00010BD0000705F00202DE9FE4F0446002CB0
:100BB00001DA604200E0204605460A20B5FBF0F16C
:100BC00000FB1156B5FBF0F00A21B0FBF1F201FB7E
:100BD00012076420B5FBF0F0B0FBF1F201FB120844
:100BE0004FF47A70B5FBF0F0B0FBF1F201FB1209A3
:100BF00042F21070B5FBF0F0B0FBF1F201FB120A0B
:100C0000E448B5FBF0F0B0FBF1F201FB120BE24857
:100C1000B5FBF0F0B0FBF1F201FB12000290DF48EF
:100C2000B5FBF0F0B0FBF1F201FB12000190DC48E3
:100C3000B5FBF0F0B0FBF1F201FB12000090009860
:100C400020B30021009809F039F90121019809F039
:100C500035F90221029809F031F90321584609F0CB
:100C60002DF90421504609F029F90521484609F0DB
:100C700025F90621404609F021F90721384609F0F7
:100C80001DF90821304609F019F970E1019858B3AF
:100C9000002C04DA0021102009F010F903E00021F3
:100CA000122009F00BF90121019809F007F902213E
:100CB000029809F003F90321584609F0FFF80421CE
:100CC000504609F0FBF80521484609F0F7F80621DF
:100CD000404609F0F3F80721384609F0EFF80821FB
:100CE000304609F0EBF842E1029858B30021122097
:100CF00009F0E4F8002C04DA0121102009F0DEF8F4
:100D000003E00121122009F0D9F80221029809F02C
:100D1000D5F80321584609F0D1F80421504609F0CE
:100D2000CDF80521484609F0C9F80621404609F0EA
:100D3000C5F80721384609F0C1F80821304609F006
:100D4000BDF814E1BBF1000F2BD00021122009F0F7
:100D5000B5F80121122009F0B1F8002C04DA0221C3
:100D6000102009F0ABF803E00221122009F0A6F8E8
:100D70000321584609F0A2F80421504609F09EF8D4
:100D80000521484609F09AF80621404609F096F8F0
:100D90000721384609F092F80821304609F08EF80C
:100DA000E5E0BAF1000F2BD00021122009F086F8FF
:100DB0000121122009F082F80221122009F07EF8A8
:100DC000002C04DA0321102009F078F803E0032155
:100DD000122009F073F80421504609F06FF805213C
:100DE000484609F06BF80621404609F067F80721EC
:100DF000384609F063F80821304609F05FF8B6E09C
:100E0000B9F1000F2BD00021122009F057F8012171
:100E1000122009F053F80221122009F04FF80321A3
:100E2000122009F04BF8002C04DA0421102009F0FC
:100E300045F803E00421122009F040F80521484656
:100E400009F03CF80621404609F038F807213846F9
:100E500009F034F80821304609F030F887E0B8F19D
:100E6000000F2BD00021122009F028F801211220B8
:100E700009F024F80221122009F020F803211220A1
:100E800009F01CF80421122009F018F8002C04DAEB
:100E90000521102009F012F803E00521122009F0C5
:100EA0000DF80621404609F009F80721384609F0F7
:100EB00005F80821304609F001F858E05FB3002139
:100EC000122008F0FBFF0121122008F0F7FF022199
:100ED000122008F0F3FF0321122008F0EFFF042195
:100EE000122008F0EBFF0521122008F0E7FF002C8C
:100EF00004DA0621102008F0E1FF03E006211220A9
:100F000008F0DCFF0721384608F0D8FF08213046FA
:100F100008F0D4FF2BE056B30021122008F0CEFFDA
:100F20000121122008F0CAFF0221122008F0C6FF9A
:100F30000321122008F0C2FF0421122008F0BEFF96
:100F40000521122008F0BAFF0621122008F0B6FF92
:100F5000002C04DA0721102008F0B0FF03E007217D
:100F6000122008F0ABFF0821304608F0A7FF01214E
:100F7000002001F033FE0121084601F02FFE01217F
:100F8000022001F02BFE0121032001F027FE00F0DA
:100F900009B80000A086010040420F00809698002A
:100FA00000E1F5051EBCBDE8E08F000030B52DED79
:100FB000048B85B0B0EE408AF0EE608A044653ECB4
:100FC000182BFEA101A809F0C1FC9FEDFD0B53EC0D
:100FD000102B51EC180BFFF7D5F941EC190BFFF76B
:100FE00046FA6421B0FBF1F201FB12052A46F6A194
:100FF00003A809F0ABFC9DF806002E2857D100216C
:10100000122008F05BFF0121122008F057FF022197
:10101000122008F053FF0321122008F04FFF9DF823
:1010200004002D2804D10421102008F047FF03E01C
:101030000421122008F042FF9DF805103039C8B293
:10104000052108F03BFF9DF807103039C8B2062192
:1010500008F034FF9DF808103039C8B2072108F0B5
:101060002DFF9DF809103039C8B2082108F026FF7D
:10107000002C1BD09DF80A103039C8B2092108F0A5
:101080001DFF9DF80B103039C8B20A2108F016FF79
:101090009DF80C103039C8B20B2108F00FFF9DF8F5
:1010A0000D103039C8B20C2108F008FF97E19DF807
:1010B00007002E285AD10021122008F0FFFE01213E
:1010C000122008F0FBFE0221122008F0F7FE9DF826
:1010D00004002D2804D10321102008F0EFFE03E0C6
:1010E0000321122008F0EAFE9DF805103039C8B23D
:1010F000042108F0E3FE9DF806103039C8B205213E
:1011000008F0DCFE9DF808103039C8B2062108F05E
:10111000D5FE9DF809103039C8B2072108F0CEFE7F
:101120009DF80A103039C8B2082108F0C7FE002C1B
:10113000BCD09DF80B103039C8B2092108F0BEFEB2
:101140009DF80C103039C8B20A2108F0B7FE9DF89E
:101150000D103039C8B20B2108F0B0FE9DF80E100A
:101160003039C8B20C2108F0A9FE38E19DF808001A
:101170002E285DD10021122008F0A0FE01211220AE
:1011800008F09CFE9DF804002D2804D102211020B7
:1011900008F094FE03E00221122008F08FFE9DF873
:1011A00005103039C8B2032108F088FE9DF80610FA
:1011B0003039C8B2042108F081FE9DF8071030399B
:1011C000C8B2052108F07AFE9DF809103039C8B27E
:1011D000062108F073FE9DF80A103039C8B20721C5
:1011E00008F06CFE9DF80B103039C8B2082108F0E9
:1011F00065FE002CB9D09DF80C103039C8B2092119
:1012000008F05CFE9DF80D103039C8B20A2108F0D4
:1012100055FE9DF80E103039C8B20B2108F04EFE75
:101220009DF80F103039C8B20C2108F047FED6E007
:101230009DF809002E2860D10021122008F03EFE02
:101240009DF804002D2804D10121102008F036FE5D
:1012500003E00121122008F031FE9DF8051030391D
:10126000C8B2022108F02AFE9DF806103039C8B233
:10127000032108F023FE9DF807103039C8B204217D
:1012800008F01CFE9DF808103039C8B2052108F09E
:1012900015FE9DF80A103039C8B2062108F00EFE7E
:1012A0009DF80B103039C8B2072108F007FE9DF8F1
:1012B0000C103039C8B2082108F000FE002CB6D05E
:1012C0009DF80D103039C8B2092108F0F7FD9DF8DE
:1012D0000E103039C8B20A2108F0F0FD9DF80F1049
:1012E0003039C8B20B2108F0E9FD9DF810103039F3
:1012F000C8B20C2108F0E2FD71E09DF80A002E282A
:101300006DD19DF804002D2804D10021102008F093
:10131000D5FD03E00021122008F0D0FD9DF8051056
:101320003039C8B2012108F0C9FD9DF806103039E6
:10133000C8B2022108F0C2FD9DF807103039C8B2CA
:10134000032108F0BBFD9DF808103039C8B2042114
:1013500008F0B4FD9DF809103039C8B2052108F035
:10136000ADFD9DF80B103039C8B2062108F0A6FD7E
:101370009DF80C103039C8B2072108F09FFD9DF888
:101380000D103039C8B2082108F098FDACB19DF8B5
:101390000E103039C8B2092108F090FD9DF80F10E9
:1013A0003039C8B20A2108F089FD9DF81010303993
:1013B000C8B20B2108F082FD0AE010E0252066008B
:1013C00000000000D01263412530326400000000AC
:1013D0009DF811103039C8B20C2108F06FFD0021C2
:1013E000084601F0FBFB0121084601F0F7FB002154
:1013F000022001F0F3FB0021032001F0EFFB5CB1C0
:1014000000210C2001F0EAFB00210D2001F0E6FB99
:1014100000210E2001F0E2FB05B0BDEC048B30BDD5
:1014200070B504460025C2E020782738532870D2D2
:10143000DFE800F0AFB2B2B2B2B248B2B22A2D3099
:101440003336393C3F4245B2B2B2ACB2B2B24B4E87
:101450005154575A767073B2B260B26669B2B25DD7
:101460007963B2B2B2B26CB2B2B2B2B2B2B27C7F93
:101470008285888BA6A0A3B2B291B2979AB2B28E9F
:10148000A994B2B2B2B29D000020207087E0012082
:10149000207084E00220207081E0032020707EE034
:1014A000042020707BE00520207078E0062020706A
:1014B00075E00720207072E0082020706FE009209E
:1014C00020706CE01020207069E00A20207066E037
:1014D0000B20207063E00C20207060E00D20207055
:1014E0005DE00E2020705AE00F20207057E01120A0
:1014F000207054E01320207051E0142020704EE042
:10150000152020704BE01620207048E01720207036
:1015100045E041E01820207041E0192020703EE0B5
:10152000092020703BE00520207038E00A20207060
:1015300035E00B20207032E00C2020702FE00D20D1
:1015400020702CE00E20207029E00F20207026E073
:101550001120207023E01320207020E01420207040
:101560001DE0152020701AE01620207017E01720CB
:10157000207014E01820207011E0192020700EE077
:10158000092020700BE00520207008E01A20207050
:1015900005E01B20207002E01220207000BF00BF79
:1015A00014F8010BE9B208F089FC681CC5B20D2DD6
:1015B000FFF63AAF70BD00007CB5054630A006F0DE
:1015C000A7F800221146104606F0B8FD30A006F03C
:1015D0009FF864200AF0A2FF0021084606F004FEEE
:1015E0000121002006F000FE2FA006F091F86420F3
:1015F0000AF094FF002006F0BFFD5021002006F005
:1016000067FE2EA006F084F864200AF087FF00220F
:101610001146104606F0CAFD2E4903C9CDE9000166
:1016200000226946042006F0C1FD2BA006F070F8E8
:1016300064200AF073FF00200BF0CCF92C490860FD
:101640004FF47A7208460168002006F007FE29A0D0
:1016500006F05EF864200AF061FF4FF47A722448C5
:101660000168002006F0DCFD28A006F051F8642097
:101670000AF054FF0BF04AFA04460BF0CDFA7CBD99
:10168000426F6F742073746172746564210000008E
:10169000427574746F6E206C696220626F6F742083
:1016A000646F6E65210000004C656473206C696294
:1016B00020626F6F7420646F6E65210042757A7AC4
:1016C0006572206C696220626F6F7420646F6E6552
:1016D000210000001006010843616C656E646172B0
:1016E000206C696220626F6F7420646F6E652100E8
:1016F000BC010020566F6C74616765206C696220C4
:10170000626F6F7420646F6E6521000054656D70A8
:1017100065726174757265206C696220626F6F74A6
:1017200020646F6E6521000000B589B02422054950
:101730006846FEF7EDFD6A46002103480BF0FEF90E
:1017400009B000BDE8050108B915000800BFFEE7B3
:1017500010B51248006800F40050F0B14FF400508A
:101760000E49086000BF0E4807F0DEFA0D49086018
:101770000EE0002001F086F904460A48006841683E
:10178000204688470748006807F0D4FA05490860F2
:10179000044800680028ECD100BF10BD14040140CB
:1017A000DC5A00204002002010B51248006800F406
:1017B0008060F0B14FF480600E49086000BF0E48B1
:1017C00007F0B2FA0D4908600EE0012001F05AF965
:1017D00004460A4800684168204688470748006870
:1017E00007F0A8FA05490860044800680028ECD111
:1017F00000BF10BD14040140E45A00204402002040
:1018000010B51248006800F48060F0B14FF48060B9
:101810000E49086000BF0E4807F086FA0D490860BF
:101820000EE0022001F02EF904460A4800684168E3
:10183000204688470748006807F07CFA0549086099
:10184000044800680028ECD100BF10BD140401401A
:10185000EC5A00204802002010B51248006800F43D
:101860008060F0B14FF480600E49086000BF0E4800
:1018700007F05AFA0D4908600EE0032001F002F962
:1018800004460A48006841682046884707480068BF
:1018900007F050FA05490860044800680028ECD1B8
:1018A00000BF10BD14040140F45A00204C02002077
:1018B00010B51248006800F48060F0B14FF4806009
:1018C0000E49086000BF0E4807F02EFA0D49086067
:1018D0000EE0042001F0D6F804460A48006841688A
:1018E000204688470748006807F024FA0549086041
:1018F000044800680028ECD100BF10BD140401406A
:10190000FC5A00205002002010B51248006800F474
:101910008060F0B14FF480600E49086000BF0E484F
:1019200007F002FA0D4908600EE0052001F0AAF860
:1019300004460A480068416820468847074800680E
:1019400007F0F8F905490860044800680028ECD160
:1019500000BF10BD14040140045B002054020020AD
:1019600010B51248006800F48060F0B14FF4806058
:101970000E49086000BF0E4807F0D6F90D4908600F
:101980000EE0062001F07EF804460A48006841682F
:10199000204688470748006807F0CCF905490860E9
:1019A000044800680028ECD100BF10BD14040140B9
:1019B0000C5B00205802002010B51248006800F4AB
:1019C0008060F0B14FF480600E49086000BF0E489F
:1019D00007F0AAF90D4908600EE0072001F052F85F
:1019E00004460A480068416820468847074800685E
:1019F00007F0A0F905490860044800680028ECD108
:101A000000BF10BD14040140145B00205C020020E4
:101A100010B51248006800F48060F0B14FF48060A7
:101A20000E49086000BF0E4807F07EF90D490860B6
:101A30000EE0082001F026F804460A4800684168D4
:101A4000204688470748006807F074F90549086090
:101A5000044800680028ECD100BF10BD1404014008
:101A60001C5B00206002002010B50446012C04D14C
:101A70000021084606F066FC12E0022C08D1012184
:101A8000002006F05FFC0021012006F05BFC07E06F
:101A90000121002006F056FC0121084606F052FC08
:101AA00010BD10B50446012C03D15021002006F0D2
:101AB0000FFC022C0BD15021002006F009FC502114
:101AC000FF2006F005FC5021002006F001FC10BDAF
:101AD00010B5034A0021042006F030FB10BD0000C1
:101AE000691A000810B5034A0021042006F026FBFD
:101AF00010BD0000A31A000810B504460A2C6AD2D3
:101B0000DFE804F0050B11171D23292F353B4FF497
:101B10000051324801F01AFF5EE04FF480612F4817
:101B200001F014FF58E04FF480612C4801F00EFFE3
:101B300052E04FF48061294801F008FF4CE04FF477
:101B40008061264801F002FF46E04FF4806123489F
:101B500001F0FCFE40E04FF48061204801F0F6FE09
:101B60003AE04FF480611D4801F0F0FE34E04FF49C
:101B700080611A4801F0EAFE2EE04FF40051174848
:101B800001F0E4FE4FF48061144801F0DFFE4FF4F1
:101B90008061124801F0DAFE4FF480610F4801F0D5
:101BA000D5FE4FF480610D4801F0D0FE4FF4806106
:101BB0000A4801F0CBFE4FF48061084801F0C6FEF0
:101BC0004FF48061054801F0C1FE4FF48061034885
:101BD00001F0BCFE00E000BF00BF10BD00080048DF
:101BE00010B504460A2C46D2DFE804F005090D11B1
:101BF00015191D212529282002F02EFB3CE0282064
:101C000002F02AFB38E0282002F026FB34E02820EE
:101C100002F022FB30E0282002F01EFB2CE02820FE
:101C200002F01AFB28E0282002F016FB24E028200E
:101C300002F012FB20E0282002F00EFB1CE028201E
:101C400002F00AFB282002F007FB282002F004FB28
:101C5000282002F001FB282002F0FEFA282002F0E2
:101C6000FBFA282002F0F8FA282002F0F5FA2820E2
:101C700002F0F2FA00E000BF00BF10BD10B504464C
:101C80000A2C46D2DFE804F005090D1115191D21B3
:101C90002529282002F002FB3CE0282002F0FEFA71
:101CA00038E0282002F0FAFA34E0282002F0F6FAB0
:101CB00030E0282002F0F2FA2CE0282002F0EEFAC0
:101CC00028E0282002F0EAFA24E0282002F0E6FAD0
:101CD00020E0282002F0E2FA1CE0282002F0DEFAE0
:101CE000282002F0DBFA282002F0D8FA282002F09F
:101CF000D5FA282002F0D2FA282002F0CFFA2820C4
:101D000002F0CCFA282002F0C9FA282002F0C6FA24
:101D100000E000BF00BF10BD10B586B00446FE480D
:101D200002900A2C7DD2DFE804F00522405E7D9B04
:101D3000B9D7F7F54FF4005001900020039001A9A6
:101D4000F64801F0A5FE00224FF40051F34801F0DF
:101D5000B0FF3022F249F34806F09CFF00220F2129
:101D6000282002F0ABFA282002F098FA10E24FF493
:101D7000806001900120039001A9E84801F088FEED
:101D800000224FF48061E54801F093FF3022E649DC
:101D9000E448083006F07EFF00220F21282002F0E0
:101DA0008DFA282002F07AFAF2E14FF48060019077
:101DB0000120039001A9D94801F06AFE00224FF4E6
:101DC0008061D64801F075FF3022D849D5481030DF
:101DD00006F060FF00220F21282002F06FFA282071
:101DE00002F05CFAD4E14FF480600190012003908E
:101DF00001A9CA4801F04CFE00224FF48061C74897
:101E000001F057FF3022CA49C648183006F042FF99
:101E100000220F21282002F051FA282002F03EFA79
:101E2000B6E1B4E14FF4806001900120039001A974
:101E3000BA4801F02DFE00224FF48061B74801F04E
:101E400038FF3022BB49B748203006F023FF00227C
:101E50000F21282002F032FA282002F01FFA97E121
:101E60004FF4806001900120039001A9AB4801F07C
:101E70000FFE00224FF48061A84801F01AFF3022C3
:101E8000AD49A848283006F005FF00220F21282080
:101E900002F014FA282002F001FA79E14FF4806090
:101EA00001900120039001A99C4801F0F1FD00225E
:101EB0004FF48061994801F0FCFE30229F49994817
:101EC000303006F0E7FE00220F21282002F0F6F95C
:101ED000282002F0E3F95BE14FF4806001900120DB
:101EE000039001A98D4801F0D3FD00224FF48061D9
:101EF0008A4801F0DEFE302291498A48383006F0E7
:101F0000C9FE00220F21282002F0D8F9282002F073
:101F1000C5F93DE11EE0FFE74FF48060019001202C
:101F2000039001A97D4801F0B3FD00224FF48061C8
:101F30007A4801F0BEFE302282497A48403006F0ED
:101F4000A9FE00220F21282002F0B8F9282002F073
:101F5000A5F91DE14FF4005001900020039001A964
:101F60006E4801F095FD00224FF400516B4801F0DE
:101F7000A0FE4FF4806001900120039001A9674802
:101F800001F086FD00224FF48061644801F091FE6B
:101F90004FF4806001900120039001A95F4801F097
:101FA00077FD00224FF480615C4801F082FE4FF41F
:101FB000806001900120039001A9584801F068FD5C
:101FC00000224FF48061554801F073FE4FF48060A9
:101FD00001900120039001A9504801F059FD002211
:101FE0004FF480614D4801F064FE4FF48060019031
:101FF0000120039001A9494801F04AFD00224FF455
:102000008061464801F055FE4FF480600190012048
:10201000039001A9414801F03BFD00224FF480618B
:102020003E4801F046FE4FF480600190012003908D
:1020300001A93A4801F02CFD00224FF48061374895
:1020400001F037FE4FF4806001900120039001A958
:10205000324801F01DFD00224FF480612F4801F04D
:1020600028FE30222E492F4806F014FE00220F21B0
:10207000282002F023F9282002F010F930222A4902
:102080002848083006F006FE00220F21282002F022
:1020900015F9282002F002F9302224492148103095
:1020A00006F0F8FD00220F21282002F007F9282071
:1020B00002F0F4F830221E491A48183006F0EAFD02
:1020C00000220F21282002F0F9F8282002F0E6F87B
:1020D000302218491348203006F0DCFD00220F2181
:1020E000282002F0EBF8282002F0D8F8302212491C
:1020F0000C48283006F0CEFD00220F21282002F0E7
:10210000DDF8282002F0CAF830220C4905483030AA
:1021100006F0C0FD002217E0000031100008004862
:1021200051170008FC5E0020A917000801180008DC
:1021300059180008B11800080919000861190008A9
:10214000B9190008111A00080F21282002F0B6F86A
:10215000282002F0A3F830220F49104806F09AFD1B
:1021600000220F21282002F0A9F8282002F096F87A
:1021700030220B490948083006F08CFD00220F215F
:10218000282002F09BF8282002F088F800E000BF29
:1021900000BF06B010BD0000B9190008345F002070
:1021A000111A000810B54FF48061024801F0CEFB0F
:1021B00010BD00000010004800B585B04FF48060ED
:1021C000009001200190002002906946044801F02F
:1021D0005FFC01229102024801F06BFD05B000BDD9
:1021E0000010004810B5044634B900224FF4806155
:1021F000094801F05EFD0DE0012C05D1012291029C
:10220000054801F056FD05E0022C03D161020248A9
:1022100001F048FD10BD00000010004810B50A484C
:1022200006F082FD0949086009E008490968486824
:1022300080470648006806F07DFD044908600348B1
:1022400000680028F1D110BD5C590020F800002082
:1022500010B50A4806F068FD0949086009E0084918
:102260000968486880470648006806F063FD04492D
:102270000860034800680028F1D110BD64590020AF
:10228000FC00002010B50A4806F04EFD0949086020
:1022900009E008490968486880470648006806F070
:1022A00049FD04490860034800680028F1D110BDC9
:1022B0006C5900200001002010B50A4806F034FDDA
:1022C0000949086009E008490968486880470648E4
:1022D000006806F02FFD04490860034800680028E4
:1022E000F1D110BD54590020F400002010B50A4867
:1022F00006F01AFD0949086009E0084909684868BC
:1023000080470648006806F015FD04490860034848
:1023100000680028F1D110BD5C5A0020780100202F
:1023200010B50446E3785B1CDAB263795B1CD9B262
:10233000E08800F07BFB207110BD10B5032001F098
:102340008BFF10BD10B5032001F0A8FF10BD0000E9
:1023500010B5032001F080FF014803F033F810BDF1
:102360004C5F002000B5B3B00420229000202C90D8
:102370000120249022A802F00DFC08B100F020FBFF
:102380004FF40030009040122190684602F03AF875
:1023900008B100F015FB1848006840F400401649E9
:1023A0009039C1F890001548154908600020486030
:1023B0001F211348816040F2FF31C160002101619B
:1023C0008161C16103F050F80D4802F029FF042239
:1023D00000210B4802F050FF0C220A490A4806F07F
:1023E00059FC00220F21032001F068FF032001F0B7
:1023F00055FF33B000BD000090100240002800409F
:102400004C5F0020ED2400086402002030B58FB03E
:102410000546002D47D12548007820B12024002012
:102420002249087003E03D2401202049087020481B
:1024300000780A2190FBF1F201FB120028B91D4837
:10244000007880F001001B4908701A48007888B1B4
:102450001948006816490978154A5278CDE90021D3
:10246000029013488278234614A10DF1250008F04C
:102470006DFA12E01048B0F904000F380C490978E1
:102480000B4A5278CDE90021029009488278234610
:1024900010A10DF1250008F059FA03208DF8100065
:1024A00004A805F031FF0FB030BD00000C02002081
:1024B000D80100200D020020B40100202530326434
:1024C0002563253032642025303264202530346481
:1024D0000000000025303264256325303264202559
:1024E00030326420252030326427000010B50248C5
:1024F00002F04CFF10BD00004C5F002010B5034AF5
:102500000021052005F052FE10BD00000D2400083A
:1025100010B50A4806F008FC0949086009E00849B6
:102520000968486880470648006806F003FC0449CB
:102530000860034800680028F1D110BD4C5A002003
:102540007001002010B50A4806F0EEFB094908604A
:1025500009E008490968486880470648006806F0AD
:10256000E9FB04490860034800680028F1D110BD68
:10257000545A00207401002010B50A4806F0D4FB1C
:102580000949086009E00849096848688047064821
:10259000006806F0CFFB0449086003480068002883
:1025A000F1D110BD14590020D400002010B50A4804
:1025B00006F0BAFB0949086009E00849096848685B
:1025C00080470648006806F0B5FB044908600348E8
:1025D00000680028F1D110BD1C590020D80000204F
:1025E00010B50A4806F0A0FB0949086009E008494F
:1025F0000968486880470648006806F09BFB044964
:102600000860034800680028F1D110BD245900205B
:10261000DC00002010B50A4806F086FB0949086076
:1026200009E008490968486880470648006806F0DC
:1026300081FB04490860034800680028F1D110BDFF
:102640002C590020E000002010B50A4806F06CFB71
:102650000949086009E00849096848688047064850
:10266000006806F067FB044908600348006800281A
:10267000F1D110BD34590020E400002010B50A4803
:1026800006F052FB0949086009E0084909684868F2
:1026900080470648006806F04DFB0449086003487F
:1026A00000680028F1D110BD3C590020E80000204E
:1026B00010B50A4806F038FB0949086009E00849E6
:1026C0000968486880470648006806F033FB0449FB
:1026D0000860034800680028F1D110BD445900206B
:1026E000EC00002010B50A4806F01EFB09490860FE
:1026F00009E008490968486880470648006806F00C
:1027000019FB04490860034800680028F1D110BD96
:10271000245A00205C01002010B50A4806F004FB92
:102720000949086009E0084909684868804706487F
:10273000006806F0FFFA04490860034800680028B2
:10274000F1D110BD2C5A00206001002010B50A48BC
:1027500006F0EAFA0949086009E00849096848688A
:1027600080470648006806F0E5FA04490860034817
:1027700000680028F1D110BD345A00206401002007
:1027800010B50A4806F0D0FA0949086009E008497E
:102790000968486880470648006806F0CBFA044993
:1027A0000860034800680028F1D110BD3C5A0020A1
:1027B0006801002010B50A4806F0B6FA0949086019
:1027C00009E008490968486880470648006806F03B
:1027D000B1FA04490860034800680028F1D110BD2F
:1027E000445A00206C01002010B50A4806F09CFAFB
:1027F0000949086009E008490968486880470648AF
:10280000006806F097FA0449086003480068002849
:10281000F1D110BD745A00208001002010B50A4883
:1028200006F082FA0949086009E008490968486821
:1028300080470648006806F07DFA044908600348AE
:1028400000680028F1D110BD7C5A002084010020CE
:102850007047000010B50A4806F066FA094908609A
:1028600009E008490968486880470648006806F09A
:1028700061FA04490860034800680028F1D110BDDE
:10288000EC580020C000002010B50A4806F04CFAB1
:102890000949086009E0084909684868804706480E
:1028A000006806F047FA04490860034800680028F9
:1028B000F1D110BDF45900204401002010B50A48A0
:1028C00006F032FA0949086009E0084909684868D1
:1028D00080470648006806F02DFA0449086003485E
:1028E00000680028F1D110BDF4580020C400002079
:1028F00010B50A4806F018FA0949086009E00849C5
:102900000968486880470648006806F013FA0449D9
:102910000860034800680028F1D110BDFC58002071
:10292000C800002010B50A4806F0FEF90949086001
:1029300009E008490968486880470648006806F0C9
:10294000F9F904490860034800680028F1D110BD76
:1029500004590020CC00002010B50A4806F0E4F924
:102960000949086009E0084909684868804706483D
:10297000006806F0DFF90449086003480068002891
:10298000F1D110BD0C590020D000002010B50A482C
:1029900006F0CAF90949086009E008490968486869
:1029A00080470648006806F0C5F9044908600348F6
:1029B00000680028F1D110BD7459002004010020E6
:1029C00000BFFEE710B50A4806F0AEF909490860F5
:1029D00009E008490968486880470648006806F029
:1029E000A9F904490860034800680028F1D110BD26
:1029F000DC580020BC00002010B50A4806F094F90D
:102A00000949086009E0084909684868804706489C
:102A1000006806F08FF90449086003480068002840
:102A2000F1D110BDBC5A0020A40100207EB50346A0
:102A30000C4611A523CD8DE82300032C01DA581E86
:102A400083B2642093FBF0F01946DD1703EB957514
:102A500003EBA505281A4FF4C87593FBF5F505445B
:102A6000601E1DF8000028441044072590FBF5F671
:102A700005FB1600C0B27EBD000302050003050180
:102A80000406020470B504460025092C06D2DFE8CE
:102A900004F0060E161E262E363E460000BF4FF4EA
:102AA0000051314801F0F6F800B901253FE04FF43C
:102AB00080612D4801F0EEF800B9012537E04FF4B0
:102AC0008061294801F0E6F800B901252FE04FF4B4
:102AD0008061254801F0DEF800B9012527E04FF4B8
:102AE0008061214801F0D6F800B901251FE04FF4BC
:102AF00080611D4801F0CEF800B9012517E04FF4C0
:102B00008061194801F0C6F800B901250FE04FF4C3
:102B10008061154801F0BEF800B9012507E04FF4C7
:102B20008061114801F0B6F800B9012500BF00BF6F
:102B3000012D0BD12146002005F0AEFB0120A04065
:102B40000A4909880843094908800AE0214601200A
:102B500005F0A2FB0120A0400449098881430348F5
:102B60000180284670BD000000080048D001002008
:102B700010B5034803F0D8F8014801F068F910BD1A
:102B8000705F002010B51348134908604FF400002F
:102B900048604FF47011104881600C21C1604021E1
:102BA000016102214161C90281610911C1612021D4
:102BB00001620021416281624FF48041C1620021C3
:102BC000016303F011F9044801F056F9FDF7D0FF55
:102BD00010BD000000240040705F002070B5044666
:102BE0000D4665B90D4850F83400C2430B4800EB60
:102BF000C400002341680A4803F0D0F90CE00748FC
:102C000050F8343050F83400C243044800EBC4009C
:102C10004168034803F0C2F970BD0000A007010835
:102C2000705F002070B5054600241CE065B90F48B0
:102C300050F83400C2430D4800EBC4000023416843
:102C40000B4803F0ABF90CE0084850F8343050F86A
:102C50003400C243054800EBC4004168044803F057
:102C60009DF9601CC4B21B2CE0DB70BDA0070108FD
:102C7000705F002010B5044620780A283DD2DFE8B6
:102C800000F0050F191D22272C30343894ED021B5B
:102C9000B0EE410AF0EE610A0020FEF787F92DE060
:102CA00094ED021BB0EE410AF0EE610A0120FEF73E
:102CB0007DF923E02069FDF777FF1FE004F115009F
:102CC000FEF7AEFB1AE060780121FFF787FF15E001
:102CD00060780021FFF782FF10E00120FFF7A2FFDC
:102CE0000CE00020FFF79EFF08E0074801F06CF8B9
:102CF00004E02069FDF744FF00E000BF00BF024888
:102D000003F02AF910BD0000705F0020F8B50446FA
:102D10000D460020009000BF94F85000012801D11A
:102D20000220F8BD012084F8500000BF2046FDF7C6
:102D30009FFE06468EBB606D20F4885040F0020076
:102D40006065206881681B4A114005F0804242F0AE
:102D500000421143816000BF13E00098401C0090C6
:102D60000098B0F5912F0CD3606D20F0020040F078
:102D70001000606500BF002084F8500000BF0120F3
:102D8000CFE720688168C90F0029E6D1606D20F087
:102D9000020040F00100606504E0FFE7606D40F074
:102DA0001000606500BF002084F8500000BF30466E
:102DB000B7E70000C0FFFF3F2DE9F84F05460C467E
:102DC0004FF0000A00200090FE49E068884200D0E1
:102DD00000E000BF00BF95F85000012802D102209A
:102DE00000F05CBA012085F8500000BF286803F0AD
:102DF0000DF9002872D1606805281AD86068022889
:102E000006D0032807D0042808D005280DD108E0F3
:102E10000C2060600CE01220606009E01820606007
:102E200006E04FF48070606002E00620606000BF42
:102E300000BF2968D4E9002001F1300CC0F3012B58
:102E40000CEB8B03D3F800C000F01F0E4FF01F0BEC
:102E50000BFA0EFB2CEA0B0C00F01F0BC2F3846E76
:102E60000EFA0BFE4CEA0E0CC3F800C000BF286837
:102E700003F0CCF88146286803F0B4F88046B9F135
:102E8000000F2AD1B8F1000FFBD1A2682168286891
:102E900003F0D2F860692968C968C1F3C10149002B
:102EA00000FA01F72069042819D0286822682169EE
:102EB00000F1600C0CEB8103D3F800C0DFF808B31D
:102EC0000CEA0B0C02F0F84B4BF0004B4BEA070BF3
:102ED0004CEA0B0CC3F800C000BFA8E0C2E100211F
:102EE000286803F076F8C0F3120030B90021286892
:102EF00003F06FF8C0F3846007E00021286803F056
:102F000068F890FAA0F0B0FA80F02168C1F31201DD
:102F100019B92168C1F3846104E0216891FAA1F133
:102F2000B1FA81F1884204D100221146286803F0E9
:102F30009DF80121286803F04CF8C0F3120030B965
:102F40000121286803F045F8C0F3846007E00121FF
:102F5000286803F03EF890FAA0F0B0FA80F02168FB
:102F6000C1F3120119B92168C1F3846104E0216839
:102F700091FAA1F1B1FA81F1884204D10022012134
:102F8000286803F073F80221286803F022F8C0F3E0
:102F9000120030B90221286803F01BF8C0F38460E6
:102FA00007E00221286803F014F890FAA0F0B0FAC4
:102FB00080F02168C1F3120119B92168C1F384615D
:102FC00004E0216891FAA1F1B1FA81F1884204D1BB
:102FD00000220221286803F049F80321286802F042
:102FE000F8FFC0F3120030B90321286802F0F1FFA6
:102FF000C0F3846007E00321286802F0EAFF90FA3A
:10300000A0F0B0FA80F02168C1F3120119B921686B
:10301000C1F3846104E0216891FAA1F1B1FA81F170
:10302000884204D100220321286803F01FF8286891
:1030300002F0E2FF002870D12868E2682168D0F829
:10304000B0C0C1F312032CEA030C02F0180B5F4B63
:1030500023FA0BF30B404CEA030CC0F8B0C000BFDE
:103060005849E068884258D12368C3F312031BB95A
:103070002368C3F3846304E0236893FAA3F3B3FAE9
:1030800083F35B1C03F01F03092B3ED82368C3F3B3
:1030900012031BB92368C3F3846304E0236893FA23
:1030A000A3F3B3FA83F35B1C03F01F034FF0010C8F
:1030B0000CFA03FC2368C3F312031BB92368C3F3A0
:1030C000846304E0236893FAA3F3B3FA83F35B1CED
:1030D00003F01F034CEA836C2368C3F312031BB98C
:1030E0002368C3F3846304E0236893FAA3F3B3FA79
:1030F00083F35B1C03F01F0303EB43034FF0000B50
:103100004BEA03534CEA03033FE02368C3F3120383
:1031100023B92368C3F3846305E03BE0236893FA93
:10312000A3F3B3FA83F35B1C03F01F034FF0010C0E
:103130000CFA03FC2368C3F312031BB92368C3F31F
:10314000846304E0236893FAA3F3B3FA83F35B1C6C
:1031500003F01F034CEA836C2368C3F312031BB90B
:103160002368C3F3846304E0236893FAA3F3B3FAF8
:1031700083F35B1C03F01F030A3B03EB43034FF095
:10318000007B4BEA03534CEA03031946A268286804
:1031900002F052FF0E4920680840A0B300BF0D485E
:1031A000806800F0E07600BF0B492068884233D188
:1031B00006F4000040BB09492868884214D0084939
:1031C00028680FE000007F4000F0FF03FFFF0700CA
:1031D0000000088000030450000052C700000450A3
:1031E00000020450884243D146F40001244802F012
:1031F00037FF244800682449B0FBF1F000EB4000A1
:103200008000009004E01BE006E00098401E009063
:1032100000980028F9D12BE01C492068884210D181
:1032200006F0807068B91A492868884203D01949A5
:10323000286888421CD146F08071114802F010FFC6
:1032400016E015492068884212D106F4800078B94A
:103250000F49286888420BD146F48001084802F0E3
:10326000FFFE05E0686D40F0200068654FF0010A40
:1032700000BF002085F8500000BF5046B0E50000B8
:103280000003045010000020400D0300000084CB18
:1032900000000450000204500100008018BCBDE88A
:1032A000E08F000070B504460CB9012070BD606D60
:1032B00040F00200606503212046FDF74BFB054608
:1032C0002068C06840F400102168C86035B9204605
:1032D000FDF7CEFB05460DB901206065206840680A
:1032E0006FF30A002168486040F2FF7021680860AF
:1032F0002068806820F0A04021688860206880688D
:1033000040F00050216888602068C068514908403A
:103310002168C8602068C06840F000402168C8602B
:10332000206800696FF30A0021680861206840691D
:1033300000F04040216848612068806900F07840D2
:10334000216888612068006A00F0F0202168086226
:103350002068406A00F0FF20216848622068806A87
:1033600000F0FF20216888622068006B3A4908401D
:10337000216808632068406B37491039084021688C
:1033800048632068806B344910390840216888639D
:103390002068C06B40F2DF7188432168C8632068F1
:1033A000006E2E490840216808662068406E2B494F
:1033B0000840216848662068806E284908402168D6
:1033C00088662068C06E254908402168C866206864
:1033D000D0F8A0006FF312002168C1F8A0002068A7
:1033E000D0F8A4006FF312002168C1F8A40020688F
:1033F000D0F8B0006FF312002168C1F8B000206867
:10340000D0F8B40020F07F102168C1F8B40014484F
:1034100002F0F2FD0646134802F0EEFD06431248A4
:1034200002F0EAFD064336B910480068104908402A
:103430000B49C1F80803204600F031F90020A065CF
:10344000E06500212166606500BF84F8500000BF80
:1034500028462BE704800080300882E000F0FF035C
:1034600000000450000104500002045008030450FE
:10347000E01000FE01460868006C70472DE9F84F27
:1034800004464FF000090020009014B9012000F01C
:1034900003B9206920B12020005D012800D100BFC0
:1034A000606D30B9204600F0FBF80020A06584F87C
:1034B000500020688168C1F3407131B12068816893
:1034C0006C4A1140816000BF00BF206802F099FD86
:1034D000A0B920688168684A114041F0805181603C
:1034E00000BF664800686649B0FBF1F0009002E05A
:1034F0000098401E009000980028F9D1206802F042
:1035000080FD48B9606D40F010006065A06D40F02E
:103510000100A0654FF00109206802F077FD064622
:10352000606D00F0100000287BD1002EFCD1606D92
:1035300020F4807040F002006065206802F05CFDBD
:10354000D0B9504802F058FD82464F4802F054FD71
:103550004AEA000A4D4802F04FFD4AEA000ABAF171
:10356000000F09D160684A49896821F47C11014340
:10357000474A916000BF00BF607E616B41EA403006
:10358000E1680843A16808432021095D40EA01453C
:103590002020005D012803D1A08C401E45EA404553
:1035A000A06A28B1208D00F47070E16A08430543D9
:1035B0002068C0683749084028432168C8602068EF
:1035C00002F024FD8046206802F00CFD0746B8F1A9
:1035D000000F2DD127BB207E002141EA803194F8D5
:1035E000300041EA40052068C06844F20201884387
:1035F00028432168C86094F83800012812D1E06B94
:1036000040F00101206C0843616C0843A16C084341
:103610002168096940F2FC729143084321680861FE
:1036200006E01FE02068006920F0010021680861C1
:103630002069012809D12068006B20F00F00E169A2
:10364000491E08432168086305E02068006B20F0EC
:103650000F0021680863606D20F0020040F0010057
:10366000606505E0606D40F0100060654FF0010995
:1036700048460CE7C0FFFF5FC0FFFF7F100000203F
:10368000400D0300000004500001045000020450EB
:103690000003045007C0F0FF18BCBDE8E08F70477E
:1036A000704700002DE9F04704460F46464802F0F7
:1036B0008BFC05466069082801D108261FE01DB172
:1036C000052D01D0092D0DD12068C06800F0010042
:1036D00030B1606D40F0200060650120BDE8F087EA
:1036E00004260CE000BF3848806800F4604028B130
:1036F000606D40F0200060650120EFE7042600F0D7
:10370000DDFA804613E0781C88B100F0D7FAA0EB10
:103710000800B84200D857B9606D40F004006065F9
:1037200000BF002084F8500000BF0320D6E72068C7
:10373000006830400028E6D0606D40F4007060659D
:10374000206802F068FC98B1607E88B92068006843
:1037500000F0080008280BD1606D20F480706065CF
:10376000606D00F4805018B9606D40F00100606534
:1037700016492068884201D1154800E02068216878
:10378000884204D01DB1052D01D0092D03D1206838
:10379000D0F80C9009E00D492068884201D10C480E
:1037A00000E020688246DAF80C90082E03D1082049
:1037B0002168086005E009F4804010B90C202168F8
:1037C000086000208AE70000000304500001045054
:1037D000000004502DE9F0410446424802F0F4FB99
:1037E0000646206802F012FC002877D100BF94F84A
:1037F0005000012802D10220BDE8F081012084F8A8
:10380000500000BF2046FDF777F90546002D60D136
:10381000606D40F60161884340F480706065324914
:103820002068884201D1314800E020682168884240
:1038300000D01EB9606D20F480106065606D00F4EA
:103840008050B0F5805F04D1A06D20F00600A06527
:1038500001E00020A0651C202168086000BF002056
:1038600084F8500000BF20492068884201D11F48D9
:1038700000E020682168884204D01EB1052E01D0E6
:10388000092E0ED12068C06800F0007028B1606D6C
:1038900020F4005040F480506065206802F0C4FBC2
:1038A0001DE0606D40F4801060650F49206888421B
:1038B00001D10E4800E020680746F86800F000706B
:1038C00068B1606D20F4005040F48050606506E0FF
:1038D00004E000BF002084F8500000E002252846E4
:1038E0008AE7000000030450000104500000045067
:1038F00070B50446002594F82500022803D0042062
:10390000E063012520E02068006820F00E002168B7
:1039100008602068006820F001002168086094F8C1
:10392000440000F01C0101208840216C4860012007
:1039300084F8250000BF002084F8240000BFA06B9D
:1039400010B12046A16B8847284670BDF0B50B46E4
:10395000002187E001258D4005EA0302002A7DD081
:10396000434D8E0855F826408D072E0F0F25B54084
:103970002C40B0F1904F01D100251EE03D4DA842F2
:1039800001D1012519E03C4DA84201D1022514E0E6
:103990003A4DA84201D103250FE0394DA84201D18B
:1039A00004250AE0374DA84201D1052505E0364D32
:1039B000A84201D1062500E007258E07360FB54045
:1039C000A54221D1314D2D689543304E3560351DCE
:1039D0002D689543361D3560351D2D689543361D80
:1039E0003560351D2D689543361D35608D072E0FCA
:1039F0000F2505FA06F41E4D8E0855F82650A543EE
:103A00001B4E8F0846F8275005684F000326BE401E
:103A100035430560CE0800F1200555F826504E07C5
:103A2000F70E0F26BE40B543CF0800F1200646F83A
:103A3000275085684F000326BE40B5438560466821
:103A400001258D40AE434660C5684F000326BE4049
:103A5000B543C560C56A01268E4000E001E0B5436C
:103A6000C562491C23FA01F5002D7FF473AFF0BD48
:103A7000080001400004004800080048000C00480D
:103A800000100048001400480018004800040140DD
:103A900078B503460022E5E0012696400D6805EA68
:103AA0000604002C7DD04D68022D02D04D68122DE9
:103AB00013D1D60803F1200555F826005507EE0E60
:103AC0000F25B540A8435607F60E0D69B5402843AB
:103AD000D60803F1200545F826001868560003258E
:103AE000B540A8430D7905F003055600B5402843BD
:103AF00018604D68012D08D04D68022D05D04D6825
:103B0000112D02D04D68122D13D19868560003254F
:103B1000B540A8435600CD68B54028439860586822
:103B200001259540A8430D79C5F30015954028431C
:103B300058600D7905F00305032D09D1D86A0125D8
:103B40009540A8430D79C5F3C00595402843D86238
:103B5000D86856000325B540A84356008D68B54087
:103B60002843D8604D6805F08055B5F1805F78D165
:103B700000BF3F4D2D6E45F001053D4E3566354683
:103B80002D6E05F00105009500BF00BF4FEAB63568
:103B9000960855F8260095072E0F0F25B540A84327
:103BA00000E05EE0B3F1904F01D100251EE0314D01
:103BB000AB4201D1012519E02F4DAB4201D10225C5
:103BC00014E02E4DAB4201D103250FE02C4DAB424A
:103BD00001D104250AE02B4DAB4201D1052505E0BA
:103BE000294DAB4201D1062500E007259607360F87
:103BF000B5402843254D960845F82600244D2868F1
:103C0000A0434D6805F48035B5F5803F00D12043D1
:103C10001F4D28602D1D2868A0434D6805F4003510
:103C2000B5F5003F00D12043194D2D1D28602D1DF5
:103C30002868A0434D6805F48015B5F5801F00D1B4
:103C40002043134D083528602D1D2868A0434D687A
:103C500005F40015B5F5001F00D120430C4D0C35BF
:103C60002860521C0D68D540002D7FF415AF78BD3B
:103C7000001002400004004800080048000C004802
:103C800000100048001400480018004808000140D7
:103C900000040140024613690B400BB1012000E013
:103CA0000020704742690A400AB1816200E08161E8
:103CB00070470AB1816100E0816270470148006885
:103CC000704700000400002070B504460CB90120C4
:103CD00070BD4CF6CC402168086045F25550216813
:103CE0000860D4E9001048602168A0688860FFF788
:103CF000E5FF054606E0FFF7E1FF401B302801D94C
:103D00000320E5E72068C0680028F4D12068016935
:103D1000E068814203D02168E068086103E04AF668
:103D2000AA20216808600020D2E701464AF6AA20AE
:103D30000A6810600020704703480068034909685A
:103D40000844014908607047040000200C0000206E
:103D500010B50024032000F0F3FA0F2000F008F85B
:103D600008B1012401E000F049FA204610BD00002E
:103D700070B50446002511480068D8B10F480068A6
:103D80004FF47A71B1FBF0F00D490968B1FBF0F620
:103D9000304601F0E1FB58B9102C07D20022214631
:103DA000501E00F08BFA0748046004E0012502E091
:103DB000012500E00125284670BD00000C00002010
:103DC00010000020080000202DE9F04104464FF0CB
:103DD000010894F83570012F01D0022F35D100BFB2
:103DE00094F83400012802D10220BDE8F0810120BE
:103DF00084F8340000BF022084F83500FFF75EFF2E
:103E000006460EE0FFF75AFF801BB0F57A7F08D90F
:103E10000220A06300BF002084F8340000BF03200C
:103E2000E3E720688068C0F380000028EAD100251D
:103E300005E000212068143040F825106D1C0F2D7E
:103E4000F7D9204600F0A6F880464046CDE710B5E9
:103E500004460CB9012010BD022084F8350020462C
:103E600000F096F80020A06384F8350000BF84F8C5
:103E7000340000BF00BFEEE72DE9F041044614B95D
:103E80000120BDE8F08194F8350028B9002084F8BD
:103E90003400204600F07DF8022084F835002068C8
:103EA000006820F0010021680860002605E000217C
:103EB0002068143040F82610761C0F2EF7D92068A1
:103EC000806840F0040021688860D4E9010108435B
:103ED000A16A0843E16A0843E1690843216A08438B
:103EE000A1690843616A084321684968274A11406B
:103EF000084321684860204602F038F807460FB1B1
:103F00003846BEE7D4E90301084361690843216BE1
:103F100008432168096821F0FE0108432168086010
:103F20002068006840F0010021680860FFF7C6FEC5
:103F3000054609E0FFF7C2FE401BB0F57A7F03D9C2
:103F40000820A06303209CE72068806800F001003F
:103F50000028EFD0FFF7B2FE054609E0FFF7AEFEFE
:103F6000401BB0F57A7F03D91020A063032088E7B7
:103F700020688068C0F300100028EFD00020A06304
:103F8000012084F8350038467BE700000E0000FC75
:103F90007047704770B5044608202168C8602068E3
:103FA000806840F0040021688860FFF787FE0546BE
:103FB0000EE0FFF783FE401BB0F57A7F08D904209E
:103FC000A06300BF002084F8340000BF032070BD50
:103FD00020688068C0F3C0000028EAD0012084F87F
:103FE000350000BF002084F8340000BF00BFEEE7BA
:103FF00070477047704770477047704710B5044668
:104000002068006800F0010050B12068806800F06E
:10401000010028B10120216848602046FFF7EAFF2F
:1040200020680068C0F3400050B120688068C0F389
:10403000400028B10220216848602046FFF7D8FFE1
:1040400020680068C0F3800050B120688068C0F329
:10405000800028B1042021684860204600F0CCF898
:1040600020680068C0F3C00050B120688068C0F3C9
:10407000C00028B10820216848602046FFF7BBFF38
:1040800020680068C0F3001050B120688068C0F359
:10409000001028B11020216848602046FFF7A9FFD2
:1040A00020680068C0F3401050B120688068C0F3F9
:1040B000401028B12020216848602046FFF79DFF6E
:1040C00020680068C0F3801050B120688068C0F399
:1040D000801028B14020216848602046FFF78CFFFF
:1040E00010BD000070B504460CB9012070BD6068B9
:1040F000012800D100BF4FF6FF716069884200D0EF
:1041000000BF94F8360028B9002084F83500204616
:1041100000F050F8022084F836002068C568606816
:10412000012803D0A06AB0F5000F01D125F01E05CB
:104130004FF6FF716069884202D04EF2C00085439D
:104140001A480540D4E901010843216A0843616A1D
:104150000843A16A084305436068012803D0A06AA8
:10416000B0F5000F03D1D4E90310084305434FF61F
:10417000FF716069884205D0D4E905100843E16900
:10418000084305432068C56009492068884205D175
:10419000D4E90B0108432168086202E02168E06A63
:1041A0000862012084F8360000209FE7F8F119FF2B
:1041B000007C004038B504460D492068884215D17E
:1041C00000BF0C48806D40F000400A4988650846F1
:1041D000806D00F00040009000BF00BF00220F2162
:1041E000412000F06BF8412000F058F838BD000085
:1041F000007C0040001002407047000008B500BF7E
:104200001448006E40F00100124908660846006E2E
:1042100000F00100009000BF00BF002205216FF0F8
:104220000B0000F04BF8002205216FF00A0000F0AF
:1042300045F8002205216FF0090000F03FF8002248
:104240000521101F00F03AF800220521881F00F018
:1042500035F808BD0010024010B501460846002898
:1042600017DB00F01F0301229A400B4B440943F86F
:10427000242000BF00BF00BFBFF34F8F00BF00BFAF
:1042800000BF00BF00BF00BFBFF36F8F00BF00BF04
:1042900000BF00BF10BD000080E100E001460846FD
:1042A000002809DB00F01F0301229A4043099B000C
:1042B00003F1E023C3F8002100BF70472DE9F05F50
:1042C00080460D461646002706F054FB0746394641
:1042D0002A46334601F00700C0F1070ABAF1040F7D
:1042E00002D94FF0040A01E0C0F1070AD14600F1FB
:1042F000040ABAF1070F02D24FF0000A01E0A0F160
:10430000030AD4464FF0010A0AFA09FAAAF1010A8F
:104310000AEA020A0AFA0CFA4FF0010B0BFA0CFB3C
:10432000ABF1010B0BEA030B4AEA0B0421464046B2
:1043300006F028FB00F000B830BCBDE8C09F0000CC
:1043400000BF00F00702064B19684FF6FF03194043
:10435000044B0B4343EA0221014B196000BF704735
:104360000CED00E00000FA050246B2F5007F2AD10C
:104370001D48006800F4C060B0F5007F32D01A48D4
:10438000006820F4C06040F40070174B18601748B4
:10439000006832235843164BB0FBF3F0411C00E099
:1043A000491E1148406900F48060B0F5806F01D16A
:1043B0000029F5D10C48406900F48060B0F5806FA9
:1043C00010D1032070470848006800F4C060B0F5C1
:1043D000806F07D00448006820F4C06040F480601B
:1043E000014B18600020EDE7007000401000002035
:1043F00040420F000248006800F4C06070470000AF
:10440000007000402DE9F84304460025A8462088A6
:1044100000F40060B0F5006F30D1606E80B1B0F58F
:10442000800F13D0B0F5000F03D0B0F5400F15D1B9
:1044300013E0FB48C06840F48030F949C8600FE0E1
:104440000021201D02F030FC054609E0002104F1A6
:10445000200002F0EFFC054602E001E0012500BF6C
:1044600000BF55B9EE488830006820F44000616E06
:104470000843EB49C1F8880000E0A846208800F412
:104480008050B0F5805F30D1A06E80B1B0F1807FF8
:1044900013D0B0F1007F03D0B0F1407F15D113E00D
:1044A000DF48C06840F48030DD49C8600FE000217B
:1044B000201D02F0F9FB054609E0002104F120006F
:1044C00002F0B8FC054602E001E0012500BF00BF94
:1044D00055B9D3488830006820F04070A16E084379
:1044E000CF49C1F8880000E0A846206800F40030F9
:1044F000B0F5003F77D14FF00009C948806D012128
:1045000021EA107078B100BFC548806D40F080503E
:10451000C34988650846806D00F08050009000BF58
:1045200000BF4FF00109BF48006840F48070BD49EA
:104530000860FFF7C3FB074606E0FFF7BFFBC01BA1
:10454000022801D9032505E0B648006800F4807010
:104550000028F2D000BF85BBB1489030006800F45D
:104560004076D6B1D4F88400B04216D0AC48903032
:10457000006820F44076AA48D0F8900040F48030DB
:10458000A749C1F890000846D0F8900020F4803088
:10459000C1F890000846C0F8906006F00100A8B18C
:1045A000FFF78CFB074609E0FFF788FBC01B41F2D1
:1045B0008831884202D9032507E017E098489030F7
:1045C000006800F002000028EED000BF65B99448F2
:1045D0009030006820F44070D4F88410084390496B
:1045E000C1F8900003E00CE0A84600E0A846B9F14D
:1045F000010F05D18A48806D20F080508849886578
:1046000000BF207800F0010048B18548883000687C
:1046100020F00300A16B08438149C1F8880020788D
:1046200000F00200022809D17D488830006820F09F
:104630000C00E16B08437A49C1F88800207800F04B
:104640000400042809D176488830006820F0300042
:10465000216C08437249C1F88800207800F00800F6
:10466000082809D16E488830006820F0C000616CCD
:1046700008436B49C1F88800207800F0100010282A
:1046800009D167488830006820F44070A16C084365
:104690006349C1F88800207800F02000202809D163
:1046A0005F488830006820F44060E16C08435C4952
:1046B000C1F88800208800F40070B0F5007F09D1AF
:1046C00057488830006820F44020E16D0843544981
:1046D000C1F88800208800F48060B0F5806F09D1AF
:1046E0004F488830006820F44010216E08434C4940
:1046F000C1F88800207800F04000402809D14848DF
:104700008830006820F44050216D08434449C1F8C6
:104710008800207800F08000802809D14048883047
:10472000006820F44040616D08433D49C1F88800AD
:10473000208800F48070B0F5807F09D13848883037
:10474000006820F44030A16D08433549C1F8880065
:10475000208800F40050B0F5005F1FD13048883049
:10476000006820F04060E16E08432D498831086000
:10477000E06EB0F1006F06D12948C06840F48010A7
:104780002749C8600AE0E06EB0F1806F06D10121D0
:10479000201D02F089FA054605B1A846206800F4FC
:1047A0000020B0F5002F1FD11D488830006820F090
:1047B0004060216F08431A4988310860206FB0F1CA
:1047C000006F06D11648C06840F480101449C860D4
:1047D0000AE0206FB0F1806F06D10121201D02F0A8
:1047E00063FA054605B1A846206800F48020B0F5BC
:1047F000802F24D10A488830006820F04060616F23
:104800000843074988310860606FB0F1006F0BD131
:104810000348C06840F480100149C8600FE0000000
:104820000010024000700040606FB0F1806F06D150
:104830000121201D02F038FA054605B1A84620885E
:1048400000F48040B0F5804F1FD12248006820F06E
:104850004050A16F08431F490860A06FB0F1805F0E
:1048600007D10221201D02F01FFA05466DB1A846AE
:104870000BE0A06FB0F1005F07D1022104F120002E
:1048800002F0D8FA054605B1A846208800F4004099
:10489000B0F5004F09D10F48006820F08040E16F6B
:1048A00008430C498839C1F88800206800F480303A
:1048B000B0F5803F0AD10748006820F00040D4F8E6
:1048C0008010084303498839C1F888004046BDE894
:1048D000F8830000881002402DE9F04104460D469F
:1048E00014B90120BDE8F0815548006800F00700C8
:1048F000A8420ED25248006820F0070028435049D1
:1049000008600846006800F00700A84201D00120B6
:10491000E8E7207800F00100002840D06068032814
:1049200006D14848006800F00070D8B90120D9E7E6
:104930006068022806D14348006800F4003088B956
:104940000120CFE7606830B93E48006800F00200FF
:1049500040B90120C6E73B48006800F4806008B910
:104960000120BFE73748806820F0030061680843F2
:1049700034498860FFF7A2F9064608E0FFF79EF980
:10498000801B41F28831884201D90320AAE72D48D3
:10499000806800F00C006168B0EB810FEED12078E8
:1049A00000F00200022807D12648806820F0F000BD
:1049B000A1680843234988602148006800F0070087
:1049C000A8420ED91E48006820F0070028431C4961
:1049D00008600846006800F00700A84201D00120E6
:1049E00080E7207800F00400042807D1154880688B
:1049F00020F4E060E168084312498860207800F004
:104A00000800082808D10F48806820F46050216908
:104A100040EAC1000B49886000F046F809498968FE
:104A2000C1F30311084A515C01F01F01C840074956
:104A3000086007480068FFF79BF90746384651E7CA
:104A400000200240001002407805010810000020FC
:104A50000800002001480068704700001000002096
:104A600000B5FFF7F7FF05498968C1F30221044A41
:104A7000515C01F01F01C84000BD00000010024061
:104A80008805010800B5FFF7E5FF05498968C1F30E
:104A9000C221044A515C01F01F01C84000BD000062
:104AA0000010024088050108F0B500230020DFF85F
:104AB000D4C0DCF808C00CF00C01DFF8C8C0DCF88A
:104AC0000CC00CF0030719B10C291ED1012F1CD109
:104AD000DFF8B0C0DCF800C00CF0080CBCF1000F2F
:104AE00006D1DFF8A0C0DCF894C0CCF3032305E0C6
:104AF000DFF890C0DCF800C0CCF30313DFF888C007
:104B00005CF8233041B9184606E0042901D11F485A
:104B100002E0082900D11E480C2932D1DFF864C018
:104B2000DCF80CC00CF00304012C09D0022C02D0DC
:104B3000032C04D101E0154A04E0154A02E000BF4D
:104B40001A4600BF00BFDFF83CC0DCF80CC0CCF355
:104B5000021C0CF10106DFF82CC0DCF80CC0CCF311
:104B6000062C0CFB02FCBCFBF6F2DFF818C0DCF8EC
:104B70000CC0CCF3416C0CF1010C4FEA4C05B2FBBC
:104B8000F5F0F0BD00100240900501080024F4008B
:104B900000127A002DE9F843044614B90120BDE85B
:104BA000F883F948806800F00C07F748C06800F007
:104BB0000306207800F01000102876D11FB10C2FCA
:104BC00075D1012E73D1F048006800F0020018B1D1
:104BD000A06908B90120E2E7EB48216A006800F00B
:104BE000080020B1E848006800F0F00005E0E64861
:104BF0009430006800F47060000981421FD9206A77
:104C000002F0CAF908B10120C9E700BFDE48006818
:104C100040F00800DC4908600846006820F0F00019
:104C2000216A0843D849086000BF0846406820F45C
:104C30007F40E16940EA0120D34948601EE000BF9F
:104C4000D148006840F00800CF4908600846006875
:104C500020F0F000216A0843CB49086000BF0846F5
:104C6000406820F47F40E16940EA0120C64948607D
:104C7000206A02F091F908B1012090E7FFF714FFD4
:104C8000C1498968C1F30311C04A515C01F01F0199
:104C9000C840BF490860BF480068FFF769F8804610
:104CA000B8F1000F4ED0404679E74BE0FFE7A0692E
:104CB00080B3B548006840F00100B3490860FEF7D2
:104CC000FDFF054606E0FEF7F9FF401B022801D96B
:104CD000032064E7AC48006800F002000028F2D02E
:104CE00000BFA948006840F00800A74908600846CE
:104CF000006820F0F000216A0843A349086000BF63
:104D00000846406820F47F40E16940EA01209E495E
:104D1000486017E0FFE79C48006820F001009A49CE
:104D20000860FEF7CBFF054606E0FEF7C7FF401B15
:104D3000022801D9032032E79348006800F00200FE
:104D40000028F2D1207800F0010000285CD0082F64
:104D500003D00C2F0AD1032E08D18B48006800F431
:104D6000003088B3606878BB012018E700BF606836
:104D7000B0F5803F06D18448006840F48030824915
:104D800008601AE06068B0F5A02F0BD17E4800687B
:104D900040F480207C4908600846006840F4803078
:104DA00008600AE07848006820F48030764908609E
:104DB0000846006820F48020086000BF606890B159
:104DC000FEF77CFF054607E01EE0FEF777FF401B7D
:104DD000642801D90320E2E66B48006800F4003043
:104DE0000028F2D010E0FEF769FF054606E0FEF766
:104DF00065FF401B642801D90320D0E662480068A3
:104E000000F400300028F2D1207800F002000228DF
:104E100052D1042F03D00C2F14D1022E12D15A4894
:104E2000006800F4806018B1E06808B90120B6E6B7
:104E30005548406820F0F850217C40EA0160524912
:104E4000486039E0E06800B34F48006840F4807083
:104E50004D490860FEF732FF054606E0FEF72EFFDB
:104E6000401B022801D9032099E64748006800F456
:104E700080600028F2D04448406820F0F850217C3F
:104E800040EA01604049486016E03F48006820F46D
:104E900080703D490860FEF711FF054606E0FEF709
:104EA0000DFF401B022801D9032078E63648006830
:104EB00000F480600028F2D1207800F00800082873
:104EC00036D16069D0B130489430006840F00100BC
:104ED0002D49C1F89400FEF7F1FE054606E0FEF705
:104EE000EDFE401B022801D9032058E626489430E5
:104EF000006800F002000028F1D019E02248943048
:104F0000006820F001002049C1F89400FEF7D6FEA9
:104F1000054606E0FEF7D2FE401B022801D9032019
:104F20003DE619489430006800F002000028F1D1F5
:104F3000207800F00400042873D14FF000091248D3
:104F4000806D00F0805078B900BF0F48806D40F050
:104F500080500D4988650846806D00F080500090B3
:104F600000BF00BF4FF001090B48006800F48070DB
:104F700008BB0948006840F4807007490860FEF7E4
:104F80009DFE054611E00000001002407805010872
:104F9000100000200800002000700040FEF78EFE88
:104FA000401B022801D90320F9E59948006800F464
:104FB00080700028F2D000BFA068012808D1954871
:104FC000006840F0010093499039C1F8900021E059
:104FD000A06805280FD18F48006840F004008D4973
:104FE0009039C1F890000846D0F8900040F00100D8
:104FF000C1F890000EE08748006820F00100854964
:105000009039C1F890000846D0F8900020F00400D4
:10501000C1F8900000BFA068A0B1FEF74FFE0546A2
:1050200009E02EE0FEF74AFE401B41F2883188423B
:1050300001D90320B3E57748006800F0020000289A
:10504000F0D012E0FEF73AFE054608E0FEF736FE25
:10505000401B41F28831884201D903209FE56D4809
:10506000006800F002000028F0D1B9F1010F07D16B
:1050700068489038806D20F0805066499039886586
:1050800000BFA06A00285BD00C2F78D0A06A02284D
:1050900057D160489038006820F080705D499039A1
:1050A0000860FEF70BFE054606E0FEF707FE401B14
:1050B000022801D9032072E556489038006800F0B4
:1050C00000700028F1D1D4E90B10401E41EA001114
:1050D000606B41EA0021A08F0122C2EB500041EA3F
:1050E00040514020005DC2EB500041EA4061A06B9E
:1050F000000941EA404047499039C968464A114091
:10510000084344499039C8600846006840F0807000
:1051100008600846C06840F08070C860FEF7CEFDA9
:10512000054606E0FEF7CAFD401B022801D9032010
:1051300035E538489038006800F000700028F1D05C
:1051400064E034489038006820F08070314990392C
:1051500008600846006800F0205020B90846C06882
:1051600020F00300C8602B489038C0682B490840E5
:1051700028499039C860FEF7A1FD054607E00EE01A
:10518000FEF79CFD401B022801D9032007E52148BA
:105190009038006800F000700028F1D136E0A06A75
:1051A000012800D1FBE41B489038C66806F00301D3
:1051B000E06A814228D106F07001206B401EB1EBFD
:1051C000001F21D106F4FE41606BB1EB002F1BD113
:1051D00006F40031A06B072801D0012000E0002078
:1051E000814211D106F4C001A08F0122C2EB500010
:1051F000B1EB405F08D106F0C0614020005DC2EB1A
:105200005000B1EB406F01D00120C8E40020C6E49B
:1052100000700040901002408C809DF9FFFFEEFE70
:10522000014600BF91F82000012801D102207047FB
:10523000012081F8200000BF022081F8210000BF7A
:10524000CA200A68506253200A68506200BF08688A
:10525000806840F020000A68906000BFFF200A6864
:10526000506200BF012081F8210000BF002081F8BA
:10527000200000BF00BFDAE72DE9F04104460E46EA
:10528000174600BF94F82000012802D10220BDE893
:10529000F081012084F8200000BF022084F8210062
:1052A00000BFCA202168486253202168486200BFBD
:1052B0002068806820F48060216888602068C06869
:1052C00000F0800060F490602168C8602068C068C9
:1052D00000F04000F0B9FEF7F1FC054614E0FEF7DF
:1052E000EDFC401BB0F57A7F0ED900BFFF2021688E
:1052F000486200BF032084F8210000BF002084F82A
:10530000200000BF0320C2E72068C06800F004004E
:105310000028E4D0206846612068806820F00700FB
:105320003843216888601448006840F480101249AE
:10533000086011480830006840F480100E490831B8
:1053400008602068806840F4804021688860206898
:10535000806840F480602168886000BFFF20216879
:10536000486200BF012084F8210000BF002084F8BB
:10537000200000BF00BF8AE70004014010B50446CA
:10538000014806F0E9F810BDD801002010B5044628
:105390004FF480100A4908602068C068C0F380207C
:1053A00050B12068C06800F0800060F4906021680F
:1053B000C8602046FFF7E2FF012084F8210010BDFD
:1053C0001404014070B504460125002C48D0022089
:1053D00084F8210000BFCA20216848625320216858
:1053E000486200BF204601F059FE0546002D37D126
:1053F0002168086042F201102168486020688068D6
:105400000020216888604FF6FF70216848611548C8
:105410002168086100202168C8612168086221684C
:10542000C8622168C863216848642168886420468E
:1054300001F056FE05469DB90020216808642168E8
:10544000C86400BFFF202168486200BF204600F00A
:1054500065F8002084F8210000BF84F8200000BF18
:10546000284670BDFF007F0070B504460125002C62
:105470004FD094F8210028B9002084F8200020465D
:1054800000F04DF8022084F8210000BFCA202168F6
:10549000486253202168486200BF204601F0FEFDAB
:1054A0000546002D35D1206880681B4908402168D9
:1054B0008860216960680843A16908432168896898
:1054C0000843216888602168E068086120680169F4
:1054D000208941EA004021680861204601F000FE71
:1054E0000546B5B92068C06C20F003002168C86487
:1054F0006169E06908432168C96C08432168C86490
:1055000000BFFF202168486200BF15B9012084F860
:105510002100284670BD0000BFFF8FFF7047704715
:1055200070B504462068C06820F0A0002168C860FB
:10553000FEF7C4FB054607E0FEF7C0FB401BB0F5D5
:105540007A7F01D9032070BD2068C06800F0200078
:105550000028F1D00020F6E770B504462546681E05
:10556000B0F1807F01D301200FE0681E4FF0E021F1
:1055700048610F214FF0FF3005F004FA00204FF092
:10558000E021886107200861002070BD014600BF4E
:1055900091F87000012801D102207047012081F8A4
:1055A000700000BF0868006840F002000A681060E0
:1055B00000BF002081F8700000BF00BFEDE770471A
:1055C0007047704710B504462068006820F490705A
:1055D000216808602068806820F0010021688860E8
:1055E0002068806800F04000402825D1206880684D
:1055F00020F0400021688860E06E50B11548E16EEF
:105600008863E06EFEF774F910B3E06E816B884733
:105610001EE00020A4F85A0060650F20216808628F
:105620002068008B40F00800216808832020A067D4
:105630002046FFF7C6FF0BE00020A4F85A00606583
:105640000F20216808622020A0672046FFF7B9FFDD
:10565000002010BD159500087047000010B50446E5
:105660002068006820F0C000216808602068806819
:1056700000F0800080281CD12068806820F0800025
:1056800021688860A06E50B10F48A16E8863A06E3B
:10569000FEF72EF9B0B1A06E816B884712E00020B2
:1056A000A4F852006066202060672046FFF7D4FF10
:1056B00008E00020A4F852006066202060672046C1
:1056C000FFF7CAFF002010BD7995000870B50446A9
:1056D00001252068006820F4F070216808602068C7
:1056E000806820F0010021688860A06E60B12068A9
:1056F000806800F08000802803D13048A16E886364
:1057000002E00020A16E8863E06E60B120688068CE
:1057100000F04000402803D12948E16E886302E090
:105720000020E16E88632068806800F08000802897
:1057300010D12068806820F0800021688860A06E09
:1057400040B1A06EFEF7D4F818B10020A16E8863B6
:1057500000E000252068806800F04000402811D15A
:105760002068806820F0400021688860E06E48B1C1
:10577000E06EFEF7BDF820B10020E16E88630125E0
:1057800000E00025012D16D10020A4F85200A4F855
:105790005A0020666066E0670F2021680862206872
:1057A000008B40F008002168088320206067A06714
:1057B0002046FFF705FF002070BD00003F95000860
:1057C000CF94000810B504460CB9012010BD242068
:1057D00060672068006820F00100216808600020F0
:1057E000216808602168486021688860204600F0D0
:1057F00015F90020E0676067A06700BF84F87000BB
:1058000000BF00BFE2E7000002490968491C014AE5
:1058100011607047740200202DE9F04704462068AB
:10582000C569206806682068876805F00F08B8F128
:10583000000F0CD105F0200048B106F0200030B177
:10584000206E10B12046216E8847BDE8F087B8F180
:10585000000F71D007F0010018B906F4907000280D
:1058600079D005F0010048B106F4807030B1012014
:1058700021680862E06F40F00100E06705F0020077
:1058800048B107F0010030B1022021680862E06FE2
:1058900040F00400E06705F0040048B107F00100A3
:1058A00030B1042021680862E06F40F00200E06738
:1058B00005F0080060B106F0200010B907F0010003
:1058C00030B1082021680862E06F40F00800E0670E
:1058D000E06F80B305F0200038B106F0200020B161
:1058E000206E10B12046216E8847D4F87C90206845
:1058F000806800F04000402802D009F0080020B382
:10590000204603F045FE2068806800F040004028F3
:1059100017D12068806820F0400021688860E06E20
:1059200058B12048E16E8863E06EFDF7E1FF10B1E9
:10593000E06E816B88470DE00DE02046FFF764FFC5
:1059400008E02046FFF760FF04E02046FFF75CFF19
:105950000020E06779E705F4801050B107F480007B
:1059600038B14FF48010216808622046FFF727FE07
:105970006BE705F0800040B106F0800028B1606E52
:1059800010B12046616E88475FE705F0400030B1F6
:1059900006F0400018B1204603F00BFE55E700BFAB
:1059A00053E70000B794000810B504460CB9012075
:1059B00010BDA06900B100E000BF606F28B90020F1
:1059C00084F87000204600F02AF8242060672068E0
:1059D000006820F0010021680860204603F062FEA4
:1059E000012800D1E4E7606A10B1204603F0B0FC62
:1059F0002068406820F490402168486020688068F2
:105A000020F02A00216888602068006840F00100CA
:105A100021680860204603F017FDC9E7704770470A
:105A200010B50346986F202865D101B10AB901204D
:105A300010BD00BF93F87000012801D10220F7E7E4
:105A4000012083F8700000BF5965A3F85820A3F81F
:105A50005A200020186600BF9868B0F5805F0AD110
:105A6000186920B940F2FF10A3F85C0020E0FF2085
:105A7000A3F85C001CE0986848B9186918B9FF20C1
:105A8000A3F85C0014E07F20A3F85C0010E09868A5
:105A9000B0F1805F09D1186918B97F20A3F85C00C4
:105AA00006E03F20A3F85C0002E00020A3F85C00C1
:105AB00000BF0020D867222098671868806840F0EF
:105AC00001001C68A0609868B0F5805F04D1186977
:105AD00010B90A48186601E00948186600BF00209E
