:020000040800F2
:10000000404100207D020008256400085555000885
:100010002164000881160008757A000800000000BD
:100020000000000000000000000000009D0100082A
:100030008527000800000000F90100082974000865
:10004000357C00082964000825750008356900081A
:10005000F92800089B02000889270008F1270008FA
:1000600025280008592800088D280008AD2400081C
:10007000E124000815250008492500087D25000811
:10008000B1250008E5250008F5080008ED21000865
:100090005121000885210008B9210008C128000865
:1000A00059750008F5750008C17500088D750008C0
:1000B000297600085D7600089B0200088D5500082F
:1000C00059550008F5550008C1550008D1690008C8
:1000D000056A0008D97900080D7A0008417A0008FD
:1000E000BD270008556800089B0200089B02000815
:1000F0009B0200089B0200089B0200089B0200086C
:100100009B0200089D6900089B020008396A0008EC
:10011000A57900089B020008917600089B02000860
:10012000192600084D26000881260008B52600087B
:10013000E926000845240008792400089B020008ED
:1001400021220008ED590008FD5900089B02000813
:100150001D27000851270008F55B000861640008AE
:100160005D56000829560008696900089B020008CE
:100170009B020008C57600089B02000800000000F2
:10018000216800082D290008DFF80CD000F044FB9E
:1001900000480047BD900008404100202C4B1968E2
:1001A000086800F05AB880F30988BFF36F8F4FF0EA
:1001B000000080F3118870470000000008480068C4
:1001C000006880F308884FF0000080F3148862B65E
:1001D00061B6BFF34F8FBFF36F8F00DF00BF00BF6B
:1001E00008ED00E0DFF80C00016841F470010160E7
:1001F000704700BF88ED00E0EFF30980BFF36F8F19
:10020000134B1A681EF0100F08BF20ED108A20E96A
:10021000F04F106009B44FF0500080F31188BFF325
:100220004F8FBFF36F8F0AF0D9FE4FF0000080F3BD
:10023000118809BC1968086800F014B81EF0100F86
:1002400008BF00F014B880F30988BFF36F8F7047C0
:100250001C000020EFF30580704730C8B0E8C04FA5
:10026000FFF7A1BF30C8B0E8C04FFFF7E7BFB0EC61
:10027000088AB0EC08CAFFF7E6BF000007488047CD
:100280000748804707480047FEE7FEE7FEE7FEE72E
:10029000FEE7FEE7FEE7FEE7FEE7FEE7D5740008AF
:1002A000D50800088901000840EA01039B0703D034
:1002B00009E008C9121F08C0042AFAD203E011F8A5
:1002C000013B00F8013B521EF9D27047D2B201E067
:1002D00000F8012B491EFBD270470022F6E710B54B
:1002E00013460A4604461946FFF7F0FF204610BDA4
:1002F0002DE9FE4F81EA030404F0004421F000419F
:1003000000944FF0000B23F0004350EA01045ED04C
:1003100052EA03045BD0C3F30A54C1F30A552C44D8
:10032000A4F2F3340194A0FB0254C1F3130141F48D
:100330008011C3F3130343F4801301FB024400FB59
:10034000034E840A970A44EA815447EA8357A4FB80
:10035000076802958D0A05FB07854FEA932C04FB7D
:100360000C542705029D4FEA065847EA1637B5EBAD
:1003700008056EEB070C870E920E47EA811742EADA
:100380008312A7FB0201B6EB0B0164EB00042B0DFB
:1003900043EA0C335E1844EB1C50DA465146E7FB47
:1003A0000201C5F313044FEA0B3343EA14534FEA37
:1003B0000432019C43EA0603A4F10C040294009C5D
:1003C000CDE900B400F08BF803B000F003B80020D2
:1003D0000146F9E730BCBDE8C08FC1F30A5210B541
:1003E000C1F3130140F2FF3341F480119A4201DA64
:1003F000002010BD40F233439A42A2F2334203DCA4
:10040000524200F04DF810BD904010BD30B50B4683
:10041000014600202022012409E021FA02F59D4234
:1004200005D303FA02F5491B04FA02F52844151E08
:10043000A2F10102F1DC30BD2DE9F05F054600209C
:1004400092469B4688460646814640241BE0284645
:1004500041464746224600F023F853465A46C01A02
:10046000914110D311461846224600F0E7F92D1AA3
:1004700067EB01084F4622460120002100F0DEF91B
:1004800017EB00094E41201EA4F10104DFDC4846B1
:1004900031462A46434600F000B830BCBDE8C09F54
:1004A000202A04DB203A21FA02F00021704721FAC9
:1004B00002F3D040C2F12002914008431946704730
:1004C00010B5141E73F1000408DA401C41F100015C
:1004D00092185B411A4301D120F0010010BD2DE9B3
:1004E000F04D92469B4611B1B1FA81F202E0B0FAAA
:1004F00080F22032904600F0A1F904460F4640EA0F
:100500000A0041EA0B0153465A46084313D01146EC
:1005100053EA010019D0C8F140025046FFF7C0FF6E
:1005200005460E4650465946424600F087F90843B4
:1005300005D0012004E020463946BDE8F08D0020BA
:10054000054346EAE0762C4337430A986305E40AFC
:10055000A0EB08000022FD0A44EA47540A3002D505
:1005600000200146E9E7010510196941DDE9084568
:1005700000196941BDE8F04DA2E72DE9FE4F804624
:1005800081EA0300C00F0C46009021F0004123F0E7
:100590000045B8EB0200A94105D2404621469046ED
:1005A0001C460B46024623F00040104347D0270D5F
:1005B000C7F30A00C3F30A510290401A0190402881
:1005C0006BDAC3F3130040F4801B0098924620B10D
:1005D0000023D2EB030A63EB0B0B01985946C0F1E1
:1005E0004002504600F02AF906460D46504659464C
:1005F000019A00F032F910EB08006141002487EA0B
:10060000115284EAE7731A4340D0009A62B3019A08
:10061000012A4FEA075215DC001B61EB02014FF083
:10062000004202EA0752CDE90042001C41F5801168
:1006300032462B46FFF753FF03B000F045B8404663
:100640002146F9E7001B61EB0201001C41F5801314
:1006500000185B412018A2F5001747EB030140EAA0
:10066000D570B6196D4111E06D084FEA360645EABE
:10067000C0754FEA0752001B61EB0201001C41F5F7
:10068000801149084FEA30000019514132462B468B
:1006900003B000F01CB8FFF713BF00980122400020
:1006A0000023D0EB020263EBE073009821464FEA8F
:1006B000E074B8EB000061EB0401E9E783F000436C
:1006C0005BE781F0004158E730BCBDE8C08F30BC2B
:1006D000BDE8C04FFFF7DFBF2DE9F04D81EA03040D
:1006E00004F0004B21F0004514464FF0000A23F0BF
:1006F000004150EA050220D054EA01021DD0C5F3A2
:100700000A570246C5F31303C1F31300C1F30A5697
:1007100040F4801543F48013A7EB0608101BD6465F
:1007200008F2FD3873EB050002D308F1010801E07F
:1007300092185B41B8F1000F03DA00200146BDE8D2
:10074000F08D00204FF48011064684460EE0171B02
:1007500073EB050705D3121B63EB050306434CEA55
:10076000010C49084FEA300092185B4150EA01073A
:10077000EDD152EA030012D082EA040083EA0501B7
:10078000084305D0101BAB4106D20122002306E02E
:1007900000224FF0004302E06FF0010253101AEB09
:1007A00006004CEB085110EB0A0041EB0B01BDE8D1
:1007B000F04DFFF785BEC1F30A52C1F3130140F2B9
:1007C000FF3341F480119A4202DA0020014670475B
:1007D00040F233439A42A2F2334202DC5242FFF724
:1007E0005FBE00F02BB8000030B5041E71F10004AC
:1007F00004DB4FF00044404264EB0101141E73F12E
:10080000000405DB1C464FF00043524263EB040337
:10081000994208BF904230BD064C074D06E0E068A3
:1008200040F0010394E8070098471034AC42F6D337
:10083000FFF7AEFCECC800080CC90008202A04DB56
:10084000203A00FA02F1002070479140C2F12003E3
:1008500020FA03F3194390407047202A06DBCB1798
:10086000203A41FA02F043EAE07306E041FA02F36B
:10087000D040C2F12002914008431946704770B53C
:100880008C1810F8015B15F0070301D110F8013B3B
:100890002A1106D110F8012B03E010F8016B01F8C2
:1008A000016B5B1EF9D12B0705D40023521E0DD41A
:1008B00001F8013BFAE710F8013BCB1A921C03E068
:1008C00013F8015B01F8015B521EF9D5A142D8D3A0
:1008D000002070BD064869464FF0CD324FF0AB3373
:1008E000036000E00260001D8842FBD170470000F9
:1008F000403D002010B50A4806F05AFD094908603D
:1009000009E008490968486880470648006806F019
:1009100055FD04490860034800680028F1D110BD66
:1009200094370020E40000202DE9F05F044688465B
:100930004FF000094746206805F01CF88246206801
:1009400005F004F88346BAF1000F02D1BBF1000FA5
:100950006ED02068C06800F0007000B3607E01288F
:100960001DD1207E01281AD101270FE03148814591
:100970000AD3606D40F010006065A06D40F001008A
:10098000A065012000F05AB809F10109206800684B
:10099000C0F380100028E9D0402021680860022FB1
:1009A00010D0206804F0E6FF60B1206804F0D3FFA7
:1009B00040B920688168204A114041F010018160EF
:1009C00000BF00BF012F10D0206804F0BFFF60B14E
:1009D000206804F0C0FF40B920688168164A1140C1
:1009E00041F02001816000BF00BF022F03D0032F20
:1009F00003D10C2503E0082501E0042500BF00BF5A
:100A000003F0B8F806460EE003F0B4F8801B0528A2
:100A100009D9606D40F010006065A06D40F00100E4
:100A2000A0650120AEE72068806828400028EBD14F
:100A30000020A7E7000040A3C0FFFF7F30BCBDE857
:100A4000C09F000070B50446206804F084FF06468D
:100A5000206804F085FF70B36EBB2068806800F0EA
:100A60000D0001280AD120688168174A1140891CAD
:100A7000816000BF03202168086009E0606D40F0DC
:100A800010006065A06D40F00100A065012070BD00
:100A900003F070F805460FE003F06CF8401B0228E5
:100AA0000AD9606D40F010006065A06D40F0010053
:100AB000A0650120EBE705E02068806800F00100F8
:100AC0000028E9D10020E2E7C0FFFF7F70B50446AF
:100AD000206804F045FF88BB2068806818490840FA
:100AE00048B1606D40F010006065A06D40F00100FD
:100AF000A065012070BD206804F012FF03F03AF8F1
:100B0000054615E0206804F02BFF10B9206804F0BA
:100B100007FF03F02FF8401B022809D9606D40F051
:100B200010006065A06D40F00100A0650120E1E7C4
:100B30002068006800F001000028E3D00020D9E719
:100B40003F00008010B5024803F09AF810BD000085
:100B5000383C002010B5044600BF074800684068D4
:100B600020F4E0502043044909684860024804F03A
:100B7000B1FE00BF10BD0000383C00202DE9FE4F43
:100B80000446002C01DA604200E0204605460A20B7
:100B9000B5FBF0F100FB1156B5FBF0F00A21B0FBFC
:100BA000F1F201FB12076420B5FBF0F0B0FBF1F2AB
:100BB00001FB12084FF47A70B5FBF0F0B0FBF1F2D4
:100BC00001FB120942F21070B5FBF0F0B0FBF1F23C
:100BD00001FB120AE448B5FBF0F0B0FBF1F201FBB7
:100BE000120BE248B5FBF0F0B0FBF1F201FB120092
:100BF0000290DF48B5FBF0F0B0FBF1F201FB120010
:100C00000190DC48B5FBF0F0B0FBF1F201FB120003
:100C10000090009820B30021009807F025F80121EA
:100C2000019807F021F80221029807F01DF803212E
:100C3000584607F019F80421504607F015F8052129
:100C4000484607F011F80621404607F00DF8072145
:100C5000384607F009F80821304607F005F870E13A
:100C6000019858B3002C04DA0021102006F0FCFF94
:100C700003E00021122006F0F7FF0121019806F0A1
:100C8000F3FF0221029806F0EFFF0321584606F019
:100C9000EBFF0421504606F0E7FF0521484606F029
:100CA000E3FF0621404606F0DFFF0721384606F045
:100CB000DBFF0821304606F0D7FF42E1029858B327
:100CC0000021122006F0D0FF002C04DA01211020B0
:100CD00006F0CAFF03E00121122006F0C5FF022141
:100CE000029806F0C1FF0321584606F0BDFF04211B
:100CF000504606F0B9FF0521484606F0B5FF06212B
:100D0000404606F0B1FF0721384606F0ADFF082146
:100D1000304606F0A9FF14E1BBF1000F2BD00021F3
:100D2000122006F0A1FF0121122006F09DFF002CE9
:100D300004DA0221102006F097FF03E002211220BE
:100D400006F092FF0321584606F08EFF042150461C
:100D500006F08AFF0521484606F086FF0621404638
:100D600006F082FF0721384606F07EFF0821304654
:100D700006F07AFFE5E0BAF1000F2BD00021122037
:100D800006F072FF0121122006F06EFF02211220F0
:100D900006F06AFF002C04DA0321102006F064FF3D
:100DA00003E00321122006F05FFF0421504606F005
:100DB0005BFF0521484606F057FF0621404606F036
:100DC00053FF0721384606F04FFF0821304606F052
:100DD0004BFFB6E0B9F1000F2BD00021122006F036
:100DE00043FF0121122006F03FFF0221122006F0EE
:100DF0003BFF0321122006F037FF002C04DA042108
:100E0000102006F031FF03E00421122006F02CFF31
:100E10000521484606F028FF0621404606F024FF3B
:100E20000721384606F020FF0821304606F01CFF57
:100E300087E0B8F1000F2BD00021122006F014FF3C
:100E40000121122006F010FF0221122006F00CFFF3
:100E50000321122006F008FF0421122006F004FFEF
:100E6000002C04DA0521102006F0FEFE03E0052127
:100E7000122006F0F9FE0621404606F0F5FE072195
:100E8000384606F0F1FE0821304606F0EDFE58E047
:100E90005FB30021122006F0E7FE0121122006F0C8
:100EA000E3FE0221122006F0DFFE0321122006F0ED
:100EB000DBFE0421122006F0D7FE0521122006F0E9
:100EC000D3FE002C04DA0621102006F0CDFE03E04C
:100ED0000621122006F0C8FE0721384606F0C4FE9F
:100EE0000821304606F0C0FE2BE056B30021122048
:100EF00006F0BAFE0121122006F0B6FE02211220F1
:100F000006F0B2FE0321122006F0AEFE04211220EC
:100F100006F0AAFE0521122006F0A6FE06211220E8
:100F200006F0A2FE002C04DA0721102006F09CFE39
:100F300003E00721122006F097FE0821304606F054
:100F400093FE0121002001F0D3FD0121084601F0AC
:100F5000CFFD0121022001F0CBFD0121032001F092
:100F6000C7FD00F009B80000A086010040420F0054
:100F70008096980000E1F5051EBCBDE8E08F0000FA
:100F800030B52DED048B85B0B0EE408AF0EE608A6E
:100F9000044653EC182BFEA101A807F033FA9FED8D
:100FA000FD0B53EC102B51EC180BFFF7A1F941ECA2
:100FB000190BFFF712FA6421B0FBF1F201FB1205E5
:100FC0002A46F6A103A807F01DFA9DF806002E2870
:100FD00057D10021122006F047FE0121122006F011
:100FE00043FE0221122006F03FFE0321122006F0EC
:100FF0003BFE9DF804002D2804D10421102006F0AA
:1010000033FE03E00421122006F02EFE9DF80510A9
:101010003039C8B2052106F027FE9DF80710303997
:10102000C8B2062106F020FE9DF808103039C8B27B
:10103000072106F019FE9DF809103039C8B20821C1
:1010400006F012FE002C1BD09DF80A103039C8B2F1
:10105000092106F009FE9DF80B103039C8B20A21AB
:1010600006F002FE9DF80C103039C8B20B2106F0D4
:10107000FBFD9DF80D103039C8B20C2106F0F4FDCF
:1010800097E19DF807002E285AD10021122006F082
:10109000EBFD0121122006F0E7FD0221122006F0EF
:1010A000E3FD9DF804002D2804D10321102006F053
:1010B000DBFD03E00321122006F0D6FD9DF80510AC
:1010C0003039C8B2042106F0CFFD9DF80610303942
:1010D000C8B2052106F0C8FD9DF808103039C8B225
:1010E000062106F0C1FD9DF809103039C8B207216C
:1010F00006F0BAFD9DF80A103039C8B2082106F092
:10110000B3FD002CBCD09DF80B103039C8B20921BA
:1011100006F0AAFD9DF80C103039C8B20A2106F07D
:10112000A3FD9DF80D103039C8B20B2106F09CFDCF
:101130009DF80E103039C8B20C2106F095FD38E14B
:101140009DF808002E285DD10021122006F08CFDAC
:101150000121122006F088FD9DF804002D2804D1FD
:101160000221102006F080FD03E00221122006F08B
:101170007BFD9DF805103039C8B2032106F074FDDF
:101180009DF806103039C8B2042106F06DFD9DF8B7
:1011900007103039C8B2052106F066FD9DF8091028
:1011A0003039C8B2062106F05FFD9DF80A103039CB
:1011B000C8B2072106F058FD9DF80B103039C8B2AF
:1011C000082106F051FD002CB9D09DF80C103039E3
:1011D000C8B2092106F048FD9DF80D103039C8B29B
:1011E0000A2106F041FD9DF80E103039C8B20B21DE
:1011F00006F03AFD9DF80F103039C8B20C2106F008
:1012000033FDD6E09DF809002E2860D10021122080
:1012100006F02AFD9DF804002D2804D1012110209C
:1012200006F022FD03E00121122006F01DFD9DF8CD
:1012300005103039C8B2022106F016FD9DF80610DF
:101240003039C8B2032106F00FFD9DF80710303980
:10125000C8B2042106F008FD9DF808103039C8B264
:10126000052106F001FD9DF80A103039C8B20621AB
:1012700006F0FAFC9DF80B103039C8B2072106F0D1
:10128000F3FC9DF80C103039C8B2082106F0ECFCD4
:10129000002CB6D09DF80D103039C8B2092106F0E7
:1012A000E3FC9DF80E103039C8B20A2106F0DCFCD0
:1012B0009DF80F103039C8B20B2106F0D5FC9DF80F
:1012C00010103039C8B20C2106F0CEFC71E09DF848
:1012D0000A002E286DD19DF804002D2804D100218C
:1012E000102006F0C1FC03E00021122006F0BCFC37
:1012F0009DF805103039C8B2012106F0B5FC9DF803
:1013000006103039C8B2022106F0AEFC9DF8071075
:101310003039C8B2032106F0A7FC9DF80810303917
:10132000C8B2042106F0A0FC9DF809103039C8B2FB
:10133000052106F099FC9DF80B103039C8B2062142
:1013400006F092FC9DF80C103039C8B2072106F067
:101350008BFC9DF80D103039C8B2082106F084FCD2
:10136000ACB19DF80E103039C8B2092106F07CFCF2
:101370009DF80F103039C8B20A2106F075FC9DF8AF
:1013800010103039C8B20B2106F06EFC0AE010E0F4
:101390002520660000000000D01263412530326431
:1013A000000000009DF811103039C8B20C2106F081
:1013B0005BFC0021084601F09BFB0121084601F07F
:1013C00097FB0021022001F093FB0021032001F094
:1013D0008FFB5CB100210C2001F08AFB00210D2065
:1013E00001F086FB00210E2001F082FB05B0BDEC70
:1013F000048B30BD70B504460025C2E02078273844
:10140000532870D2DFE800F0AFB2B2B2B2B248B245
:10141000B22A2D303336393C3F4245B2B2B2ACB27B
:10142000B2B24B4E5154575A767073B2B260B26634
:1014300069B2B25D7963B2B2B2B26CB2B2B2B2B2F8
:10144000B2B27C7F8285888BA6A0A3B2B291B297FC
:101450009AB2B28EA994B2B2B2B29D0000202070AE
:1014600087E00120207084E00220207081E00320CA
:1014700020707EE0042020707BE00520207078E062
:101480000620207075E00720207072E00820207090
:101490006FE0092020706CE01020207069E00A20C5
:1014A000207066E00B20207063E00C20207060E06C
:1014B0000D2020705DE00E2020705AE00F2020707B
:1014C00057E01120207054E01320207051E01420C8
:1014D00020704EE0152020704BE01620207048E070
:1014E0001720207045E041E01820207041E01920CD
:1014F00020703EE0092020703BE00520207038E09D
:101500000A20207035E00B20207032E00C20207083
:101510002FE00D2020702CE00E20207029E00F20FD
:10152000207026E01120207023E01320207020E09E
:10153000142020701DE0152020701AE01620207065
:1015400017E01720207014E01820207011E01920F7
:1015500020700EE0092020700BE00520207008E0CC
:101560001A20207005E01B20207002E0122020705D
:1015700000BF00BF14F8010BE9B206F075FB681C50
:10158000C5B20D2DFFF63AAF70BD000030B58DB07D
:10159000054600221146104605F068FA642007F05F
:1015A000B3FD0021084605F0D1FA0121002005F025
:1015B000CDFA642007F0A8FD002005F075FA50214F
:1015C000002005F037FB642007F09EFD0022114645
:1015D000104605F083FA1F4A07CA0AAB07C3002268
:1015E0000AA9042005F07AFA642007F08DFD002096
:1015F00005F092FA03208DF8000038220D210DF13C
:101600001500FEF763FE684605F030FB642007F026
:101610007BFD002007F03CFF0F49086042F210728A
:1016200008460168002005F0CBFA642007F06CFD45
:1016300042F2107208480168002005F0A3FA642005
:1016400007F062FD07F0C0FF044608F043F80DB054
:1016500030BD0000E8C50008B001002000B589B029
:10166000242205496846FEF71FFE6A46002103480A
:1016700007F0C2FF09B000BDC4C500088D15000801
:1016800000BFFEE710B51248006800F40050F0B14A
:101690004FF400500E49086000BF0E4805F088FE68
:1016A0000D4908600EE0002001F086F904460A4862
:1016B00000684168204688470748006805F07EFEBC
:1016C00005490860044800680028ECD100BF10BD3F
:1016D00014040140243900201802002010B51248DB
:1016E000006800F48060F0B14FF480600E4908603B
:1016F00000BF0E4805F05CFE0D4908600EE00120B9
:1017000001F05AF904460A480068416820468847B3
:101710000748006805F052FE054908600448006863
:101720000028ECD100BF10BD140401402C3900206A
:101730001C02002010B51248006800F48060F0B16F
:101740004FF480600E49086000BF0E4805F030FE7F
:101750000D4908600EE0022001F02EF904460A4807
:1017600000684168204688470748006805F026FE63
:1017700005490860044800680028ECD100BF10BD8E
:1017800014040140343900202002002010B5124812
:10179000006800F48060F0B14FF480600E4908608A
:1017A00000BF0E4805F004FE0D4908600EE003205E
:1017B00001F002F904460A4800684168204688475B
:1017C0000748006805F0FAFD05490860044800680C
:1017D0000028ECD100BF10BD140401403C390020AA
:1017E0002402002010B51248006800F48060F0B1B7
:1017F0004FF480600E49086000BF0E4805F0D8FD28
:101800000D4908600EE0042001F0D6F804460A48AD
:1018100000684168204688470748006805F0CEFD0B
:1018200005490860044800680028ECD100BF10BDDD
:1018300014040140443900202802002010B5124849
:10184000006800F48060F0B14FF480600E490860D9
:1018500000BF0E4805F0ACFD0D4908600EE0052004
:1018600001F0AAF804460A48006841682046884703
:101870000748006805F0A2FD0549086004480068B3
:101880000028ECD100BF10BD140401404C390020E9
:101890002C02002010B51248006800F48060F0B1FE
:1018A0004FF480600E49086000BF0E4805F080FDCF
:1018B0000D4908600EE0062001F07EF804460A4853
:1018C00000684168204688470748006805F076FDB3
:1018D00005490860044800680028ECD100BF10BD2D
:1018E00014040140543900203002002010B5124881
:1018F000006800F48060F0B14FF480600E49086029
:1019000000BF0E4805F054FD0D4908600EE00720A9
:1019100001F052F804460A480068416820468847AA
:101920000748006805F04AFD05490860044800685A
:101930000028ECD100BF10BD140401405C39002028
:101940003402002010B51248006800F48060F0B145
:101950004FF480600E49086000BF0E4805F028FD76
:101960000D4908600EE0082001F026F804460A48F8
:1019700000684168204688470748006805F01EFD5A
:1019800005490860044800680028ECD100BF10BD7C
:1019900014040140643900203802002010B50446C8
:1019A000012C04D10021084605F07EF912E0022C3A
:1019B00008D10121002005F077F90021012005F070
:1019C00073F907E00121002005F06EF901210846B6
:1019D00005F06AF910BD10B50446012C03D1502161
:1019E000002005F027F9022C0BD15021002005F032
:1019F00021F95021FF2005F01DF95021002005F0AC
:101A000019F910BD10B5034A0021042005F02EF885
:101A100010BD00009D19000810B5034A00210420E4
:101A200005F024F810BD0000D719000810B50446D1
:101A30000A2C6AD2DFE804F0050B11171D23292FA9
:101A4000353B4FF40051324801F0DCFE5EE04FF4CC
:101A500080612F4801F0D6FE58E04FF480612C4899
:101A600001F0D0FE52E04FF48061294801F0CAFE37
:101A70004CE04FF48061264801F0C4FE46E04FF48C
:101A80008061234801F0BEFE40E04FF480612048B1
:101A900001F0B8FE3AE04FF480611D4801F0B2FE5B
:101AA00034E04FF480611A4801F0ACFE2EE04FF4B0
:101AB0000051174801F0A6FE4FF48061144801F070
:101AC000A1FE4FF48061124801F09CFE4FF480614A
:101AD0000F4801F097FE4FF480610D4801F092FE2F
:101AE0004FF480610A4801F08DFE4FF48061084890
:101AF00001F088FE4FF48061054801F083FE4FF449
:101B00008061034801F07EFE00E000BF00BF10BD11
:101B10000008004810B504460A2C46D2DFE804F05D
:101B200005090D1115191D212529282002F062FB38
:101B30003CE0282002F05EFB38E0282002F05AFB4F
:101B400034E0282002F056FB30E0282002F052FB5F
:101B50002CE0282002F04EFB28E0282002F04AFB6F
:101B600024E0282002F046FB20E0282002F042FB7F
:101B70001CE0282002F03EFB282002F03BFB28203E
:101B800002F038FB282002F035FB282002F032FB5F
:101B9000282002F02FFB282002F02CFB282002F046
:101BA00029FB282002F026FB00E000BF00BF10BD8B
:101BB00010B504460A2C46D2DFE804F005090D11E1
:101BC00015191D212529282002F036FB3CE028208C
:101BD00002F032FB38E0282002F02EFB34E028200F
:101BE00002F02AFB30E0282002F026FB2CE028201F
:101BF00002F022FB28E0282002F01EFB24E028202F
:101C000002F01AFB20E0282002F016FB1CE028203E
:101C100002F012FB282002F00FFB282002F00CFB40
:101C2000282002F009FB282002F006FB282002F001
:101C300003FB282002F000FB282002F0FDFA2820F8
:101C400002F0FAFA00E000BF00BF10BD10B586B088
:101C50000446FE4802900A2C7DD2DFE804F00522FB
:101C6000405E7D9BB9D7F7F54FF4005001900020FE
:101C7000039001A9F64801F067FE00224FF40051DD
:101C8000F34801F072FF3022F249F34805F052FBAD
:101C900000220F21282002F0DFFA282002F0CCFADF
:101CA00010E24FF4806001900120039001A9E84800
:101CB00001F04AFE00224FF48061E54801F055FF33
:101CC0003022E649E448083005F034FB00220F21B9
:101CD000282002F0C1FA282002F0AEFAF2E14FF417
:101CE000806001900120039001A9D94801F02CFEE9
:101CF00000224FF48061D64801F037FF3022D849E6
:101D0000D548103005F016FB00220F21282002F0E4
:101D1000A3FA282002F090FAD4E14FF480600190F9
:101D20000120039001A9CA4801F00EFE00224FF4E1
:101D30008061C74801F019FF3022CA49C6481830EF
:101D400005F0F8FA00220F21282002F085FA282059
:101D500002F072FAB6E1B4E14FF480600190012024
:101D6000039001A9BA4801F0EFFD00224FF4806111
:101D7000B74801F0FAFE3022BB49B748203005F0E1
:101D8000D9FA00220F21282002F066FA282002F05A
:101D900053FA97E14FF4806001900120039001A96C
:101DA000AB4801F0D1FD00224FF48061A84801F05A
:101DB000DCFE3022AD49A848283005F0BBFA0022ED
:101DC0000F21282002F048FA282002F035FA79E1A4
:101DD0004FF4806001900120039001A99C4801F01C
:101DE000B3FD00224FF48061994801F0BEFE30221D
:101DF0009F499948303005F09DFA00220F21282094
:101E000002F02AFA282002F017FA5BE14FF4806012
:101E100001900120039001A98D4801F095FD002259
:101E20004FF480618A4801F0A0FE302291498A482F
:101E3000383005F07FFA00220F21282002F00CFA3A
:101E4000282002F0F9F93DE11EE0FFE74FF4806041
:101E500001900120039001A97D4801F075FD002249
:101E60004FF480617A4801F080FE302282497A483E
:101E7000403005F05FFA00220F21282002F0ECF933
:101E8000282002F0D9F91DE14FF400500190002004
:101E9000039001A96E4801F057FD00224FF4005154
:101EA0006B4801F062FE4FF48060019001200390C6
:101EB00001A9674801F048FD00224FF480616448A1
:101EC00001F053FE4FF4806001900120039001A9BE
:101ED0005F4801F039FD00224FF480615C4801F059
:101EE00044FE4FF4806001900120039001A95848FE
:101EF00001F02AFD00224FF48061554801F035FEC3
:101F00004FF4806001900120039001A9504801F036
:101F10001BFD00224FF480614D4801F026FE4FF476
:101F2000806001900120039001A9494801F00CFD57
:101F300000224FF48061464801F017FE4FF48060A4
:101F400001900120039001A9414801F0FDFC00220D
:101F50004FF480613E4801F008FE4FF4806001902C
:101F60000120039001A93A4801F0EEFC00224FF451
:101F70008061374801F0F9FD4FF480600190012045
:101F8000039001A9324801F0DFFC00224FF4806188
:101F90002F4801F0EAFD30222E492F4805F0CAF9FA
:101FA00000220F21282002F057F9282002F044F9DE
:101FB00030222A492848083005F0BCF900220F21B8
:101FC000282002F049F9282002F036F9302224496D
:101FD0002148103005F0AEF900220F21282002F030
:101FE0003BF9282002F028F930221E491A481830FF
:101FF00005F0A0F900220F21282002F02DF9282059
:1020000002F01AF9302218491348203005F092F9ED
:1020100000220F21282002F01FF9282002F00CF9DD
:10202000302212490C48283005F084F900220F2193
:10203000282002F011F9282002F0FEF830220C4985
:102040000548303005F076F9002217E00000311025
:102050000008004885160008C43B0020DD16000873
:10206000351700088D170008E51700083D1800080F
:1020700095180008ED180008451900080F212820C0
:1020800002F0EAF8282002F0D7F830220F49104871
:1020900005F050F900220F21282002F0DDF8282059
:1020A00002F0CAF830220B490948083005F042F91D
:1020B00000220F21282002F0CFF8282002F0BCF8DF
:1020C00000E000BF00BF06B010BD0000ED18000822
:1020D000FC3B00204519000810B54FF48061024810
:1020E00001F090FB10BD00000010004800B585B065
:1020F0004FF480600090012001900020029069461A
:10210000044801F021FC01229102024801F02DFD5A
:1021100005B000BD0010004810B5044634B90022D7
:102120004FF48061094801F020FD0DE0012C05D13C
:1021300001229102054801F018FD05E0022C03D1AF
:102140006102024801F00AFD10BD000000100048C5
:1021500010B50A4805F02CF90949086009E008495A
:102160000968486880470648006805F027F904496F
:102170000860034800680028F1D110BDA437002092
:10218000EC00002010B50A4805F012F90949086072
:1021900009E008490968486880470648006805F072
:1021A0000DF904490860034800680028F1D110BD0A
:1021B000AC370020F000002010B50A4805F0F8F810
:1021C0000949086009E008490968486880470648E5
:1021D000006805F0F3F80449086003480068002827
:1021E000F1D110BDB4370020F400002010B50A482A
:1021F00005F0DEF80949086009E0084909684868FF
:1022000080470648006805F0D9F80449086003488B
:1022100000680028F1D110BD9C370020E8000020A4
:1022200010B50A4805F0C4F80949086009E00849F2
:102230000968486880470648006805F0BFF8044907
:102240000860034800680028F1D110BDA4380020C0
:102250006C01002010B50446E3785B1CDAB22379E8
:102260005B1CD9B2E08800F07BFB207210BD10B57A
:10227000032001F0BFFF10BD10B5032001F0DCFF0B
:1022800010BD000010B5032001F0B4FF014803F0B9
:102290007DF810BD143C002000B5B3B0042022909E
:1022A00000202C900120249022A802F057FC08B1B5
:1022B00000F020FB4FF4003000904012219068465F
:1022C00002F0AEF808B100F015FB1848006840F4C1
:1022D000004016499039C1F890001548154908602A
:1022E000002048601F211348816040F2FF31C16027
:1022F000002101618161C16103F09AF80D4802F08B
:1023000073FF042200210B4802F09AFF0C220A49B5
:102310000A4805F00FF800220F21032001F09CFF6E
:10232000032001F089FF33B000BD0000901002408F
:1023300000280040143C0020212400083C0200201A
:1023400030B58FB00546002D47D12548007820B123
:10235000202400202249087003E03D240120204968
:102360000870204800780A2190FBF1F201FB12006E
:1023700028B91D48007880F001001B4908701A48F0
:10238000007888B11948006816490978154A5278CA
:10239000CDE90021029013488278234614A10DF163
:1023A000250006F02FF812E0104890F904000F38CD
:1023B0000C4909780B4A5278CDE90021029009486E
:1023C0008278234610A10DF1250006F01BF80320AA
:1023D0008DF8100004A804F049FC0FB030BD0000D7
:1023E000FC010020C4010020FD010020A801002004
:1023F0002530326425632530326420253032642054
:102400002530346400000000253032642563253017
:1024100032642025303264202520303264270000C9
:1024200010B5024802F096FF10BD0000143C0020D9
:1024300010B5034A0021052004F050FB10BD000038
:102440004123000810B50A4804F0B2FF09490860AA
:1024500009E008490968486880470648006804F0B0
:10246000ADFF04490860034800680028F1D110BDA1
:10247000943800206401002010B50A4804F098FF49
:102480000949086009E00849096848688047064822
:10249000006804F093FF04490860034800680028BE
:1024A000F1D110BD9C3800206801002010B50A4809
:1024B00004F07EFF0949086009E008490968486896
:1024C00080470648006804F079FF04490860034823
:1024D00000680028F1D110BD5C370020C800002042
:1024E00010B50A4804F064FF0949086009E008498A
:1024F0000968486880470648006804F05FFF04499F
:102500000860034800680028F1D110BD643700203E
:10251000CC00002010B50A4804F04AFF09490860C1
:1025200009E008490968486880470648006804F0DF
:1025300045FF04490860034800680028F1D110BD38
:102540006C370020D000002010B50A4804F030FF9E
:102550000949086009E00849096848688047064851
:10256000006804F02BFF0449086003480068002855
:10257000F1D110BD74370020D400002010B50A48F6
:1025800004F016FF0949086009E00849096848682D
:1025900080470648006804F011FF044908600348BA
:1025A00000680028F1D110BD7C370020D800002041
:1025B00010B50A4804F0FCFE0949086009E0084922
:1025C0000968486880470648006804F0F7FE044937
:1025D0000860034800680028F1D110BD843700204E
:1025E000DC00002010B50A4804F0E2FE094908604A
:1025F00009E008490968486880470648006804F00F
:10260000DDFE04490860034800680028F1D110BDD0
:102610008C370020E000002010B50A4804F0C8FE06
:102620000949086009E00849096848688047064880
:10263000006804F0C3FE04490860034800680028ED
:10264000F1D110BD6C3800205001002010B50A48AF
:1026500004F0AEFE0949086009E0084909684868C5
:1026600080470648006804F0A9FE04490860034852
:1026700000680028F1D110BD7438002054010020FA
:1026800010B50A4804F094FE0949086009E00849B9
:102690000968486880470648006804F08FFE0449CE
:1026A0000860034800680028F1D110BD7C38002084
:1026B0005801002010B50A4804F07AFE0949086064
:1026C00009E008490968486880470648006804F03E
:1026D00075FE04490860034800680028F1D110BD68
:1026E000843800205C01002010B50A4804F060FE28
:1026F0000949086009E008490968486880470648B0
:10270000006804F05BFE0449086003480068002884
:10271000F1D110BD8C3800206001002010B50A48AE
:1027200004F046FE0949086009E00849096848685C
:1027300080470648006804F041FE044908600348E9
:1027400000680028F1D110BDBC38002074010020C1
:1027500010B50A4804F02CFE0949086009E0084950
:102760000968486880470648006804F027FE044965
:102770000860034800680028F1D110BDC43800206B
:10278000780100207047000010B50A4804F010FEE0
:102790000949086009E0084909684868804706480F
:1027A000006804F00BFE0449086003480068002834
:1027B000F1D110BD34370020B400002010B50A4814
:1027C00004F0F6FD0949086009E00849096848680D
:1027D00080470648006804F0F1FD0449086003489A
:1027E00000680028F1D110BD3C38002038010020DD
:1027F00010B50A4804F0DCFD0949086009E0084901
:102800000968486880470648006804F0D7FD044915
:102810000860034800680028F1D110BD3C37002053
:10282000B800002010B50A4804F0C2FD094908604C
:1028300009E008490968486880470648006804F0CC
:10284000BDFD04490860034800680028F1D110BDAF
:1028500044370020BC00002010B50A4804F0A8FD51
:102860000949086009E0084909684868804706483E
:10287000006804F0A3FD04490860034800680028CC
:10288000F1D110BD4C370020C000002010B50A481F
:1028900004F08EFD0949086009E0084909684868A4
:1028A00080470648006804F089FD04490860034831
:1028B00000680028F1D110BD54370020C40000206A
:1028C00010B50A4804F074FD0949086009E0084998
:1028D0000968486880470648006804F06FFD0449AD
:1028E0000860034800680028F1D110BDBC37002003
:1028F000F800002000BFFEE710B50A4804F058FDBC
:102900000949086009E0084909684868804706489D
:10291000006804F053FD044908600348006800287B
:10292000F1D110BD24370020B000002010B50A48B6
:1029300004F03EFD0949086009E008490968486853
:1029400080470648006804F039FD044908600348E0
:1029500000680028F1D110BD043900209801002042
:102960007EB503460C4611A523CD8DE82300032C2C
:1029700001DA581E83B2642093FBF0F01946DD178C
:1029800003EB957503EBA505281A4FF4C87593FB67
:10299000F5F50544601E1DF8000028441044072585
:1029A00090FBF5F605FB1600C0B27EBD00030205E4
:1029B000000305010406020470B504460025092C35
:1029C00006D2DFE804F0060E161E262E363E46001E
:1029D00000BF4FF400512A4801F0B8F800B90125B2
:1029E0003FE04FF48061264801F0B0F800B90125BE
:1029F00037E04FF48061224801F0A8F800B90125C2
:102A00002FE04FF480611E4801F0A0F800B90125C5
:102A100027E04FF480611A4801F098F800B90125C9
:102A20001FE04FF48061164801F090F800B90125CD
:102A300017E04FF48061124801F088F800B90125D1
:102A40000FE04FF480610E4801F080F800B90125D5
:102A500007E04FF480610A4801F078F800B90125D9
:102A600000BF00BF012D04D12146002004F0C6F8AC
:102A700003E02146012004F0C1F8284670BD0000A3
:102A80000008004810B5034802F002FE014801F0BA
:102A90003AF910BD383C002010B5134813490860BE
:102AA0004FF4000048604FF47011104881600C2111
:102AB000C1604021016102214161C90281610911A6
:102AC000C161202101620021416281624FF4804195
:102AD000C1620021016302F03BFE044801F028F9C5
:102AE000FEF730F810BD000000240040383C002004
:102AF00070B504460D4665B90D4850F83400C24320
:102B00000B4800EBC400002341680A4802F0FAFEBB
:102B10000CE0074850F8343050F83400C243044801
:102B200000EBC4004168034802F0ECFE70BD0000F9
:102B300008C70008383C002070B5054600241CE09A
:102B400065B90F4850F83400C2430D4800EBC4008B
:102B5000002341680B4802F0D5FE0CE0084850F80D
:102B6000343050F83400C243054800EBC4004168DB
:102B7000044802F0C7FE601CC4B21B2CE0DB70BD31
:102B800008C70008383C002010B5044620780A2801
:102B90003DD2DFE800F0050F191D22272C30343814
:102BA00094ED021BB0EE410AF0EE610A0020FEF740
:102BB000E7F92DE094ED021BB0EE410AF0EE610A58
:102BC0000120FEF7DDF923E02069FDF7D7FF1FE0C4
:102BD00004F11500FEF70EFC1AE060780121FFF702
:102BE00087FF15E060780021FFF782FF10E00120E9
:102BF000FFF7A2FF0CE00020FFF79EFF08E0074868
:102C000001F03EF804E02069FDF7A4FF00E000BFFA
:102C100000BF024802F054FE10BD0000383C002006
:102C2000F8B504460D460020009000BF94F850000F
:102C3000012801D10220F8BD012084F8500000BF16
:102C40002046FDF7FFFE06468EBB606D20F48850DF
:102C500040F002006065206881681B4A114005F061
:102C6000804242F000421143816000BF13E00098AF
:102C7000401C00900098B0F5912F0CD3606D20F0AF
:102C8000020040F01000606500BF002084F8500092
:102C900000BF0120CFE720688168C90F0029E6D175
:102CA000606D20F0020040F00100606504E0FFE785
:102CB000606D40F01000606500BF002084F8500097
:102CC00000BF3046B7E70000C0FFFF3F2DE9F84FD7
:102CD00005460C464FF0000A00200090FE49E068CF
:102CE000884200D000E000BF00BF95F850000128E6
:102CF00002D1022000F05CBA012085F8500000BF2C
:102D0000286802F037FE002872D1606805281AD8BA
:102D10006068022806D0032807D0042808D00528B8
:102D20000DD108E00C2060600CE01220606009E02A
:102D30001820606006E04FF48070606002E00620BA
:102D4000606000BF00BF2968D4E9002001F1300CA9
:102D5000C0F3012B0CEB8B03D3F800C000F01F0E67
:102D60004FF01F0B0BFA0EFB2CEA0B0C00F01F0BA5
:102D7000C2F3846E0EFA0BFE4CEA0E0CC3F800C0D0
:102D800000BF286802F0F6FD8146286802F0DEFDEB
:102D90008046B9F1000F2AD1B8F1000FFBD1A2682B
:102DA0002168286802F0FCFD60692968C968C1F3E0
:102DB000C101490000FA01F72069042819D02868E8
:102DC0002268216900F1600C0CEB8103D3F800C08C
:102DD000DFF808B30CEA0B0C02F0F84B4BF0004B99
:102DE0004BEA070B4CEA0B0CC3F800C000BFA8E08D
:102DF000C2E10021286802F0A0FDC0F3120030B942
:102E00000021286802F099FDC0F3846007E00021EA
:102E1000286802F092FD90FAA0F0B0FA80F02168E4
:102E2000C1F3120119B92168C1F3846104E021687A
:102E300091FAA1F1B1FA81F1884204D10022114640
:102E4000286802F0C7FD0121286802F076FDC0F372
:102E5000120030B90121286802F06FFDC0F38460D0
:102E600007E00121286802F068FD90FAA0F0B0FAAE
:102E700080F02168C1F3120119B92168C1F384619E
:102E800004E0216891FAA1F1B1FA81F1884204D1FC
:102E900000220121286802F09DFD0221286802F02D
:102EA0004CFDC0F3120030B90221286802F045FD44
:102EB000C0F3846007E00221286802F03EFD90FA2A
:102EC000A0F0B0FA80F02168C1F3120119B92168AD
:102ED000C1F3846104E0216891FAA1F1B1FA81F1B2
:102EE000884204D100220221286802F073FD0321E8
:102EF000286802F022FDC0F3120030B903212868CF
:102F000002F01BFDC0F3846007E00321286802F093
:102F100014FD90FAA0F0B0FA80F02168C1F312011C
:102F200019B92168C1F3846104E0216891FAA1F123
:102F3000B1FA81F1884204D100220321286802F00D
:102F400049FD286802F00CFD002870D12868E2686D
:102F50002168D0F8B0C0C1F312032CEA030C02F0D0
:102F6000180B5F4B23FA0BF30B404CEA030CC0F831
:102F7000B0C000BF5849E068884258D12368C3F305
:102F800012031BB92368C3F3846304E0236893FA34
:102F9000A3F3B3FA83F35B1C03F01F03092B3ED8A2
:102FA0002368C3F312031BB92368C3F3846304E0EB
:102FB000236893FAA3F3B3FA83F35B1C03F01F03B4
:102FC0004FF0010C0CFA03FC2368C3F312031BB986
:102FD0002368C3F3846304E0236893FAA3F3B3FA8A
:102FE00083F35B1C03F01F034CEA836C2368C3F379
:102FF00012031BB92368C3F3846304E0236893FAC4
:10300000A3F3B3FA83F35B1C03F01F0303EB430347
:103010004FF0000B4BEA03534CEA03033FE02368F5
:10302000C3F3120323B92368C3F3846305E03BE0D1
:10303000236893FAA3F3B3FA83F35B1C03F01F0333
:103040004FF0010C0CFA03FC2368C3F312031BB905
:103050002368C3F3846304E0236893FAA3F3B3FA09
:1030600083F35B1C03F01F034CEA836C2368C3F3F8
:1030700012031BB92368C3F3846304E0236893FA43
:10308000A3F3B3FA83F35B1C03F01F030A3B03EBC8
:1030900043034FF0007B4BEA03534CEA030319460A
:1030A000A268286802F07CFC0E4920680840A0B3A2
:1030B00000BF0D48806800F0E07600BF0B49206833
:1030C000884233D106F4000040BB09492868884291
:1030D00014D0084928680FE000007F4000F0FF038B
:1030E000FFFF07000000088000030450000052C7E3
:1030F0000000045000020450884243D146F400010D
:10310000244802F061FC244800682449B0FBF1F037
:1031100000EB40008000009004E01BE006E0009817
:10312000401E009000980028F9D12BE01C4920682F
:10313000884210D106F0807068B91A492868884220
:1031400003D01949286888421CD146F08071114883
:1031500002F03AFC16E015492068884212D106F4C4
:10316000800078B90F49286888420BD146F4800165
:10317000084802F029FC05E0686D40F02000686511
:103180004FF0010A00BF002085F8500000BF5046F4
:10319000B0E500000003045018000020400D0300BB
:1031A000000084CB000004500002045001000080A5
:1031B00018BCBDE8E08F000070B504460CB90120D2
:1031C00070BD606D40F00200606503212046FDF790
:1031D000ABFB05462068C06840F400102168C86059
:1031E00035B92046FDF72EFC05460DB90120606576
:1031F000206840686FF30A002168486040F2FF7061
:10320000216808602068806820F0A04021688860FC
:103210002068806840F00050216888602068C0689D
:10322000514908402168C8602068C06840F00040EB
:103230002168C860206800696FF30A00216808618E
:103240002068406900F0404021684861206880693A
:1032500000F07840216888612068006A00F0F02062
:10326000216808622068406A00F0FF2021684862F7
:103270002068806A00F0FF20216888622068006B67
:103280003A490840216808632068406B3749103983
:103290000840216848632068806B34491039084031
:1032A000216888632068C06B40F2DF718843216821
:1032B000C8632068006E2E490840216808662068AF
:1032C000406E2B490840216848662068806E284976
:1032D0000840216888662068C06E2549084021683A
:1032E000C8662068D0F8A0006FF312002168C1F80A
:1032F000A0002068D0F8A4006FF312002168C1F884
:10330000A4002068D0F8B0006FF312002168C1F863
:10331000B0002068D0F8B40020F07F102168C1F818
:10332000B400144802F01CFB0646134802F018FBD8
:103330000643124802F014FB064336B910480068F1
:10334000104908400B49C1F80803204600F031F944
:103350000020A065E06500212166606500BF84F85B
:10336000500000BF28462BE704800080300882E030
:1033700000F0FF030000045000010450000204505C
:1033800008030450E01000FE01460868006C704716
:103390002DE9F84F04464FF000090020009014B9C1
:1033A000012000F003B9206920B12020005D012830
:1033B00000D100BF606D30B9204600F0FBF800205E
:1033C000A06584F8500020688168C1F3407131B174
:1033D000206881686C4A1140816000BF00BF20688E
:1033E00002F0C3FAA0B920688168684A114041F030
:1033F0008051816000BF664800686649B0FBF1F00B
:10340000009002E00098401E009000980028F9D13A
:10341000206802F0AAFA48B9606D40F010006065BB
:10342000A06D40F00100A0654FF00109206802F096
:10343000A1FA0646606D00F0100000287BD1002E36
:10344000FCD1606D20F4807040F00200606520685F
:1034500002F086FAD0B9504802F082FA82464F480C
:1034600002F07EFA4AEA000A4D4802F079FA4AEA86
:10347000000ABAF1000F09D160684A49896821F44D
:103480007C110143474A916000BF00BF607E616BC1
:1034900041EA4030E1680843A16808432021095D02
:1034A00040EA01452020005D012803D1A08C401E88
:1034B00045EA4045A06A28B1208D00F47070E16AA9
:1034C000084305432068C0683749084028432168FD
:1034D000C860206802F04EFA8046206802F036FA92
:1034E0000746B8F1000F2DD127BB207E002141EA0D
:1034F000803194F8300041EA40052068C06844F209
:103500000201884328432168C86094F838000128E4
:1035100012D1E06B40F00101206C0843616C08435C
:10352000A16C08432168096940F2FC729143084389
:103530002168086106E01FE02068006920F00100B2
:10354000216808612069012809D12068006B20F0FA
:103550000F00E169491E08432168086305E02068FF
:10356000006B20F00F0021680863606D20F00200FE
:1035700040F00100606505E0606D40F0100060659E
:103580004FF0010948460CE7C0FFFF5FC0FFFF7F17
:1035900018000020400D03000000045000010450FA
:1035A000000204500003045007C0F0FF18BCBDE83F
:1035B000E08F7047704700002DE9F04704460F4642
:1035C000464802F0B5F905466069082801D1082689
:1035D0001FE01DB1052D01D0092D0DD12068C06857
:1035E00000F0010030B1606D40F020006065012006
:1035F000BDE8F08704260CE000BF3848806800F47E
:10360000604028B1606D40F0200060650120EFE768
:10361000042600F0AFFA804613E0781C88B100F071
:10362000A9FAA0EB0800B84200D857B9606D40F085
:103630000400606500BF002084F8500000BF032034
:10364000D6E72068006830400028E6D0606D40F47E
:1036500000706065206802F092F998B1607E88B9C8
:103660002068006800F0080008280BD1606D20F485
:1036700080706065606D00F4805018B9606D40F036
:103680000100606516492068884201D1154800E0B4
:1036900020682168884204D01DB1052D01D0092D74
:1036A00003D12068D0F80C9009E00D4920688842C9
:1036B00001D10C4800E020688246DAF80C90082E10
:1036C00003D108202168086005E009F4804010B9A2
:1036D0000C202168086000208AE7000000030450E5
:1036E00000010450000004502DE9F0410446424816
:1036F00002F01EF90646206802F03CF9002877D156
:1037000000BF94F85000012802D10220BDE8F081EA
:10371000012084F8500000BF2046FDF7D7F9054688
:10372000002D60D1606D40F60161884340F48070E7
:10373000606532492068884201D1314800E0206844
:103740002168884200D01EB9606D20F48010606549
:10375000606D00F48050B0F5805F04D1A06D20F062
:103760000600A06501E00020A0651C20216808601B
:1037700000BF002084F8500000BF20492068884224
:1037800001D11F4800E020682168884204D01EB1A2
:10379000052E01D0092E0ED12068C06800F00070FF
:1037A00028B1606D20F4005040F4805060652068BE
:1037B00002F0EEF81DE0606D40F4801060650F4986
:1037C0002068884201D10E4800E020680746F8686A
:1037D00000F0007068B1606D20F4005040F480503B
:1037E000606506E004E000BF002084F8500000E0BF
:1037F000022528468AE70000000304500001045017
:1038000000000450F0B50B46002187E001258D40F3
:1038100005EA0302002A7DD0434D8E0855F8264064
:103820008D072E0F0F25B5402C40B0F1904F01D1E0
:1038300000251EE03D4DA84201D1012519E03C4D77
:10384000A84201D1022514E03A4DA84201D1032536
:103850000FE0394DA84201D104250AE0374DA842B6
:1038600001D1052505E0364DA84201D1062500E02D
:1038700007258E07360FB540A54221D1314D2D6861
:103880009543304E3560351D2D689543361D3560A6
:10389000351D2D689543361D3560351D2D689543C2
:1038A000361D35608D072E0F0F2505FA06F41E4DC7
:1038B0008E0855F82650A5431B4E8F0846F8275012
:1038C00005684F000326BE4035430560CE0800F171
:1038D000200555F826504E07F70E0F26BE40B5437B
:1038E000CF0800F1200646F8275085684F000326D0
:1038F000BE40B5438560466801258D40AE434660B5
:10390000C5684F000326BE40B543C560C56A0126A1
:103910008E4000E001E0B543C562491C23FA01F581
:10392000002D7FF473AFF0BD080001400004004893
:1039300000080048000C004800100048001400482F
:10394000001800480004014078B503460022E5E075
:10395000012696400D6805EA0604002C7DD04D68CE
:10396000022D02D04D68122D13D1D60803F1200587
:1039700055F826005507EE0E0F25B540A84356070B
:10398000F60E0D69B5402843D60803F1200545F829
:103990002600186856000325B540A8430D7905F0A8
:1039A00003055600B540284318604D68012D08D026
:1039B0004D68022D05D04D68112D02D04D68122D95
:1039C00013D1986856000325B540A8435600CD682A
:1039D000B54028439860586801259540A8430D7963
:1039E000C5F300159540284358600D7905F003058F
:1039F000032D09D1D86A01259540A8430D79C5F357
:103A0000C00595402843D862D86856000325B540C4
:103A1000A84356008D68B5402843D8604D6805F02E
:103A20008055B5F1805F78D100BF3F4D2D6E45F0D8
:103A300001053D4E356635462D6E05F001050095B4
:103A400000BF00BF4FEAB635960855F82600950727
:103A50002E0F0F25B540A84300E05EE0B3F1904F74
:103A600001D100251EE0314DAB4201D1012519E005
:103A70002F4DAB4201D1022514E02E4DAB4201D1B6
:103A800003250FE02C4DAB4201D104250AE02B4D5C
:103A9000AB4201D1052505E0294DAB4201D10625F8
:103AA00000E007259607360FB5402843254D9608B8
:103AB00045F82600244D2868A0434D6805F480355C
:103AC000B5F5803F00D120431F4D28602D1D28688B
:103AD000A0434D6805F40035B5F5003F00D1204303
:103AE000194D2D1D28602D1D2868A0434D6805F433
:103AF0008015B5F5801F00D12043134D083528608F
:103B00002D1D2868A0434D6805F40015B5F5001F6C
:103B100000D120430C4D0C352860521C0D68D54057
:103B2000002D7FF415AF78BD00100240000400485E
:103B300000080048000C004800100048001400482D
:103B400000180048080001400004014002461369C3
:103B50000B400BB1012000E00020704742690A4091
:103B60000AB1816200E0816170470AB1816100E0C1
:103B70008162704701480068704700000C00002017
:103B800070B504460CB9012070BD4CF6CC402168DC
:103B9000086045F2555021680860D4E9001048607B
:103BA0002168A0688860FFF7E5FF054606E0FFF79B
:103BB000E1FF401B302801D90320E5E72068C068F9
:103BC0000028F4D120680169E068814203D02168AF
:103BD000E068086103E04AF6AA2021680860002036
:103BE000D2E701464AF6AA200A6810600020704712
:103BF00003480068034909680844014908607047A0
:103C00000C0000201400002010B50024032000F058
:103C100065FB0F2000F008F808B1012401E000F076
:103C2000BBFA204610BD000070B5044600251148BF
:103C30000068D8B10F4800684FF47A71B1FBF0F01A
:103C40000D490968B1FBF0F6304601F069FC58B93E
:103C5000102C07D200222146501E00F0FDFA074822
:103C6000046004E0012502E0012500E0012528466A
:103C700070BD00001400002018000020100000207B
:103C80002DE9F04104464FF0010894F83570012FFA
:103C900001D0022F35D100BF94F83400012802D1A1
:103CA0000220BDE8F081012084F8340000BF02202A
:103CB00084F83500FFF75EFF06460EE0FFF75AFF77
:103CC000801BB0F57A7F08D90220A06300BF0020D6
:103CD00084F8340000BF0320E3E720688068C0F365
:103CE00080000028EAD1002505E00021206814307A
:103CF00040F825106D1C0F2DF7D9204600F0A6F8CE
:103D000080464046CDE710B504460CB9012010BDF1
:103D1000022084F83500204600F096F80020A063C9
:103D200084F8350000BF84F8340000BF00BFEEE720
:103D30002DE9F041044614B90120BDE8F08194F862
:103D4000350028B9002084F83400204600F07DF8C2
:103D5000022084F835002068006820F00100216806
:103D60000860002605E000212068143040F8261085
:103D7000761C0F2EF7D92068806840F00400216877
:103D80008860D4E901010843A16A0843E16A084355
:103D9000E1690843216A0843A1690843616A08434D
:103DA00021684968274A1140084321684860204635
:103DB00001F090FD07460FB13846BEE7D4E9030194
:103DC000084361690843216B08432168096821F0B1
:103DD000FE010843216808602068006840F0010087
:103DE00021680860FFF7C6FE054609E0FFF7C2FE3E
:103DF000401BB0F57A7F03D90820A06303209CE71D
:103E00002068806800F001000028EFD0FFF7B2FEC4
:103E1000054609E0FFF7AEFE401BB0F57A7F03D9F7
:103E20001020A063032088E720688068C0F300109A
:103E30000028EFD00020A063012084F83500384628
:103E40007BE700000E0000FC7047704770B5044629
:103E500008202168C8602068806840F0040021685C
:103E60008860FFF787FE05460EE0FFF783FE401BE4
:103E7000B0F57A7F08D90420A06300BF002084F841
:103E8000340000BF032070BD20688068C0F3C0000C
:103E90000028EAD0012084F8350000BF002084F813
:103EA000340000BF00BFEEE77047704710B504460E
:103EB00000BF5020EFF3118180F31188BFF34F8FC3
:103EC000BFF36F8F00BF07F0A9FF18B14FF080500C
:103ED00004490860002080F3118800BF01200249D6
:103EE000086010BD04ED00E0080000207047704736
:103EF000704710B504462068006800F0010050B11A
:103F00002068806800F0010028B101202168486025
:103F10002046FFF7CBFF20680068C0F3400050B197
:103F200020688068C0F3400028B102202168486002
:103F30002046FFF7B9FF20680068C0F3800050B149
:103F400020688068C0F3800028B1042021684860A0
:103F5000204600F01FF920680068C0F3C00050B18F
:103F600020688068C0F3C00028B10820216848603C
:103F70002046FFF7BBFF20680068C0F3001050B177
:103F800020688068C0F3001028B1102021684860C4
:103F90002046FFF78AFF20680068C0F3401050B148
:103FA00020688068C0F3401028B120202168486054
:103FB0002046FFF79DFF20680068C0F3801050B1D5
:103FC00020688068C0F3801028B1402021684860D4
:103FD0002046FFF78CFF10BD70B504460CB90120D8
:103FE00070BD6068012800D100BF4FF6FF716069A5
:103FF000884200D000BF94F8360028B9002084F829
:104000003500204600F050F8022084F83600206881
:10401000C5686068012803D0A06AB0F5000F01D11F
:1040200025F01E054FF6FF716069884202D04EF2FE
:10403000C00085431A480540D4E901010843216ABC
:104040000843616A0843A16A084305436068012880
:1040500003D0A06AB0F5000F03D1D4E903100843E0
:1040600005434FF6FF716069884205D0D4E9051019
:104070000843E169084305432068C5600949206891
:10408000884205D1D4E90B0108432168086202E0A7
:104090002168E06A0862012084F8360000209FE76A
:1040A000F8F119FF007C004038B504460D4920683E
:1040B000884215D100BF0C48806D40F000400A498D
:1040C00088650846806D00F00040009000BF00BF8A
:1040D00000220F21412000F0BFF8412000F0ACF891
:1040E00038BD0000007C0040001002400146086816
:1040F000C069704710B50346022083F836001348A4
:10410000006840F00100114C20601868C06840F45D
:1041100000201C68E0601868806840F001001C689E
:10412000A0601868006940F001001C6820611868F0
:104130008161186842611868006940F004001C68D9
:104140002061012083F83600002010BD20040140CA
:1041500010B50446022084F836000D48006820F0AF
:1041600001000B490860204601F062FC2068C0682D
:1041700020F400202168C8602068806820F00100D9
:1041800021688860012084F83600002010BD0000FE
:10419000200401407047000008B500BF1448006EBD
:1041A00040F00100124908660846006E00F0010068
:1041B000009000BF00BF002205216FF00B0000F04F
:1041C0004BF8002205216FF00A0000F045F80022AC
:1041D00005216FF0090000F03FF800220521101FB3
:1041E00000F03AF800220521881F00F035F808BDDC
:1041F0000010024010B501460846002817DB00F009
:104200001F0301229A400B4B440943F8242000BFAE
:1042100000BF00BFBFF34F8F00BF00BF00BF00BF94
:1042200000BF00BFBFF36F8F00BF00BF00BF00BF64
:1042300010BD000080E100E001460846002809DBCF
:1042400000F01F0301229A4043099B0003F1E02381
:10425000C3F8002100BF70472DE9F05F80460D468E
:104260001646002704F0E2F8074639462A46334648
:1042700001F00700C0F1070ABAF1040F02D94FF0AC
:10428000040A01E0C0F1070AD14600F1040ABAF1BC
:10429000070F02D24FF0000A01E0A0F1030AD44652
:1042A0004FF0010A0AFA09FAAAF1010A0AEA020A17
:1042B0000AFA0CFA4FF0010B0BFA0CFBABF1010BF5
:1042C0000BEA030B4AEA0B042146404604F0B6F819
:1042D00000F000B830BCBDE8C09F000000BF00F097
:1042E0000702064B19684FF6FF031940044B0B43B6
:1042F00043EA0221014B196000BF70470CED00E05A
:104300000000FA050246B2F5007F2AD11D48006878
:1043100000F4C060B0F5007F32D01A48006820F485
:10432000C06040F40070174B1860174800683223D3
:104330005843164BB0FBF3F0411C00E0491E1148F6
:10434000406900F48060B0F5806F01D10029F5D19B
:104350000C48406900F48060B0F5806F10D10320F4
:1043600070470848006800F4C060B0F5806F07D05F
:104370000448006820F4C06040F48060014B18607D
:104380000020EDE7007000401800002040420F00C0
:104390000D49096821F00701491C0B4A11600B49BE
:1043A000096841F00401094A1160012801D130BFB8
:1043B00002E040BF20BF20BF0449096821F004018A
:1043C000024A1160704700000070004010ED00E0EC
:1043D0000D49096821F00701891C0B4A11600B493E
:1043E000096841F00401094A1160012801D130BF78
:1043F00002E040BF20BF20BF0449096821F004014A
:10440000024A1160704700000070004010ED00E0AB
:104410000248006800F4C06070470000007000406F
:104420002DE9F84304460025A846208800F40060E2
:10443000B0F5006F30D1606E80B1B0F5800F13D051
:10444000B0F5000F03D0B0F5400F15D113E0FB48D5
:10445000C06840F48030F949C8600FE00021201D99
:1044600002F018F8054609E0002104F1200002F0EE
:10447000D7F8054602E001E0012500BF00BF55B9AD
:10448000EE488830006820F44000616E0843EB4934
:10449000C1F8880000E0A846208800F48050B0F5FC
:1044A000805F30D1A06E80B1B0F1807F13D0B0F1C9
:1044B000007F03D0B0F1407F15D113E0DF48C06822
:1044C00040F48030DD49C8600FE00021201D01F07C
:1044D000E1FF054609E0002104F1200002F0A0F808
:1044E000054602E001E0012500BF00BF55B9D348F1
:1044F0008830006820F04070A16E0843CF49C1F8B1
:10450000880000E0A846206800F40030B0F5003FC5
:1045100077D14FF00009C948806D012121EA107060
:1045200078B100BFC548806D40F08050C3498865B0
:104530000846806D00F08050009000BF00BF4FF033
:104540000109BF48006840F48070BD490860FFF76A
:1045500011FB074606E0FFF70DFBC01B022801D93F
:10456000032505E0B648006800F480700028F2D00A
:1045700000BF85BBB1489030006800F44076D6B1EA
:10458000D4F88400B04216D0AC489030006820F4D3
:104590004076AA48D0F8900040F48030A749C1F88E
:1045A00090000846D0F8900020F48030C1F89000C8
:1045B0000846C0F8906006F00100A8B1FFF7DAFAEB
:1045C000074609E0FFF7D6FAC01B41F2883188425E
:1045D00002D9032507E017E098489030006800F002
:1045E00002000028EED000BF65B994489030006802
:1045F00020F44070D4F8841008439049C1F890002A
:1046000003E00CE0A84600E0A846B9F1010F05D18F
:104610008A48806D20F080508849886500BF2078E6
:1046200000F0010048B185488830006820F00300A0
:10463000A16B08438149C1F88800207800F002008E
:10464000022809D17D488830006820F00C00E16B19
:1046500008437A49C1F88800207800F00400042853
:1046600009D176488830006820F03000216C08437A
:104670007249C1F88800207800F00800082809D1A4
:104680006E488830006820F0C000616C08436B49B8
:10469000C1F88800207800F01000102809D1674880
:1046A0008830006820F44070A16C08436349C1F869
:1046B0008800207800F02000202809D15F48883049
:1046C000006820F44060E16C08435C49C1F8880050
:1046D000208800F40070B0F5007F09D15748883079
:1046E000006820F44020E16D08435449C1F8880077
:1046F000208800F48060B0F5806F09D14F48883081
:10470000006820F44010216E08434C49C1F888002D
:10471000207800F04000402809D1484888300068DF
:1047200020F44050216D08434449C1F888002078A6
:1047300000F08000802809D140488830006820F4CB
:104740004040616D08433D49C1F88800208800F46D
:104750008070B0F5807F09D138488830006820F437
:104760004030A16D08433549C1F88800208800F425
:104770000050B0F5005F1FD130488830006820F04D
:104780004060E16E08432D4988310860E06EB0F169
:10479000006F06D12948C06840F480102749C860DE
:1047A0000AE0E06EB0F1806F06D10121201D01F01A
:1047B00071FE054605B1A846206800F40020B0F55A
:1047C000002F1FD11D488830006820F04060216F05
:1047D00008431A4988310860206FB0F1006F06D194
:1047E0001648C06840F480101449C8600AE0206F81
:1047F000B0F1806F06D10121201D01F04BFE05466E
:1048000005B1A846206800F48020B0F5802F24D19F
:104810000A488830006820F04060616F084307490B
:1048200088310860606FB0F1006F0BD10348C06839
:1048300040F480100149C8600FE000000010024001
:1048400000700040606FB0F1806F06D10121201D23
:1048500001F020FE054605B1A846208800F48040FE
:10486000B0F5804F1FD12248006820F04050A16F62
:1048700008431F490860A06FB0F1805F07D1022193
:10488000201D01F007FE05466DB1A8460BE0A06FA4
:10489000B0F1005F07D1022104F1200001F0C0FE59
:1048A000054605B1A846208800F40040B0F5004F49
:1048B00009D10F48006820F08040E16F08430C499F
:1048C0008839C1F88800206800F48030B0F5803F56
:1048D0000AD10748006820F00040D4F8801008434F
:1048E00003498839C1F888004046BDE8F8830000D4
:1048F000881002402DE9F04104460D4614B901200C
:10490000BDE8F0815548006800F00700A8420ED2CB
:104910005248006820F007002843504908600846C4
:10492000006800F00700A84201D00120E8E72078E5
:1049300000F00100002840D06068032806D14848F4
:10494000006800F00070D8B90120D9E7606802283B
:1049500006D14348006800F4003088B90120CFE751
:10496000606830B93E48006800F0020040B901209C
:10497000C6E73B48006800F4806008B90120BFE743
:104980003748806820F00300616808433449886034
:10499000FFF7F0F8064608E0FFF7ECF8801B41F25D
:1049A0008831884201D90320AAE72D48806800F0A9
:1049B0000C006168B0EB810FEED1207800F00200AE
:1049C000022807D12648806820F0F000A16808433B
:1049D000234988602148006800F00700A8420ED9EA
:1049E0001E48006820F0070028431C49086008465C
:1049F000006800F00700A84201D0012080E720787D
:104A000000F00400042807D11548806820F4E06015
:104A1000E168084312498860207800F008000828FF
:104A200008D10F48806820F46050216940EAC10035
:104A30000B49886000F01CF809498968C1F303112B
:104A4000084A515C01F01F01C84007490860074847
:104A50000068FFF7E9F80746384651E700200240B2
:104A6000001002407CC50008180000201000002043
:104A7000F0B500230020DFF8D4C0DCF808C00CF04B
:104A80000C01DFF8C8C0DCF80CC00CF0030719B14A
:104A90000C291ED1012F1CD1DFF8B0C0DCF800C0FA
:104AA0000CF0080CBCF1000F06D1DFF8A0C0DCF858
:104AB00094C0CCF3032305E0DFF890C0DCF800C01D
:104AC000CCF30313DFF888C05CF8233041B91846F3
:104AD00006E0042901D11F4802E0082900D11E4840
:104AE0000C2932D1DFF864C0DCF80CC00CF00304F0
:104AF000012C09D0022C02D0032C04D101E0154A6C
:104B000004E0154A02E000BF1A4600BF00BFDFF80C
:104B10003CC0DCF80CC0CCF3021C0CF10106DFF841
:104B20002CC0DCF80CC0CCF3062C0CFB02FCBCFB4C
:104B3000F6F2DFF818C0DCF80CC0CCF3416C0CF1D5
:104B4000010C4FEA4C05B2FBF5F0F0BD001002403D
:104B500094C500080024F40000127A002DE9F843FF
:104B6000044614B90120BDE8F883F948806800F0D4
:104B70000C07F748C06800F00306207800F010002A
:104B8000102876D11FB10C2F75D1012E73D1F048AA
:104B9000006800F0020018B1A06908B90120E2E73E
:104BA000EB48216A006800F0080020B1E84800687E
:104BB00000F0F00005E0E6489430006800F4706012
:104BC000000981421FD9206A01F0DCFD08B10120F3
:104BD000C9E700BFDE48006840F00800DC49086013
:104BE0000846006820F0F000216A0843D8490860B0
:104BF00000BF0846406820F47F40E16940EA012098
:104C0000D34948601EE000BFD148006840F008006A
:104C1000CF4908600846006820F0F000216A084388
:104C2000CB49086000BF0846406820F47F40E16936
:104C300040EA0120C6494860206A01F0A3FD08B19E
:104C4000012090E7FFF714FFC1498968C1F3031100
:104C5000C04A515C01F01F01C840BF490860BF480D
:104C60000068FEF7E1FF8046B8F1000F4ED04046E5
:104C700079E74BE0FFE7A06980B3B548006840F0F2
:104C80000100B3490860FEF775FF054606E0FEF730
:104C900071FF401B022801D9032064E7AC4800687B
:104CA00000F002000028F2D000BFA948006840F0E0
:104CB0000800A74908600846006820F0F000216A53
:104CC0000843A349086000BF0846406820F47F40BD
:104CD000E16940EA01209E49486017E0FFE79C48EF
:104CE000006820F001009A490860FEF743FF05467E
:104CF00006E0FEF73FFF401B022801D9032032E700
:104D00009348006800F002000028F2D1207800F0FB
:104D1000010000285CD0082F03D00C2F0AD1032EED
:104D200008D18B48006800F4003088B3606878BB15
:104D3000012018E700BF6068B0F5803F06D18448C5
:104D4000006840F48030824908601AE06068B0F57D
:104D5000A02F0BD17E48006840F480207C49086079
:104D60000846006840F4803008600AE0784800682F
:104D700020F48030764908600846006820F48020DE
:104D8000086000BF606890B1FEF7F4FE054607E0DA
:104D90001EE0FEF7EFFE401B642801D90320E2E687
:104DA0006B48006800F400300028F2D010E0FEF7F5
:104DB000E1FE054606E0FEF7DDFE401B642801D952
:104DC0000320D0E66248006800F400300028F2D1E9
:104DD000207800F00200022852D1042F03D00C2FBB
:104DE00014D1022E12D15A48006800F4806018B124
:104DF000E06808B90120B6E65548406820F0F85050
:104E0000217C40EA01605249486039E0E06800B323
:104E10004F48006840F480704D490860FEF7AAFED4
:104E2000054606E0FEF7A6FE401B022801D9032036
:104E300099E64748006800F480600028F2D04448B2
:104E4000406820F0F850217C40EA01604049486009
:104E500016E03F48006820F480703D490860FEF786
:104E600089FE054606E0FEF785FE401B022801D9B3
:104E7000032078E63648006800F480600028F2D10C
:104E8000207800F00800082836D16069D0B1304899
:104E90009430006840F001002D49C1F89400FEF7FD
:104EA00069FE054606E0FEF765FE401B022801D9B3
:104EB000032058E626489430006800F002000028DD
:104EC000F1D019E022489430006820F00100204918
:104ED000C1F89400FEF74EFE054606E0FEF74AFED6
:104EE000401B022801D903203DE619489430006890
:104EF00000F002000028F1D1207800F0040004281E
:104F000073D14FF000091248806D00F0805078B9DD
:104F100000BF0F48806D40F080500D4988650846FD
:104F2000806D00F08050009000BF00BF4FF001097D
:104F30000B48006800F4807008BB0948006840F422
:104F4000807007490860FEF715FE054611E0000075
:104F5000001002407CC5000818000020100000204E
:104F600000700040FEF706FE401B022801D9032016
:104F7000F9E59948006800F480700028F2D000BF7D
:104F8000A068012808D19548006840F001009349C5
:104F90009039C1F8900021E0A06805280FD18F4812
:104FA000006840F004008D499039C1F8900008462F
:104FB000D0F8900040F00100C1F890000EE0874862
:104FC000006820F0010085499039C1F8900008463A
:104FD000D0F8900020F00400C1F8900000BFA06855
:104FE000A0B1FEF7C7FD054609E02EE0FEF7C2FDC1
:104FF000401B41F28831884201D90320B3E577484C
:10500000006800F002000028F0D012E0FEF7B2FDC8
:10501000054608E0FEF7AEFD401B41F288318842AC
:1050200001D903209FE56D48006800F002000028C8
:10503000F0D1B9F1010F07D168489038806D20F0A8
:10504000805066499039886500BFA06A00285BD00F
:105050000C2F78D0A06A022857D160489038006899
:1050600020F080705D4990390860FEF783FD0546A9
:1050700006E0FEF77FFD401B022801D9032072E500
:1050800056489038006800F000700028F1D1D4E94B
:105090000B10401E41EA0011606B41EA0021A08F15
:1050A0000122C2EB500041EA40514020005DC2EBBA
:1050B000500041EA4061A06B000941EA4040474985
:1050C0009039C968464A1140084344499039C8603C
:1050D0000846006840F0807008600846C06840F0EC
:1050E0008070C860FEF746FD054606E0FEF742FD0B
:1050F000401B022801D9032035E538489038006864
:1051000000F000700028F1D064E034489038006866
:1051100020F080703149903908600846006800F03E
:10512000205020B90846C06820F00300C8602B4812
:105130009038C0682B49084028499039C860FEF76C
:1051400019FD054607E00EE0FEF714FD401B02289E
:1051500001D9032007E521489038006800F000706D
:105160000028F1D136E0A06A012800D1FBE41B48F9
:105170009038C66806F00301E06A814228D106F043
:105180007001206B401EB1EB001F21D106F4FE41DF
:10519000606BB1EB002F1BD106F40031A06B072828
:1051A00001D0012000E00020814211D106F4C001AD
:1051B000A08F0122C2EB5000B1EB405F08D106F096
:1051C000C0614020005DC2EB5000B1EB406F01D0E8
:1051D0000120C8E40020C6E40070004090100240A6
:1051E0008C809DF9FFFFEEFE014600BF91F8200084
:1051F000012801D102207047012081F8200000BF62
:10520000022081F8210000BFCA200A6850625320A2
:105210000A68506200BF0868806840F020000A6891
:10522000906000BFFF200A68506200BF012081F833
:10523000210000BF002081F8200000BF00BFDAE796
:105240002DE9F04104460E46174600BF94F82000B1
:10525000012802D10220BDE8F081012084F820005D
:1052600000BF022084F8210000BFCA2021684862E4
:1052700053202168486200BF2068806820F4806065
:10528000216888602068C06800F0800060F4906049
:105290002168C8602068C06800F04000F0B9FEF7DF
:1052A00069FC054614E0FEF765FC401BB0F57A7F0B
:1052B0000ED900BFFF202168486200BF032084F898
:1052C000210000BF002084F8200000BF0320C2E7B7
:1052D0002068C06800F004000028E4D0206846611F
:1052E0002068806820F007003843216888601448EF
:1052F000006840F4801012490860114808300068C6
:1053000040F480100E49083108602068806840F43D
:105310008040216888602068806840F4806021684F
:10532000886000BFFF202168486200BF012084F828
:10533000210000BF002084F8200000BF00BF8AE7E2
:105340000004014010B50446014803F0D9FD10BD2A
:10535000C401002010B504464FF480100A490860CB
:105360002068C068C0F3802050B12068C06800F099
:10537000800060F490602168C8602046FFF7E2FF7B
:10538000012084F8210010BD1404014070B50446CA
:105390000125002C48D0022084F8210000BFCA203B
:1053A0002168486253202168486200BF204601F00E
:1053B0006BFA0546002D37D12168086042F20110D2
:1053C00021684860206880680020216888604FF666
:1053D000FF70216848611548216808610020216834
:1053E000C861216808622168C8622168C8632168B1
:1053F000486421688864204601F068FA05469DB932
:105400000020216808642168C86400BFFF2021686B
:10541000486200BF204600F065F8002084F82100B3
:1054200000BF84F8200000BF284670BDFF007F0049
:1054300070B504460125002C4FD094F8210028B9FE
:10544000002084F82000204600F04DF8022084F867
:10545000210000BFCA2021684862532021684862A9
:1054600000BF204601F010FA0546002D35D1206816
:1054700080681B490840216888602169606808438A
:10548000A169084321688968084321688860216808
:10549000E068086120680169208941EA00402168CC
:1054A0000861204601F012FA0546B5B92068C06CC3
:1054B00020F003002168C8646169E069084321683D
:1054C000C96C08432168C86400BFFF202168486296
:1054D00000BF15B9012084F82100284670BD0000E6
:1054E000BFFF8FFF7047704770B504462068C068E3
:1054F00020F0A0002168C860FEF73CFB054607E0ED
:10550000FEF738FB401BB0F57A7F01D9032070BD50
:105510002068C06800F020000028F1D00020F6E7E5
:1055200070B504462546681EB0F1807F01D3012086
:105530000FE0681E4FF0E02148610F214FF0FF306F
:1055400002F07CFF00204FF0E02188610720086115
:10555000002070BD00BFFEE710B50A4801F028FF2B
:105560000949086009E00849096848688047064811
:10557000006801F023FF0449086003480068002820
:10558000F1D110BDFC3700201801002010B50A48E9
:1055900001F00EFF0949086009E0084909684868F8
:1055A00080470648006801F009FF04490860034885
:1055B00000680028F1D110BDF4370020140100204C
:1055C00010B50A4801F0F4FE0949086009E00849ED
:1055D0000968486880470648006801F0EFFE044902
:1055E0000860034800680028F1D110BD0C38002085
:1055F0002001002010B50A4801F0DAFE09490860D0
:1056000009E008490968486880470648006801F0D1
:10561000D5FE04490860034800680028F1D110BD98
:10562000043800201C01002010B50A4801F0C0FE1B
:105630000949086009E00849096848688047064840
:10564000006801F0BBFE04490860034800680028B8
:10565000F1D110BDE43800208801002010B50A48BF
:1056600001F0A6FE0949086009E008490968486890
:1056700080470648006801F0A1FE0449086003481D
:1056800000680028F1D110BDDC3800208401002022
:1056900038B50546002400BF2948C06C40F0010021
:1056A0002749C8640846C06C00F00100009000BFA4
:1056B00000BF00BF0846C06C40F00200C864084646
:1056C000C06C00F00200009000BF00BF00BF0846A1
:1056D000C06C40F00400C8640846C06C00F00400D0
:1056E000009000BF00BF00BF0846C06C40F008003B
:1056F000C8640846C06C00F00800009000BF00BFFE
:105700004FF4E06421464FF09040FEF77BF84FF6EF
:10571000B87421460B48FEF775F84FF47E742146A5
:105720000948FEF76FF84FF6047421460748FEF764
:1057300069F80348806D20F400700149886538BD20
:10574000001002400004004800080048000C004817
:1057500010B5BAB00446142135A8FAF7BEFD4421AD
:1057600024A8FAF7BAFD882102A8FAF7B6FD00BF0F
:105770004E48806D40F080504C4988650846806DE9
:1057800000F08050019000BF00BF04202490002052
:105790002E900120269024A8FFF7E0F908B1FDF72C
:1057A000A9F84FF4003002904012239002A8FEF7AF
:1057B00037FE00BF3D48C06C40F001003B49C86463
:1057C0000846C06C00F00100019000BF00BF00BFA0
:1057D0000846C06C40F00200C8640846C06C00F087
:1057E0000200019000BF00BF00BF0846C06C40F03F
:1057F0000400C8640846C06C00F00400019000BFBB
:1058000000BF00BF0846C06C40F00800C8640846EE
:10581000C06C00F00800019000BF00BF00BF084648
:10582000C06C40F01000C8640846C06C00F0100066
:10583000019000BF00BF4FF4E06035900220369029
:1058400000203790032038900B20399035A94FF075
:105850009040FEF779F84FF6B870359035A91448A6
:10586000FEF772F84FF47E70359035A91148FEF7B7
:105870006BF84FF60470359035A90F48FEF764F8C1
:105880000F20359035A90D48FEF75EF800BF074898
:10589000806D40F40070054988650846806D00F40D
:1058A0000070019000BF00BF3AB010BD0010024070
:1058B0000004004800080048000C004800100048A0
:1058C00008210268D1600168896841F0040102681A
:1058D0009160704770B50446FEF74CF9054609E043
:1058E000FEF748F9401BB0F57A7F03D90120A06389
:1058F000032070BD20688068C0F340100028EFD0FE
:105900000020F6E730B50468143454F82140D5433C
:10591000AC431C430568143545F8214030BD0000F8
:105920008168024A1140491C81607047C0FFFF7FB7
:105930000146886800F01F007047024602F16000CF
:1059400000EB8103186800F0F84070470146886852
:10595000C0F3C000704701468868C0F3400070473C
:105960000146886800F00100704701468868C0F36E
:105970000070704701468868C0F380007047014698
:10598000C86800F4406008B9012070470020FCE7B7
:105990008168024A1140091D81607047C0FFFF7F86
:1059A00070B500F11404C1F3406504EB85031C6875
:1059B000C1F304560725B540AC43C1F3045502FAC0
:1059C00005F52C431C6070BD826822F0E0720A432A
:1059D0008260704710B500F1600404EB81031C681D
:1059E00024F0004414431C6010BD000010B50248B0
:1059F000FEF77FFA10BD0000A002002010B50A4893
:105A000001F0D6FC0949086009E0084909684868BE
:105A100080470648006801F0D1FC0449086003484B
:105A200000680028F1D110BDB438002070010020BA
:105A30002DE9F84F04464FF0000972B66949206815
:105A4000084418B1B0F5C05F0AD104E066480068A8
:105A500000F4402905E06448006800F4401900E0C3
:105A600000BF00BF2068D0F808A02068D0F80CB0B4
:105A700020684569206886692068006A0090594955
:105A80002068084418B1B0F5C05F1CD10DE056483D
:105A90008838806B40F00040534988398863084655
:105AA000806B20F0004088630EE04F488838C06B60
:105AB00040F020004C498839C8630846C06B20F08C
:105AC0002000C86300E000BF00BF0DB9002E76D0F3
:105AD00044492068084418B1B0F5C05F12D108E00D
