:020000040800F2
:10000000801100207D020008F30B0008CD0B0008D2
:10001000F10B00080D030008250D0008000000008A
:100020000000000000000000000000009D0100082A
:100030000F03000800000000F9010008790C000817
:10004000970200089702000897020008970200082C
:10005000970200089702000897020008970200081C
:10006000970200089702000897020008970200080C
:1000700097020008970200089702000897020008FC
:1000800097020008970200089702000897020008EC
:1000900097020008970200089702000897020008DC
:1000A00097020008970200089702000897020008CC
:1000B00097020008970200089702000897020008BC
:1000C00097020008970200089702000897020008AC
:1000D000970200089702000897020008970200089C
:1000E000970200089702000897020008970200088C
:1000F000970200089702000897020008970200087C
:10010000970200089702000897020008970200086B
:10011000970200089702000897020008970200085B
:10012000970200089702000897020008970200084B
:10013000970200089702000897020008970200083B
:10014000970200089702000897020008970200082B
:10015000970200089702000897020008970200081B
:10016000970200089702000897020008970200080B
:10017000970200089702000897020008000000009C
:100180009702000897020008DFF80CD000F0ACF8E6
:1001900000480047950D0008801100202C4B19687D
:1001A000086800F05AB880F30988BFF36F8F4FF0EA
:1001B000000080F3118870470000000008480068C4
:1001C000006880F308884FF0000080F3148862B65E
:1001D00061B6BFF34F8FBFF36F8F00DF00BF00BF6B
:1001E00008ED00E0DFF80C00016841F470010160E7
:1001F000704700BF88ED00E0EFF30980BFF36F8F19
:10020000134B1A681EF0100F08BF20ED108A20E96A
:10021000F04F106009B44FF0500080F31188BFF325
:100220004F8FBFF36F8F01F027FC4FF0000080F37A
:10023000118809BC1968086800F014B81EF0100F86
:1002400008BF00F014B880F30988BFF36F8F7047C0
:1002500010000020EFF30580704730C8B0E8C04FB1
:10026000FFF7A1BF30C8B0E8C04FFFF7E7BFB0EC61
:10027000088AB0EC08CAFFF7E6BF000006488047CE
:1002800006480047FEE7FEE7FEE7FEE7FEE7FEE77B
:10029000FEE7FEE7FEE7FEE7E10C00088901000843
:1002A00040EA01039B0703D009E008C9121F08C0F8
:1002B000042AFAD203E011F8013B00F8013B521E78
:1002C000F9D27047D2B201E000F8012B491EFBD2EF
:1002D00070470022F6E710B513460A460446194651
:1002E000FFF7F0FF204610BD064C074D06E0E06822
:1002F00040F0010394E8070098471034AC42F6D36D
:10030000FFF746FFBC240008DC240008FEE7704726
:1003100001488068704700000000002070B50400AC
:1003200011D021684CF6CC400860216845F2555048
:100330000860D4E9000141602168A0688860FFF787
:10034000E7FF054609E0012070BD00BFFFF7E0FFB1
:10035000401B302801D9032070BD2068C0680028E8
:10036000F4D120680269E1688A4201D0016102E0AB
:100370004AF6AA210160002070BD00000248816891
:1003800042681144816070470000002010B50024CD
:10039000032000F067F80F2000F008F808B10124EE
:1003A00001E000F025F8204610BD000070B50E4EAB
:1003B00005460024706898B14FF47A71B1FBF0F0F3
:1003C0000A490968B1FBF0F000F0ECFB40B9102DD0
:1003D00006D200222946501E00F024F8356000E0C5
:1003E0000124204670BD0000000000200C00002009
:1003F0000B4882B0016E41F001010166016E01F00F
:1004000001010091816D41F080518165806D002274
:1004100000F0805000900F21901E02B000F002B852
:1004200000100240F0B40E4B1B680C46C3F30223CD
:10043000C3F10705042D00D90425191D072901D290
:10044000002300E0DB1E012606FA05F1491E2140CB
:1004500099409E40761E16403143F0BC00F063BCCC
:100460000CED00E0064900F0070208684FF6FF03B4
:10047000184040EA0220034A104308607047000019
:100480000CED00E00000FA051649B0F5007F0868A1
:10049000C0F3412009D0022805D0086820F4C060CC
:1004A00040F480600860002070470128FBD0086895
:1004B00020F4C06040F4007008600B4832220068ED
:1004C00050430A4AB0FBF2F0401C00E0401E4A696B
:1004D000520501D50028F9D148694005E3D503202C
:1004E00070470000007000400C00002040420F00E8
:1004F0000248006800F4C0607047000000700040CF
:100500002DE9F0470F46050058D0404E306800F006
:100510000700B84209D2306820F007003843306045
:10052000306800F00700B84248D12878384CC0073E
:100530002CD06868032811D0022812D0216898B105
:10054000490500293ADAA16821F003010143A160BD
:10055000FFF7DEFE804641F2883910E0216889010C
:10056000EFE721688903ECE78907EAE7FFF7D0FEA8
:10057000A0EB0801494502D90320BDE8F087A06837
:10058000696800F00C00B0EB810FEFD1287880078C
:1005900005D5A068A96820F0F0000843A060306885
:1005A00000F00700B8420BD9306820F0070038434C
:1005B0003060306800F00700B84201D00120DCE76D
:1005C0002878400705D5A068E96820F4E060084372
:1005D000A0602878000706D5A068296920F460503B
:1005E00040EAC100A06000F01BF8A168094AC1F30D
:1005F0000311515C01F01F01C8400749086007481A
:100600000068BDE8F047FFF7D1BE000000200240BF
:10061000001002407C2400080C0000200000002094
:1006200070B52549002318468A68CC6812F00C0280
:1006300004F00306214C4FEA640509D00C2A05D0CA
:10064000042A32D0082A00D1284670BD012E10D1CC
:100650000B681B0704D4D1F89430C3F3032302E0E2
:100660000B68C3F30313164E56F82330DAB10C2A85
:10067000EBD1C86800F00300022818D0032818D076
:100680001846CA68CB68C2F30212C3F30623434379
:10069000521CB3FBF2F2C868C0F34160401C40003A
:1006A000B2FBF0F070BD184670BD204670BD20460C
:1006B000E7E72846E5E70000001002400024F400C8
:1006C0008C2400082DE9F84304006ED0FD4DA86885
:1006D00000F00C06E86800F003072078C00663D538
:1006E00076B10C2E01D1012F0AD0A069002828680C
:1006F00078D040F001002860FFF70AFE80465BE0FA
:100700002868800702D5A0690028DED0216A286801
:10071000000703D5286800F0F00004E0D5F8940045
:10072000F02202EA1010814216D9084600F066FA5B
:1007300000283AD1286840F0080028602868216A1B
:1007400020F0F000084328606868E16920F47F40E9
:1007500040EA0120686015E0286840F00800286041
:100760002868216A20F0F000084328606868E16981
:1007700020F47F4040EA01206860206A00F03EFAE1
:100780000028D6D1FFF74CFFA968CF4AC1F3031167
:10079000515C01F01F01C840CC490860CC4800689A
:1007A000FFF704FE00287DD12DE0C9E0FFF7B0FD82
:1007B000A0EB0800022876D828688007F6D52868BC
:1007C00040F0080028602868216A20F0F000084303
:1007D00028606868E16920F47F4040EA0120686091
:1007E00011E0FFE720F001002860FFF791FD80464F
:1007F00006E000BFFFF78CFDA0EB08000228DAD866
:1008000028688007F6D42078C00740D0082E18D07A
:100810000C2E01D1032F14D06068B0F5803F17D0A3
:10082000B0F5A02F286817D020F480302860286801
:1008300020F4802028606068E0B1FFF769FD804601
:1008400014E02868800322D56068002878D01EE074
:10085000286840F48030EDE740F480202860F7E716
:10086000FFF756FDA0EB08006428A4D82868800391
:10087000F6D50CE0FFF74CFD804605E0FFF748FD9C
:10088000A0EB0800642896D828688003F6D4207866
:1008900080073BD5042E11D00C2E01D1022F0DD094
:1008A000E06801E03EE19FE0002828681ED040F4A7
:1008B00080702860FFF72CFD07460CE02868400593
:1008C0000CD5E0680028C1D008E000BFFFF720FD8C
:1008D000C01B022893D828684005F7D56868217C9A
:1008E00020F0F85040EA016068600FE020F480706A
:1008F0002860FFF70DFD074605E000BFFFF708FD84
:10090000C01B022870D828684005F7D4207800075B
:1009100029D560690028D5F8940012D040F0010074
:10092000C5F89400FFF7F4FC074604E0FFF7F0FC7D
:10093000C01B022858D8D5F894008007F6D512E0DD
:1009400029E120F00100C5F89400FFF7E1FC07461B
:1009500005E000BFFFF7DCFCC01B022844D8D5F837
:1009600094008007F6D42078400768D5A86D00274A
:10097000C00008D4A86D40F08050A865A86D01277C
:1009800000F08050009053480168C90512D40168F6
:10099000814641F480710160FFF7BAFC804605E0B2
:1009A000FFF7B6FCA0EB080002281DD8D9F800001C
:1009B000C005F5D5A068012817D00528D5F8900006
:1009C00018D020F00100C5F89000D5F8900020F074
:1009D000040000BFC5F89000A06841F28839D0B18A
:1009E000FFF796FC804611E06BE0D5F8900040F0F0
:1009F0000100EFE740F00400C5F89000F5E700BF04
:100A0000FFF786FCA0EB080149455AD8D5F89000BD
:100A10008007F5D50EE0FFF77BFC804606E000BFBF
:100A2000FFF776FCA0EB080149457AD8D5F890008D
:100A30008007F5D41FB1A86D20F08050A865A06A8A
:100A4000F0B30C2E75D00228286820F08070286042
:100A500004D0286810F0205F51D054E0FFF758FC14
:100A6000064604E0FFF754FC801B022859D828688A
:100A70008001F7D4D4E90B016FF00F0202EB0111F2
:100A80000843A18F5204490802EB4151626B41EACD
:100A90000221084394F840104FF07E42490802EBCF
:100AA00041610843A16B090940EA4140E9680A4AEB
:100AB00011400843E860286840F0807028600DE02D
:100AC0006BE02EE0001002407C2400080C000020A7
:100AD00000000020007000408C809DF9E86840F024
:100AE0008070E860FFF714FC044604E0FFF710FC98
:100AF000001B022815D828688001F7D54DE0E8686A
:100B000020F00300E860E86825490840E860FFF746
:100B1000FFFB044609E000BFFFF7FAFB001B0228B9
:100B200003D90320BDE8F88303E028688001F3D4EB
:100B300033E00128F6D0E868E26A00F00301914250
:100B400029D1216B00F0700209011039914222D1A4
:100B5000626B00F4FE41B1EB022F1CD1A26B00F4DA
:100B60000031072A01D0012200E00022914212D177
:100B7000A18F00F4C00249084905A1F50011914276
:100B800009D194F8401000F0C06049084906A1F16D
:100B90000071814201D00120C4E70020C2E70000BB
:100BA000FFFFEEFE10B5401EB0F1807F01D30120A3
:100BB00010BD4FF0E02460610F21601700F0B3F822
:100BC0000020A06107202061002010BDFEE700008A
:100BD00070B5054C054D02E0606880470834206818
:100BE000A842F9D070BD000094000020EFBEADDE39
:100BF000FEE770477047704700BF7047F8B51C4D5F
:100C000006460024A86DC00002D5FFF771FC0DE078
:100C1000A86D40F08050A865A86D00F0805000904D
:100C2000FFF766FCA96D21F08051A965B0F5007F42
:100C300004D0802E07D94FF003040AE0802E08D993
:100C4000A02E01D804E001D1022402E0702E00D1D0
:100C500001240848016821F0070121430160006870
:100C600000F00700A04201D00120F8BD0020F8BD2F
:100C7000001002400020024010B5FFF77FFB01F09A
:100C800045FA012803D0BDE8104000F0A1BF10BD17
:100C900010B596B044216846FFF71BFB142111A83C
:100CA000FFF717FB1820009001200024CDE906046F
:100CB0000590602008900A946846FFF703FD0F2016
:100CC000CDE9110413941494002111A81594FFF791
:100CD00017FC4FF40070FFF7D7FB16B010BD0000F3
:100CE0000D48016841F4700101600C48016841F051
:100CF00001010160002181600268094B1A40026015
:100D00008214C260026822F480220260816102497A
:100D1000C00380390860704788ED00E00010024091
:100D2000FFFFF6EAFEE70907090E002804DB00F1E1
:100D3000E02080F80014704700F00F0000F1E02080
:100D400080F8141D704702E008C8121F08C1002A6D
:100D5000FAD170477047002001E001C1121F002A3C
:100D6000FBD1704709490120096809B1002070478B
:100D700007494A6A002AF9D1044A283212680969E7
:100D8000491E8A42F3D102207047000074050020FA
:100D900010000020FFF7FAFAFFF77AFF0948084928
:100DA00001600021416040F6FF71C1608160FFF782
:100DB000B5FA00F009F8FFF70BFF00F021F8FEE7A5
:100DC000003000409C000020EFF3058058B9EFF39D
:100DD000108040B909490868022801D030B109E003
:100DE000EFF3118030B16FF005007047012008600B
:100DF000002070474FF0FF30704700006000002077
:100E000010B5EFF3058060B9EFF3108048B90B49D6
:100E10000868022802D0012806D00BE0EFF3118009
:100E200040B16FF0050010BD0220086000F0C4FD65
:100E3000002010BD4FF0FF3010BD0000600000200A
:100E40002DE9F041134C0F46054666692068001DE8
:100E500000F0B8FB681C07D137B12168BDE8F0414C
:100E60000D48091D00F0FEBB20683544B5424560C1
:100E7000216805D2A068BDE8F041091D00F0DABB89
:100E80006068091D00F0D6FB206B854200D2256307
:100E9000BDE8F081100000209C0500202DE9F04104
:100EA000054600F0EBFB2D4C2069401C20612068BA
:100EB0002B4F10B1E06930B32BE025602069012889
:100EC00027D1002606EB860007EB800000F0A4FB8C
:100ED000761C382EF6D3234800F09EFB21481430B0
:100EE00000F09AFB1F48283000F096FB1D483C306C
:100EF00000F092FB1B48503000F08EFB19486060F8
:100F00001430A06005E02068E96AC06A884200D811
:100F10002560E06A401CE0626864E86AA169884272
:100F200000D9A06100EB800007EB8000291D00F0D4
:100F300099FB00F0C3FBE06900280CD02068E96A47
:100F4000C06A884207D208494FF080500860BFF35A
:100F50004F8FBFF36F8FBDE8F081000010000020BD
:100F6000EC0000204C05002004ED00E038B500F056
:100F700085FB104CA068C8B90F4800F04DFB0E4827
:100F8000143000F049FB0C482060143060600A4BBC
:100F900000202833009003F1500210210A2000F0B5
:100FA0002DFEA06010B105A100F08EFCBDE8384018
:100FB00000F084BB4C000020B0050020546D72513D
:100FC0000000000030B4026C0B46002A0BD0C16850
:100FD0001144C1604468A14201D30168C16030BCC2
:100FE0001846FFF75DB930BC70472DE9F041856BBD
:100FF000174604460026026C82B1C7B1E068FFF7CD
:101000004FF9E168206C091AE1602268914202D22E
:101010006168081AE060022F16D017E02068A8B9AE
:10102000606801F0EBF80646002060600EE0A06802
:10103000FFF736F9216CA0680844A0606168884217
:1010400004D32068A06001E005B16D1E6D1CA5638E
:101050003046BDE8F08110B5044690F8590058B10B
:1010600001280CD002280FD0502080F31188BFF344
:101070004F8FBFF36F8FFEE7206B00F033FB2046EE
:10108000BDE8104000F02EBB10BD00000948002153
:10109000826902B101210268D26A0AB10020704758
:1010A000054A1268012AF9D80029F7D1016B406975
:1010B000081A704710000020EC0000201F4C204E42
:1010C00012E000BF00F0DAFAF068C568281D00F0F1
:1010D00079FA2069401E2061E068401EE06000F05F
:1010E000EDFA2846FFF7B7FFE0680028EAD1154877
:1010F0000068012807D914494FF080500860BFF3F9
:101100004F8FBFF36F8FFFF7C1FF0228D7D300F0D7
:10111000ABFC206B6169884207D2502080F31188B4
:10112000BFF34F8FBFF36F8FFEE7FFF7AFFF0228CC
:1011300001D300F029FB01F0DBF8C0E7100000202C
:1011400088050020EC00002004ED00E070B51D468D
:10115000049C51B1C4F80020C4E90F0101212046CC
:1011600000F080FD84F84C5070BD2460F4E72DE958
:10117000F0470E46DDE909841746824691009946FC
:10118000089DA522206BFFF79DF86FF00301206BEF
:1011900001EB8701084420F00707780707D05020AB
:1011A00080F31188BFF34F8FBFF36F8FFEE72218D4
:1011B000315C82F83410315C11B1401C1028F6D338
:1011C000002684F84360382D00D33725E562C4E952
:1011D0001356201D00F02BFA04F1180000F027FA36
:1011E0002461C5F138006462A061666584F85860C6
:1011F0004A465146384600F0CFF92060B8F1000F5A
:1012000001D0C8F80040BDE8F087000030B51149B2
:1012100000E011460A688242FBD34B685C188442A6
:1012200003D1406818444860084643681C1894423B
:1012300009D1084C103C2468A24209D052681A44D3
:1012400042600A6812680260814200D0086030BDC6
:101250000460F9E77400002070B5002441600B4D74
:101260000061914206D8D11A8269914206D2011DCD
:10127000686807E09A4203D2994201D3012403E04F
:10128000011D286800F0D6F9204670BD4C000020F2
:1012900010B5044600F0F2F9A06B28B15FF000042D
:1012A00000F00CFA204610BD0124F9E730B589B0F2
:1012B000304D55E00498002806DADDE90601059A6C
:1012C0009047049800284BDB069C606910B1201DF4
:1012D00000F078F902A800F0B9F8024604980A284C
:1012E0003ED2DFE800F00505053D263705053D2621
:1012F0000598A169034601442046FFF7ADFF00B3FE
:10130000616A20468847E069012829D100200090C1
:101310000598A169002342181946204601F07AF881
:1013200078B9502080F31188BFF34F8FBFF36F8FD0
:10133000FEE70598A06128B1811813462046FFF703
:101340008BFF0DE0502080F31188BFF34F8FBFF368
:101350006F8FFEE794F82C0010B9204600F0C2F918
:10136000002204A9A86800F0CFFD0028A2D109B08E
:1013700030BD00004C0000202DE9FC410F46054621
:1013800000F072FB01A800F061F80446019818B162
:1013900000F0AEFFBDE8FC81224EAFB1706800687E
:1013A000A8B30027291B3A46B06800F0A1FA00F064
:1013B0009FFF0028EED11C494FF080500860BFF31A
:1013C0004F8FBFF36F8FE5E7A542EBD800F090FF9A
:1013D00030682746C068C468201D00F0F3F8E06953
:1013E000012810D1A0692B4641193A462046FFF743
:1013F00033FF40B100200346014600902A462046B4
:1014000001F008F820B1616A20468847C2E707E08A
:10141000502080F31188BFF34F8FBFF36F8FFEE72B
:101420000127BFE74C00002004ED00E006484168BA
:10143000096829B14168C968C9684968016370478A
:101440004FF0FF31FAE700001000002070B50546AC
:1014500000F06AFE064E04463069844203D200F072
:1014600009F8012000E0002028602046346170BDAA
:101470004C000020F8B5194D1FE0C068C46806682C
:10148000201D00F09FF8616A20468847E069012826
:1014900013D1A0693044B04206D924616060211D97
:1014A000286800F0C7F808E00020034601460090D5
:1014B0003246204600F0AEFF38B1286801680029A6
:1014C000DBD16968C5E90010F8BD502080F31188B0
:1014D000BFF34F8FBFF36F8FFEE700004C0000207B
:1014E00008484068401C4FF0500080F3118804D039
:1014F000BFF34F8FBFF36F8FFEE7BFF34F8FBFF385
:101500006F8FFEE77C000020074C2068016841B126
:10151000C0680021D0F80000FFF72EFFFFF7C6FEDD
:10152000F3E701210020F7E74C0000202DE9F0410E
:10153000044600F0A3F894F9455004F1240609E0AC
:10154000606A48B1304600F099FE08B100F0FAF93F
:101550006D1E6DB2002DF3DC4FF0FF3684F8456050
:1015600000F0ACF800F08AF894F9445004F1100748
:1015700009E0206948B1384600F080FE08B100F06B
:10158000E1F96D1E6DB2002DF3DC84F84460BDE816
:10159000F04100F093B8000010B5031F4FF08074C5
:1015A0001C601B1F21F001011960191F044B0B6007
:1015B00014390A60091F6FF0020244380A6010BD36
:1015C000E1140008D0E9013201699A60D0E90123F1
:1015D0005A604A68824201D182684A6000220261F0
:1015E0000868401E0860086870470000034B0360ED
:1015F00003F15C000860802010607047C80600207E
:10160000044B036003F15C0008604FF480701060CD
:10161000704700002409002000F108014FF0FF325C
:10162000C0E90112C1600161002101607047002121
:101630000161704730B50B685A1C02D000F10802F6
:1016400002E0026904E02246546825689D42FAD906
:1016500053684B6099608A60516008610168491C59
:10166000016030BD42684A6093688B60936859603E
:10167000916008610168491C01607047502080F347
:101680001188BFF34F8FBFF36F8F0A494868401C22
:10169000486001280CD10848006810F0FF0F07D0FF
:1016A000502080F31188BFF34F8FBFF36F8FFEE799
:1016B000704700007C00002004ED00E00849486805
:1016C00028B1401E486001D180F311887047502036
:1016D00080F31188BFF34F8FBFF36F8FFEE70000D9
:1016E0007C00002070B5002827D0144DA0F108041C
:1016F0006168E868014207D1502080F31188BFF388
:101700004F8FBFF36F8FFEE722683AB1502080F30E
:101710001188BFF34F8FBFF36F8FFEE78143616086
:1017200000F0A2F960686968084468602046FFF725
:101730006DFDBDE8704000F0DBBD70BD64000020B1
:101740000F4810B501684FF47A72B1FBF2F30D48FF
:101750006FF07F448360B4FBF3F3C360B1FBF1F33C
:101760002D24B4FBF3F303614FF0E0200023036169
:101770008361B1FBF2F1491E41610721016110BD96
:101780000C0000207C000020F1B5394D82B0029998
:10179000E868814200D902904FF0E024206920F0EF
:1017A00001002061A1690298AA68401E02FB001690
:1017B0002869864200D9361A72B6BFF34F8FBFF33D
:1017C0006F8FFFF7CFFA98B366610027A761206992
:1017D00040F001002061029800906846FFF70BFA84
:1017E000009820B1BFF34F8F30BFBFF36F8F02A8B7
:1017F000FFF700FA62B6BFF34F8FBFF36F8F72B679
:10180000BFF34F8FBFF36F8F062020612069C003A5
:1018100016D5A0692A69311AA868411A491E914251
:1018200001D3814200D9411E61610298401E12E03D
:10183000FFE7A0696061206940F00100206111E0CC
:101840000298AA68A1695043411AB1FBF2F0431C07
:101850005343591A6161A761216941F00101216176
:1018600000F0EEF8A868401E606162B6FEBD0000A0
:101870007C00002010B5FEF7EDFC114910280ED3B6
:1018800000F1E02090F8F0030A78904207D250204F
:1018900080F31188BFF34F8FBFF36F8FFEE70948C6
:1018A0000068496900F4E060884207D9502080F35D
:1018B0001188BFF34F8FBFF36F8FFEE710BD00009D
:1018C0007C0000200CED00E010B5084B002200BFAA
:1018D00053F832401CB1521C082AF9D310BD43F80A
:1018E000321003EBC201486010BD0000AC000020C4
:1018F00070B515460E460446FFF7C0FE94F9441035
:101900000020491C01D184F8440094F94510491C79
:1019100001D184F84500FFF7D1FEA06B28B92A4613
:10192000314604F1240000F02BF82046BDE8704059
:10193000FFF7FCBD02498A6A02604969416070474D
:10194000100000200149012048627047100000206B
:1019500010B50C4650B1094909681831FFF76AFE05
:101960002046BDE810400121FFF76ABA502080F3FD
:101970001188BFF34F8FBFF36F8FFEE71000002079
:1019800070B514460D4668B10A4909681831FFF769
:1019900069FE0CB14FF0FF3521462846BDE8704086
:1019A000FFF74EBA502080F31188BFF34F8FBFF37B
:1019B0006F8FFEE71000002030B587B0002403943D
:1019C00005AA04A903A80494FFF710FEDDE90301AA
:1019D0000094CDE90110002315A11748059A00F0E5
:1019E00069FB164D002868631FD000F0E3FC012856
:1019F00009D0401C19D1502080F31188BFF34F8FBC
:101A0000BFF36F8FFEE7502080F31188BFF34F8F35
:101A1000BFF36F8F4FF0FF3028630120E8616C61E6
:101A200007B0BDE8304000F059B807B030BD000045
:101A300049444C4500000000BD1000081000002083
:101A400008494A690B6B02449A4207D9502080F337
:101A50001188BFF34F8FBFF36F8FFEE74A691044C1
:101A600048617047100000200248816B491C816367
:101A70007047000010000020164810B5816B11B1AE
:101A80000121416210BD002141628169124A01E0D9
:101A9000B9B1491E01EB810352F82330002BF7D076
:101AA00001EB810302EB830202F1080453685B68D7
:101AB0005360A34201D15B685360DA6802608161C0
:101AC00010BD502080F31188BFF34F8FBFF36F8F8D
:101AD000FEE7000010000020EC0000201CB5374895
:101AE0000168374A914207D1502080F31188BFF333
:101AF0004F8FBFF36F8FFEE700683149491E884260
:101B000007D1502080F31188BFF34F8FBFF36F8F41
:101B1000FEE72C4908780190FF20087008788DF8BE
:101B200000009DF800009DF8002000F0F0009042B9
:101B300007D0502080F31188BFF34F8FBFF36F8F12
:101B4000FEE79DF80000204C00F0500020700720B8
:101B5000606105E09DF8002052008DF80020401ED5
:101B60009DF800201206F5D46061032807D05020AC
:101B700080F31188BFF34F8FBFF36F8FFEE74FF4F1
:101B800040706061019808700C482030016841F491
:101B900070010160016841F070410160FFF7D0FD04
:101BA00000206060FEF71EFB0848016841F04041DC
:101BB0000160FEF703FB00201CBD000000ED00E00B
:101BC00071C20F4100E400E07C00002034EF00E02F
:101BD00010B5502080F31188BFF34F8FBFF36F8F84
:101BE00000F0A8FA18B104494FF0805008600020B6
:101BF00080F3118810BD000004ED00E038B5049DAD
:101C000018B153B1CAB181B120E0502080F31188DE
:101C1000BFF34F8FBFF36F8FFEE7502080F3118823
:101C2000BFF34F8FBFF36F8FFEE7502080F3118813
:101C3000BFF34F8FBFF36F8FFEE739B1502080F3B2
:101C40001188BFF34F8FBFF36F8FFEE750241C4600
:101C5000012384F846302B460094FFF777FA20469C
:101C600038BD000070B50D46040025D0FFF706FD15
:101C7000D4E90F20216802FB001161600021A163FB
:101C80002168A1600A46D4E90F01401E00FB012132
:101C9000E16021464FF0FF3001F8440F487004F135
:101CA00010008DB1FFF7B8FC04F12400FFF7B4FC7D
:101CB000FFF704FD012070BD502080F31188BFF3B1
:101CC0004F8FBFF36F8FFEE721690029F0D000F03E
:101CD000D5FA0028ECD004494FF080500860BFF3DB
:101CE0004F8FBFF36F8FE3E704ED00E02DE9FF476F
:101CF00082B01D468A464FF00008040003D0BAF1B6
:101D0000000F08D011E0502080F31188BFF34F8FEF
:101D1000BFF36F8FFEE7206C38B1502080F311883D
:101D2000BFF34F8FBFF36F8FFEE7022D0AD1E06B39
:101D3000012807D0502080F31188BFF34F8FBFF3E5
:101D40006F8FFEE700F0E2F93F4F4FF000094FF0D0
:101D5000805648B9049838B1502080F31188BFF3F9
:101D60004F8FBFF36F8FFEE7FFF788FCA06BE16B2F
:101D7000884207D3022D05D00498D0B1B8F1000FE6
:101D80001AD01EE02A4651462046FFF72EF9616A16
:101D900019B104F1240000F071FA20B13E60BFF3E4
:101DA0004F8FBFF36F8FFFF789FC012006B0BDE8AE
:101DB000F087FFF783FC22E06846FFF7BBFD4FF09A
:101DC0000108FFF77BFCFFF74FFEFFF757FC94F984
:101DD0004400401C01D184F8449094F94500401C13
:101DE00001D184F84590FFF769FC04A9684600F02A
:101DF00027F930B12046FFF799FB00F079FA00206F
:101E0000D4E7FFF73BFCA06BE16B884213D1FFF7EF
:101E100055FC04F110000499FFF79AFD2046FFF7E6
:101E200085FB00F065FA00289ED13E60BFF34F8F1E
:101E3000BFF36F8F98E7FFF741FC2046FFF776FB73
:101E400000F056FA90E7000004ED00E02DE9F047BD
:101E50001F4690468946040003D0B9F1000F08D010
:101E600011E0502080F31188BFF34F8FBFF36F8FC5
:101E7000FEE7206C38B1502080F31188BFF34F8FFC
:101E8000BFF36F8FFEE7022F0AD1E06B012807D066
:101E9000502080F31188BFF34F8FBFF36F8FFEE7A1
:101EA000FFF7E8FC5020EFF3118680F31188BFF3B1
:101EB0004F8FBFF36F8FA06BE16B884206D3022F69
:101EC00004D0002086F31188BDE8F08794F94550CE
:101ED0003A4649462046FFF788F8681C04D06D1C36
:101EE00084F845500120EDE7606A0028FAD004F13B
:101EF000240000F0C3F90028F4D0B8F1000FF1D0AD
:101F00000121C8F80010EDE72DE9F747002683B05E
:101F10008A46040003D0BAF1000F08D011E0502027
:101F200080F31188BFF34F8FBFF36F8FFEE7206CF4
:101F300038B1502080F31188BFF34F8FBFF36F8FFC
:101F4000FEE700F0E3F8DFF8F4804FF000094FF00F
:101F5000805748B9059838B1502080F31188BFF3F5
:101F60004F8FBFF36F8FFEE7FFF788FBA56BC5B1FF
:101F700051462046FFF726F86D1EA563206950B133
:101F800004F1100000F07AF928B1C8F80070BFF32E
:101F90004F8FBFF36F8FFFF791FB012006B0BDE8B5
:101FA000F087059808B11EB106E0FFF787FB27E030
:101FB0006846FFF7BFFC0126FFF780FBFFF754FDE3
:101FC000FFF75CFB94F94400401C01D184F8449075
:101FD00094F94500401C01D184F84590FFF76EFB51
:101FE00005A9684600F02CF8002820460AD0FFF723
:101FF0009DFA00F07DF92046FFF74AF90028B3D09A
:102000000020CBE7FFF744F990B104F124000599D3
:10201000FFF79EFC2046FFF789FA00F069F90028D7
:10202000A2D1C8F80070BFF34F8FBFF36F8F9BE74B
:102030002046FFF77BFA00F05BF995E704ED00E03E
:102040002DE9F0410C46050011D0C4B1FFF716FB95
:10205000174B5A696E682068911B471C17D02F6870
:102060009B6A9F4219D0964217D8012410E0502055
:1020700080F31188BFF34F8FBFF36F8FFEE75020BF
:1020800080F31188BFF34F8FBFF36F8FFEE70024FB
:10209000FFF714FB2046BDE8F081884205D9401ABD
:1020A00020602846FFF746FCF1E700202060DCE7CF
:1020B00010000020F0B585B0DDE90B640A9DA6B1E3
:1020C000DCB15C2700972663022684F8596000265D
:1020D00004AFCDE90246CDE90057FFF748F82046A6
:1020E000FEF7DCFE049805B0F0BD502080F31188A7
:1020F000BFF34F8FBFF36F8FFEE7502080F311883F
:10210000BFF34F8FBFF36F8FFEE700000548C16933
:1021100019B1806B18B10020704701207047022070
:10212000704700001000002001484069704700001F
:10213000100000202DE9F0412E4C0027A06B40B18B
:10214000206A401C2062606A00B101273846BDE861
:10215000F0816669761C666113D16068006838B1E9
:10216000502080F31188BFF34F8FBFF36F8FFEE7CE
:102170006068A1686160A060A06A401CA062FFF76F
:1021800055F9206BDFF87080864209D360680068DB
:1021900080B16068C068C568686886420DD22063F7
:1021A0002068C06A00EB800158F821000128CAD9D4
:1021B0000127C8E74FF0FF30F1E7281DFFF702FACB
:1021C000A86A18B105F11800FFF7FCF9E86AA169DF
:1021D000884200D9A06100EB800108EB8100291D35
:1021E000FFF740FAE86A2168C96A8842CED301271E
:1021F000CCE7000010000020EC00002070B50400C7
:102200004FF0000133D01B4D2868844207D0502086
:1022100080F31188BFF34F8FBFF36F8FFEE7206D00
:1022200038B1401E2065E36CE26A9A421FD040B18B
:102230001DE0502080F31188BFF34F8FBFF36F8FE5
:10224000FEE7201DFFF7BEF9E06CE062C0F1380048
:10225000A061E06AA969884200D9A861064900EB3B
:10226000800001EB8000211DFFF7FCF901210846E9
:1022700070BD000010000020EC00002070B5C068A8
:10228000C46854B104F118000646FFF79BF9154DD8
:10229000A86B50B13146144815E0502080F31188E6
:1022A000BFF34F8FBFF36F8FFEE7201DFFF78AF953
:1022B000E06AA969884200D9A8610C4900EB800056
:1022C00001EB8000211DFFF7CDF9E06A2968C96A9A
:1022D000884202D901246C6200E00024FFF7A6F8CE
:1022E000204670BD1000002074050020EC00002086
:1022F0002DE9F0472C4D00242746A86B38B1FFF795
:10230000BDF9A86B401EA863A86B40B146E0502001
:1023100080F31188BFF34F8FBFF36F8FFEE72969FA
:10232000224E0120D1B3A6F5916980463068E0B114
:10233000F068C46804F11800FFF744F9201DFFF7A6
:1023400041F9E06AA969884200D9A86100EB8001DF
:1023500009EB8100211DFFF785F9E06A2968C96A48
:102360008842E3D3C5F82480E0E70CB1FFF75EF8BC
:102370002C6A4CB14FEA0806FFF7DCFE00B16E6232
:10238000641EF9D100202862686A38B10849012723
:1023900038070860BFF34F8FBFF36F8FFFF78EF9D9
:1023A0003846BDE8F08700001000002074050020CA
:1023B00004ED00E010B586B0FEF7D8FD114CA06822
:1023C000B8B100200390049005AA04A903A8FFF760
:1023D00017F9DDE9032102208DE8070000230AA197
:1023E0000B48059AFFF766FEE06010B106B00120C9
:1023F00010BD502080F31188BFF34F8FBFF36F8F54
:10240000FEE700004C000020546D722053766300FC
:10241000091500082DE9FF411E46134602000A9DDA
:102420004FF0000016D0144CA768002F0FD0CDE954
:1024300000130292062917DAFFF768FE02284FF010
:1024400000030FD000226946A068FFF74FFC04B0DC
:10245000BDE8F081502080F31188BFF34F8FBFF3A8
:102460006F8FFEE72A46EEE700233246694638467C
:10247000FFF7ECFCEBE700004C0000200000000040
:10248000000000000102030406070809A0860100FD
:10249000400D0300801A060000350C0040420F007A
:1024A00080841E0000093D0000127A000024F40020
:1024B00000366E010048E801006CDC02DC240008F4
:1024C000000000209C000000460D00087825000850
:1024D0009C000020E4100000560D000810000000D1
:1024E000010000000000000000093D0000000000A5
:1024F00000000000000000000000000000000000DC
:1025000000000000000000000000000000000000CB
:1025100000000000000000000000000000000000BB
:1025200000000000000000000000000000000000AB
:10253000000000000000000000000000000000009B
:10254000000000000000000000000000000000008B
:10255000000000000000000000000000AAAAAAAAD3
:10256000000000000000000000000000000000006B
:08257000EFBEADDEF90B00081F
:040000050800018965
:00000001FF
